:020000022000DC
:1060000000F0002035620200656202006762020053
:10601000696202006B6202006D6202000000000013
:106020000000000000000000000000006F6202009D
:1060300071620200000000007362020075620200DB
:10604000796202007B6202007DB103007F62020080
:106050008162020083620200F97F0200B9AB030093
:10606000896202008B620200E96C03008F62020009
:106070009162020093620200956202009762020040
:10608000996202005DA5030025CA02009F6202001A
:1060900085A50300A36202000D9B0300A762020016
:1060A000A9620200AB620200AD620200AF620200B0
:1060B000B1620200B36202007762020077620200FE
:1060C000B5620200B7620200B9620200BB62020060
:0C60D000BD620200BF620200C16202005B
:1060DC00354936480A1A02D0072291438D46344975
:1060EC0034480A1A06D00722914381F30988022208
:1060FC0082F3148830483149314A00F043F8314872
:10610C003149324A00F03EF831483249324A00F007
:10611C0039F832483249334A00F034F832483349BE
:10612C00334A00F02FF833483349344A00F02AF848
:10613C0033483449344A00F025F8344834490022B5
:10614C0000F02BF833483449002200F026F833488D
:10615C003349091A082903DB00220260043001606C
:10616C001F482049884205D00268043003B4904788
:10617C0003BCF7E700208646EC4600200021294AA4
:10618C009047FEE7884207D0521A05D003780130B9
:10619C000B700131013AF9D17047884202D002707C
:1061AC000130FAE77047000000F0002000E8002002
:1061BC0000F0002000F0002040280400C83200202D
:1061CC00AC340020C4620200C4620200740C0400EF
:1061DC0040280400C8320020C8320020A40C04005F
:1061EC00A40C0400A40C0400A40C0400A40C0400D3
:1061FC00A40C0400A40C0400A40C0400402804000B
:10620C00242A0400AC340020AC340020AC34002030
:10621C00866C0020886C0020886C0020886C002024
:10622C0088700020497B020008484FF00701884322
:10623C008546074880470748016841F470010160B2
:10624C00BFF34F8FBFF36F8FFFF742BF00F00020FB
:10625C0065A9030088ED00E0FEE7FEE7FEE7FEE738
:10626C00FEE7FEE7FEE7FEE7FEE7FEE7FEE7FEE7FA
:10627C00FEE7FEE7FEE7FEE7FEE7FEE7FEE7FEE7EA
:10628C00FEE7FEE7FEE7FEE7FEE7FEE7FEE7FEE7DA
:10629C00FEE7FEE7FEE7FEE7FEE7FEE7FEE7FEE7CA
:1062AC00FEE7FEE7FEE7FEE7FEE7FEE7FEE7FEE7BA
:0862BC00FEE7FEE7FEE700BF6C
:1062C40041DF704776DF70477ADF70477CDF7047C5
:1062D400154B1B78B3B910B4144B9C78124B1C703B
:1062E400114B1B78934205D9012806D10F4B198015
:1062F4000D4B1A705DF8044B70470C4B19800A4B18
:106304001A70F7E7084B1B7893420BD9012804D184
:10631400064B1980044B1A707047044B1980024BCA
:106324001A707047704700BFC934002070360020CF
:1063340008B505F0EFF908BD00B583B09DF8043049
:10634400012262F3030362F3071302A800F8043D79
:106354000A220549FFF7BAFF10B903B05DF804FB40
:1063640012F07BFFF9E700BF540F040008B512F0E8
:1063740074FF08BD00B583B0037823B1012B0BD0A3
:1063840003B05DF804FB3B214088FFF79BFF002826
:10639400F6D012F062FFF3E70A4B1B6813F4804F48
:1063A400EED0094B1B68032BEADD084BD3F8043508
:1063B400074A00924FF44A720649042007F076FB1C
:1063C400DEE700BFBC330020B833002000B000403B
:1063D400741104006C1104000D4B1B6813F4804FFE
:1063E40003D00C4B1B68032B00DC704700B583B053
:1063F400094BD3F804350192084A009240F28D22E9
:106404000749042007F052FB03B05DF804FB00BF0A
:10641400BC330020B833002000B00040380F040023
:106424006C11040000B583B0012933D0B1B1022945
:106434004AD0324B1B6813F4804F1BD0304B1B687F
:10644400002B17DD2F4BD3F804352F4A00924FF45D
:106454001D722E49012007F029FB0BE0274B1B6816
:1064640013F4804F03D0264B1B68032B05DC284B09
:1064740000221A7003B05DF804FB224BD3F80435F4
:106484000192244A009240F25E222049042007F03F
:106494000DFBECE7194B1B6813F4804F03D0184B2A
:1064A4001B68032B03DC1A4B00221A70E2E7154B1E
:1064B400D3F804350192184A009240F26622134937
:1064C400042007F0F3FAEEE70C4B1B6813F4804F3B
:1064D4000FD00B4B1B68012B0BDD0A4BD3F8043593
:1064E40001920E4A009240F26D220849022007F000
:1064F400DDFA074B00221A70BCE700BFBC33002052
:10650400B833002000B00040240F04006C110400D4
:1065140020360020C80E0400E40E0400000F04001E
:106524000C4B1B6813F4804F13D00B4B1B68002BD0
:106534000FDD00B583B0094BD3F80435084A009247
:1065440040F255220749012007F0B0FA03B05DF884
:1065540004FB7047BC330020B833002000B0004077
:10656400A80E04006C11040000B58BB00023ADF834
:1065740008307823ADF80430C823ADF806304FF462
:10658400C873ADF80A3001A8FFF79EFEC0B9002316
:106594000693079301AB039340F6CD4304934FF462
:1065A4008033059303238DF81830084B0893084B68
:1065B400099303A813F0BEFC28B90BB05DF804FBE3
:1065C40012F04BFEE3E712F048FEF6E779630200AF
:1065D4007163020010B582B00C460E4B1B6813F4B5
:1065E400804F03D00C4B1B68032B06DC2246012191
:1065F4000A481AF061F802B010BD094BD3F804350B
:106604000191084A009240F286220749042007F0CB
:106614004DFAEBE7BC330020B833002004360020E9
:1066240000B00040380F04006C11040010B584B0B1
:106634001446104B1B6813F4804F03D00E4B1B6899
:10664400032B08DC234601220C4909780C4819F075
:106654007FFF04B010BD0B4BD3F8043502920191B7
:10666400094A00924FF420720849042007F01EFAE8
:10667400E8E700BFBC330020B8330020AC3400206E
:10668400AC35002000B00040040D04006C1104007F
:1066940030B583B005460C4602A94FF6FF7321F8C6
:1066A400023D20460CF018FCBDF806000EF08CFDEF
:1066B40048B90DF1060128460EF034FD034630B109
:1066C400184603B030BD784601F01CFEF1E7BDF872
:1066D400061020460CF0D0FB0346F1E700B583B06A
:1066E4000F4B1B6813F4804F03D00E4B1B68032B16
:1066F4000ADC0322C8214FF4F01001F0FFFB09F07B
:1067040033FD03B05DF804FB074BD3F80435074AA7
:1067140000924FF425720649042007F0C7F9E8E710
:10672400BC330020B833002000B00040EC1004005B
:106734006C11040008B503781C2B00D008BDFFF7CA
:10674400CDFFFBE700B583B001A80EF0DDFCBDF87A
:10675400040003B05DF804FB2DE9F04188B004AFF8
:106764006421414801F066FB09F0F4FCE8B93F4BB1
:106774001B7833BB3E4A3B1D07CA83E80700184613
:1067840001F0F2FAB8B901F007FE3A4B1B6813F4B2
:10679400804F59D0384B1B68032B55DDE8468AB02F
:1067A4000DF1100C6646002339E0344A40F22951B9
:1067B40014F0F2F9DBE7314A40F2345114F0ECF909
:1067C400E1E7FFF7BFFF2E4B98802E4B01221A7092
:1067D400284B1B6813F4804FD5D0274B1B68032B21
:1067E400D1DD294BD3F804350190284A009240F2B8
:1067F40039522749042007F059F9C4E7C25C4FEA2B
:10680400121E5900234C256815F80EE006F813E013
:1068140002F00F0201312468A25C725401330F2B81
:10682400ECD900238CF82030174BD3F80435CDF87D
:1068340008C0194A0192194A009240F23D52144983
:10684400042007F033F9C54600214FF4F01001F09D
:1068540049FB0222C8214FF4F01001F04FFB10371E
:10686400BD46BDE8F08100BF356B02000036002054
:10687400A40C0400BC330020B83300200811040029
:10688400703600206C36002000B000404412040032
:106894006C110400C03300205C1204006C1204006C
:1068A40000B583B0214B1B6813F4804F03D0204BF9
:1068B4001B68032B21DCFFF73FFDFFF755FEFFF7B5
:1068C40041FF1C4B98801C4B01221A70174B1B680C
:1068D40013F4804F03D0164B1B68032B19DC0021E3
:1068E4004FF4F01001F0FEFA0422C8214FF4F01026
:1068F40001F004FB03B05DF804FB104BD3F804353E
:106904000F4A00924FF48B720E49042007F0CEF820
:10691400D1E70A4BD3F8043501900B4A009240F2B8
:1069240021120849042007F0C1F8D8E7BC3300203D
:10693400B8330020703600206C36002000B00040D0
:10694400A01104006C1104004412040030B583B09B
:106954000446694B1B6813F4804F03D0674B1B68D4
:10696400032B08DC664B1B8893B1032C1BD8DFE890
:1069740004F0141C207F634BD3F804350190624A61
:1069840000924FF429726149042007F08FF8E9E777
:10699400FFF7D8FE5A4B1880E7E7594B1A880121B4
:1069A4005B4819F089FE03B030BD594819F0D6FE92
:1069B400F9E7584B1B78002B40D0574D294600204F
:1069C40014F07AFA4E4B1B8801222978534819F0A7
:1069D400BFFD054640B9484B1B6813F4804F03D0F4
:1069E400464B1B68032B33DC112D7BD801A353F8D2
:1069F40025F000BFAB690200E96A0200E96A0200FF
:106A0400E96A02007F6A0200E96A0200E96A020098
:106A1400B96A02007F6A0200E96A0200E96A0200B8
:106A2400E96A0200E96A0200E96A0200E96A02000E
:106A3400E96A0200E96A02007F6A0200354B01221A
:106A44001A70364B19884FF48170FFF721FEB4E7B2
:106A54002C4BD3F80435304AB2F900200192304A65
:106A640000924FF432722949042007F01FF8BBE763
:106A740009F020FBFFF732FE95E71F4B1B6813F468
:106A8400804F03D01D4B1B68032B06DC06223221EA
:106A94004FF4F01001F032FA85E71A4BD3F80435BD
:106AA4000194204A009240F2DE221849042006F0A4
:106AB400FDFFEBE7104B1B6813F4804F3FF473AFFB
:106AC4000E4B1B68032B7FF76EAF0E4BD3F80435C8
:106AD4000194154A009240F2EA220C49042006F07F
:106AE400E5FF60E7002D3FF45EAF104A40F2EE216F
:106AF400284614F051F856E7BC330020B833002080
:106B04006436002000B00040480D04006C110400FD
:106B1400043600204B330020AC340020AC35002078
:106B24005C0D0400740D0400980D040008110400A9
:106B34003038032800D9704708B5FFF707FF08BDB0
:106B4400F0B587B005460C4616465B4B1B881BB94F
:106B5400FFF7F8FD584B188000273B461BE0574AC7
:106B640032F81720B24214D1554B1B6813F4804FEE
:106B740076D0544B1B68032B74DD534BD3F8043588
:106B8400524A00924FF49F725149042006F08EFF3E
:106B940001230137FFB24F4A1278BA42DFD23BBB1E
:106BA400464B23F812600132D3B24A4A13704A4A60
:106BB400B2F90020993A0A2192FBF1F253FA82F2D7
:106BC400D2B2464BDA703E4B1B6813F4804F0FD0A1
:106BD4003C4B1B68032B0BDD3B4BD3F80435019274
:106BE4003F4A00924FF4A6723949042006F05EFF32
:106BF400394BB3F90030B42B4CDD3A4B1B7A002BE4
:106C040048D0364B9B78A3422ED2344B9C701D80C7
:106C1400324AD3789278934230D9304A93701680AE
:106C2400274B1B6813F4804F18D0264B1B68032B8B
:106C340014DD254BD3F80435284A11889078D2788E
:106C440004921D4A1288039202900191264A0092EE
:106C54004FF4C1721E49042006F028FF07B0F0BDAE
:106C6400012396E7012394E7A342D1D11B4B1B8850
:106C7400AB42CDD9194B9C701D80C9E79342CFD14B
:106C8400164A12880C4909888A42C9D9134A937052
:106C94001180C5E7114B9B78A34203D20F4B9C7024
:106CA4001D80BDE7A342BBD10C4B1B88AB42B7D9B7
:106CB4000A4B9C701D80B3E76E360020B034002070
:106CC400BC330020B833002000B00040140E040090
:106CD4006C110400C8340020AC340020C4340020FB
:106CE400280E040070360020500E040010B584B045
:106CF400214B1B6883B1214A1168214BA3FB01037B
:106D04005B0803EB4303CB1A136053B11B4A1368AC
:106D14000133136004B010BDFFF714FD164B186067
:106D2400E9E7184C2146002014F0C6F8124B1B88E2
:106D340001222178144819F00BFCC0B20028E5D1D7
:106D4400124B1B6813F4804FE0D0114B1B68032BCC
:106D5400DCDD104BD3F804350F4A12880292B4F9E3
:106D6400002001920D4A009240F261320C49042045
:106D740006F09CFECAE700BF683600207C3600207F
:106D8400ABAAAAAAAC340020AC350020BC33002046
:106D9400B833002000B0004070360020240D0400F9
:106DA4006C11040008B500224FF4A021034813F02D
:106DB40031FC08B112F051FA08BD00BFE0350020E3
:106DC40070B588B004460D462E4B01221A702E4829
:106DD4000FF0F0FC601CC0B22C4B18775D772C4B85
:106DE40098702C4B1B6813F4804F19D02A4B1B68E6
:106DF400032B15DD294BD3F80435244A117E547E28
:106E0400967ED27E06950590049203960294019193
:106E1400234A009240F2F6322249042006F046FE4C
:106E24001E2119480FF0EFFC0646C8B1174C0FCCD1
:106E3400C6F81100C6F81510C6F81920C6F81D309A
:106E440007CCC6F82100C6F82510C6F829202388E7
:106E5400A6F82D30FF23337131460B480FF012FD95
:106E6400114B1B7843B9114B1B78032B04D10E4BE8
:106E740001221A70FFF796FF0C4A1378013313703E
:106E840008B070BDAE34002010350020CC32002094
:106E940070360020BC330020B833002000B000401E
:106EA400C00C04006C110400CB340020CC3400204E
:106EB40008B500224FF42031034813F0ABFB08B1AE
:106EC40012F0CBF908BD00BF4436002038B50D469A
:106ED4001446094B1B7823B9074B01221A70FFF79C
:106EE400E7FF064B1B78A34204D9044B1C70044BE8
:106EF4009C711D8038BD00BFCA3400204A33002075
:106F040070360020704B1B78002B00F0008270B5A7
:106F140084B0044643685A7AE22A14D063685A7AE1
:106F2400882A2CD063685A7A022A00F08380636826
:106F34005A7AF82A00F0E08063685A7A382A00F016
:106F4400608104B070BD9A7A1F2AE7D1DA7AC42A24
:106F5400E4D11A7B9B2AE1D15A7BDA2ADED15B7F0A
:106F6400002BDBD1594B1B78002BD7D10121574B78
:106F74001970574B9A88574819F09EFBCEE79A7AB6
:106F84001B2ACFD1DA7AA12ACCD11A7BB42AC9D14F
:106F94005A7B2E2AC6D19A7B122AC3D1DA7B672A5E
:106FA400C0D11A7C212ABDD15A7C582ABAD19A7CE4
:106FB400C82AB7D1DA7C572AB4D11A7D6A2AB1D14A
:106FC4005A7DAB2AAED19A7D7A2AABD1DA7DA92A31
:106FD400A8D1414A1278022AA4D0032AA2D0042AB2
:106FE400A0D01A7EAAB95A7E0C2A12D19A7E022AFD
:106FF4000FD1DA7E0C2A0CD1597F384B1B78994279
:1070040007D9364B1970364B18780138C0B2FFF7E0
:10701400D7FE6368187F324A1278904282D8304A89
:107024001070597F2D4B1970294B01221A72FFF7EA
:10703400C7FE77E79A7A562A7FF479AFDA7AF62A86
:107044007FF475AF1A7BDE2A7FF471AF5A7BDE2A98
:107054007FF46DAF5A7E002A7FF469AF9A7E0C2AC2
:107064007FF465AFDA7E022A7FF461AF1A7F0C2ABF
:107074007FF45DAF184A1278022A7FF458AF9A7BE6
:10708400DD7B45EA02255A7C9E7C46EA0226154BA6
:107094001B6813F4804F10D0134B1B68032B0CDDBB
:1070A400124BD3F8043502960195114A009240F22E
:1070B40009221049042006F0F9FC63683246197C61
:1070C4002846FFF73DFD32E76C36002020360020CD
:1070D4007036002004360020AE3400206D360020C7
:1070E400C8320020BC330020B833002000B0004078
:1070F400BC1104006C1104009A7A442A7FF41CAF7A
:10710400DA7A7E2A7FF418AF1A7B272A7FF414AF29
:107114005A7B702A7FF410AF9A7BCC2A7FF40CAF91
:10712400DA7B642A7FF408AF1A7CD82A7FF404AF90
:107134005A7C352A7FF400AF9A7CBB2A7FF4FCAEDC
:10714400DA7C0C2A7FF4F8AE1A7DE02A7FF4F4AEE0
:107154005A7E9D7E45EA02255A7D2ABB9A7D0C2AD9
:1071640022D1DA7D022A1FD11B7E0C2B1CD1684B45
:107174001B78032B18D0674B1B6813F4804F0ED079
:10718400654B1B68032B0ADD644BD3F80435644A52
:10719400009240F223226349042006F087FC002277
:1071A40029460120FFF792FE63685A7D72B99A7DE1
:1071B4000C2A0BD1DA7D022A08D11B7E0C2B3FF45A
:1071C400BBAE534B1B78032B7FF4B6AE514B1B68FD
:1071D40013F4804F0ED0504B1B68032B0ADD4F4B2A
:1071E400D3F80435504A009240F22A224D49042033
:1071F40006F05CFC6368DA7E29460120FFF768F834
:107204009AE69A7A322A7FF49CAEDA7A892A7FF453
:1072140098AE1A7BBF2A7FF494AE5A7BDE2A7FF4A1
:1072240090AE9A7BC22A7FF48CAEDA7B712A7FF40B
:1072340088AE1A7C842A7FF484AE5A7C4A2A7FF46E
:1072440080AE9A7C472A7FF47CAEDA7C242A7FF4D1
:1072540078AE1A7D822A7FF474AE5A7E9D7E45EA0A
:1072640002255A7D32BB9A7D0C2A23D1DA7D022A6B
:1072740020D11B7E0C2B1DD1254B1B78032B19D041
:10728400244B1B6813F4804F0ED0234B1B68032B35
:107294000ADD224BD3F80435244A009240F24222FC
:1072A4002049042006F002FC6368DA7E29460120A6
:1072B400FFF70CFE63685A7D72B99A7D0C2A0BD1D4
:1072C400DA7D022A08D11B7E0C2B3FF43AAE104B18
:1072D4001B78032B7FF435AE0E4B1B6813F4804FE1
:1072E4000ED00D4B1B68032B0ADD0C4BD3F8043571
:1072F4000F4A009240F249220A49042006F0D6FBC4
:1073040063681A7F29460220FEF7E2FF19E67047F8
:10731400AE340020BC330020B833002000B000405D
:10732400E41104006C110400FC11040014120400A4
:107334002C12040008B500224FF4F011034813F096
:1073440069F900B908BD11F088FFFBE7B8350020E2
:1073540008B500224FF42031034813F05BF900B95B
:1073640008BD11F07AFFFBE72436002000B583B096
:10737400414B1B6813F4804F03D0404B1B68032B15
:107384003EDC3F483F4B4360012119F0C3F800281D
:1073940042D13B4B18880BF08DFE002842D13A486D
:1073A4003A4B4360022119F0E9F9002840D1364BE9
:1073B40018880BF07FFE002840D13548354B4360D8
:1073C400304B8360012119F053F900283CD1304B34
:1073D40018880BF06FFE00283CD12F482F4B836098
:1073E4002F4B4360022119F047FA002838D12A4B69
:1073F40018880BF05FFE002838D103B05DF804FB59
:10740400284BD3F80435284A00924FF44072274998
:10741400042006F04BFBB4E7254A40F2053113F093
:10742400BBFBB6E7224A40F2063113F0B5FBB6E7E0
:107434001F4A40F20B3113F0AFFBB8E71C4A4FF47C
:10744400437113F0A9FBB8E7194A40F2123113F063
:10745400A3FBBCE7164A40F2133113F09DFBBCE7D3
:10746400134A40F2173113F097FBC0E7104A4FF468
:10747400467113F091FBC0E7BC330020B833002001
:10748400AC35002025650200D835002031660200A5
:10749400043600202964020014360020D965020055
:1074A400DD63020000B00040CC1004006C11040045
:1074B4000811040010B5064C4023064A064920462C
:1074C4000FF0BEFA4FF4FA7120460FF035FA10BDF2
:1074D40010350020D03400206975020000B58FB04B
:1074E4001A4BDB680EA941F8143D04220AA800F0E7
:1074F4001BFFF8B920220021684619F054FB012330
:107504008DF8003007238DF803308DF808300AAB6E
:1075140003930F4B04930F4B08930F49684608F0ED
:10752400DFFD68B90D4804F0FBF8FFF7C3FF0FB0A7
:107534005DF804FB0A4A40F27F3113F02DFBD9E7D2
:10754400074A40F28A3113F027FBEBE7A40C04004E
:10755400396702007173020000360020096F0200CF
:1075640008110400416839B110B504460FF0D4F98C
:1075740020460FF041F910BD7047000000B585B0FA
:1075840001AB0B4A07CA03C31A700021094813F060
:10759400E7FB38B901A9002013F036FC28B905B07F
:1075A4005DF804FB11F059FEF4E711F056FEF6E71E
:1075B400B40C0400C40E040008B5124A0121124898
:1075C40013F012F890B9114A0121114813F00CF884
:1075D40078B9104A0121104813F006F860B90F4A2F
:1075E40001210F4813F000F848B908BD11F035FE29
:1075F400E9E711F032FEECE711F02FFEEFE711F0AE
:107604002CFEF2E7F16C02001C100400317B020036
:1076140020100400F97902002410040051780200BB
:107624002810040008B5FFF7A9FFFFF7C5FF08BD40
:1076340000B585B0294A04214FF4C04006F01AFA77
:10764400274B1B6813F4804F03D0264B1B68032B76
:1076540022DC12F099FF58BB00F080FC224800F0B5
:107664009DFC58BB12F0C2F970BB04A9002341F879
:10767400043D012012F0A8FA48BB03A812F0F6FA60
:1076840040BBFEF759FEFEF76FFFFFF727FFFFF73A
:10769400C9FF05B05DF804FB144BD3F80435144A54
:1076A400009240F209521349042006F0FFF9D0E792
:1076B400114A40F20B5113F06FFACDE70E4A40F233
:1076C4000F5113F069FACDE711F0C7FDCDE711F0C2
:1076D400C4FDD2E711F0C1FDD3E700BF4DDA0200CB
:1076E400BC330020B83300205169020000B00040D0
:1076F400081004006C1104000811040070B586B071
:10770400444B04221A7044480FF054F843498A88C1
:10771400140A434B5C76D0B298768A790132D2B29D
:10772400DA768978197701255D773E4B1B6813F467
:10773400804F03D03C4B1B68032B28DC1E213648AA
:107744000FF061F80646C8B1354C0FCCC6F81100ED
:10775400C6F81510C6F81920C6F81D3007CCC6F8AF
:107764002100C6F82510C6F829202388A6F82D3054
:10777400FF233371314628480FF084F82B4B1B78D4
:10778400032B15D00133294A137006B070BD284B62
:10779400D3F8043505950491039202900194254A87
:1077A400009240F2B6422449042006F07FF9C5E76E
:1077B400224812F04DFF1D4B00221A70194B1B6812
:1077C40013F4804F03D0184B1B68032B11DC134CAC
:1077D400208802301A4B198880B2FEF759FF20889E
:1077E4000230184B198880B2FEF752FFFFF7A2FD52
:1077F400CBE70F4BD3F80435084A918812880292DC
:107804000191114A009240F2C5420B49042006F04E
:107814004DF9DCE7AE34002010350020703600202E
:107824002C330020BC330020B833002082360020E3
:1078340000B000403C1004006C11040044360020E9
:10784400AC350020043600209010040008B5FFF782
:1078540055FF08BD70B584B0574B03221A705748C2
:107864000EF0A8FF564883881C0A56494C76DAB2B3
:107874008A768078C876544B1B6813F4804F03D003
:10788400524B1B68032B28DC1E214C480EF0BBFF17
:107894000646C8B14B4C0FCCC6F81100C6F81510FB
:1078A400C6F81920C6F81D3007CCC6F82100C6F862
:1078B4002510C6F829202388A6F82D30FF2333711C
:1078C40031463E480EF0DEFF414B1B78032B13D0AC
:1078D40001333F4A137004B070BD3E4BD3F80435F6
:1078E4000390029201943C4A009240F273423B4955
:1078F400042006F0DBF8C7E7394812F0A9FE344B40
:1079040000221A702E4B9B78012B18D02E4B1B682B
:1079140013F4804F03D02D4B1B68032B39DC284C08
:10792400208802302F4B198880B2FEF7B1FE2088E0
:1079340002302D4B198880B2FEF7AAFECBE7224B0A
:107944001B6813F4804F03D0204B1B68032B11DCFE
:107954001B4C00232380234B19880220FEF798FE3A
:1079640020880230204B198880B2FEF791FEFFF781
:10797400E1FCB0E7174BD3F80435114A9288019221
:107984001A4A009240F284421449042006F08EF808
:10799400DEE7104BD3F80435094A91881288023285
:1079A40002920191124A009240F28D420B49042046
:1079B40006F07CF8B3E700BFAE3400201035002099
:1079C400703600200C330020BC330020B833002074
:1079D4008136002000B00040600F04006C110400E8
:1079E40024360020AC35002004360020900F04001B
:1079F400CC0F040008B5FFF72DFF08BD70B586B0A5
:107A040006460D4614463E4B02221A703D480EF0BF
:107A1400D1FE002C3DD13C4B9A88110A3B4B997303
:107A2400D2B2DA730020187459749A74384B1B68F4
:107A340013F4804F03D0374B1B68032B33DC1E2118
:107A440030480EF0E0FE0646C8B1304C0FCCC6F804
:107A54001100C6F81510C6F81920C6F81D3007CC59
:107A6400C6F82100C6F82510C6F829202388A6F8F0
:107A74002D30FF233371314622480EF003FF264B8D
:107A84001B78032B26D0244A13780133137006B0D5
:107A940070BD1E4B9E73DD731C741B4A9288110AC1
:107AA40059749A74C2E71D4BD3F80435174A917B75
:107AB400D07B147C557C927C0592049503940290AF
:107AC4000191174A009240F239421649042005F008
:107AD400EDFFB4E7104B00221A70134812F0B8FD02
:107AE4000A4B5A7C9B7B9A42CDD1084B9A7CDB7B18
:107AF4009A42C8D1044B0122DA71FFF729FCC2E78C
:107B0400AE3400201035002070360020EC32002006
:107B1400BC330020B83300208036002000B0004081
:107B2400C40D04006C110400E035002008B5044BBA
:107B340018889A78C1B2000AFFF760FF08BD00BF39
:107B4400C434002000B583B0FFF772FDEFF3108555
:107B540072B6264B9B689BB9244A01239360244B3D
:107B6400D3F88010234801401160C3F88000D3F893
:107B7400841051604FF0FF32C3F88420002400E0E9
:107B8400012405B962B6FEF7E7FD184B9B686BB19B
:107B940064B9EFF3108172B6144B1868144A10607C
:107BA4005868506000229A6001B962B612490020F8
:107BB40013F082F9114B1B6813F4804F12D0104B51
:107BC4001B68032B0EDD0F4BD3F804350A4AB2F9B8
:107BD400002001920C4A009240F24A520B490420C0
:107BE40005F064FFFEF76CFBFCE700BF486A002069
:107BF40000E100E0FC06FFBDAC340020BC330020F3
:107C0400B833002000B000402C1004006C110400B4
:107C14002A4B1B78002B4FD000B585B0012804D027
:107C2400032842D005B05DF804FB04A9002341F801
:107C3400083D012011F0C8FF40BB02A812F016F85D
:107C440038BB04A9012341F8043D0DF106000DF0F1
:107C540089FF08BBBDF806000DF01EFC0DF10501FF
:107C64000DF070FDD8B909F0B5FC9DF805100020A1
:107C740009F072FD03F0E4FCA0B9104B00221A7065
:107C84000F4B1B68002BCDD09847CBE711F0E5FADA
:107C9400D3E711F0E2FAD4E711F0DFFADAE711F0F2
:107CA400DCFAE0E711F0D9FAE7E711F09FFE0028CB
:107CB400B8D011F0D2FAB5E7704700BF843600207F
:107CC4008836002008B5084B01221A7003F0DAFC4C
:107CD40018B911F0D1FE18B908BD11F0BEFAF8E7D1
:107CE40011F0BBFAF8E700BF8436002008B503237F
:107CF400002203494968034814F014F808BD00BF82
:107D040088360020CC38002008B50378052B0DD028
:107D1400082B16D0022B00D008BD104B1B7813B9CA
:107D2400FFF7E4FFF8E7FFF7CDFFF5E710220C4B70
:107D340099680C4814F080F80028EDD011F08DFA01
:107D4400EAE78168C06808F07AF918B9034B0122A0
:107D54001A70E1E711F081FAF8E700BF83360020DA
:107D640088360020CC38002010B586B00446214A5D
:107D740003AB07CA03C323F8022B120C1A701E4B61
:107D840094E8070083E80700002A31D01B491C4807
:107D940013F0ACFF034610B1184606B010BD194BE2
:107DA400009303AB154A1649174813F05BFF0346CB
:107DB4000028F1D1154815F013FB0146124813F0C1
:107DC4007DFF03460028E7D1114813F035FB034635
:107DD4000028E1D10E4813F065FB01460A4813F070
:107DE4006DFF03460028D7D1FFF780FF0346D3E792
:107DF4000723D1E78412040088360020943600203B
:107E0400003A00200D7D0200CC380020B43600205A
:107E14007C38002008B5064B1B683BB110F060F8B5
:107E2400002803DB024B1B689847F7E708BD00BF37
:107E3400403A002010B50C46144B1860144A012136
:107E4400144812F0D1FBA0B9610CE00341F26F7247
:107E540000238B4208BF824210D24FF47A7200236F
:107E640018F02CFD014600220B4812F0D3FB38B960
:107E740010BD0A4A462112F08FFEE5E70521F2E71C
:107E8400064A472112F088FEF2E700BF403A00207C
:107E9400197E020090120400443A00209412040057
:107EA40008B50D4B1B6873B14FF0A042D2F80435EE
:107EB4000A4909684B40C2F80435074A1368013B74
:107EC400136023B108BD002011F0C7F9ECE70448A2
:107ED40012F0BEFBF6E700BF643A0020683A0020C7
:107EE4006C3A002021B94FF0A043C3F8080570474D
:107EF4004FF0A043C3F80C057047000012B11346BD
:107F0400132900D8704770B5114A10605B00013B1B
:107F1400104A136000264D0CCC034FF47A720023F0
:107F240014F5FA7045F1000118F0C8FC3246014618
:107F3400094812F06FFB48B94FF0A042D2F804355B
:107F44000349096823EA0103C2F8043570BD00BF80
:107F5400683A0020643A00206C3A002008B51123E6
:107F64000BE04FF0A04103F5E072032041F822003A
:107F740001229A40C1F808250133142BF1D9054A8E
:107F84000121054812F030FB00B908BD11F065F974
:107F9400FBE700BFA57E0200F4120400F0B1104A12
:107FA4001060002309E00F4AD25C02F5E0724FF042
:107FB400A0410D4841F822000133032BF3D90B4BA8
:107FC4004FF00042C3F804230020C3F87C01084B9F
:107FD400E02283F8062340221A6070470E2070477F
:107FE4008C3A0020F81204000C00030000600040EA
:107FF40000E100E010B50024144BC3F87C410EE00E
:1080040043F23333994208D9114BD3F80425114B69
:108014001A60114B1B68204698470134E4B2032CC4
:1080240012D84FF0A043D3F810250C4B195D01234F
:108034008B409343F1D0074B1B68054AD2F80425C3
:10804400991ADDD5D11ADBE710BD00BF00600040EE
:1080540000B00040903A00208C3A0020F81204004E
:1080640072DF704773DF704774DF70472DE9F047A4
:10807400A2B0074688469146314C0026C4F80660F3
:10808400E68130490B78C3EB43102F4D054425603E
:108094002E4A0244A2601F22A280A281013303F06F
:1080A40001030B704FF03C0A5246314613A818F0F6
:1080B4007AFD06238DF84F30ADF8487001238DF812
:1080C4004A30ADF85C3012AA1892ADF83C70ADF8A5
:1080D4004090CDF844800DEB0A021D928DF8783063
:1080E40052463146684618F05EFD02238DF8003092
:1080F400221D294613A811F059FB90B9104B03F126
:108104000C029968684611F051FB68B9104A0C4991
:108114001048FFF7A5FF082809D070B922B0BDE8C0
:10812400F08711F09AF8E9E711F097F8EEE70022EA
:1081340003490848FFF794FFEFE711F08EF8EDE7E5
:10814400D83A0020943A0020983A0020E83A0020D7
:10815400503300204C330020034B00EB80004200DE
:108164009A819960704700BF5033002008B50121FF
:10817400054B1878FFF776FF10B904F08BFA08BDA9
:1081840011F06BF8F9E700BF4C33002008B5044B3D
:108194001878FFF769FF00B908BD11F05EF8FBE736
:1081A4004C3300200620704700B587B041F201032C
:1081B400984245D020D944F20103984256D044F263
:1081C400020398426DD1454B1B6813F4804F1ED0B7
:1081D400434B1B68002B1ADD424BD3F8043510883F
:1081E40003905268029201913F4A00925F223F49F4
:1081F400012005F05BFC0AE0012852D1374B1B68D3
:1082040013F4804F03D0364B1B68002B0BDC4FF06C
:10821400A0434FF4F012C3F81825C3F80C25EFF36C
:10822400108372B653E02F4BD3F8043502920191B8
:108234002F4A009254222D49012005F037FCE6E72D
:10824400264B1B6813F4804FE1D0254B1B68002B91
:10825400DDDD244BD3F8043502920191254A0092C6
:1082640057222249012005F021FCD0E71B4B1B6853
:1082740013F4804FCBD01A4B1B68002BC7DD194B6E
:10828400D3F8043510680490506803900291926802
:108294000192194A009269221449012005F006FC52
:1082A400B5E70E4B1B6813F4804FB0D00C4B1B6822
:1082B400002BACDD0B4BD3F8043501910F4A00922F
:1082C4006D220A49012005F0F1FBA0E730BF0C4BF9
:1082D4001B78002BFAD107B05DF804FBBC330020F7
:1082E400B833002000B00040A01304004D13040074
:1082F400601304007C130400C0130400E41304009E
:108304006833002000B583B00023ADF80030054B7E
:1083140001936A46014644F20200FFF745FF03B0A9
:108324005DF804FB340F0400082A10D838B514464D
:10833400054618F00FFCC4F108020021281918F0B2
:1083440032FC044B03CBA860E960002038BD09204F
:10835400704700BF6000001010B40346044C00686E
:1083640059689A68DB680FC45DF8044B704700BF16
:10837400283B0020064B074A92E8030083E80300E9
:108384000833443292E8030083E80300704700BFD7
:10839400283B00206000001000487047283B002064
:1083A400002308E0074901EBC30000224280426039
:1083B40001F8332001331F2BF4D9034B00221A6038
:1083C400704700BF383B0020383C002030B40546DD
:1083D4000F4B1B6800240AE01F230E4A12F83300D7
:1083E400A0B102EBC3025288AA4207D001341F2C69
:1083F4000BD85A1E002BEFD01346EEE7054A02EBCA
:10840400C30252688A42F1D100E0002030BC7047B8
:10841400383C0020383B002030B40A4A13680A4C28
:1084240004EBC30568806960012104F833100B4430
:108434001360202B01D030BC7047134600221A6011
:10844400F9E700BF383C0020383B0020C0F30C03A0
:108454008B4202D3C91A08447047C91A0844A0F5CC
:1084640000507047C37D002B42D083780A7802F015
:10847400800203F07F0313430B7002780B7803F040
:108484007F0343EAC2130B700378002B41D030B44E
:108494004378082B14BF002201224B7803F07F039A
:1084A40043EAC2134B70858803F08003C5F3861436
:1084B40023434B708A7802F0030242EA8502D2B267
:1084C4008A70857902F0FC02C5F3C10422438A70E4
:1084D400CB7803F01F0343EA4513DBB2CB70C279B8
:1084E40003F0E00302F01F021343CB7030BC70476B
:1084F40083780A7802F0BF029B0103F04003134320
:108504000B70C27803F0C00302F03F0213430B70F8
:10851400B3E770470023032B22DC10B402E00133DD
:10852400032B19DC0F4C6C2202FB034292F844200B
:10853400012AF4D16C2202FB0342948AC289944238
:10854400EDD1084C6C2202FB034292888A42E6D1A8
:108554006C2202FB034000E000205DF8044B7047EE
:1085640000207047B03C0020002300E00133032BBF
:1085740013DC0B496C2202FB031292F84420022AFA
:10858400F4D16C2202FB0312918A828A9142EDD1CA
:1085940003486C2202FB030070470020704700BFB1
:1085A400B03C002008B10820704704207047000048
:1085B40038B505460C46CB695B78C370CB691B782C
:1085C40083F001038370CB694362087B022814D0D3
:1085D400FFF7E8FF6870E27A32B9A18AC0F10F03AD
:1085E400994201DC082831D0A18A0346C0F10F006A
:1085F400814207DC42B3012205E0154B987DFFF769
:10860400D1FFE7E701222A7062B1A28A13440B3337
:10861400104A82FB0312DB17C3EB6203013BEB71CD
:108624000023AB710023EB7505F10C0294E8030001
:1086340082E80300A2692A622289AA82A27AAA7520
:10864400226AAA62184638BD0022DCE70720FAE74E
:10865400983C0020ABAAAA2A30B403460C460978F9
:10866400817000214162A1680B2903D8217BF1B1FB
:10867400012100E0012119700020587029B1A1687E
:108684000731C9080139D97198710121D97503F1EC
:108694000C0504F1100103C985E80300E1899982FE
:1086A400A1691962217F99759A6230BC70470021D3
:1086B400E1E700000021164B1B688B4226D90023FA
:1086C400144A02EBC10252689A421DD910B4114AED
:1086D40052F8312002EBC30412F8332082420DD049
:1086E40001330C4A02EBC10252689A42EFD80131BD
:1086F400074B1B688B4205D90023F2E760685DF8DD
:10870400044B70470020FAE70131D4E7002070479A
:108714003C3C0020403C002070B58CB006460D4621
:1087240014462C22002101A818F03DFA0E238DF8DE
:108734000430ADF808604FF0000365F300038DF8D2
:108744000A308DF80B4001A801F0B0F90CB070BDEF
:1087540030B58DB005460C462C22002101A818F036
:1087640022FA0F238DF8043002958DF80C4001A8ED
:1087740001F09CF90DB030BD00B58DB048B913F1CE
:10878400020F06D001228DF80420029301A801F003
:108794008DF9034B186804F073F80DB05DF804FB11
:1087A4004C3C00202DE9F041054688460378BBB1D6
:1087B4000D4B1C68621C1A6004F00704AB8A0B4F53
:1087C40007EBC4067380A988A869FFF73FFE7060B1
:1087D400EB6903F00103737007F83480BDE8F0819E
:1087E4007846FFF78FFDE3E7943C0020543C0020DB
:1087F40070B5064603784BB1B58A347F04F00104A2
:10880400B188B069FFF722FE002304E07846FFF741
:1088140079FDF1E70133072B15D80C4A02EBC302AB
:1088240052688242F6D1094A02EBC3025288AA4234
:10883400F0D1064A02EBC3025278A242EAD10348BD
:1088440000EBC30000E0002070BD00BF543C0020DA
:10885400F0B40D684C688F68CE68D56014615761B8
:1088640096610D694C69D56114620378DB09137054
:10887400D17DF9B1037803F07F0393700023537023
:1088840013789BB143789B0103F4FE53817843EA48
:10889400910393808378DB0003F01803C17843EAE3
:1088A40051139371C37803F01F03D37100235362F0
:1088B400F0BC70470178C1F380119170017801F028
:1088C4003F01D17043B190F90130002B02DB042346
:1088D4005370D5E70823FBE704235370D0E770B542
:1088E4000C461E4603788BB104252A44A26000F18D
:1088F4000C032360836A6360204604F067FB02462E
:1089040010B923691D443560104670BD0125ECE79C
:108914002DE9F0418EB00D4616461C4680460028CF
:108924002DD0002D2FD0002C31D0636A0233059353
:1089340004F10C00A378002B2DD00121627801AF43
:108944003B46082A14BF0022012204F096F8069739
:10895400CDF81C80B2B2ADF820200B9515440C95CF
:1089640063788DF83430237B022B16D00023ADF8C6
:10897400283005A804F079F80EB0BDE8F0817846F7
:10898400FFF7C0FCCDE77846FFF7BCFCCBE77846A1
:10899400FFF7B8FCC9E70221D0E723692BB12369AB
:1089A40009931023ADF82830E3E77846FFF7AAFCD3
:1089B400F5E72DE9F04186B004460D46C37D002B52
:1089C4003ED0082605FB06F8E379AB423AD0A57100
:1089D4006B46324601A92046FFF781FF074648BB94
:1089E4004DB994F84F3033B9A369C3F30C03A38092
:1089F400012384F84F30E37D7BB994F84E3063B99A
:108A04002DBBB4F84610627823468A1AA16E084634
:108A1400FFF77EFF012384F84E3005992046FFF7C7
:108A240021FDA16E32464144009818F093F801A844
:108A340004F0E6FAB7FA87F0400906B0BDE8F08121
:108A44000C26BFE7B4F84660A6EB0806BFE77846F5
:108A5400FFF758FCD5E770B5054690F84C40002662
:108A640005E00136631C85F84C300134E4B2EB793F
:108A7400A3420AD3AA6C0123A3401A42F5D121468A
:108A84002846FFF796FF0028EBD1304670BDF0B5BD
:108A940087B045781544C37DDBB10B239D4221D8B3
:108AA40016460F4604466B462A4601A9FFF717FFF0
:108AB4000546C0B905992046FFF7D4FCE37D53B1C0
:108AC40032463946009818F045F801A804F098FA9F
:108AD40009E00F23E2E72346324600993846FFF7C0
:108AE40017FFF2E70925284607B0F0BD10B5044684
:108AF40090F84430012B0ED1237B012B0FD00C4B6B
:108B0400DB68A36303F0B8F9A16B014404F12C0002
:108B140003F016F910BD7846FFF7F4FBECE7A37DEC
:108B2400034AD168126902FB0313A363EAE700BF97
:108B3400983C002038B5002400E00134032C13D8FD
:108B44000A4A6C2303FB042393F84430012BF4D129
:108B54006C2505FB04252846FFF77DFF0028ECD093
:108B64002846FFF7C3FFE8E738BD00BFB03C00204C
:108B740038B5044690F84430022B02D07846FFF70B
:108B8400C1FB054B1D6803F077F9411904F12C0072
:108B940003F0D6F838BD00BF983C002038B5044631
:108BA40090F84430022B02D07846FFF7ABFB084B19
:108BB4005D7D5A689B6803FB052503F05DF9411947
:108BC40004F14C0003F0BCF8012384F8643038BD90
:108BD400983C002010B504460C4B1B68806E9847E7
:108BE4000023A36604F12C0003F07AF894F84430CF
:108BF400022B05D0002084F8440002F007F910BDD0
:108C040004F14C0003F06CF8F4E700BF503C002082
:108C140010B504460121FFF7C5FD2046FFF7DAFF32
:108C240010BD10B58CB0044690F84430012B02D02E
:108C34007846FFF767FB01238DF80430236D029318
:108C440001A800F033FF2046FFF7C4FF0CB010BDAD
:108C54002DE9F04104460E4615461F46531EDBB26D
:108C6400012B46D8A36E13B17846FFF74BFB2E4B6E
:108C74001B6838469847A066002852D033462246DF
:108C840006F12001D3F80080D3F804E0D3F808C03B
:108C9400D868C2F80080C2F804E0C2F808C0D06006
:108CA400103310328B42EDD1186859689B681060FC
:108CB400516093600023A364A4F84670B188B0693E
:108CC400FFF7C4FBA061012D17D06FF00103A3626D
:108CD400002384F86430154B6365E465144B6363C7
:108CE400E463012002F092F884F844500120BDE8C6
:108CF400F0817846FFF706FBB4E70E4B1B7D84F842
:108D04004D30002384F84E3084F84F3084F84C30D2
:108D1400B36A23656FF00103A362074B6363E463E3
:108D2400DFE70020E3E700BF483C00207F98020013
:108D3400658E0200983C0020718E020030B583B02D
:108D4400C3790133C27D92B1082505FB03F582B1D5
:108D54004FF48073AB422AD21E4B1B6813F0040FEE
:108D640036D01D4B1B68002B06DC00242DE00C259F
:108D7400EBE74FF4C073EDE7184BD3F804350195D6
:108D8400174A00924FF417721649012004F08EFE20
:108D940000241AE0144C6C2303FB02442B460222E9
:108DA40001462046FFF754FF78B900240DE0002265
:108DB400032A09DC0C4B6C2404FB023494F8443081
:108DC400002BE7D00132F3E70024204603B030BD86
:108DD4000024FAE7BC330020B833002000B0004080
:108DE4007C1404006F140400B03C002030B585B03E
:108DF4000D460446A8B100212046FFF7D3FC2946BE
:108E0400206DFFF7A5FC2046FFF7E4FE0F4B1B681F
:108E140013F0040F03D00E4B1B68032B05DC05B0C5
:108E240030BD7846FFF76EFAE5E70A4BD3F8043510
:108E340094F8442002950192074A00924FF4D272AA
:108E44000649042004F032FEE9E700BFBC330020E9
:108E5400B833002000B00040001404006F14040074
:108E640008B508460021FFF7C1FF08BD10B50C4640
:108E740091F84430012B09D194F84D307BB9237B10
:108E8400012B07D02046FFF7CCFE10BD7846FFF734
:108E940039FAF1E700212046FFF7A8FFF5E7013B87
:108EA40084F84D30002384F84C302046FFF7D3FD7E
:108EB400EBE70000062900D0704770B582B0034686
:108EC4000178890101F4FE5140789D78DC7824040E
:108ED40044EA05641D7944EA05245B791C4341EAAC
:108EE40090011046FFF716FB0546B8B1866C264381
:108EF400866444B3037853B3EB795A1C012393403B
:108F0400013B9E4227D0002385F84C302846FFF7CA
:108F1400A2FD2846FFF7EAFD02B070BD104B1B68A6
:108F240013F0040FF8D00F4B1B68012BF4DD0E4B2C
:108F3400D3F804350D4A009240F2B2420C490220A3
:108F440004F0B4FDE8E70321FFF750FFE4E77846B7
:108F5400FFF7D8F9D0E72846FFF763FEDCE700BF48
:108F6400BC330020B833002000B00040901404004B
:108F74006F1404002DE9F04389B080460F4614466F
:108F84001E4695780DB32846FFF794FB8146C8B179
:108F94008DF80050236A0693A38AADF80E3004AB13
:108FA40004F10C0292E8030083E80300A37D8DF82A
:108FB4001C30CDF80480029723788DF80C303146AC
:108FC4006846C84709B0BDE8F083FFF773FFF9E7C7
:108FD40000B585B000238DF80F3098B103460846DC
:108FE40002330B600DF10F0103F043FD9DF80F30C8
:108FF40043B10D4B1B6813F0040F03D00B4B1B68DC
:10900400032B04DC9DF80F0005B05DF804FB084B4E
:10901400D3F80435074A00924FF439720649042004
:1090240004F044FDEEE700BFBC330020B833002059
:1090340000B00040D01404006F1404002DE9F04384
:109044008FB004460E4615461F46D0F81890037894
:1090540023B181884846FFF7F9F9A06104F10C00B7
:10906400A378002B3AD0012162780DF128084346F9
:10907400082A14BF0022012203F0FFFCC4F8189050
:10908400CDF8088003966378EA1A92B2ADF81020FE
:109094003244089207978DF824300023ADF8183035
:1090A400237B022B1CD0A3786BB3237B022B1BD016
:1090B4002546002345F8243F2A46E178206A0DF02E
:1090C40081F8606A98B101A9FFF782FF00283AD1BC
:1090D4002A46E178206A0DF075F8F2E70221C3E729
:1090E4001023ADF81830DEE723690593E0E7237B0E
:1090F400022B2CD104F10C01E0890DF011F90028A8
:10910400D3D1052020E000236362237B012B0DD003
:109114002146002341F8243FA08A0DF070F801A9EC
:10912400606AFFF755FFA0B100200DE004F12401AF
:10913400E0890DF064F801A9606AFFF749FF00288F
:10914400E6D0002000E000200FB0BDE8F083052049
:10915400FAE70520F8E7000070B5F0B00D461446B4
:109164001E4610AB0A4601462046FFF767FFA0B132
:109174001F4B1B6813F0040F37D01E4B1B68052BC5
:1091840033DD1D4BD3F804351C4A009240F22152C2
:109194001B49062004F08AFC27E003AB01228DF86A
:1091A4000C20A28AADF80E20002204928DF814201F
:1091B40010AA06926278AD1AADF81C5008AA93E87A
:1091C400030082E803000AAB04F10C0292E80300F6
:1091D40083E80300A37D8DF83830236A0C93636A17
:1091E4000D930F9605A800F061FC70B070BD00BF30
:1091F400BC330020B833002000B00040F414040055
:109204006F14040010B5D47D14B9FFF7A5FF10BD89
:10921400FFF7B0FEFBE700002DE9F04385B004AF93
:1092240043781344C47D94B14FF480749C4273D347
:10923400EFF3108C72B60024032C10DC3B4E6C252B
:1092440005FB046595F8445025B10134F4E74FF467
:10925400C074EBE735466C2606FB045400E000249A
:10926400BCF1000F00D162B6002C5AD015460E4650
:10927400014601222046FFF7EBFC002853D02A4682
:109284003146A06E17F066FC294B1B6813F0040FDF
:109294003AD0284B1B68032B36DD6D46B4F846E004
:1092A4004FEA4E030833DB08A5EBC3039D460DF1DB
:1092B4001008C446002312E0A26ED25C4FEA1219D1
:1092C40059001D48066816F809600CF8136002F08E
:1092D4000F0201310068825C0CF8012001337345F0
:1092E400EAD3002308F81E30144BD3F80435CDF824
:1092F4000880134A0192134A00924FF47C72124977
:10930400042004F0D3FBAD462046FFF7A4FB20461F
:10931400FFF7ECFB002000E009200437BD46BDE860
:10932400F0830420F9E70420F7E700BFB03C0020F5
:10933400BC330020B8330020C033002000B000400C
:10934400C01404006C1204006F14040070B50446C9
:109354000D461646808A02F01FF801281AD1237B95
:10936400D3B1022B0BD094F91630002B16DB2378E3
:1093740053B9324629462046FFF789FB0BE023699F
:10938400002BF0D1102006E0324629462046FFF794
:1093940043FF00E0102070BD1020FCE70720FAE72F
:1093A40008B50549054800F04FF800B908BD7846EE
:1093B400FEF7A8FFFAE700BF250A0400910904009C
:1093C40010B5FFF7EDFF4FF4D8720021134817F0E2
:1093D400EAFB05F0FBFC0024114B1C6040222146F3
:1093E400104817F0E0FB104B104A1A60104A5A60FC
:1093F4004CF250329A600F49D9601A6104221A75EE
:109404009C7508225A750C4803F01AFA0B4B186025
:109414000B4B1C600B4805F0DFFD10BDB03C002079
:10942400943C0020543C0020983C002080969800F6
:10943400F049020020A10700359602004C3C0020B0
:109444003C3C00207D87020008B50346B0FA80F05A
:1094540040090A46B1FA81F14909884210D14BB159
:10946400EFF3108072B608490B60084B1A6048B9D4
:1094740062B606E0002AF3D1FFF792FF002000E075
:109484000E2008BD0020FCE7483C0020503C002092
:10949400C0B110B58CB004460369B3B1C369B3B1AC
:1094A4008369B3B1014601A8FFF782F8034610B1FE
:1094B40018460CB010BDA28A216901A8FFF746FF27
:1094C4000346F5E70E23184670470E23F0E70E23F4
:1094D400EEE70E23ECE7D0B110B58CB0044640683B
:1094E400B8B1A269BAB1207C022816D0B8B194F9F7
:1094F4000020002A15DB0A46214601A8FFF7ACF834
:10950400A268616801A8FFF721FF0CB010BD0E200E
:1095140070470E20F9E70E20F7E71020F5E710203A
:10952400F3E70720F1E70000037B012B01D00020C3
:10953400704710B58AB000228388C3F386148DF86F
:1095440000409B008DF801300B0E8DF802300B0C9F
:109554008DF803300B0A8DF804308DF805100623BE
:10956400049301238DF81830838AADF81A300792DA
:109574008DF80820CDF80CD0036A08938DF81420D8
:10958400C389ADF81630837D43B98DF824206FF07C
:10959400010102A8FFF79FFF0AB010BD024B5B7DDB
:1095A4008DF82430F3E700BF983C002038B5002440
:1095B4000BE01E4A6C2303FB0423DB795A1C0123B2
:1095C4009340013B9D4228D00134032C2CD8174AE8
:1095D4006C2303FB042393F84430022BF4D16C2353
:1095E40003FB042393F86430022BEDD16C2000FBC1
:1095F4000420816CFFF798FF0028E5D10B4A6C2307
:1096040003FB04F3D11881F864008D6CD35C002B48
:10961400CFD17846FEF776FECBE7044B6C2000FBF7
:109624000430FFF7F5FACFE738BD00BFB03C0020A7
:1096340008B5FFF77FFAFFF7B9FF012008BD000066
:109644002DE9F04182B007460E461446984610466E
:10965400FEF78AFF054620B1A28883889A4210D378
:1096640012D82046FFF7C4F8B8B103784BB1237879
:109674007BB1E1794B1C0121994001392046FFF768
:1096840053FF02B0BDE8F0810521FFF7AFFB0025D1
:10969400E7E77846FEF736FEEBE7002D4FD0464B62
:1096A4001B6813F0040F03D0444B1B68032B55DCD9
:1096B4002846FFF75DFA2B7B012B5DD0AA6CA179BC
:1096C40001238B401A42DCD11343AB64A279EB79BA
:1096D4009A4259D0E37D002B61D00823B34260D174
:1096E400AB6EA079E27D002A60D008243246394668
:1096F40004FB003017F02EFAAC6C2B78002B57D0FB
:10970400EB795A1C01239340013B9C42B9D10223BB
:1097140085F86430A96C2846FFF706FF04464346E3
:109724002A46B5F84610A86EFFF76CFD002CA8D1A8
:10973400002385F864302846FFF76AFAA1E720463B
:10974400FFF7FCFA05460028A9D100212046FFF7BF
:10975400EBFE02210020FEF7FBFF92E7184BD3F843
:109764000435A2790192174A00924FF428721649DF
:10977400042004F09BF99BE795F86430002B9DD1FD
:109784002846FFF70BFA99E79BB2E27D2AB108223B
:1097940003FB0263A5F84630A2E70C22F8E70C238A
:1097A4009CE704212846FFF721FB6AE70C249DE788
:1097B4007846FEF7A7FDA3E7BC330020B8330020AA
:1097C40000B00040E41404006F1404002DE9F041DB
:1097D4008EB000284DD00546002A4CD09846144639
:1097E4000F4600220C920D920CA960880CF098FD93
:1097F40020B9002630460EB0BDE8F081226902F09F
:109804000102E168208905F0AFFA08B10026F1E70A
:10981400226902F00102E168208905F075FA064622
:10982400C0B901AA21462846FFF712F804AB0EAAD4
:1098340012E9030083E8030002F0C0FF9DF804303E
:1098440083B1434601AA391F281DFFF7F9FE02F030
:10985400D5FFCFE72169002201F001012089FEF73D
:109864005BFFC7E7434601AA791E681CFFF7CAFCE1
:10987400EDE70E26BEE70E26BCE710B50C4691F8C0
:109884004430022B0BD1022384F86430A16C2046AF
:10989400FFF74AFE10B9002384F8643010BD7846FF
:1098A400FEF730FDEFE70000002959D0A0F59670CF
:1098B400072857D8DFE800F0040E1A25313D454D3E
:1098C4004A68314B134431498B424DD8304B1A60AE
:1098D400002070474A68A2F51233A3F5F8732D49A6
:1098E4008B4243D82A4B5A60002070474A68A2F53D
:1098F4004343503B28498B423AD8254B9A60002079
:1099040070474A68A2F54333A3F5A07323498B42F9
:1099140030D81F4BDA60002070474A68A2F5433301
:10992400A3F5A0731D498B4226D8194B1A61002058
:1099340070474B689A1EFD2A20D8154A13750020DB
:1099440070474B685A1E7E2A1AD8114A5375002054
:1099540070474B68012B15D80D4A9375002070474A
:109964000E20704705207047072070470720704776
:10997400072070470720704707207047072070476B
:109984000720704707207047806967FF80778E063D
:10999400983C0020904C960030D397004089950065
:1099A400002934D000220A604A60A0F59670072886
:1099B4002FD8DFE800F004090E13181D2227164AD9
:1099C40012684A6000207047134A52684A600020B7
:1099D4007047114A92684A60002070470E4AD26864
:1099E4004A60002070470C4A12694A6000207047A0
:1099F400094A127D4A6000207047074A527D4A6036
:109A040000207047044A927D4A60002070470E206F
:109A140070470520704700BF983C0020F8B500B39C
:109A24000546164B1F68F7B90E463C46B4420ED2A3
:109A340005EBC4035B68CBB115F8340010F0800F5C
:109A440016D1B8B1FEF736FEB0B90134EEE70C4BCF
:109A540043F8375003EBC7035E607B1C074A13606F
:109A640002E00E2700E004273846F8BD0E27FBE786
:109A74000B27F9E70F27F7E70F27F5E73C3C002012
:109A8400403C0020084B196861B110B501E0214643
:109A94003CB10C680B79002BF9D0034803F06FFF3D
:109AA400F5E710BD704700BF643E002038B5054699
:109AB40030B1104B1C68ACB10F4B01221A7004E09A
:109AC4007846FEF71FFCF4E724683CB12379002BA9
:109AD400FAD154F8043C28469847F5E7064B1B781E
:109AE400022B00D038BDFFF7CDFF034B00221A70C4
:109AF400F8E700BF643E0020603E002010B5044635
:109B040030B100232372211D034803F00DFF10BD63
:109B14007846FEF7F7FBF4E7643E002010B50446F0
:109B240050B10A4B1B78013BDBB2012B08D9211D34
:109B3400074803F024FF10BD7846FEF7E3FBF0E787
:109B4400024B02221A7001232372F4E7603E0020C4
:109B5400643E00200A8883689B5A07339BB223F033
:109B6400030313449BB20288043A934200D90023AE
:109B74000B80704710B582B004468368CB1A02A9E3
:109B840021F8023DFFF7E6FFBDF80630A06818444F
:109B940002B010BD0088043880B2704743888268E0
:109BA400D018D152012383707047826800239370C8
:109BB400438083807047073189B221F0030189B261
:109BC400428883889A4204D29B1A99421CDC002062
:109BD400704710B59A420FD90488A41AA14215D926
:109BE4008B4215D3032C03D98368134404229A703F
:109BF40000234380184606E0826813449B784BB9DF
:109C0400FFF7D3FF002010BD042070470020FAE7BF
:109C14000420F8E70420F6E738B504460D468368C7
:109C2400828813448B4202D07846FEF76BFB0023F4
:109C3400AB70211D2046FFF78DFFA288A368134453
:109C44009B78042B00D038BD0023A380FBE710B51C
:109C54000C468368428813448B4202D07846FEF750
:109C640051FB0023A37010BD70B5064615460C4683
:109C7400002944D0002E46D0B4F1005F08D94FF03B
:109C84008053D3F80C3103F50023B4EB832F0ED3A8
:109C9400B4F5000F08D94FF08053D3F80C3103F515
:109CA4000053B4EB832F02D37846FEF72BFB6B1ED5
:109CB4002344B3F1005F08D94FF08052D2F80C214D
:109CC40002F50022B3EB822F0ED3B3F5000F08D9AF
:109CD4004FF08052D2F80C2102F50052B3EB822FE0
:109CE40002D37846FEF70EFB042D10D935800023ED
:109CF4007380B380B460043D2580A37070BD784642
:109D0400FEF700FBB6E77846FEF7FCFAB4E77846C0
:109D1400FEF7F8FAEAE738B50446A0B16288A3680A
:109D240013449B78012B12D0A388A1681944EFF344
:109D3400108572B68B78032B0DD02046FFF735FFC4
:109D440005B962B638BD7846FEF7DCFAE6E7784630
:109D5400FEF7D8FAE8E72046FFF70CFFA368C31A1A
:109D6400638000238370EBE7F8B50E46154604467E
:109D7400C0B1DEB16288A36813449B78012B19D06B
:109D8400E5B12046FFF706FFA84219D3294620462D
:109D9400FFF711FF0746A0B929462046FFF7FEFE4C
:109DA40030600EE07846FEF7ADFAE2E77846FEF75B
:109DB400A9FADFE77846FEF7A5FAE1E7092700E00C
:109DC40009273846F8BD70B50C4616460546B8B1A5
:109DD400D4B1A378012B1BD12388B3421CD3FEB189
:109DE40026800223A370E9182846FFF7B3FE6A8889
:109DF400AB889A4203D0AB68134400229A7070BDBA
:109E04007846FEF77FFAE3E77846FEF77BFAE0E769
:109E14007846FEF777FADFE77846FEF773FADEE76F
:109E24007846FEF76FFADBE738B50D46044650B1C5
:109E34006DB1A288A36813449A78022A0BD0032A2E
:109E44000ED005200BE07846FEF75CFAF0E7784682
:109E5400FEF758FAEDE703229A702B60002038BD14
:109E64007846FEF74FFA0020F9E710B5044640B1F2
:109E7400A288A36813449878022814BF0020012004
:109E840010BD7846FEF73EFAF2E710B5044618B165
:109E9400A088A168014407E07846FEF733FAF7E7A3
:109EA4002046FFF767FE014688780328F8D0022889
:109EB40014BF0020012010BD38B50C46054650B132
:109EC4006CB1A378012B0ED0032B03D12146284675
:109ED400FFF7A2FE38BD7846FEF714FAF0E778469D
:109EE400FEF710FAEDE721462846FFF7B0FEF1E74A
:109EF40008B5064B986800221A605A609A60DA60C6
:109F04001A615A619A6104F055FD08BD683E00204B
:109F140000B585B00A4BDB6802228DF8002001935E
:109F24004FF480530293074A6946012001F098F9DF
:109F340018B1002005B05DF804FB0120FAE700BF6A
:109F4400683E0020843E002000B585B00A4B1B68A3
:109F540002228DF8002001934FF480530293074AA4
:109F64006946012001F07CF918B1002005B05DF8C4
:109F740004FB0120FAE700BF883E0020843E002055
:109F8400164BDA68137951795B1A03F57F2303F6CC
:109F9400FF7302EB03339A4205D002F580520F4B54
:109FA400DA600320704700B585B00D4B1B680120B3
:109FB4008DF8000001930B4B0393042302930A4A88
:109FC400694601F04DF918B1002005B05DF804FBB5
:109FD400024B01221A760220F7E700BF683E0020F8
:109FE400883E00208C3E0020843E002000B585B0D1
:109FF4000C4BDA680C4B1B68043301208DF800000D
:10A004000192039340F6FC730293084A694601F0F7
:10A0140027F928B90120034B187605B05DF804FB35
:10A024000020FAE7683E0020883E0020843E00209D
:10A0340000B585B00A4B1B6801208DF80000019320
:10A04400084B039304230293074A694601F008F975
:10A0540018B1002005B05DF804FB0120FAE700BF49
:10A06400883E0020743E0020843E002010B584B059
:10A07400114BDA681478114B1B68043301208DF8F6
:10A0840000000193039202940D4A694601F0E8F836
:10A0940080B90A4B1B6804F0FC041C440434064BCE
:10A0A4005C61D9680A780A441A6100225A76012050
:10A0B40004B010BD0020FBE7683E0020883E00206D
:10A0C400843E002008B50023092B09D8064A52F81B
:10A0D4002320824201D00133F6E7044A536002E0B0
:10A0E4007846FEF70FF908BD20150400683E0020ED
:10A0F40010B5214BDB6853B11F4B1B7E5BB91E4B64
:10A104005B68092B15D97846FEF7FCF811E0784610
:10A11400FEF7F8F8F0E77846FEF7F4F8EFE7164BA9
:10A1240000225A60012C01D0032C23D1124B1B7E38
:10A1340003BB114B5A68114B53F82230984704461D
:10A1440002280DD00328EAD00128EBD10A4A53682B
:10A1540001335360092BE5D97846FEF7D3F8E1E7DC
:10A16400054B1B7E1BB1044B02221A70DAE7FFF782
:10A17400BFFED7E710BD00BF683E002020150400D5
:10A18400104B1B681B685A1E12F1030F18D8C3F337
:10A194000B020AB10020704710B50B4AD3600023AC
:10A1A400137653760124147093600848FFF78AFFEE
:10A1B4000749204601F042F8FFF79AFF204610BDF8
:10A1C40000207047883E0020683E0020159F020052
:10A1D400D9A1020008B50B78032B06D00B4B1B78D2
:10A1E400012B06D0022B0BD008BD084B00221A7697
:10A1F400F4E7064B1B7E002BF6D1FFF779FFF3E75C
:10A204000B78032BF0D1FFF773FEEDE7683E0020D7
:10A2140000B585B0174BDB6818784FF6FF7203F56D
:10A224008051184404F08EFEF0B10246114BD968F7
:10A234000B780B44984219D00E4B5B7E93B10E4BB6
:10A2440001208DF8000001920393042302930B4A2A
:10A25400694601F005F858B90120064B187605B097
:10A264005DF804FB064BEBE70120F8E70120F6E775
:10A274000020F4E7683E00206C170400843E0020B0
:10A284006817040008B5104BDB681878002203F542
:10A294008051184404F056FE08B1012008BD0A4B51
:10A2A400DA68137951795B1A03F57F2303F6FF7398
:10A2B40002EB03339A4205D002F58052024BDA6076
:10A2C4000320EBE70220E9E7683E0020F0B585B003
:10A2D400524BDE6872793379591E8A4200F09680B7
:10A2E40006F580510D780D444D490968081D0F7914
:10A2F40007449B1A03F57F2303F6FF731B0303F53F
:10A3040080531E446B88013B9BB247F6FE62934226
:10A314005CD92C4616E07846FDF7F4FF15E024F4EA
:10A324007F6424F00F0404F5805423781C44A6426F
:10A3340047D9A54247D26388013B9BB247F6FE62E8
:10A34400934211D92388002BE5D0238804EB83039F
:10A3540023F47F6222F00F029342E0D06288B2F5C8
:10A36400FE4FDCD01C46E2E725462FE07846FDF799
:10A37400C9FF15E024F47F6424F00F0404F580542D
:10A3840023781C44A64220D9A5423BD26388013BD2
:10A394009BB247F6FE62934211D92388002BE5D085
:10A3A400238804EB830323F47F6222F00F02934299
:10A3B400E0D06288B2F5FE4FDCD01C46E2E72546C9
:10A3C40004E0002502E0002500E00025E5B1144B7F
:10A3D40019686A8801F58051384604F0B3FD0746D0
:10A3E400B8B101200D4B18768DF8000001950D4B86
:10A3F4000393042302930C4A694600F031FF50B9D9
:10A404002C46CAE70025E1E7012000E0012005B061
:10A41400F0BD0120FBE70020F9E700BF683E002003
:10A42400883E002064170400843E00202DE9F0419A
:10A4340086B06A4B1B692BB1684B5B6933B14FF033
:10A44400000848E07846FDF75DFFF5E77846FDF73C
:10A4540059FFF4E77846FDF755FF15E025F47F65CD
:10A4640025F00F0505F580552B781D44AE421CD907
:10A47400AC421ED26B88013B9BB247F6FE6293420C
:10A4840011D92B88002BE5D02B8805EB830323F40B
:10A494007F6222F00F029342E0D06A88B2F5FE4F49
:10A4A400DCD01D46E2E72C4600E000241CB10094F9
:10A4B40045E00024FAE700230093019B002B68D1B8
:10A4C4004FF0010824B1628847F6FF739A4202D123
:10A4D400424B01225A76414B5B7E002B7AD1B8F174
:10A4E400000F75D13D4B5A6922F47F6727F00F079F
:10A4F400BF1A07F580571C69DE68337972799B1A95
:10A5040003F57F2303F6FF731B0303F580531E44F7
:10A51400002301936388013B9BB247F6FE6293429A
:10A52400C5D92546ADE77846FDF7ECFE22E024F4D4
:10A534007F6424F00F0404F5805423781C44A6425D
:10A54400BBD92388019A02EB83029742B5D9009BB9
:10A55400634023F47F6323F00F03002BADD16388A2
:10A56400013B9BB247F6FE618B42A6D80192238839
:10A57400002BD8D0238804EB830323F47F6222F0DA
:10A584000F029342D3D06288B2F5FE4FCFD01C465F
:10A59400D5E7124A526901208DF808000392009A07
:10A5A400059204930E4A02A900F05AFE70B90B49B1
:10A5B400019B23F003024B6913444B6114B1074B15
:10A5C4001C617FE77846FDF79DFEF8E7002002E076
:10A5D400012000E0012006B0BDE8F081683E0020C3
:10A5E400843E002008B54FF010235B69B3F1FF3FB0
:10A5F40003D04FF010235B6963B94FF08052516967
:10A60400136903FB01F3A3F58053054A1360FFF7B5
:10A61400B7FD08BD4FF010235B69A3F58053F2E743
:10A62400883E0020024B1878003018BF0120704784
:10A63400683E002010B504460E4B1B78ABB9237856
:10A64400032B02D07846FDF75DFE0A4B9C60E2685E
:10A65400DA6000225A601A76012018705A76064988
:10A6640000F0ECFDFFF744FD10BD7846FDF74AFE0F
:10A67400E5E700BF683E0020D9A10200014B18683D
:10A68400704700BF883E002010B5044680B163685F
:10A694001BB123680BB1A36813B97846FDF732FEEA
:10A6A400A3685A1E134207D10023E360236110BD3F
:10A6B4007846FDF727FEEAE77846FDF723FEF3E741
:10A6C400F8B5F8B10446F9B18268FAB1EFF3108530
:10A6D40072B6026980680244E668B24203D1C5B921
:10A6E40062B6042513E027686368013830401A46CF
:10A6F40000FB037016F02EFAE3680133E36055B9EA
:10A7040062B604E00E2502E00E2500E00925284685
:10A71400F8BD0425FBE70025F9E770B5F0B1044660
:10A724008268EAB1EFF3108572B60669C268964290
:10A7340010D0084621686268A368013B1E4006FBEE
:10A74400021108B116F006FA23690133236165B9D1
:10A7540062B606E03DB962B6052502E00E2500E0CA
:10A764000925284670BD0525FBE70025F9E700000B
:10A77400C0F30B0333BB39B301F6FF71090B134B61
:10A784000222C3F80425114BD3F80034002BFAD06D
:10A7940000220AE00D4BC3F808050C4BD3F8003433
:10A7A400002BFAD000F5805001328A42F2D3074BD5
:10A7B4000022C3F80425054BD3F80034002BFAD04B
:10A7C40000207047102070470920704700E00140C6
:10A7D40010F0030F2FD111F0030F2FD182B312F019
:10A7E400030F2FD110B49208174B0124C3F804456A
:10A7F400154BD3F80034002BFAD002E004300431B6
:10A804002246541E52B10B68B3F1FF3FF6D00360E9
:10A814000D4BD3F80034002BFAD0EFE70A4B00219C
:10A82400C3F80415084BD3F80034002BFAD01046B3
:10A834005DF8044B70471022104670471022FBE766
:10A844000922F9E70922F7E700E00140018000232B
:10A85400438042607047000038B5124C4FF4805575
:10A864002A460021204616F09EF90F4B1C600AE090
:10A87400002228212046FFF7E9FF238808332344D8
:10A884006360303D1C46502DF2D8083D05D00022AF
:10A89400A9B22046FFF7DAFF38BD7846FDF732FD4E
:10A8A400F5E700BF903E0020904E002008B5082236
:10A8B4000221084803F0FFFE38B1074A916841605D
:10A8C400127B027203F030FF08BD044804F04AF81A
:10A8D400FAE700BF9C4E0020E44E00207C330020A9
:10A8E4000E4B1B78CBB910B50D4B5C6804F50054C6
:10A8F400B4F1807F00D910BD04220121094803F07E
:10A90400DAFE30B14460054A0121117003F00CFFF6
:10A91400F1E7054804F026F8EDE77047F84E00200B
:10A92400E44E00209C4E00206C33002010B50446F9
:10A9340008B1A04710BD7846FDF7E4FCF9E7000034
:10A9440008B501210B4803F017FF20B9022109487B
:10A9540003F012FF28B1084804F004F8FFF7C0FF21
:10A9640008BD064B00221A605A609A60DA601A61C8
:10A97400F4E700BF9C4E00209C330020E44E0020EE
:10A9840000B58DB004918DF8082003900CA8022323
:10A9940000F82C3DFFF78AF80DB05DF804FB0000C9
:10A9A40010B58CB00C4682B94B88012B20D1134BC7
:10A9B4001B7833B16268124B5A60104B00221A7034
:10A9C40016E07846FDF79EFCF4E7032A12D12C2208
:10A9D400002101A816F0E7F810238DF80430039441
:10A9E400084BDA6805921B69069301A8FFF75EF825
:10A9F4000CB010BD7846FDF785FCE8E7F84E002062
:10AA0400E44E00209C4E002038B503F0C3FF28B963
:10AA140001F09EFF0028F8D020BFF6E701F0CEFE3B
:10AA2400002211461A4803F0A0FD00252C4605E03B
:10AA3400051D02460021164803F097FD30B14388F6
:10AA4400012BF5D0022BF4D1041DF2E7A4B19DB182
:10AA54002268104B9A6022791A73AC4201D9237987
:10AA640093B12A680B4B1A600A4B1A685A60FFF7B5
:10AA740037FF01F0C3FE38BD064B00221A609A600E
:10AA84001A73FFF713FFEFE7024B00221A60EBE79C
:10AA94009C4E0020E44E002008B503F0BDFFA0F555
:10AAA400805008BD00B587B0002300930193029342
:10AAB400039304930593FFF7EFFF009001230193A1
:10AAC400064B03936946064803F006FF10B907B026
:10AAD4005DF804FB034803F045FFF8E7A5A902006D
:10AAE4009C4E00208C33002038B50F4B00241C6092
:10AAF4005C609C60DC601C6101F0BEF90B4D686019
:10AB04000B4BAB600B4BEB602C616C610A4B1C7004
:10AB14000A480B4B036000F0F9FD284601F0AEF83B
:10AB2400FFF7C0FF38BD00BFE44E0020C04E002038
:10AB340011AD020000879303F94E0020D84E002087
:10AB4400E5AC020038B501F039FE174B1B7B13BB93
:10AB5400154B9B7B23BB144B1A8A41F282639A42A6
:10AB640004D8124B1B78A3B1012300E00123CBB11D
:10AB74000D4D01232B7300242C82AB680133AB6091
:10AB8400FFF794FEA9682A7B01392046FFF7F8FEF7
:10AB940002E00023EBE7082401F030FE204638BD34
:10ABA4000824F9E70824F7E7E44E0020F94E0020D2
:10ABB40010B501F003FE214B5B7B9BB11F4B9B7BCC
:10ABC400F3B91E4B1A8A41F282639A4204D81C4B91
:10ABD4001B782BB1012300E001239BB1012302E088
:10ABE4000023FAE700231C461BB3144B00225A73BC
:10ABF4001B7B4BB1012B0ED07846FDF783FB18E08D
:10AC04000023F0E70023EEE7FFF79CFF88B17846C6
:10AC1400FDF778FB0DE0094B0020186058601873AD
:10AC2400188202469968FFF7ABFEFFF73FFEFFF775
:10AC340057FE01F0E3FD204610BD00BFE44E0020A6
:10AC4400F94E002038B5254B1B7B002B36D104462A
:10AC5400224B5B8A33BB1AB9204B9B688B4205D3CA
:10AC640002B31E4B9B6801338B421BD21B4B9B6868
:10AC74002A338B4224D3194B9B7B0BBB174DA96002
:10AC84002B606B602B8242F606526A826B732B73C5
:10AC9400FFF70CFEFFF724FE2A7BA9682046FFF786
:10ACA4006FFE0DE062B10D4B9B6801338B4207D1FF
:10ACB4000A4B01225A73FFF77BFF01E0012B00D0FE
:10ACC40038BD002AFCD1054B9B688B42F8D1034B5D
:10ACD40001225A73FFF76CFFF2E700BFE44E002035
:10ACE4000378042B00D0704743681B78002BFAD0FC
:10ACF40010B58468027E437E012A14BF002201221B
:10AD0400416904F11000FFF79DFF10BD08B5214B08
:10AD14001B7B7BB1012B20D07846FDF7F3FA1D4A4B
:10AD2400138A013313821B4B5B8A13B1013B194A0B
:10AD3400538208BD174B1A8A41F282639A4204D89F
:10AD4400154B1B783BB1012300E00123002BE6D017
:10AD5400FFF72EFFE7E70023F8E70E4B1B8A41F2CB
:10AD64008262934204D80C4A127872B1012200E044
:10AD74000122002AD3D042F2B012934207D9054BE4
:10AD840001225A73FFF714FFCDE70022F1E7FFF722
:10AD94000FFFC4E7E44E0020F94E002010B5184B15
:10ADA4001A685B689A4225D20446154B1B7B012B1B
:10ADB40013D0144B9A4212D2114B1A685B68403B71
:10ADC4009A4214D2EFF3108072B60D4A1368591CDC
:10ADD4001160236090B962B610BD0B4BEAE7084BD3
:10ADE40001225A73FFF7E4FE0028EBD1E4E7FFF7F2
:10ADF40077FDE7E7FFF774FD0F20EDE70020EBE7B1
:10AE0400E44E0020FFFF7F0000E0FF0008B568B9B2
:10AE14000C4B1B6893B10B4A1368013B136063B975
:10AE2400094B00229A73FFF7C3FE06E0064B01228A
:10AE34009A73044A13680133136008BD7846FDF71A
:10AE440061FAE8E7984E0020E44E002000B58DB08A
:10AE5400ADF808008DF8102003910CA8032300F826
:10AE64002C3DFEF723FE0DB05DF804FB014B986802
:10AE7400704700BFE44E0020054B1B7B012B02D022
:10AE8400034B98687047024B98680138704700BFBD
:10AE9400E44E0020044B9B68584010F0010F00D092
:10AEA400013B1846704700BFE44E0020014B187B5D
:10AEB400704700BFE44E002038B50A4B1B7873B9C5
:10AEC400084B01221A70084DA8602973FFF7EEFCA5
:10AED40000242C606C60FFF703FD204638BD082079
:10AEE400FCE700BF944E0020E44E00202DE9F04121
:10AEF400002724E02449BC2303FB04F3CA5A01328B
:10AF0400CA520221284602F081FB0136022128465A
:10AF140002F04CFB80B11C4ABC2303FB0423D3F88E
:10AF24000880B8F1000FE5D0BC2303FB04F3D25A28
:10AF340001463846C047DDE78EB90137FFB2022F1C
:10AF44001FD83C46BC2303FB07F308330E4D1D44B6
:10AF540004350221284602F029FB0026DAE7002105
:10AF6400284602F0BBFB0828E7D1074BBC2202FBB2
:10AF74000434A368002BE0D00022044938469847E3
:10AF8400DBE70120BDE8F081044F002048150400F0
:10AF940008B5082383731023437300F11C03436132
:10AFA4000323037300F1180303610C3002F068FB00
:10AFB40008BD000008B50378012B06D0022B07D08A
:10AFC4007846FDF79FF9002001E04FF4A97008BD11
:10AFD4000048FCE7645E010008B50278012A07D046
:10AFE400022A13D07846FDF78DF94FF4FA7308E07E
:10AFF40083685B1A98084FF4A97303FB00F303F505
:10B00400FA730748984228BF184608BD83685B1A3C
:10B01400180B044B03FB00F303F5FA73F1E700BFCD
:10B02400A0860100645E010010B5044601210C30C5
:10B0340002F0BCFAA0B10D4AC4F89C200022C4F866
:10B04400A0206168FFF7C8FFC4F8A800C4F8AC40AA
:10B05400012384F8B83004F19C000BF0B3FE00B96E
:10B0640010BD7846FDF74EF9FAE700BF71B1020052
:10B07400F8B506460C46174615680378012B18D117
:10B084001249A1FB0431C9098900B468641B8C42CC
:10B0940000D30C468CB1706825F00305F168224694
:10B0A40029442844FFF794FB58B93B681C443C608E
:10B0B400F8BD7846FDF726F9E2E77846FDF722F970
:10B0C400E9E77846FDF71EF9EFE700BFEB5DF260B4
:10B0D400F8B507460C46164615680378022B16D1B8
:10B0E400114BA3FB04231B0C1B03BC68641B9C4275
:10B0F40000D31C467CB1786825F00305214628441A
:10B10400FFF736FB58B933681C443460F8BD784601
:10B11400FDF7F8F8E4E77846FDF7F4F8EBE778464E
:10B12400FDF7F0F8EFE700BFB77609BB38B5054681
:10B134000C4611462378012B06D0022B0FD07846FB
:10B14400FDF7E0F8002304E0021D2046FFF790FF1E
:10B15400A3686868984214BF0020012038BD021D0E
:10B164002046FFF7B5FFA368F3E700002DE9F84395
:10B174000F46D1F8A850234B1B7863B90646A5F5B2
:10B18400FA7501F10C090121484602F00FFA8046D4
:10B1940040B1002422E00BF051FE002387F8B830C0
:10B1A400BDE8F8837846FDF7ADF8F2E70BF046FE0C
:10B1B4000121484602F02AFA00237B6087F8B83060
:10B1C400114B186801F05CFB3846FFF72DFFE7E7E9
:10B1D4004046FFF7EFFE2044A8420CD82A1B414604
:10B1E4003846FFF7A3FF0028E0D100F045FE841B9A
:10B1F400EED5341AECE70BF021FE3846FFF714FFC6
:10B20400CEE700BF004F0020FC4E002010B50848D8
:10B2140001F016FB074B1860002406E0064BBC2027
:10B2240000FB0430FFF7B4FE0134022CF6D910BD44
:10B23400F1AE0200FC4E0020044F002038B5044655
:10B244000D46022805D8054BBC2202FB0434A56038
:10B2540038BD7846FDF756F8F5E700BF044F0020E7
:10B264002DE9F84306460C461746022816D8CCB1F9
:10B274002378012B1AD0022B3ED16368C3F30B034E
:10B28400002B31D1A368C3F30B03002B30D1A36887
:10B29400002B34D17846FDF735F830E07846FDF7D9
:10B2A40031F8E4E77846FDF72DF8E1E7636813F039
:10B2B400030F0DD1E36813F0030F0DD1A36813F04E
:10B2C400030F0DD1A368D3B97846FDF71BF816E038
:10B2D4007846FDF717F8EDE77846FDF713F8EDE744
:10B2E4007846FDF70FF8EDE77846FDF70BF8C9E768
:10B2F4007846FDF707F8CAE77846FDF703F8EFF359
:10B30400108872B6BC2505FB06F505F10803204D2F
:10B314001D4404350021284602F048F9814668B3EB
:10B324000021284602F072F920686168A268E36887
:10B33400C9F80000C9F80410C9F80820C9F80C308D
:10B344002FB1134ABC2303FB06235B883B80104ABE
:10B35400BC2303FB06235A8801325A8093F8B83081
:10B3640073B90C4B1B780BB100200AE0084BBC20CE
:10B3740000FB0630FFF758FE002002E0042000E046
:10B384000020B8F1000F00D162B6BDE8F88300BF19
:10B39400044F0020004F002018B1830B024AD05CF8
:10B3A40070470020704700BF5815040012DF704733
:10B3B40000B583B01378A3B1042B14D1072110F87E
:10B3C400013C163B152B31D8DFE803F059303030FF
:10B3D4003030303030303030303030303030302E6B
:10B3E4000F3A517DEBE70021E9E7022901D0072953
:10B3F4001CD110F8021C013901F068FEB0B1264BD3
:10B404001B6813F0400F11D0244B1B68012B0DDD7A
:10B41400234BD3F804350190224A00928C2222490E
:10B42400022002F043FB01E0022902D003B05DF8E0
:10B4340004FB10F8021C0139C9B211F0F3FFF5E75F
:10B444000229F3D110F8021C0139C9B203F0ECFC53
:10B454000028EBD0104B1B6813F0400FE6D00F4BC5
:10B464001B68012BE2DD0E4BD3F8043501900F4A23
:10B4740000929F220C49022002F018FBD6E70188B3
:10B484004FF6E4639942D1D110F8021C033902301B
:10B49400FCF788FECAE700BFBC330020B8330020A5
:10B4A40000B00040CC150400BF150400F8150400DA
:10B4B40000B58DB02C22002101A815F074FB0D23DA
:10B4C4008DF8043001A8FEF7F1FA0DB05DF804FB25
:10B4D40070B58AB00CF0F6F958B3064600238DF81F
:10B4E400103005AC05460FCD0FC42B682360727D68
:10B4F400052A04D9337D03F00F03072B20D1184B01
:10B504001B689BB104AB0393337DC3F303038DF832
:10B514000430737D062B1DD9063B8DF8053006F1EA
:10B524001D0302930E4B1B6801A8984730460CF08C
:10B53400A9F90CF0E1F980F00100C0B20AB070BDC5
:10B54400307D04AB063A06F11D0100F00F000AF04D
:10B554008BFFD4E700238DF805300293E2E700BFA8
:10B564003C51002070B582B0304B1B78002B55D174
:10B57400002857D0067A0F2E01D0072E54D1044646
:10B58400C06870B1FCF7E8FE0DF10700FFF70EFF8D
:10B594000546002843D19DF80730012B04D002252D
:10B5A4003DE0FCF7E7FEEFE7FCF7FAFE00F052FBA4
:10B5B400304601F0CBF8E07800F032F900F0D0FF2B
:10B5C4000BF0BEFB1A480CF033FA0BF0EBF8FFF764
:10B5D4001DFE02F043FF174803F022FA04F090FC2A
:10B5E400204601F04FFC2046FDF7EAFE03F09CFFE5
:10B5F4002046FFF731F9FCF7D5FD18B1062801D034
:10B6040005460CE000F056FD0B480AF00FFF0B4B0B
:10B6140000221A60054B01221A7000E00825284612
:10B6240002B070BD0E25FAE70725F8E7395100206E
:10B63400D5B40200B5B40200AC3300203C51002064
:10B6440010B50E4B1B789BB10D4B1B7893B900F0D2
:10B65400ADFF48B90BF096FB044660B90CF0D2F884
:10B66400074B01221A7006E07846FCF74BFEF1E71F
:10B67400082400E00824204610BD00BF39510020F2
:10B684003851002010B5094B1B785BB10BF08AFBD5
:10B69400044640B90CF0CCF800F0F2FF034B002252
:10B6A4001A7000E00824204610BD00BF3851002065
:10B6B40030B583B004460D460E4B1B6813F4804F1F
:10B6C40003D00D4B1B68062B05DC29462046FDF7ED
:10B6D400DFFE03B030BD094BD3F80435084A0192AC
:10B6E400084A009240F2B3120749072002F0DEF93B
:10B6F400EBE700BFBC330020B833002000B00040AB
:10B704005C15040070120400BF15040008B5FEF7B0
:10B71400F5F908BD08B500F0F9FE002008BD0000E9
:10B72400014B1860704700BF3C51002008B505F07C
:10B73400A1FF08BD064A136801331360B3F1704FCB
:10B7440002D0034B18687047134601221A60F8E7C9
:10B754004051002010B5044618B1002323606360F3
:10B7640010BD7846FCF7CEFDF7E738B50C46054624
:10B7740068B184B100236360EFF3108372B62A6862
:10B784006AB16A6854606C6003B962B638BD7846C1
:10B79400FCF7B8FDEDE77846FCF7B4FDEAE72C606A
:10B7A400F1E710B5044658B1EFF3108372B6206880
:10B7B40008B142682260226832B103B962B610BD92
:10B7C4007846FCF79FFDEFE76260F6E710B50446A4
:10B7D40008B1206810BD7846FCF794FDF9E735DF21
:10B7E40070473CDF7047000010B504464FF0FF304F
:10B7F400FFF7F5FF4FF0FF312046FFF7F2FFBFF3ED
:10B804004F8F0549CA6802F4E062044B1343CB60CE
:10B81400BFF34F8F00BFFDE700ED00E00400FA0521
:10B82400072814D8DFE800F0080C1504110F0A06E5
:10B834006420704714207047FA2070471E20704718
:10B844004FF4FA707047322070474B207047FA204B
:10B8540070479620704746DF7047F8B504460D469A
:10B864004B1EDBB2012B09D8002222616261A26166
:10B87400E2612046FFF7EFFF012616E07846FCF769
:10B8840041FDF1E7CA5CC8185200D2B2407842EADE
:10B89400D012CA5401339BB20E2BF3DDCB7B5B0079
:10B8A400CB73002F08DB0136F6B2AE420BD821462B
:10B8B40011F9207F0023EFE794F82F3083F08703FA
:10B8C40084F82F30EFE7F8BD2DE9F04190B08446BD
:10B8D4000C4696461F4602F10F0636111FFA86F8EB
:10B8E40004AD0068DCF80410DCF80820DCF80C3047
:10B8F4000FC50EF00F05B8F1000F02D085B100237B
:10B9040000E0002398466BB1012104A8FFF7A5FFCE
:10B91400B8F1000F1BD0B0B20138000110230EE0C3
:10B924000123EFE70221F0E7013B9BB22218D25C2E
:10B9340010A9194411F8101C4A400DF80320002BDB
:10B94400F2D100250C950D950E950F9534E0B1B20A
:10B954000139ADB22A4604EB0111684615F0FAF834
:10B9640080230DF805306B1C03E000220DF8032042
:10B9740001330F2BF9DD10230AE0013B9BB21DF8C4
:10B98400032010A9194411F8101C4A400DF8032093
:10B99400002BF2D1D5E7013B9BB210AA1A4412F84E
:10B9A400102C2118C95C4A4008A9CA54002BF2D1B2
:10B9B40004A8FFF750FF0135B3B2013BAB4202DDEF
:10B9C40028011023F2E710230AE0013B9BB210AADE
:10B9D400D11811F8402C11F8101C4A4008A9CA5477
:10B9E400002BF2D104A8FFF736FF0CAC0FCC386063
:10B9F4007960BA60FB6010B0BDE8F08170B51E4E8E
:10BA040010E063693360002363611B4AD368591EE5
:10BA1400D160ABB1184A9368013B93600023237053
:10BA2400032D11D034682CB3134B9B6813B32578C2
:10BA3400EDB2EB1EDBB2012BE3D904F11406F1E7FE
:10BA44007846FCF75FFCE5E723781BB12378DBB28B
:10BA5400062B0BD1636913B17846FCF753FC012321
:10BA64002370054B5A6862615C60DBE77846FCF73B
:10BA740049FCEFE770BD00BF4851002010B50446F3
:10BA8400436913B17846FCF73DFC164B1B684BB178
:10BA94006068144B1B685B68C31A002B02DB114BF4
:10BAA40019680DE00F4A136863611460D3680133A9
:10BAB400D36003B110BD7846FCF724FCFAE71946BD
:10BAC4004B691BB15A68121A002AF8DB63614C6196
