:020000022000DC
:1060000000F0002035620200656202006762020053
:10601000696202006B6202006D6202000000000013
:106020000000000000000000000000006F6202009D
:1060300071620200000000007362020075620200DB
:10604000796202007B6202007D6202007F620200D0
:1060500081620200836202000D6E0200E19903007A
:10606000896202008B620200115B03008F620200F2
:106070009162020093620200956202009762020040
:10608000996202006993030035B802009F62020022
:1060900091930300A362020019890300A762020022
:1060A000A9620200AB620200AD620200AF620200B0
:1060B000B1620200B36202007762020077620200FE
:1060C000B5620200B7620200B9620200BB62020060
:0C60D000BD620200BF620200C16202005B
:1060DC00354936480A1A02D0072291438D46344975
:1060EC0034480A1A06D00722914381F30988022208
:1060FC0082F3148830483149314A00F043F8314872
:10610C003149324A00F03EF831483249324A00F007
:10611C0039F832483249334A00F034F832483349BE
:10612C00334A00F02FF833483349344A00F02AF848
:10613C0033483449344A00F025F8344834490022B5
:10614C0000F02BF833483449002200F026F833488D
:10615C003349091A082903DB00220260043001606C
:10616C001F482049884205D00268043003B4904788
:10617C0003BCF7E700208646EC4600200021294AA4
:10618C009047FEE7884207D0521A05D003780130B9
:10619C000B700131013AF9D17047884202D002707C
:1061AC000130FAE77047000000F0002000E8002002
:1061BC0000F0002000F000205C0C0400C83200202D
:1061CC0028340020C4620200C462020014F60300EA
:1061DC005C0C0400C8320020C832002044F60300D6
:1061EC0044F6030044F6030044F6030044F60300AF
:1061FC0044F6030044F6030044F603005C0C040070
:10620C00BC0D040028340020283400202834002041
:10621C00606B0020606B0020606B0020606B0020C6
:10622C00606F0020B169020008484FF007018843F5
:10623C008546074880470748016841F470010160B2
:10624C00BFF34F8FBFF36F8FFFF742BF00F00020FB
:10625C007197030088ED00E0FEE7FEE7FEE7FEE73E
:10626C00FEE7FEE7FEE7FEE7FEE7FEE7FEE7FEE7FA
:10627C00FEE7FEE7FEE7FEE7FEE7FEE7FEE7FEE7EA
:10628C00FEE7FEE7FEE7FEE7FEE7FEE7FEE7FEE7DA
:10629C00FEE7FEE7FEE7FEE7FEE7FEE7FEE7FEE7CA
:1062AC00FEE7FEE7FEE7FEE7FEE7FEE7FEE7FEE7BA
:0862BC00FEE7FEE7FEE700BF6C
:1062C40041DF704776DF70477ADF70477CDF7047C5
:1062D4000020704708B504F02BF908BD00B583B061
:1062E4009DF80430012262F3030362F3071302A84A
:1062F40000F8043D06220549FFF7E8FF10B903B092
:106304005DF804FB13F04EFBF9E700BF98F60300B9
:1063140008B513F047FB08BD00B583B0037823B17B
:10632400012B0BD003B05DF804FB3B214088FFF741
:10633400C9FF0028F6D013F035FBF3E7094B1B68BF
:1063440013F4804FEED0084B1B68032BEADD074B98
:10635400D3F80435064A0092E0220649042006F0E8
:10636400ADFADFE7383300203433002000B00040BA
:1063740080F7030078F7030000B58BB00023ADF875
:1063840008307823ADF80430C823ADF806304FF454
:10639400C873ADF80A3001A8FFF796FFC0B900230F
:1063A4000693079301AB039340F6CD4304934FF454
:1063B4008033059303238DF81830084B0893084B5A
:1063C400099303A812F0BCFC28B90BB05DF804FBD8
:1063D40013F0E8FAE3E713F0E5FAF6E71D630200C9
:1063E4001563020000B585B01F4B1B6813F4804F82
:1063F40003D01E4B1B68032B1DDCFFF76FFFFFF759
:10640400BBFF03A80DF084FD174B1B6813F4804FEA
:1064140003D0164B1B68032B18DC00214FF4F0103B
:1064240000F06AFC0422C8214FF4003000F070FC34
:1064340005B05DF804FB0E4BD3F804350D4A009209
:1064440068220D49042006F039FAD6E7084BD3F840
:106454000435BDF80C200192084A009270220649C6
:10646400042006F02BFAD8E7383300203433002018
:1064740000B00040ACF7030078F70300C8F703004E
:1064840010B5034C2146002013F02AFC207810BDDF
:106494002834002010B50B4A10680B4BA3FB0013E3
:1064A4005B09C3EB03139900431A01331360074CD0
:1064B4002146002013F014FC2178054818F0B0FEA2
:1064C40010BD00BF5C3400208988888828340020EF
:1064D4005034002000B583B00F4B1B6813F4804F79
:1064E40003D00E4B1B68032B0ADC0322C8214FF494
:1064F400003000F00DFC08F03FFD03B05DF804FB34
:10650400074BD3F80435074A009293220649042026
:1065140006F0D4F9E9E700BF383300203433002013
:1065240000B00040FCF6030078F7030030B583B0F8
:1065340004462A4B1B6813F4804F03D0284B1B6876
:10654400032B05DC022C0FD9032C3FD003B030BD44
:10655400244BD3F804350190234A0092A322234903
:10656400042006F0ABF9EDE71C4B1B6813F4804FD5
:1065740003D01B4B1B68032B1DDC1D4D294600203B
:1065840013F0AEFB29781B4818F04AFE134B1B6826
:1065940013F4804FDAD0124B1B68032BD6DD114B5A
:1065A400D3F804350194144A0092B9220F49042007
:1065B40006F084F9CAE70B4BD3F804350F4A00926E
:1065C400B1220A49042006F079F9D6E70AF020F846
:1065D40008F078FCFFF77EFFB8E700BF38330020EF
:1065E4003433002000B0004060F6030078F7030065
:1065F400283400205034002084F6030074F603008D
:106604003038042800D9704708B5FFF78FFF08BD5C
:1066140008B503781C2B00D008BDFFF75BFFFBE730
:1066240008B500224FF4F011034812F0F9FE00B946
:1066340008BD13F0B7F9FBE72C3400202DE9F04135
:1066440088B004AF64212E4800F0FEFA08F08AFCFA
:10665400A0B92C4B1B78BBB100F0A8FD2A4B1B68DA
:1066640013F4804F46D0294B1B68032B42DDE846C8
:106674008AB00DF1100C6646002326E0244A4FF43C
:10668400C97113F09DF9E4E7224A3B1D07CA83E868
:106694000700184600F072FA0028DDD01C4A40F2C8
:1066A4009D1113F08DF9D7E7C25C4FEA121E590011
:1066B400194C256815F80EE006F813E002F00F02F5
:1066C40001312468A25C725401330F2BECD90023EE
:1066D4008CF82030114BD3F80435CDF808C0104A9B
:1066E4000192104A009240F2A1120F49042006F0D0
:1066F400E5F8C546FFF794FF1037BD46BDE8F081C5
:10670400056602004C340020383300203433002066
:1067140018F7030044F603003C33002000B00040A7
:10672400E0F70300F0F7030078F7030000B58FB03B
:10673400184BDB680EA941F8143D04220AA800F0A6
:1067440099FBD0B920220021684618F0FCFE0123F1
:106754008DF8003007238DF803308DF808300AAB2C
:1067640003930D4B04930D4B08930D49684608F0B1
:10677400BFFB40B90FB05DF804FB0A4A4FF48871BF
:1067840013F01EF9DEE7074A40F2191113F018F965
:10679400F0E700BF44F6030015660200AD6702008F
:1067A4004C34002018F7030000B583B0174B1B6866
:1067B40013F4804F03D0164B1B68032B10DC1548D1
:1067C400154B4360154B8360002118F005FD90B90B
:1067D400104B18880BF056FB90B903B05DF804FB1E
:1067E4000F4BD3F804350F4A0092EB220E490420D4
:1067F40006F064F8E3E70D4AEF2113F0E1F8E7E768
:106804000A4AF02113F0DCF8E7E700BF3833002030
:10681400343300205034002085640200D562020025
:1068240000B00040DCF6030078F7030018F703001B
:1068340000B585B001AB0B4A07CA03C31A70002127
:10684400094813F0A1F938B901A9002013F0F0F9AF
:1068540028B905B05DF804FB13F0A4F8F4E713F0CD
:10686400A1F8F6E754F6030094F6030010B582B0DD
:10687400114A0121114812F0BDFD0446104B1B685A
:1068840013F4804F03D00F4B1B68032B02DC74B945
:1068940002B010BD0C4BD3F8043501900B4A0092A2
:1068A40040F25B120A49042006F008F8EFE720469C
:1068B40013F078F8ECE700BF99640200D8F60300FF
:1068C400383300203433002000B0004008F80300BF
:1068D40078F7030008B5FFF7ABFFFFF7C7FF08BD64
:1068E40000B585B0294A042146F2010005F0CAFF2B
:1068F400274B1B6813F4804F03D0264B1B68032BD4
:1069040022DC12F047FD58BB00F032FA224800F0B6
:106914004FFA58BB11F070FF70BB04A9002341F873
:10692400043D012012F056F848BB03A812F0A4F865
:1069340040BBFFF7D3FCFFF71FFDFFF7F7FEFFF7A0
:10694400C9FF05B05DF804FB144BD3F80435144AB1
:10695400009240F269121349042005F0AFFFD0E71A
:10696400114A40F26B1113F02BF8CDE70E4A40F2B6
:106974006F1113F025F8CDE713F014F8CDE713F0F9
:1069840011F8D2E713F00EF8D3E700BF5DC8020098
:1069940038330020343300203165020000B0004059
:1069A400A0F6030078F7030018F7030008B5FFF713
:1069B40097FFEFF3108572B6174B9B689BB9164A85
:1069C40001239360154BD3F88010154801401160E2
:1069D400C3F88000D3F8841051604FF0FF32C3F83D
:1069E4008420002400E0012405B962B6FFF726FEE6
:1069F400094B9B686BB164B9EFF3108172B6064B17
:106A04001868064A10605868506000229A6001B9FC
:106A140062B6FFF755FCFCE75069002000E100E096
:106A2400FC06FFBD2A4B1B78002B4FD000B585B068
:106A3400012804D0032842D005B05DF804FB04A962
:106A4400002341F8083D012011F0C4FF40BB02A817
:106A540012F012F838BB04A9012341F8043D0DF1EA
:106A640006000DF08DFF08BBBDF806000DF026FCF6
:106A74000DF105010DF074FDD8B909F0B3FC9DF8D2
:106A84000510002009F070FD03F0E8FCA0B9104BDC
:106A940000221A700F4B1B68002BCDD09847CBE710
:106AA40012F080FFD3E712F07DFFD4E712F07AFFF3
:106AB400DAE712F077FFE0E712F074FFE7E711F08E
:106AC4009BFE0028B8D012F06DFFB5E7704700BFF9
:106AD400613400206434002008B5084B01221A7088
:106AE40003F0DEFC18B911F0CDFE18B908BD12F0A0
:106AF40059FFF8E712F056FFF8E700BF61340020B1
:106B040008B50323002203494968034813F02EFF04
:106B140008BD00BF64340020A836002008B50378FF
:106B2400052B0DD0082B16D0022B00D008BD104B1E
:106B34001B7813B9FFF7E4FFF8E7FFF7CDFFF5E79C
:106B440010220C4B99680C4813F09AFF0028EDD0E2
:106B540012F028FFEAE78168C06808F078F918B9EC
:106B6400034B01221A70E1E712F01CFFF8E700BFA3
:106B74006034002064340020A836002010B586B0AC
:106B84000446214A03AB07CA03C323F8022B120CA1
:106B94001A701E4B94E8070083E80700002A31D0DE
:106BA4001B491C4813F0C6FE034610B1184606B034
:106BB40010BD194B009303AB154A1649174813F03F
:106BC40075FE03460028F1D1154815F02DFA01464B
:106BD400124813F097FE03460028E7D1114813F03A
:106BE4004FFA03460028E1D10E4813F07FFA01461C
:106BF4000A4813F087FE03460028D7D1FFF780FF29
:106C04000346D3E70723D1E724F8030064340020C4
:106C140070340020DC370020216B0200A8360020ED
:106C2400903400205836002008B5064B1B683BB151
:106C340010F06AF8002803DB024B1B689847F7E75B
:106C440008BD00BF1C38002010B50C46144B18605A
:106C5400144A0121144812F0CDFBA0B9610CE003E1
:106C640041F26F7200238B4208BF824210D24FF46C
:106C74007A72002318F0F3FA014600220B4812F04E
:106C8400CFFB38B910BD0A4A462112F099FEE5E758
:106C94000521F2E7064A472112F092FEF2E700BF0F
:106CA4001C3800202D6C020030F80300203800202E
:106CB40034F8030008B50D4B1B6873B14FF0A042C4
:106CC400D2F804350A4909684B40C2F80435074A2A
:106CD4001368013B136023B108BD002012F062FE6B
:106CE400ECE7044812F0BAFBF6E700BF4038002096
:106CF400443800204838002021B94FF0A043C3F89D
:106D0400080570474FF0A043C3F80C057047000016
:106D140012B11346132900D8704770B5114A106098
:106D24005B00013B104A136000264D0CCC034FF46A
:106D34007A72002314F5FA7045F1000118F08FFA05
:106D440032460146094812F06BFB48B94FF0A042A5
:106D5400D2F804350349096823EA0103C2F804356B
:106D640070BD00BF4438002040380020483800205F
:106D740008B511230BE04FF0A04103F5E0720320A6
:106D840041F8220001229A40C1F808250133142B4E
:106D9400F1D9054A0121054812F02CFB00B908BDC0
:106DA40012F000FEFBE700BFB96C020094F8030088
:106DB400F0B1104A1060002309E00F4AD25C02F5DA
:106DC400E0724FF0A0410D4841F822000133032B3B
:106DD400F3D90B4B4FF00042C3F804230020C3F84F
:106DE4007C01084BE02283F8062340221A60704796
:106DF4000E2070476838002098F803000C00030048
:106E04000060004000E100E010B50024144BC3F81A
:106E14007C410EE043F23333994208D9114BD3F845
:106E24000425114B1A60114B1B6820469847013406
:106E3400E4B2032C12D84FF0A043D3F810250C4B26
:106E4400195D01238B409343F1D0074B1B68054A1E
:106E5400D2F80425991ADDD5D11ADBE710BD00BF9D
:106E64000060004000B000406C380020683800200A
:106E740098F80300082A10D838B51446054618F0C7
:106E840039FBC4F108020021281918F05CFB044BFB
:106E940003CBA860E960002038BD0920704700BF1B
:106EA4006000001072DF704773DF704774DF704753
:106EB4002DE9F047A2B0074688469146314C00269A
:106EC400C4F80660E68130490B78C3EB43102F4DBC
:106ED400054425602E4A0244A2601F22A280A2819A
:106EE400013303F001030B704FF03C0A5246314664
:106EF40013A818F028FB06238DF84F30ADF848701E
:106F040001238DF84A30ADF85C3012AA1892ADF81E
:106F14003C70ADF84090CDF844800DEB0A021D9210
:106F24008DF8783052463146684618F00CFB02233F
:106F34008DF80030221D294613A811F03DFB90B9AD
:106F4400104B03F10C029968684611F035FB68B9DF
:106F5400104A0C491048FFF7A5FF082809D070B95A
:106F640022B0BDE8F08712F01DFDE9E712F01AFD2A
:106F7400EEE7002203490848FFF794FFEFE712F019
:106F840011FDEDE7B438002070380020743800207B
:106F9400C4380020CC320020C8320020034B00EB60
:106FA400800042009A819960704700BFCC32002073
:106FB40008B50121054B1878FFF776FF10B904F0E6
:106FC40071FA08BD12F0EEFCF9E700BFC8320020E8
:106FD40008B5044B1878FFF769FF00B908BD12F033
:106FE400E1FCFBE7C83200200620704700B587B0FB
:106FF40041F20103984245D020D944F2010398425A
:1070040056D044F2020398426DD1454B1B6813F4E9
:10701400804F1ED0434B1B68002B1ADD424BD3F824
:107024000435108803905268029201913F4A0092FD
:107034005F223F49012005F041FC0AE0012852D1BA
:10704400374B1B6813F4804F03D0364B1B68002B5F
:107054000BDC4FF0A0434FF4F012C3F81825C3F82B
:107064000C25EFF3108372B653E02F4BD3F804359D
:10707400029201912F4A009254222D49012005F0D9
:107084001DFCE6E7264B1B6813F4804FE1D0254B2B
:107094001B68002BDDDD244BD3F8043502920191EB
:1070A400254A009257222249012005F007FCD0E727
:1070B4001B4B1B6813F4804FCBD01A4B1B68002B5F
:1070C400C7DD194BD3F80435106804905068039059
:1070D400029192680192194A00926922144901208E
:1070E40005F0ECFBB5E70E4B1B6813F4804FB0D0F2
:1070F4000C4B1B68002BACDD0B4BD3F80435019112
:107104000F4A00926D220A49012005F0D7FBA0E73F
:1071140030BF0C4B1B78002BFAD107B05DF804FB91
:10712400383300203433002000B0004040F903001D
:10713400EDF8030000F903001CF9030060F90300F3
:1071440084F90300E432002000B583B00023ADF8D5
:107154000030054B01936A46014644F20200FFF7F2
:1071640045FF03B05DF804FB80F9030010B4034647
:10717400044C006859689A68DB680FC45DF8044BD6
:10718400704700BF04390020064B074A92E8030009
:1071940083E803000833443292E8030083E80300E1
:1071A400704700BF04390020600000100048704799
:1071B40004390020002308E0074901EBC300002242
:1071C4004280426001F8332001331F2BF4D9034B72
:1071D40000221A60704700BF14390020143A0020BE
:1071E40030B405460F4B1B6800240AE01F230E4AE7
:1071F40012F83300A0B102EBC3025288AA4207D0AE
:1072040001341F2C0BD85A1E002BEFD01346EEE787
:10721400054A02EBC30252688A42F1D100E0002021
:1072240030BC7047143A00201439002030B40A4AA4
:1072340013680A4C04EBC30568806960012104F8F3
:1072440033100B441360202B01D030BC704713461D
:1072540000221A60F9E700BF143A00201439002014
:10726400C0F30C038B4202D3C91A08447047C91AED
:107274000844A0F500507047C37D002B42D08378AA
:107284000A7802F0800203F07F0313430B70027844
:107294000B7803F07F0343EAC2130B700378002BCF
:1072A40041D030B44378082B14BF002201224B781C
:1072B40003F07F0343EAC2134B70858803F0800315
:1072C400C5F3861423434B708A7802F0030242EA22
:1072D4008502D2B28A70857902F0FC02C5F3C1043A
:1072E40022438A70CB7803F01F0343EA4513DBB2D1
:1072F400CB70C27903F0E00302F01F021343CB709A
:1073040030BC704783780A7802F0BF029B0103F017
:10731400400313430B70C27803F0C00302F03F0232
:1073240013430B70B3E770470023032B22DC10B424
:1073340002E00133032B19DC0F4C6C2202FB0342E5
:1073440092F84420012AF4D16C2202FB0342948A6D
:10735400C2899442EDD1084C6C2202FB034292880C
:107364008A42E6D16C2202FB034000E000205DF873
:10737400044B7047002070478C3A0020002300E043
:107384000133032B13DC0B496C2202FB031292F82A
:107394004420022AF4D16C2202FB0312918A828ACD
:1073A4009142EDD103486C2202FB03007047002098
:1073B400704700BF8C3A002008B1082070470420B1
:1073C4007047000038B505460C46CB695B78C3703E
:1073D400CB691B7883F001038370CB694362087B1C
:1073E400022814D0FFF7E8FF6870E27A32B9A18A64
:1073F400C0F10F03994201DC082831D0A18A034669
:10740400C0F10F00814207DC42B3012205E0154BB5
:10741400987DFFF7D1FFE7E701222A7062B1A28AC3
:1074240013440B33104A82FB0312DB17C3EB6203D2
:10743400013BEB710023AB710023EB7505F10C02EA
:1074440094E8030082E80300A2692A622289AA82DE
:10745400A27AAA75226AAA62184638BD0022DCE71D
:107464000720FAE7743A0020ABAAAA2A30B40346EC
:107474000C460978817000214162A1680B2903D868
:10748400217BF1B1012100E0012119700020587025
:1074940029B1A1680731C9080139D971987101214D
:1074A400D97503F10C0504F1100103C985E8030043
:1074B400E1899982A1691962217F99759A6230BC28
:1074C40070470021E1E700000021164B1B688B4246
:1074D40026D90023144A02EBC10252689A421DD9EC
:1074E40010B4114A52F8312002EBC30412F83320CD
:1074F40082420DD001330C4A02EBC10252689A4217
:10750400EFD80131074B1B688B4205D90023F2E702
:1075140060685DF8044B70470020FAE70131D4E756
:1075240000207047183A00201C3A002070B58CB037
:1075340006460D4614462C22002101A818F003F833
:107544000E238DF80430ADF808604FF0000365F3A6
:1075540000038DF80A308DF80B4001A801F0B0F952
:107564000CB070BD30B58DB005460C462C22002100
:1075740001A817F0E8FF0F238DF8043002958DF869
:107584000C4001A801F09CF90DB030BD00B58DB0E0
:1075940048B913F1020F06D001228DF8042002939A
:1075A40001A801F08DF9034B186804F071F80DB0CF
:1075B4005DF804FB283A00202DE9F0410546884691
:1075C4000378BBB10D4B1C68621C1A6004F00704FD
:1075D400AB8A0B4F07EBC4067380A988A869FFF731
:1075E4003FFE7060EB6903F00103737007F83480A9
:1075F400BDE8F0817846FFF7A7FDE3E7703A002085
:10760400303A002070B5064603784BB1B58A347F12
:1076140004F00104B188B069FFF722FE002304E0FE
:107624007846FFF791FDF1E70133072B15D80C4A93
:1076340002EBC30252688242F6D1094A02EBC3024A
:107644005288AA42F0D1064A02EBC3025278A242FF
:10765400EAD1034800EBC30000E0002070BD00BF86
:10766400303A0020F0B40D684C688F68CE68D5605D
:107674001461576196610D694C69D5611462037890
:10768400DB091370D17DF9B1037803F07F039370A4
:107694000023537013789BB143789B0103F4FE538A
:1076A400817843EA910393808378DB0003F0180325
:1076B400C17843EA51139371C37803F01F03D37164
:1076C40000235362F0BC70470178C1F380119170BC
:1076D400017801F03F01D17043B190F90130002BE2
:1076E40002DB04235370D5E70823FBE7042353701C
:1076F400D0E770B50C461E4603788BB104252A44A6
:10770400A26000F10C032360836A6360204604F0E6
:1077140065FB024610B923691D443560104670BDEF
:107724000125ECE72DE9F0418EB00D4616461C46C6
:10773400804600282DD0002D2FD0002C31D0636A34
:107744000233059304F10C00A378002B2DD0012102
:10775400627801AF3B46082A14BF0022012204F0DC
:1077640094F80697CDF81C80B2B2ADF820200B95A2
:1077740015440C9563788DF83430237B022B16D096
:107784000023ADF8283005A804F077F80EB0BDE862
:10779400F0817846FFF7D8FCCDE77846FFF7D4FCB4
:1077A400CBE77846FFF7D0FCC9E70221D0E723698D
:1077B4002BB1236909931023ADF82830E3E7784609
:1077C400FFF7C2FCF5E72DE9F04186B004460D460B
:1077D400C37D002B3ED0082605FB06F8E379AB42B7
:1077E4003AD0A5716B46324601A92046FFF781FFC6
:1077F400074648BB4DB994F84F3033B9A369C3F376
:107804000C03A380012384F84F30E37D7BB994F803
:107814004E3063B92DBBB4F84610627823468A1AF9
:10782400A16E0846FFF77EFF012384F84E300599C8
:107834002046FFF721FDA16E32464144009817F01F
:1078440059FE01A804F0E4FAB7FA87F0400906B03B
:10785400BDE8F0810C26BFE7B4F84660A6EB080645
:10786400BFE77846FFF770FCD5E770B5054690F89A
:107874004C40002605E00136631C85F84C30013489
:10788400E4B2EB79A3420AD3AA6C0123A3401A42BF
:10789400F5D121462846FFF796FF0028EBD1304664
:1078A40070BDF0B587B045781544C37DDBB10B23BB
:1078B4009D4221D816460F4604466B462A4601A926
:1078C400FFF717FF0546C0B905992046FFF7D4FC1A
:1078D400E37D53B132463946009817F00BFE01A8F8
:1078E40004F096FA09E00F23E2E7234632460099B2
:1078F4003846FFF717FFF2E70925284607B0F0BD21
:1079040010B5044690F84430012B0ED1237B012B93
:107914000FD00C4BDB68A36303F0B6F9A16B0144F1
:1079240004F12C0003F014F910BD7846FFF70CFCA9
:10793400ECE7A37D034AD168126902FB0313A36336
:10794400EAE700BF743A002038B5002400E00134AF
:10795400032C13D80A4A6C2303FB042393F8443002
:10796400012BF4D16C2505FB04252846FFF77DFF88
:107974000028ECD02846FFF7C3FFE8E738BD00BF76
:107984008C3A002038B5044690F84430022B02D0DB
:107994007846FFF7D9FB054B1D6803F075F94119CB
:1079A40004F12C0003F0D4F838BD00BF743A002071
:1079B40038B5044690F84430022B02D07846FFF7DD
:1079C400C3FB084B5D7D5A689B6803FB052503F0E8
:1079D4005BF9411904F14C0003F0BAF8012384F86F
:1079E400643038BD743A002010B504460C4B1B6853
:1079F400806E98470023A36604F12C0003F078F806
:107A040094F84430022B05D0002084F8440002F09E
:107A14000BF910BD04F14C0003F06AF8F4E700BF61
:107A24002C3A002010B504460121FFF7C5FD20467D
:107A3400FFF7DAFF10BD10B58CB0044690F844305F
:107A4400012B02D07846FFF77FFB01238DF8043029
:107A5400236D029301A800F033FF2046FFF7C4FF13
:107A64000CB010BD2DE9F04104460E4615461F46E4
:107A7400531EDBB2012B46D8A36E13B17846FFF731
:107A840063FB2E4B1B6838469847A066002852D0EB
:107A94003346224606F12001D3F80080D3F804E0EF
:107AA400D3F808C0D868C2F80080C2F804E0C2F86D
:107AB40008C0D060103310328B42EDD11868596879
:107AC4009B681060516093600023A364A4F846701F
:107AD400B188B069FFF7C4FBA061012D17D06FF026
:107AE4000103A362002384F86430154B6365E465E5
:107AF400144B6363E463012002F096F884F8445065
:107B04000120BDE8F0817846FFF71EFBB4E70E4B79
:107B14001B7D84F84D30002384F84E3084F84F30B8
:107B240084F84C30B36A23656FF00103A362074BFA
:107B34006363E463DFE70020E3E700BF243A002047
:107B440093860200797C0200743A0020857C02004E
:107B540030B583B0C3790133C27D92B1082505FBEA
:107B640003F582B14FF48073AB422AD21E4B1B68DB
:107B740013F0040F36D01D4B1B68002B06DC0024C9
:107B84002DE00C25EBE74FF4C073EDE7184BD3F869
:107B940004350195174A00924FF4177216490120D3
:107BA40004F08CFE00241AE0144C6C2303FB024402
:107BB4002B46022201462046FFF754FF78B90024E1
:107BC4000DE00022032A09DC0C4B6C2404FB023474
:107BD40094F84430002BE7D00132F3E70024204628
:107BE40003B030BD0024FAE73833002034330020DA
:107BF40000B000401CFA03000FFA03008C3A002086
:107C040030B585B00D460446A8B100212046FFF7E3
:107C1400D3FC2946206DFFF7A5FC2046FFF7E4FEC0
:107C24000F4B1B6813F0040F03D00E4B1B68032B80
:107C340005DC05B030BD7846FFF786FAE5E70A4B68
:107C4400D3F8043594F8442002950192074A00922F
:107C54004FF4D2720649042004F030FEE9E700BF75
:107C6400383300203433002000B00040A0F9030072
:107C74000FFA030008B508460021FFF7C1FF08BD4D
:107C840010B50C4691F84430012B09D194F84D30CD
:107C94007BB9237B012B07D02046FFF7CCFE10BD18
:107CA4007846FFF751FAF1E700212046FFF7A8FFD5
:107CB400F5E7013B84F84D30002384F84C3020462E
:107CC400FFF7D3FDEBE70000062900D0704770B53D
:107CD40082B003460178890101F4FE5140789D7811
:107CE400DC78240444EA05641D7944EA05245B79BC
:107CF4001C4341EA90011046FFF716FB0546B8B154
:107D0400866C2643866444B3037853B3EB795A1CD8
:107D140001239340013B9E4227D0002385F84C3039
:107D24002846FFF7A2FD2846FFF7EAFD02B070BD22
:107D3400104B1B6813F0040FF8D00F4B1B68012B7A
:107D4400F4DD0E4BD3F804350D4A009240F2B242F2
:107D54000C49022004F0B2FDE8E70321FFF750FFCD
:107D6400E4E77846FFF7F0F9D0E72846FFF763FE2B
:107D7400DCE700BF383300203433002000B000407B
:107D840030FA03000FFA03002DE9F04389B080466E
:107D94000F4614461E4695780DB32846FFF794FB0C
:107DA4008146C8B18DF80050236A0693A38AADF8C2
:107DB4000E3004AB04F10C0292E8030083E80300E4
:107DC400A37D8DF81C30CDF80480029723788DF8BC
:107DD4000C3031466846C84709B0BDE8F083FFF768
:107DE40073FFF9E700B585B000238DF80F3098B123
:107DF4000346084602330B600DF10F0103F041FD09
:107E04009DF80F3043B10D4B1B6813F0040F03D0E2
:107E14000B4B1B68032B04DC9DF80F0005B05DF8C9
:107E240004FB084BD3F80435074A00924FF4397227
:107E34000649042004F042FDEEE700BF3833002079
:107E44003433002000B0004070FA03000FFA03003E
:107E54002DE9F0438FB004460E4615461F46D0F870
:107E64001890037823B181884846FFF7F9F9A06197
:107E740004F10C00A378002B3AD0012162780DF1B3
:107E840028084346082A14BF0022012203F0FDFCFF
:107E9400C4F81890CDF8088003966378EA1A92B271
:107EA400ADF810203244089207978DF8243000234F
:107EB400ADF81830237B022B1CD0A3786BB3237B43
:107EC400022B1BD02546002345F8243F2A46E1789F
:107ED400206A0DF095F8606A98B101A9FFF782FF56
:107EE40000283AD12A46E178206A0DF089F8F2E7B1
:107EF4000221C3E71023ADF81830DEE723690593A8
:107F0400E0E7237B022B2CD104F10C01E0890DF076
:107F140025F90028D3D1052020E000236362237BC8
:107F2400012B0DD02146002341F8243FA08A0DF0F7
:107F340084F801A9606AFFF755FFA0B100200DE0A5
:107F440004F12401E0890DF078F801A9606AFFF7D3
:107F540049FF0028E6D0002000E000200FB0BDE873
:107F6400F0830520FAE70520F8E7000070B5F0B0CB
:107F74000D4614461E4610AB0A4601462046FFF73E
:107F840067FFA0B11F4B1B6813F0040F37D01E4BC3
:107F94001B68052B33DD1D4BD3F804351C4A0092B6
:107FA40040F221521B49062004F088FC27E003AB71
:107FB40001228DF80C20A28AADF80E200022049232
:107FC4008DF8142010AA06926278AD1AADF81C50F0
:107FD40008AA93E8030082E803000AAB04F10C0248
:107FE40092E8030083E80300A37D8DF83830236A08
:107FF4000C93636A0D930F9605A800F061FC70B0B2
:1080040070BD00BF383300203433002000B000407E
:1080140094FA03000FFA030010B5D47D14B9FFF7E6
:10802400A5FF10BDFFF7B0FEFBE700002DE9F0430C
:1080340085B004AF43781344C47D94B14FF4807485
:108044009C4273D3EFF3108C72B60024032C10DC23
:108054003B4E6C2505FB046595F8445025B101346D
:10806400F4E74FF4C074EBE735466C2606FB045482
:1080740000E00024BCF1000F00D162B6002C5AD0FD
:1080840015460E46014601222046FFF7EBFC002868
:1080940053D02A463146A06E17F02CFA294B1B68A0
:1080A40013F0040F3AD0284B1B68032B36DD6D46C2
:1080B400B4F846E04FEA4E030833DB08A5EBC303EC
:1080C4009D460DF11008C446002312E0A26ED25C56
:1080D4004FEA121959001D48066816F809600CF891
:1080E400136002F00F0201310068825C0CF8012079
:1080F40001337345EAD3002308F81E30144BD3F838
:108104000435CDF80880134A0192134A00924FF4C3
:108114007C721249042004F0D1FBAD462046FFF7DF
:10812400A4FB2046FFF7ECFB002000E00920043705
:10813400BD46BDE8F0830420F9E70420F7E700BF5B
:108144008C3A002038330020343300203C330020A4
:1081540000B0004060FA0300F0F703000FFA0300D8
:1081640070B504460D461646808A02F023F80128AD
:108174001AD1237BD3B1022B0BD094F91630002BE8
:1081840016DB237853B9324629462046FFF789FB8C
:108194000BE02369002BF0D1102006E0324629467B
:1081A4002046FFF743FF00E0102070BD1020FCE7DD
:1081B4000720FAE708B50549054800F04FF800B96B
:1081C40008BD7846FEF7C0FFFAE700BFC5F3030019
:1081D40031F3030010B5FFF7EDFF4FF4D87200211F
:1081E400134817F0B0F905F0F9FC0024114B1C609A
:1081F40040222146104817F0A6F9104B104A1A6085
:10820400104A5A604CF250329A600F49D9601A6190
:1082140004221A759C7508225A750C4803F018FA42
:108224000B4B18600B4B1C600B4805F0DDFD10BDBB
:108234008C3A0020703A0020303A0020743A002032
:1082440080969800F049020020A1070049840200AA
:10825400283A0020183A00209175020008B5034618
:10826400B0FA80F040090A46B1FA81F1490988421E
:1082740010D14BB1EFF3108072B608490B60084B74
:108284001A6048B962B606E0002AF3D1FFF792FFFC
:10829400002000E00E2008BD0020FCE7243A002066
:1082A4002C3A0020C0B110B58CB004460369B3B1B8
:1082B400C369B3B18369B3B1014601A8FFF782F87A
:1082C400034610B118460CB010BDA28A216901A85A
:1082D400FFF746FF0346F5E70E23184670470E23C3
:1082E400F0E70E23EEE70E23ECE7D0B110B58CB027
:1082F40004464068B8B1A269BAB1207C022816D0FD
:10830400B8B194F90020002A15DB0A46214601A8D9
:10831400FFF7ACF8A268616801A8FFF721FF0CB071
:1083240010BD0E2070470E20F9E70E20F7E710204D
:10833400F5E71020F3E70720F1E70000037B012BAA
:1083440001D00020704710B58AB000228388C3F39F
:1083540086148DF800409B008DF801300B0E8DF8CB
:1083640002300B0C8DF803300B0A8DF804308DF8B5
:1083740005100623049301238DF81830838AADF881
:108384001A3007928DF80820CDF80CD0036A0893B0
:108394008DF81420C389ADF81630837D43B98DF868
:1083A40024206FF0010102A8FFF79FFF0AB010BD5F
:1083B400024B5B7D8DF82430F3E700BF743A002054
:1083C40038B500240BE01E4A6C2303FB0423DB793D
:1083D4005A1C01239340013B9D4228D00134032CB5
:1083E4002CD8174A6C2303FB042393F84430022B44
:1083F400F4D16C2303FB042393F86430022BEDD1F6
:108404006C2000FB0420816CFFF798FF0028E5D165
:108414000B4A6C2303FB04F3D11881F864008D6CC0
:10842400D35C002BCFD17846FEF78EFECBE7044B0E
:108434006C2000FB0430FFF7F5FACFE738BD00BF2E
:108444008C3A002008B5FFF77FFAFFF7B9FF012047
:1084540008BD00002DE9F04182B007460E461446DF
:1084640098461046FEF78AFF054620B1A288838805
:108474009A4210D312D82046FFF7C4F8B8B1037853
:108484004BB123787BB1E1794B1C0121994001392F
:108494002046FFF753FF02B0BDE8F0810521FFF746
:1084A400AFFB0025E7E77846FEF74EFEEBE7002D2D
:1084B4004FD0464B1B6813F0040F03D0444B1B688A
:1084C400032B55DC2846FFF75DFA2B7B012B5DD08F
:1084D400AA6CA17901238B401A42DCD11343AB640B
:1084E400A279EB799A4259D0E37D002B61D008231D
:1084F400B34260D1AB6EA079E27D002A60D008243B
:108504003246394604FB003016F0F4FFAC6C2B788D
:10851400002B57D0EB795A1C01239340013B9C421A
:10852400B9D1022385F86430A96C2846FFF706FF09
:10853400044643462A46B5F84610A86EFFF76CFD7C
:10854400002CA8D1002385F864302846FFF76AFA86
:10855400A1E72046FFF7FCFA05460028A9D100212F
:108564002046FFF7EBFE02210020FEF7FBFF92E717
:10857400184BD3F80435A2790192174A00924FF4AC
:1085840028721649042004F099F99BE795F86430A1
:10859400002B9DD12846FFF70BFA99E79BB2E27DA9
:1085A4002AB1082203FB0263A5F84630A2E70C2295
:1085B400F8E70C239CE704212846FFF721FB6AE730
:1085C4000C249DE77846FEF7BFFDA3E7383300206F
:1085D4003433002000B0004084FA03000FFA030093
:1085E4002DE9F0418EB000284DD00546002A4CD02C
:1085F400984614460F4600220C920D920CA96088EE
:108604000CF0ACFD20B9002630460EB0BDE8F08178
:10861400226902F00102E168208905F0ADFA08B18F
:108624000026F1E7226902F00102E168208905F0E1
:1086340073FA0646C0B901AA21462846FFF712F884
:1086440004AB0EAA12E9030083E8030002F0BEFFA4
:108654009DF8043083B1434601AA391F281DFFF752
:10866400F9FE02F0D3FFCFE72169002201F00101F6
:108674002089FEF75BFFC7E7434601AA791E681C01
:10868400FFF7CAFCEDE70E26BEE70E26BCE710B5E1
:108694000C4691F84430022B0BD1022384F8643049
:1086A400A16C2046FFF74AFE10B9002384F8643019
:1086B40010BD7846FEF748FDEFE70000002959D0C9
:1086C400A0F59670072857D8DFE800F0040E1A25A5
:1086D400313D454D4A68314B134431498B424DD8A5
:1086E400304B1A60002070474A68A2F51233A3F594
:1086F400F8732D498B4243D82A4B5A6000207047A7
:108704004A68A2F54343503B28498B423AD8254B4B
:108714009A60002070474A68A2F54333A3F5A0731A
:1087240023498B4230D81F4BDA60002070474A68D7
:10873400A2F54333A3F5A0731D498B4226D8194BE8
:108744001A61002070474B689A1EFD2A20D8154AEA
:108754001375002070474B685A1E7E2A1AD8114A96
:108764005375002070474B68012B15D80D4A93753B
:10877400002070470E20704705207047072070477F
:10878400072070470720704707207047072070476D
:10879400072070470720704707207047806967FFEC
:1087A40080778E06743A0020904C960030D3970060
:1087B40040899500002934D000220A604A60A0F55F
:1087C400967007282FD8DFE800F004090E13181D4F
:1087D4002227164A12684A6000207047134A5268DA
:1087E4004A6000207047114A92684A60002070472E
:1087F4000E4AD2684A60002070470C4A12694A60E7
:1088040000207047094A127D4A6000207047074AD9
:10881400527D4A6000207047044A927D4A600020DD
:1088240070470E2070470520704700BF743A00203F
:10883400F8B500B30546164B1F68F7B90E463C461B
:10884400B4420ED205EBC4035B68CBB115F8340017
:1088540010F0800F16D1B8B1FEF736FEB0B901346E
:10886400EEE70C4B43F8375003EBC7035E607B1C09
:10887400074A136002E00E2700E004273846F8BDDB
:108884000E27FBE70B27F9E70F27F7E70F27F5E795
:10889400183A00201C3A0020084B196861B110B541
:1088A40001E021463CB10C680B79002BF9D0034858
:1088B40003F06DFFF5E710BD704700BF403C00209A
:1088C40038B5054630B1104B1C68ACB10F4B0122D2
:1088D4001A7004E07846FEF737FCF4E724683CB1EC
:1088E4002379002BFAD154F8043C28469847F5E73D
:1088F400064B1B78022B00D038BDFFF7CDFF034B8E
:1089040000221A70F8E700BF403C00203C3C0020E5
:1089140010B5044630B100232372211D034803F02F
:108924000BFF10BD7846FEF70FFCF4E7403C002037
:1089340010B5044650B10A4B1B78013BDBB2012B46
:1089440008D9211D074803F022FF10BD7846FEF721
:10895400FBFBF0E7024B02221A7001232372F4E7B7
:108964003C3C0020403C00200A8883689B5A073323
:108974009BB223F0030313449BB20288043A93424C
:1089840000D900230B80704710B582B00446836879
:10899400CB1A02A921F8023DFFF7E6FFBDF8063025
:1089A400A068184402B010BD0088043880B2704733
:1089B40043888268D018D15201238370704782683B
:1089C40000239370438083807047073189B221F07C
:1089D400030189B2428883889A4204D29B1A99423D
:1089E4001CDC0020704710B59A420FD90488A41AE1
:1089F400A14215D98B4215D3032C03D983681344A0
:108A040004229A7000234380184606E082681344C7
:108A14009B784BB9FFF7D3FF002010BD04207047AB
:108A24000020FAE70420F8E70420F6E738B5044606
:108A34000D468368828813448B4202D07846FEF741
:108A440083FB0023AB70211D2046FFF78DFFA28816
:108A5400A36813449B78042B00D038BD0023A38063
:108A6400FBE710B50C468368428813448B4202D05E
:108A74007846FEF769FB0023A37010BD70B5064667
:108A840015460C46002944D0002E46D0B4F1005FB0
:108A940008D94FF08053D3F80C3103F50023B4EB1D
:108AA400832F0ED3B4F5000F08D94FF08053D3F8B9
:108AB4000C3103F50053B4EB832F02D37846FEF751
:108AC40043FB6B1E2344B3F1005F08D94FF080527F
:108AD400D2F80C2102F50022B3EB822F0ED3B3F5AA
:108AE400000F08D94FF08052D2F80C2102F5005241
:108AF400B3EB822F02D37846FEF726FB042D10D960
:108B0400358000237380B380B460043D2580A37056
:108B140070BD7846FEF718FBB6E77846FEF714FBFF
:108B2400B4E77846FEF710FBEAE738B50446A0B18F
:108B34006288A36813449B78012B12D0A388A16890
:108B44001944EFF3108572B68B78032B0DD02046B1
:108B5400FFF735FF05B962B638BD7846FEF7F4FA7B
:108B6400E6E77846FEF7F0FAE8E72046FFF70CFF61
:108B7400A368C31A638000238370EBE7F8B50E463D
:108B840015460446C0B1DEB16288A36813449B78DD
:108B9400012B19D0E5B12046FFF706FFA84219D3EF
:108BA40029462046FFF711FF0746A0B9294620466B
:108BB400FFF7FEFE30600EE07846FEF7C5FAE2E706
:108BC4007846FEF7C1FADFE77846FEF7BDFAE1E73B
:108BD400092700E009273846F8BD70B50C4616464B
:108BE4000546B8B1D4B1A378012B1BD12388B34275
:108BF4001CD3FEB126800223A370E9182846FFF790
:108C0400B3FE6A88AB889A4203D0AB68134400224F
:108C14009A7070BD7846FEF797FAE3E77846FEF758
:108C240093FAE0E77846FEF78FFADFE77846FEF737
:108C34008BFADEE77846FEF787FADBE738B50D46B0
:108C4400044650B16DB1A288A36813449A78022AED
:108C54000BD0032A0ED005200BE07846FEF774FAF9
:108C6400F0E77846FEF770FAEDE703229A702B607E
:108C7400002038BD7846FEF767FA0020F9E710B502
:108C8400044640B1A288A36813449878022814BF0C
:108C94000020012010BD7846FEF756FAF2E710B521
:108CA400044618B1A088A168014407E07846FEF79D
:108CB4004BFAF7E72046FFF767FE0146887803285A
:108CC400F8D0022814BF0020012010BD38B50C468E
:108CD400054650B16CB1A378012B0ED0032B11D1F2
:108CE40021462846FFF7A2FE38BD7846FEF72CFA47
:108CF400F0E77846FEF728FAEDE721462846FFF725
:108D0400B0FEF1E77846FEF71FFAEDE708B5064B2B
:108D1400986800221A605A609A60DA601A615A618F
:108D24009A6104F04FFD08BD443C002000B585B0B5
:108D34000A4BDB6802228DF8002001934FF4805324
:108D44000293074A6946012001F098F918B10020FE
:108D540005B05DF804FB0120FAE700BF443C0020A5
:108D6400603C002000B585B00A4B1B6802228DF8D8
:108D7400002001934FF480530293074A694601206F
:108D840001F07CF918B1002005B05DF804FB012066
:108D9400FAE700BF643C0020603C0020164BDA6810
:108DA400137951795B1A03F57F2303F6FF7302EB02
:108DB40003339A4205D002F580520F4BDA60032048
:108DC400704700B585B00D4B1B6801208DF800007D
:108DD40001930B4B0393042302930A4A694601F05F
:108DE4004DF918B1002005B05DF804FB024B0122D7
:108DF4001A760220F7E700BF443C0020643C0020C0
:108E0400683C0020603C002000B585B00C4BDA685B
:108E14000C4B1B68043301208DF80000019203936E
:108E240040F6FC730293084A694601F027F928B911
:108E34000120034B187605B05DF804FB0020FAE727
:108E4400443C0020643C0020603C002000B585B018
:108E54000A4B1B6801208DF800000193084B039313
:108E640004230293074A694601F008F918B1002067
:108E740005B05DF804FB0120FAE700BF643C002064
:108E8400503C0020603C002010B584B0114BDA68DF
:108E94001478114B1B68043301208DF800000193F2
:108EA400039202940D4A694601F0E8F880B90A4B2E
:108EB4001B6804F0FC041C440434064B5C61D96850
:108EC4000A780A441A6100225A76012004B010BDBF
:108ED4000020FBE7443C0020643C0020603C002070
:108EE40008B50023092B09D8064A52F823208242E8
:108EF40001D00133F6E7044A536002E07846FEF7F6
:108F040023F908BDC0FA0300443C002010B5214BEE
:108F1400DB6853B11F4B1B7E5BB91E4B5B68092B8F
:108F240015D97846FEF710F911E07846FEF70CF9EA
:108F3400F0E77846FEF708F9EFE7164B00225A608F
:108F4400012C01D0032C23D1124B1B7E03BB114BEC
:108F54005A68114B53F822309847044602280DD022
:108F64000328EAD00128EBD10A4A5368013353603D
:108F7400092BE5D97846FEF7E7F8E1E7054B1B7EB8
:108F84001BB1044B02221A70DAE7FFF7BFFED7E7E2
:108F940010BD00BF443C0020C0FA0300104B1B6806
:108FA4001B685A1E12F1030F18D8C3F30B020AB13F
:108FB4000020704710B50B4AD36000231376537614
:108FC4000124147093600848FFF78AFF074920467C
:108FD40001F042F8FFF79AFF204610BD00207047C9
:108FE400643C0020443C0020318D0200F58F0200D7
:108FF40008B50B78032B06D00B4B1B78012B06D03E
:10900400022B0BD008BD084B00221A76F4E7064B5E
:109014001B7E002BF6D1FFF779FFF3E70B78032BC8
:10902400F0D1FFF773FEEDE7443C002000B585B0B6
:10903400174BDB6818784FF6FF7203F5805118441C
:1090440004F088FEF0B10246114BD9680B780B444A
:10905400984219D00E4B5B7E93B10E4B01208DF8D4
:10906400000001920393042302930B4A694601F022
:1090740005F858B90120064B187605B05DF804FBD5
:10908400064BEBE70120F8E70120F6E70020F4E7C0
:10909400443C00200CFD0300603C002008FD03005C
:1090A40008B5104BDB681878002203F5805118448A
:1090B40004F050FE08B1012008BD0A4BDA681379A8
:1090C40051795B1A03F57F2303F6FF7302EB033335
:1090D4009A4205D002F58052024BDA600320EBE796
:1090E4000220E9E7443C0020F0B585B0524BDE682D
:1090F40072793379591E8A4200F0968006F58051C0
:109104000D780D444D490968081D0F7907449B1AD1
:1091140003F57F2303F6FF731B0303F580531E44FB
:109124006B88013B9BB247F6FE6293425CD92C46A6
:1091340016E07846FEF708F815E024F47F6424F07E
:109144000F0404F5805423781C44A64247D9A54251
:1091540047D26388013B9BB247F6FE62934211D922
:109164002388002BE5D0238804EB830323F47F6258
:1091740022F00F029342E0D06288B2F5FE4FDCD0B9
:109184001C46E2E725462FE07846FDF7DDFF15E0B3
:1091940024F47F6424F00F0404F5805423781C44E1
:1091A400A64220D9A5423BD26388013B9BB247F635
:1091B400FE62934211D92388002BE5D0238804EB67
:1091C400830323F47F6222F00F029342E0D062888B
:1091D400B2F5FE4FDCD01C46E2E7254604E000254C
:1091E40002E0002500E00025E5B1144B19686A8807
:1091F40001F58051384604F0ADFD0746B8B10120B1
:109204000D4B18768DF8000001950D4B0393042344
:1092140002930C4A694600F031FF50B92C46CAE764
:109224000025E1E7012000E0012005B0F0BD0120A8
:10923400FBE70020F9E700BF443C0020643C002029
:1092440004FD0300603C00202DE9F04186B06A4B28
:109254001B692BB1684B5B6933B14FF0000848E0E0
:109264007846FDF771FFF5E77846FDF76DFFF4E703
:109274007846FDF769FF15E025F47F6525F00F05B5
:1092840005F580552B781D44AE421CD9AC421ED244
:109294006B88013B9BB247F6FE62934211D92B883F
:1092A400002BE5D02B8805EB830323F47F6222F0A7
:1092B4000F029342E0D06A88B2F5FE4FDCD01D461F
:1092C400E2E72C4600E000241CB1009445E00024B1
:1092D400FAE700230093019B002B68D14FF00108AB
:1092E40024B1628847F6FF739A4202D1424B0122AD
:1092F4005A76414B5B7E002B7AD1B8F1000F75D1C1
:109304003D4B5A6922F47F6727F00F07BF1A07F510
:1093140080571C69DE68337972799B1A03F57F23C1
:1093240003F6FF731B0303F580531E4400230193CC
:109334006388013B9BB247F6FE629342C5D925463A
:10934400ADE77846FDF700FF22E024F47F6424F0C3
:109354000F0404F5805423781C44A642BBD9238807
:10936400019A02EB83029742B5D9009B634023F430
:109374007F6323F00F03002BADD16388013B9BB2C5
:1093840047F6FE618B42A6D801922388002BD8D0E1
:10939400238804EB830323F47F6222F00F029342B9
:1093A400D3D06288B2F5FE4FCFD01C46D5E7124A1F
:1093B400526901208DF808000392009A05920493E3
:1093C4000E4A02A900F05AFE70B90B49019B23F022
:1093D40003024B6913444B6114B1074B1C617FE7D3
:1093E4007846FDF7B1FEF8E7002002E0012000E036
:1093F400012006B0BDE8F081443C0020603C002020
:1094040008B54FF010235B69B3F1FF3F03D04FF071
:1094140010235B6963B94FF080525169136903FBF0
:1094240001F3A3F58053054A1360FFF7B7FD08BDA8
:109434004FF010235B69A3F58053F2E7643C0020EE
:10944400024B1878003018BF01207047443C0020BC
:1094540010B504460E4B1B78ABB92378032B02D00E
:109464007846FDF771FE0A4B9C60E268DA600022E0
:109474005A601A76012018705A76064900F0ECFDFD
:10948400FFF744FD10BD7846FDF75EFEE5E700BF3B
:10949400443C0020F58F0200014B1868704700BF60
:1094A400643C002010B5044680B163681BB1236896
:1094B4000BB1A36813B97846FDF746FEA3685A1E9C
:1094C400134207D10023E360236110BD7846FDF702
:1094D4003BFEEAE77846FDF737FEF3E7F8B5F8B167
:1094E4000446F9B18268FAB1EFF3108572B60269E5
:1094F40080680244E668B24203D1C5B962B6042565
:1095040013E027686368013830401A4600FB037093
:1095140015F0F0FFE3680133E36055B962B604E087
:109524000E2502E00E2500E009252846F8BD042595
:10953400FBE70025F9E770B5F0B104468268EAB1AB
:10954400EFF3108572B60669C268964210D00846D9
:1095540021686268A368013B1E4006FB021108B142
:1095640015F0C8FF23690133236165B962B606E0CB
:109574003DB962B6052502E00E2500E0092528461E
:1095840070BD0525FBE70025F9E70000C0F30B03D8
:1095940033BB39B301F6FF71090B134B0222C3F835
:1095A4000425114BD3F80034002BFAD000220AE032
:1095B4000D4BC3F808050C4BD3F80034002BFAD03C
:1095C40000F5805001328A42F2D3074B0022C3F8DF
:1095D4000425054BD3F80034002BFAD00020704743
:1095E400102070470920704700E0014010F0030F7D
:1095F4002FD111F0030F2FD182B312F0030F2FD10B
:1096040010B49208174B0124C3F80445154BD3F842
:109614000034002BFAD002E0043004312246541EF8
:1096240052B10B68B3F1FF3FF6D003600D4BD3F892
:109634000034002BFAD0EFE70A4B0021C3F80415DD
:10964400084BD3F80034002BFAD010465DF8044BD5
:1096540070471022104670471022FBE70922F9E7F1
:109664000922F7E700E001400180002343804260C3
:109674007047000038B5124C4FF480552A4600213B
:10968400204615F060FF0F4B1C600AE000222821E1
:109694002046FFF7E9FF2388083323446360303D05
:1096A4001C46502DF2D8083D05D00022A9B2204610
:1096B400FFF7DAFF38BD7846FDF746FDF5E700BF52
:1096C4006C3C00206C4C002008B50822022108489C
:1096D40003F0F9FE38B1074A91684160127B0272C7
:1096E40003F02AFF08BD044804F044F8FAE700BF79
:1096F400784C0020C04C0020F83200200E4B1B7820
:10970400CBB910B50D4B5C6804F50054B4F1807FFF
:1097140000D910BD04220121094803F0D4FE30B160
:109724004460054A0121117003F006FFF1E7054882
:1097340004F020F8EDE77047D44C0020C04C002022
:10974400784C0020E832002010B5044608B1A04748
:1097540010BD7846FDF7F8FCF9E7000008B50121D3
:109764000B4803F011FF20B90221094803F00CFF54
:1097740028B1084803F0FEFFFFF7C0FF08BD064B01
:1097840000221A605A609A60DA601A61F4E700BF36
:10979400784C002018330020C04C002000B58DB058
:1097A40004918DF8082003900CA8022300F82C3DA6
:1097B400FFF786F80DB05DF804FB000010B58CB01F
:1097C4000C4682B94B88012B20D1134B1B7833B143
:1097D4006268124B5A60104B00221A7016E07846E9
:1097E400FDF7B2FCF4E7032A12D12C22002101A8D0
:1097F40015F0A9FE10238DF804300394084BDA68A1
:1098040005921B69069301A8FFF75AF80CB010BD26
:109814007846FDF799FCE8E7D44C0020C04C0020C2
:10982400784C002038B503F0BDFF28B901F098FF4B
:109834000028F8D020BFF6E701F0C8FE0022114648
:109844001A4803F09AFD00252C4605E0051D024642
:109854000021164803F091FD30B14388012BF5D067
:10986400022BF4D1041DF2E7A4B19DB12268104B80
:109874009A6022791A73AC4201D9237993B12A6888
:109884000B4B1A600A4B1A685A60FFF737FF01F056
:10989400BDFE38BD064B00221A609A601A73FFF7AA
:1098A40013FFEFE7024B00221A60EBE7784C00202D
:1098B400C04C002008B503F0B7FFA0F5805008BDE8
:1098C40000B587B00023009301930293039304939C
:1098D4000593FFF7EFFF009001230193064B0393D9
:1098E4006946064803F000FF10B907B05DF804FBB1
:1098F400034803F03FFFF8E7C1970200784C0020CB
:109904000833002038B50F4B00241C605C609C6059
:10991400DC601C6101F0B8F90B4D68600B4BAB6067
:109924000B4BEB602C616C610A4B1C700A480B4BAF
:10993400036000F0F9FD284601F0A8F8FFF7C0FF26
:1099440038BD00BFC04C00209C4C00202D9B020061
:1099540000879303D54C0020B44C0020019B0200E7
:1099640038B501F033FE174B1B7B13BB154B9B7BA8
:1099740023BB144B1A8A41F282639A4204D8124BD5
:109984001B78A3B1012300E00123CBB10D4D0123CA
:109994002B7300242C82AB680133AB60FFF794FE79
:1099A400A9682A7B01392046FFF7F8FE02E000236C
:1099B400EBE7082401F02AFE204638BD0824F9E725
:1099C4000824F7E7C04C0020D54C002010B501F066
:1099D400FDFD214B5B7B9BB11F4B9B7BF3B91E4B66
:1099E4001A8A41F282639A4204D81C4B1B782BB129
:1099F400012300E001239BB1012302E00023FAE7E5
:109A040000231C461BB3144B00225A731B7B4BB11F
:109A1400012B0ED07846FDF797FB18E00023F0E702
:109A24000023EEE7FFF79CFF88B17846FDF78CFB37
:109A34000DE0094B00201860586018731882024624
:109A44009968FFF7ABFEFFF73FFEFFF757FE01F003
:109A5400DDFD204610BD00BFC04C0020D54C0020C9
:109A640038B5254B1B7B002B36D10446224B5B8A31
:109A740033BB1AB9204B9B688B4205D302B31E4BF0
:109A84009B6801338B421BD21B4B9B682A338B424E
:109A940024D3194B9B7B0BBB174DA9602B606B60C8
:109AA4002B8242F606526A826B732B73FFF70CFE0D
:109AB400FFF724FE2A7BA9682046FFF76FFE0DE01E
:109AC40062B10D4B9B6801338B4207D10A4B0122D3
:109AD4005A73FFF77BFF01E0012B00D038BD002A49
:109AE400FCD1054B9B688B42F8D1034B01225A737E
:109AF400FFF76CFFF2E700BFC04C00200378042B93
:109B040000D0704743681B78002BFAD010B58468E6
:109B1400027E437E012A14BF00220122416904F11E
:109B24001000FFF79DFF10BD08B5214B1B7B7BB1D7
:109B3400012B20D07846FDF707FB1D4A138A013319
:109B440013821B4B5B8A13B1013B194A538208BD34
:109B5400174B1A8A41F282639A4204D8154B1B7838
:109B64003BB1012300E00123002BE6D0FFF72EFFD9
:109B7400E7E70023F8E70E4B1B8A41F28262934227
:109B840004D80C4A127872B1012200E00122002AA2
:109B9400D3D042F2B012934207D9054B01225A7333
:109BA400FFF714FFCDE70022F1E7FFF70FFFC4E74B
:109BB400C04C0020D54C002010B5184B1A685B68C7
:109BC4009A4225D20446154B1B7B012B13D0144B10
:109BD4009A4212D2114B1A685B68403B9A4214D2E3
:109BE400EFF3108072B60D4A1368591C116023609C
:109BF40090B962B610BD0B4BEAE7084B01225A73C9
:109C0400FFF7E4FE0028EBD1E4E7FFF777FDE7E791
:109C1400FFF774FD0F20EDE70020EBE7C04C0020B8
:109C2400FFFF7F0000E0FF0008B568B90C4B1B681C
:109C340093B10B4A1368013B136063B9094B0022CB
:109C44009A73FFF7C3FE06E0064B01229A73044A97
:109C540013680133136008BD7846FDF775FAE8E729
:109C6400744C0020C04C002000B58DB0ADF8080045
:109C74008DF8102003910CA8032300F82C3DFEF767
:109C84001FFE0DB05DF804FB014B9868704700BFE0
:109C9400C04C0020054B1B7B012B02D0034B986862
:109CA4007047024B98680138704700BFC04C0020D1
:109CB400044B9B68584010F0010F00D0013B18463C
:109CC400704700BFC04C0020014B187B704700BF99
:109CD400C04C002038B50A4B1B7873B9084B0122DD
:109CE4001A70084DA8602973FFF7EEFC00242C605D
:109CF4006C60FFF703FD204638BD0820FCE700BF79
:109D0400704C0020C04C00202DE9F041002724E0D5
:109D14002449BC2303FB04F3CA5A0132CA52022168
:109D2400284602F07BFB01360221284602F046FB5E
:109D340080B11C4ABC2303FB0423D3F80880B8F188
:109D4400000FE5D0BC2303FB04F3D25A0146384686
:109D5400C047DDE78EB90137FFB2022F1FD83C465A
:109D6400BC2303FB07F308330E4D1D4404350221C5
:109D7400284602F023FB0026DAE70021284602F0F9
:109D8400B5FB0828E7D1074BBC2202FB0434A368C7
:109D9400002BE0D00022044938469847DBE7012035
:109DA400BDE8F081E04C0020E8FA030008B5082380
:109DB40083731023437300F11C0343610323037370
:109DC40000F1180303610C3002F062FB08BD0000CF
:109DD40008B50378012B06D0022B07D07846FDF78F
:109DE400B3F9002001E04FF4A97008BD0048FCE776
:109DF400645E010008B50278012A07D0022A13D054
:109E04007846FDF7A1F94FF4FA7308E083685B1A0A
:109E140098084FF4A97303FB00F303F5FA7307489A
:109E2400984228BF184608BD83685B1A180B044B78
:109E340003FB00F303F5FA73F1E700BFA08601000A
:109E4400645E010010B5044601210C3002F0B6FA3C
:109E5400A0B10D4AC4F89C200022C4F8A020616877
:109E6400FFF7C8FFC4F8A800C4F8AC40012384F885
:109E7400B83004F19C000BF0B9FE00B910BD78466F
:109E8400FDF762F9FAE700BF8D9F0200F8B50646B8
:109E94000C46174615680378012B18D11249A1FB0B
:109EA4000431C9098900B468641B8C4200D30C4690
:109EB4008CB1706825F00305F168224629442844D2
:109EC400FFF794FB58B93B681C443C60F8BD7846E6
:109ED400FDF73AF9E2E77846FDF736F9E9E778461F
:109EE400FDF732F9EFE700BFEB5DF260F8B5074626
:109EF4000C46164615680378022B16D1114BA3FBAA
:109F040004231B0C1B03BC68641B9C4200D31C462B
:109F14007CB1786825F0030521462844FFF736FB19
:109F240058B933681C443460F8BD7846FDF70CF921
:109F3400E4E77846FDF708F9EBE77846FDF704F91E
:109F4400EFE700BFB77609BB38B505460C461146A6
:109F54002378012B06D0022B0FD07846FDF7F4F8B6
:109F6400002304E0021D2046FFF790FFA368686801
:109F7400984214BF0020012038BD021D2046FFF77F
:109F8400B5FFA368F3E700002DE9F8430F46D1F8C5
:109F9400A850234B1B7863B90646A5F5FA7501F161
:109FA4000C090121484602F009FA804640B1002418
:109FB40022E00BF057FE002387F8B830BDE8F883A1
:109FC4007846FDF7C1F8F2E70BF04CFE0121484654
:109FD40002F024FA00237B6087F8B830114B18682C
:109FE40001F056FB3846FFF72DFFE7E74046FFF741
:109FF400EFFE2044A8420CD82A1B41463846FFF7FE
:10A00400A3FF0028E0D100F03FFE841BEED5341AF4
:10A01400ECE70BF027FE3846FFF714FFCEE700BF4E
:10A02400DC4C0020D84C002010B5084801F010FB8F
:10A03400074B1860002406E0064BBC2000FB0430EC
:10A04400FFF7B4FE0134022CF6D910BD0D9D0200B9
:10A05400D84C0020E04C002038B504460D460228B8
:10A0640005D8054BBC2202FB0434A56038BD7846F4
:10A07400FDF76AF8F5E700BFE04C00202DE9F8434E
:10A0840006460C461746022816D8CCB12378012B75
:10A094001AD0022B3ED16368C3F30B03002B31D1DA
:10A0A400A368C3F30B03002B30D1A368002B34D176
:10A0B4007846FDF749F830E07846FDF745F8E4E7DF
:10A0C4007846FDF741F8E1E7636813F0030F0DD11B
:10A0D400E36813F0030F0DD1A36813F0030F0DD140
:10A0E400A368D3B97846FDF72FF816E07846FDF754
:10A0F4002BF8EDE77846FDF727F8EDE77846FDF70E
:10A1040023F8EDE77846FDF71FF8C9E77846FDF731
:10A114001BF8CAE77846FDF717F8EFF3108872B614
:10A12400BC2505FB06F505F10803204D1D44043547
:10A134000021284602F042F9814668B300212846EE
:10A1440002F06CF920686168A268E368C9F800004D
:10A15400C9F80410C9F80820C9F80C302FB1134A03
:10A16400BC2303FB06235B883B80104ABC2303FB10
:10A1740006235A8801325A8093F8B83073B90C4BCD
:10A184001B780BB100200AE0084BBC2000FB063012
:10A19400FFF758FE002002E0042000E00020B8F1A0
:10A1A400000F00D162B6BDE8F88300BFE04C002088
:10A1B400DC4C002018B1830B024AD05C70470020AD
:10A1C400704700BFF8FA030012DF704700B583B090
:10A1D4001378A3B1042B14D1072110F8013C163BCA
:10A1E400152B31D8DFE803F05930303030303030BF
:10A1F40030303030303030303030302E0F3A517D06
:10A20400EBE70021E9E7022901D007291CD110F866
:10A21400021C013901F062FEB0B1264B1B6813F039
:10A22400400F11D0244B1B68012B0DDD234BD3F8B9
:10A2340004350190224A00928A222249022002F027
:10A244003DFB01E0022902D003B05DF804FB10F8E5
:10A25400021C0139C9B211F009FFF5E70229F3D153
:10A2640010F8021C0139C9B203F0E6FC0028EBD057
:10A27400104B1B6813F0400FE6D00F4B1B68012BEB
:10A28400E2DD0E4BD3F8043501900F4A00929D2273
:10A294000C49022002F012FBD6E701884FF6E46372
:10A2A4009942D1D110F8021C03390230FCF79CFE0C
:10A2B400CAE700BF383300203433002000B0004028
:10A2C4006CFB03005FFB030098FB030000B58DB03B
:10A2D4002C22002101A815F036F90D238DF8043045
:10A2E40001A8FEF7EDFA0DB05DF804FB70B58AB075
:10A2F4000CF0FCF958B3064600238DF8103005AC79
:10A3040005460FCD0FC42B682360727D052A04D93E
:10A31400337D03F00F03072B20D1184B1B689BB12F
:10A3240004AB0393337DC3F303038DF80430737DCF
:10A33400062B1DD9063B8DF8053006F11D0302934B
:10A344000E4B1B6801A8984730460CF0AFF90CF08F
:10A35400E7F980F00100C0B20AB070BD307D04ABF3
:10A36400063A06F11D0100F00F000AF09BFFD4E746
:10A3740000238DF805300293E2E700BF184F002058
:10A3840070B582B0304B1B78002B55D1002857D0C4
:10A39400067A0F2E01D0072E54D10446C06870B13E
:10A3A400FCF7E4FE0DF10700FFF70EFF0546002859
:10A3B40043D19DF80730012B04D002253DE0FCF782
:10A3C400E3FEEFE7FCF7F6FE00F04CFB304601F04D
:10A3D400C5F8E07800F02CF900F0CAFF0BF0C4FBDC
:10A3E4001A480CF039FA0BF0FBF8FFF71DFE02F0E7
:10A3F4003DFF174803F01CFA04F08AFC204601F0E4
:10A4040049FC2046FDF7E6FE03F096FF2046FFF7E1
:10A4140031F9FCF7E9FD18B1062801D005460CE036
:10A4240000F050FD0B480AF01FFF0B4B00221A608E
:10A43400054B01221A7000E00825284602B070BDC1
:10A444000E25FAE70725F8E7154F0020F1A20200D0
:10A45400D1A2020028330020184F002010B50E4B63
:10A464001B789BB10D4B1B7893B900F0A7FF48B93B
:10A474000BF09CFB044660B90CF0D8F8074B0122A2
:10A484001A7006E07846FCF75FFEF1E7082400E066
:10A494000824204610BD00BF154F0020144F002093
:10A4A40010B5094B1B785BB10BF090FB044640B927
:10A4B4000CF0D2F800F0ECFF034B00221A7000E01D
:10A4C4000824204610BD00BF144F002030B583B0CF
:10A4D40004460D460E4B1B6813F4804F03D00D4BFE
:10A4E4001B68062B05DC29462046FDF7DBFE03B07E
:10A4F40030BD094BD3F80435084A0192084A00924A
:10A5040040F2B1120749072002F0D8F9EBE700BF87
:10A51400383300203433002000B00040FCFA03003C
:10A52400F4F703005FFB030008B5FEF7F1F908BD7B
:10A5340008B500F0F3FE002008BD08B505F0A2FF41
:10A5440008BD0000064A136801331360B3F1704F6D
:10A5540002D0034B18687047134601221A60F8E7CB
:10A564001C4F002010B5044618B10023236063601B
:10A5740010BD7846FCF7E8FDF7E738B50C4605460C
:10A5840068B184B100236360EFF3108372B62A6864
:10A594006AB16A6854606C6003B962B638BD7846C3
:10A5A400FCF7D2FDEDE77846FCF7CEFDEAE72C6038
:10A5B400F1E710B5044658B1EFF3108372B6206882
:10A5C40008B142682260226832B103B962B610BD94
:10A5D4007846FCF7B9FDEFE76260F6E710B504468C
:10A5E40008B1206810BD7846FCF7AEFDF9E735DF09
:10A5F40070473CDF7047000010B504464FF0FF3051
:10A60400FFF7F5FF4FF0FF312046FFF7F2FFBFF3EE
:10A614004F8F0549CA6802F4E062044B1343CB60D0
:10A62400BFF34F8F00BFFDE700ED00E00400FA0523
:10A63400072814D8DFE800F0080C1504110F0A06E7
:10A644006420704714207047FA2070471E2070471A
:10A654004FF4FA707047322070474B207047FA204D
:10A6640070479620704746DF7047F8B504460D469C
:10A674004B1EDBB2012B09D8002222616261A26168
:10A68400E2612046FFF7EFFF012616E07846FCF76B
:10A694005BFDF1E7CA5CC8185200D2B2407842EAC6
:10A6A400D012CA5401339BB20E2BF3DDCB7B5B007B
:10A6B400CB73002F08DB0136F6B2AE420BD821462D
:10A6C40011F9207F0023EFE794F82F3083F08703FC
:10A6D40084F82F30EFE7F8BD2DE9F04190B08446BF
:10A6E4000C4696461F4602F10F0636111FFA86F8ED
:10A6F40004AD0068DCF80410DCF80820DCF80C3049
:10A704000FC50EF00F05B8F1000F02D085B100237C
:10A7140000E0002398466BB1012104A8FFF7A5FFD0
:10A72400B8F1000F1BD0B0B20138000110230EE0C5
:10A734000123EFE70221F0E7013B9BB22218D25C30
:10A7440010A9194411F8101C4A400DF80320002BDD
:10A75400F2D100250C950D950E950F9534E0B1B20C
:10A764000139ADB22A4604EB0111684614F0C2FE69
:10A7740080230DF805306B1C03E000220DF8032044
:10A7840001330F2BF9DD10230AE0013B9BB21DF8C6
:10A79400032010A9194411F8101C4A400DF8032095
:10A7A400002BF2D1D5E7013B9BB210AA1A4412F850
:10A7B400102C2118C95C4A4008A9CA54002BF2D1B4
:10A7C40004A8FFF750FF0135B3B2013BAB4202DDF1
:10A7D40028011023F2E710230AE0013B9BB210AAE0
:10A7E400D11811F8402C11F8101C4A4008A9CA5479
:10A7F400002BF2D104A8FFF736FF0CAC0FCC386065
:10A804007960BA60FB6010B0BDE8F08170B51E4E8F
:10A8140010E063693360002363611B4AD368591EE7
:10A82400D160ABB1184A9368013B93600023237055
:10A83400032D11D034682CB3134B9B6813B32578C4
:10A84400EDB2EB1EDBB2012BE3D904F11406F1E700
:10A854007846FCF779FCE5E723781BB12378DBB273
:10A86400062B0BD1636913B17846FCF76DFC012309
:10A874002370054B5A6862615C60DBE77846FCF73D
:10A8840063FCEFE770BD00BF244F002010B5044601
:10A89400436913B17846FCF757FC164B1B684BB160
:10A8A4006068144B1B685B68C31A002B02DB114BF6
:10A8B40019680DE00F4A136863611460D3680133AB
:10A8C400D36003B110BD7846FCF73EFCFAE71946A5
:10A8D4004B691BB15A68121A002AF8DB63614C6198
:10A8E400044AD3680133D360002BEBD17846FCF7DC
:10A8F4002BFCE7E7244F0020114B5B68FBB110B53C
:10A904000AE00023237004E0022323702046FFF7AB
:10A91400BDFF0B4B5B688BB1094B5C6862695A6085
:10A92400002363612378DBB2052BEAD02378DBB202
:10A93400012BE9D07846FCF707FCE5E710BD70472A
:10A94400244F002038B505461BE06269234B1A608A
:10A9540000226261DA68511ED9602AB3A3683BB34E
:10A9640006232370A36821692846984700F08CF9D0
:10A974000546FFF74BFFFFF7BFFF2378DBB2062B3B
:10A984001AD0164B1B6843B3144B1B685B685B1BE4
:10A99400642B22D5114B1C682378DBB2022BD4D054
:10A9A4007846FCF7D1FBD0E77846FCF7CDFBD5E73A
:10A9B4007846FCF7C9FBD3E7E26812B90023237099
:10A9C400DFE76368134463605B1B642BF9D40223E1
:10A9D40023702046FFF75AFFD3E738BD244F0020E9
:10A9E40008B5124B1B6873B1104B1B685B68C31A24
:10A9F40013F1640F08D402230D4A00F1640101200D
:10AA040000F006F970B908BD084B19680223084A1A
:10AA14004968012000F0FCF80028F4D07846FCF7DF
:10AA240093FBF0E77846FCF78FFBECE7244F00201C
:10AA340059AA020008B5FFF7E9FEFFF75DFF00F031
:10AA440023F9FFF77FFF00F01FF9FFF7C9FF01208B
:10AA540008BD000008B5024B186800F019FE08BDD7
:10AA6400204F002008B5064B00221A605A609A60F5
:10AA7400DA60044800F0ECFD034B186008BD00BF29
:10AA8400244F002039AA0200204F002038B5044684
:10AA9400F0B1A36803B3EFF3108572B600236361CA
:10AAA40023781BB12378DBB2062B19D1636913B168
:10AAB4007846FCF749FB012323700B4B5A6862610B
:10AAC4005C6005B962B6094B186800F0E1FD38BD59
:10AAD4007846FCF739FBDCE77846FCF735FBDAE728
:10AAE4007846FCF731FBE1E7244F0020204F00209B
:10AAF40038B50446E0B1EFF3108572B62378DBB2C3
:10AB0400062B19D02378DBB2012B1AD02378ABB1F2
:10AB14002378033BDBB2012B03D90B4A936801333F
:10AB2400936004232370094B186800F0B1FD05E01D
:10AB34007846FCF709FBDEE70023237005B962B60B
:10AB440038BD05232370F9E7244F0020204F00204F
:10AB540070B50E460446E0B1EFF3108572B6237863
:10AB6400DBB12378DBB2062B17D02378DBB2012BC1
:10AB740030D02378DBB2052B2CD02378033BDBB217
:10AB8400012B03D9154A936801339360032323707F
:10AB940014E07846FCF7D8FADEE723781BB1237873
:10ABA400DBB2062B12D1636913B17846FCF7CCFAF9
:10ABB40001232370094B5A6862615C606660084B2C
:10ABC400186800F065FD05B962B670BD7846FCF7FB
:10ABD400BBFAE8E701232370F0E700BF244F00200D
:10ABE400204F002010B4094B00F15002002443F818
:10ABF400224000F110040122A240C3F8042300F50E
:10AC0400A87043F820105DF8044B704700800040A2
:10AC1400022825D838B533F0030423D1EFF3108587
:10AC2400124C256072B6124C44F82020114A42F8A6
:10AC34002010114A1354114B002243F82020104BCA
:10AC44001B7833B10F4B1B68CA1A07D41146FFF7A0
:10AC5400C9FF064B186838B962B604E05A1AF5E71A
:10AC6400072070470A2038BD0020FCE7584F002019
:10AC7400384F00204C4F0020344F0020604F0020FC
:10AC8400444F0020484F0020EFF310820C4B1A6011
:10AC940072B60C4B1B787BB10B4B0022C3F84C21D2
:10ACA4000122DA64D3F84C05084B1B681844044BA2
:10ACB4001B6803B962B67047054B1868F7E700BF15
:10ACC400584F0020444F002000800040484F00208F
:10ACD4005C4F002070B5002418E01F4B002243F89D
:10ACE4002420012303FA05F51C4BC3F80853FFF78E
:10ACF400CBFF1B4B1B5D13F0020F21D0B04704F1B7
:10AD04005003164A002142F823100134022C21D8A2
:10AD140004F15003114A52F82330002BF5D0D2F835
:10AD2400043304F11005EB4013F0010FEDD00A4B8E
:10AD340053F82460002ED0D17846FCF705FACCE70E
:10AD44000146304600F02EFC0028D8D07846FCF7A7
:10AD5400FBF9D4E770BD00BF384F002000800040ED
:10AD6400344F002070B50546002414E0981A27E0FB
:10AD74005E1A29E02946184600F014FC002836D152
:10AD84002A4B53F824302BB101221A60274B00229E
:10AD940043F824200134022C3AD8254B04F5A87238
:10ADA400002143F8221004F1500243F8221053F812
:10ADB4002230204B53F824201F4B1B68D01AD5D4C3
:10ADC40005F17801CE1AD3D4864214D91B4B53F81B
:10ADD4002430002BD4D0194A002142F82410184AF8
:10ADE400125D12F0020FC5D028469847C8E778468E
:10ADF400FCF7AAF9C4E7114B53F82430002BC9D04F
:10AE0400E0B2511B02D4FFF7EDFEC3E7A91AFAE73B
:10AE14000C4B1B681BB90C4B4FF480721A60064B29
:10AE24001D600A4B01221A7070BD00BF604F0020E4
:10AE3400008000404C4F0020484F0020384F002035
:10AE4400344F0020584F002000E100E0444F002020
:10AE5400002300E00133022B0ED80F4AD25C12F01B
:10AE6400010FF7D000220C49CA540C4941F82320A1
:10AE74000B4941F82320EDE70A4B18600A4B0022E6
:10AE84001A700A4B4FF0FF32C3F80823084B4FF4F3
:10AE94008072C3F880217047344F0020384F00205F
:10AEA400604F00205C4F0020444F00200080004091
:10AEB40000E100E0024A136801331360704700BFE9
:10AEC4006C4F002010B50023084A1360084C094A4F
:10AED400A260094AE2602361FFF7D6FE00F5C330A1
:10AEE400A03060602046FFF7D1FD10BD6C4F0020FC
:10AEF400704F0020B9AE0200A086010030DF704719
:10AF040031DF704710B402684368A2EB731284689F
:10AF140083EAF4330360C1680C44446011448160E3
:10AF24001344C36018465DF8044B704770B582B093
:10AF34000D46064608B100240BE07846FCF704F9F8
:10AF4400F9E79DF807103019FFF7DAFF9DF807308D
:10AF54001C44A5420DD90DF10700FFF7CFFF9DF862
:10AF64000730002BF7D02A1B9342EAD98DF807202B
:10AF7400E7E702B070BD000030B583B00546002499
:10AF840002A840F8044D0421FFF7D0FF074B2B60C3
:10AF9400019B6B60AB60EB6003E02846FFF7B2FFF8
:10AFA4000134132CF9D903B030BD00BFED5EEAF1D2
:10AFB40008B5A0F1C8039BB2632B0AD9A0F5967318
:10AFC4009BB2632B08D9B0F5C87F08D300F07AFE92
:10AFD40001E00FF02DFF08BDFDF770FBFBE7062035
:10AFE400F9E708B5A0F1C8039BB2632B0AD9A0F511
:10AFF40096739BB2632B08D9B0F5C87F08D300F0D1
:10B00400B3FE01E00FF026FF08BDFDF7D3FBFBE71D
:10B014000620F9E748DF704749DF70474ADF704789
:10B024002DE9F00F1F4BD3F804650027837AA3BBE7
:10B034001D4BD3E90023B41A24F07F4A4FF0000BD0
:10B044004FEA4A124FEA4B13B2EB0A0263EB0B03CB
:10B05400590241EAD2514FEA422C0D461CEB0A0137
:10B0640045EB0B024FEA821949EA91694FEA8118CC
:10B074001346B8EB010269EB03031AEB02044BEB32
:10B084000305E30B43EA4542436813444360064B1C
:10B09400C3E90067BDE8F00F7047002383720268BC
:10B0A400F2E700BF00B00040C04F002010B50446D6
:10B0B4000023C3600361FFF7B3FF2368084A926863
:10B0C40022600121217503B9064B991AA161B1F5DA
:10B0D4007A7F01D39A4202D94FF47A73A36110BDE7
:10B0E400A84F002080969800094B03221A75094A3C
:10B0F4009A611A6840F6D8639A4204D8054B40F620
:10B10400D8629A607047034B43F2B0629A6070470A
:10B11400884F0020A84F002008B50B4B1B78012B4B
:10B1240005D0022B0BD07846FCF70EF803E002237F
:10B13400037501238372044B00221A7008BD032394
:10B144000375024B8361F6E7B94F0020A84F002036
:10B1540038B5054600240475012343724068FFF79F
:10B1640001FE0AF0EBFD6B682A6813440A4909687A
:10B17400283101FB02F1094AA2FB0121A3EB914111
:10B184000323074A78392046FFF742FD00B938BD4A
:10B194007846FBF7D9FFFAE7A44F002083DE1B4370
:10B1A400EDB0020010B50C4631B1036901330361FF
:10B1B4008269036813440360C3680133C3600122D6
:10B1C4000275826952088261012B0DD0022B19D0BD
:10B1D40082690368134417498B4222D840F6D76327
:10B1E4009A4221D800231DE0B2F5FA7F05D040F63B
:10B1F400D8639A42ECD88361EAE7002CF7D10023A4
:10B204008361E5E70369022B06D0012BE0D1002C12
:10B21400DED100238361DBE70268064B9B1A83615E
:10B22400D6E7002313B110BD0123FBE7FFF790FF1E
:10B23400F9E700BF80969800437A1BB90E4B0022B1
:10B244001A70704710B504460AF094FD60682268CD
:10B2540010440A4B1B68283303FB02F3084AA2FB81
:10B264000323A0EB93407838FFF7F2FD00236372C9
:10B27400014B00221A7010BDB84F0020A44F0020CB
:10B2840083DE1B4308B5224B01221A72214B1B7823
:10B2940013B1214B1B781BB31D4B00221A750428D4
:10B2A4001AD8DFE800F00314110C07001848FFF760
:10B2B400FDFE1EE001211648FFF774FF19E000218E
:10B2C4001348FFF76FFF14E00AF0F2FC11E0FFF7F8
:10B2D40001FD0AF021FD0CE07846FBF735FF08E09C
:10B2E400FFF7D2FC0A4B5A68801A18601846FFF719
:10B2F40013FF074B1B7D023BDBB2012B04D904482F
:10B3040000230372143008BD0148FFF795FFF6E7E8
:10B31400884F0020B94F0020B84F002008B50438EA
:10B3240003280DD8DFE800F00D190902FFF774FEB9
:10B3340030B17846FBF708FF02E07846FBF704FFDC
:10B3440008BD0A4840F6D8638360FFF767FE00280B
:10B35400F6D07846FBF7F8FEF2E70448FFF75EFE06
:10B364000028EDD07846FBF7EFFEE9E7A84F002070
:10B3740010B40D4A0023137013710121517143F26B
:10B38400B064946043F69824D460084A1060084A74
:10B394001370084A1370084A13725372136091723F
:10B3A40053605DF8044B7047A84F0020A44F002061
:10B3B400B84F0020B94F0020884F002008B5064838
:10B3C400FFF728FE034608B1184608BD0348FFF7F7
:10B3D40025FE0346F8E700BF89B20200A84F00200B
:10B3E400084B1B7D032B09D0074B1B78012B07D07F
:10B3F400022B01D0002070470120704701207047C4
:10B4040001207047884F0020B94F0020014B586835
:10B41400704700BF884F00200E4B5B7A0BB90020A9
:10B42400704710B50B4B5C681A6814440A4B1B68D0
:10B43400283303FB02F3094AA2FB0323A4EB93443E
:10B44400783CFFF721FC0346201A00D410BD181BDA
:10B45400FCE700BF884F0020A44F002083DE1B437D
:10B46400014B187A704700BF884F0020EFF3108318
:10B4740072B6054A527A22B1044A4FF48071C2F876
:10B48400001103B962B67047884F002000E100E064
:10B4940008B5034B01221A70FFF7E8FF08BD00BF8F
:10B4A400B94F002008B5034B02221A70FFF7DEFFE4
:10B4B40008BD00BFB94F002008B5094B1B782BB15C
:10B4C40048B9084B1B7813B1012300E00023044A58
:10B4D400107013B908BD0023F9E7FFF7C7FFF9E7B8
:10B4E400B84F0020B94F002008B50378012B10D0C5
:10B4F40013B1022B06D008BD4368002BFBD0806833
:10B504009847F8E74368002BF5D0C16880689847EE
:10B51400F1E74368002BEED080689847EBE7000022
:10B52400044B1B780F2B04D0034B4FF48022C3F839
:10B53400002170470C51002000E100E010B50146E5
:10B544000548FDF7CBFF20B90446FFF7E9FF204685
:10B5540010BD0424FBE700BFC84F002010B50C4CFD
:10B5640020700C480C4B0360102343608360FDF78C
:10B5740099FF0A48FEF7F6FF23780F2B07D05B01EB
:10B58400DBB2074A82F812334FF48023136010BDF4
:10B594000C510020C84F0020DC4F00201051002027
:10B5A40000E100E030B585B00C46054648B1002303
:10B5B4008DF80030019502946846FFF7BFFF05B08F
:10B5C40030BD7846FBF7C0FDF1E7000010B5EFF39E
:10B5D400108472B60A490A68531C0B6042B9094ABE
:10B5E40012780F2A04D0084A4FF48021C2F8801040
:10B5F40013B104B962B610BD7846FBF7A5FDF8E7B0
:10B60400DC5000200C51002000E100E010B5EFF305
:10B61400108472B60B4B1B687BB10A4A1368013B5A
:10B6240013603BB9084B1B780F2B03D0074B4FF427
:10B6340080221A6004B962B610BD7846FBF784FD17
:10B64400EBE700BFDC5000200C51002000E100E0DB
:10B6540010B5044680B10C4B1B68082B10D8EFF3CF
:10B66400108272B6084B1868411C1960074B43F8E6
:10B67400204002B962B610BD7846FBF765FDEAE7E3
:10B684007846FBF761FDEAE7E0500020E450002033
:10B6940038B504460D4B1B68834213D9EFF310856C
:10B6A40072B661090A4A04F01F04012303FA04F480
:10B6B40052F82130234342F82130FFF731FF05B916
:10B6C40062B638BD7846FBF73FFDE7E7E05000205F
:10B6D4000851002070B50D461646044658B175B1A0
:10B6E400EFF3108372B6A560E66000222274246032
:10B6F40003B962B670BD7846FBF726FDEFE77846DE
:10B70400FBF722FDECE7000038B5044690B1A368CE
:10B71400A3B1EFF3108572B6237C9BB90123237484
:10B7240021460948FEF729FFFFF7FAFE002005B974
:10B7340062B638BD7846FBF707FDE8E77846FBF7C5
:10B7440003FDE6E71120F2E71051002010B504468E
:10B7540008B1207C10BD7846FBF7F6FCF9E7000041
:10B7640070B584B02C4B1B7823B901252A4B1D706E
:10B7740000240AE07846FBF7E7FCF6E7274B53F88A
:10B78400243098470646F0B10134254B1B68A34288
:10B794001ED96109234A52F8213004F01F00C34026
:10B7A40013F0010FF0D0EFF3108672B6012303FA01
:10B7B40000F052F8213023EA000342F82130002E31
:10B7C400DCD162B6DAE72046FFF762FF3546DBE7F5
:10B7D4001548FEF7EEFE07E0A368E06898470023EB
:10B7E40023741148FEF7E5FE50B10468237C002B56
:10B7F400F2D17846FBF7A8FCEEE76846FFF774FE43
:10B8040069460A48FDF797FE0028F6D0024B00224D
:10B814001A70284604B070BD18510020E45000206E
:10B82400E05000200851002010510020C84F002093
:10B8340008B5FFF795FF08BD46DF704770B58CB0BB
:10B8440003460E4615466C46006859689A68DB68DC
:10B854000FC430687168B268F3680FC46846FFF7B4
:10B86400EBFF08AC0FCC28606960AA60EB600CB0F9
:10B8740070BD08B5FEF730FF08BD08B502F0ABF89F
:10B8840008BD08B502F0E1F808BD38B5032900F297
:10B894009380DFE801F0023535671970817A5A78B0
:10B8A40061F306025A70C17AD2B261F3C7125A70B8
:10B8B400C168C1F3074201F47F442243090401F43F
:10B8C4007F010A4300219A70C2F30724DC70120C32
:10B8D4001A710489220A42EA0422A3F80520D971C4
:10B8E400197201690A0202F47F0242EA0162080A3B
:10B8F40000F47F40024342EA1162C3F8092038BDD4
:10B904001970597801F0800162F3C7115970C16848
:10B91400C1F3074201F47F442243090401F47F0187
:10B924000A439A70C2F30721D970120C1A71018963
:10B934000A0A42EA0122A3F8052041880A0A42EAD7
:10B944000122A3F8072001690A0202F47F0242EAF5
:10B954000162080A00F47F40024342EA1162C3F81C
:10B964000920CCE7197000245C70C168C1F3074258
:10B9740001F47F452A43090401F47F010A439A70C4
:10B98400C2F30721D970120C1A7101890A0A42EA1A
:10B994000122A3F80520DC711C7201690A0202F479
:10B9A4007F0242EA0162080A00F47F40024342EA4D
:10B9B4001162C3F80920A2E77846FBF7C5FB9EE7AE
:10B9C40070B584B00E461446054668B162B10023D2
:10B9D4000093019302930393234632462946684613
:10B9E400FFF747FF04B070BD7846FBF7ADFBEEE709
:10B9F400F0B585B00F4614461D46064618B112B17F
:10BA04000BB10B9B13B97846FBF79EFB6B463A468A
:10BA140031462046FFF72DFF0B9B9DF82820294631
:10BA24006846FFF726FF05B0F0BD00002DE9F0479A
:10BA340086B000AF884615469946044608B101B160
:10BA440013B97846FBF780FB05F1110605F1100ADE
:10BA540005F11803DB086A46A2EBC3039D46254B98
:10BA64001B6807F1180040F8043D6A460421FFF7FB
:10BA7400A7FF3B1D102221466846FFF7FAFE2A461F
:10BA84004146684613F036FD01230DF80530EA18E7
:10BA94006B4692B26946381DFFF7EBFE9DF80F30F6
:10BAA40003F07F034C4604F8013B2A46414604A8B0
:10BAB40013F020FD02230DF80A30B6B223463246B5
:10BAC4006946381DFFF7D5FE20686168A268E368FF
