:020000022000DC
:1060000000F0002035620200656202006762020053
:10601000696202006B6202006D6202000000000013
:106020000000000000000000000000006F6202009D
:1060300071620200000000007362020075620200DB
:10604000796202007B620200352803007F62020051
:106050008162020083620200C5940200911F030066
:10606000896202008B62020005EE02008F6202006C
:106070009162020093620200956202009762020040
:1060800099620200511E030025CA03009F620200AC
:10609000791E0300A362020005920200A7620200BB
:1060A000A9620200AB620200AD620200AF620200B0
:1060B000B1620200B36202007762020077620200FE
:1060C000B5620200B7620200B9620200BB62020060
:0C60D000BD620200BF620200C16202005B
:1060DC00354936480A1A02D0072291438D46344975
:1060EC0034480A1A06D00722914381F30988022208
:1060FC0082F3148830483149314A00F043F8314872
:10610C003149324A00F03EF831483249324A00F007
:10611C0039F832483249334A00F034F832483349BE
:10612C00334A00F02FF833483349344A00F02AF848
:10613C0033483449344A00F025F8344834490022B5
:10614C0000F02BF833483449002200F026F833488D
:10615C003349091A082903DB00220260043001606C
:10616C001F482049884205D00268043003B4904788
:10617C0003BCF7E700208646EC4600200021294AA4
:10618C009047FEE7884207D0521A05D003780130B9
:10619C000B700131013AF9D17047884202D002707C
:1061AC000130FAE77047000000F0002000E8002002
:1061BC0000F0002000F000208C280400C8320020E1
:1061CC0010340020C4620200C462020028080400DB
:1061DC008C280400C8320020C83200202808040093
:1061EC0028080400280804002808040028080400D3
:1061FC002808040028080400280804008C2804003F
:10620C00D429040010340020103400201034002055
:10621C00D87F0020D87F0020D87F0020D87F002096
:10622C00D88300205D7B020008484FF007018843AB
:10623C008546074880470748016841F470010160B2
:10624C00BFF34F8FBFF36F8FFFF742BF00F00020FB
:10625C00E515030088ED00E0FEE7FEE7FEE7FEE74C
:10626C00FEE7FEE7FEE7FEE7FEE7FEE7FEE7FEE7FA
:10627C00FEE7FEE7FEE7FEE7FEE7FEE7FEE7FEE7EA
:10628C00FEE7FEE7FEE7FEE7FEE7FEE7FEE7FEE7DA
:10629C00FEE7FEE7FEE7FEE7FEE7FEE7FEE7FEE7CA
:1062AC00FEE7FEE7FEE7FEE7FEE7FEE7FEE7FEE7BA
:0862BC00FEE7FEE7FEE700BF6C
:1062C40041DF704708B5804708BD704708B5034AE9
:1062D400CA2103200BF04CFE08BD00BF0C0C0400C7
:1062E4000C4B1B6813F4804F03D00B4B1B68032B20
:1062F40000DC704700B583B0084BD3F80435084A76
:106304000092D6220749042017F03AFB03B05DF847
:1063140004FB00BF00340020FC33002000B0004028
:10632400900C0400860C040000B583B0334B1B684A
:1063340013F4804F03D0324B1B68032B2EDC314BFC
:106344004FF6FF725A809A801A802F480EF032FD61
:1063540000282FD12D4A00212D4811F0BDFE002820
:106364002ED12C482C4B4360012111F0F1FE68BB67
:10637400284B188804F0D0FD70BB2848284B436094
:10638400284B8360012119F071FC58BB234B1888FA
:1063940004F0C2FD60BB03B05DF804FB224BD3F8EC
:1063A4000435224A009240F297222149042017F032
:1063B400E7FAC4E71F4A4FF428710BF0D9FDC9E787
:1063C4001C4A40F2A1210BF0D3FDCAE7194A40F25E
:1063D400A5210BF0CDFDCBE7164A40F2A6210BF028
:1063E400C7FDCAE7134A40F2AA210BF0C1FDCDE76D
:1063F400104A40F2AB210BF0BBFDCCE70034002087
:10640400FC3300209035002061670200CF62020057
:106414009835002088350020F9660200AC3500204C
:106424003D6402008966020000B00040F80D0400DB
:10643400860C04000C0C040000B589B000911346CE
:106444000F4A132103A819F0B5FD0E4B1B6813F472
:10645400804F03D00C4B1B68032B03DC012009B0D5
:106464005DF804FB094BD3F8043503AA0192084AEA
:10647400009240F279220749042017F081FAEDE7EF
:10648400C80B040000340020FC33002000B000409E
:10649400680D0400860C040070B582B0384B1B787C
:1064A400834214D3374B1B6813F4804F65D0364BAB
:1064B4001B68032B61DD354BD3F80435344A009255
:1064C40040F246323349042017F05AFA55E00446A4
:1064D4000D460D200CF0A6FA2A4B1B6813F4804FCE
:1064E40003D0294B1B68032B03DC254B1C700024B1
:1064F40038E0264BD3F80435274A009240F22F3275
:106504002449042017F03CFAEFE730460BF084F9F5
:10651400112E25D1621C214B1B7803EB83039800B9
:106524001F490144885C0CF07DFA06460028EFD030
:106534001128EDD0134B1B6813F4804FE5D0124B98
:106544001B68032BE1DD114BD3F804350190154A88
:1065540000924FF44E720F49042017F011FAD4E759
:106564000134E4B2A3B2AB42D4D30C4B1B7803EB9B
:1065740083039A000A4B0021995402B070BD00BFF6
:106584008934002000340020FC33002000B0004097
:10659400340D0400860C0400F40C0400883400203C
:1065A40024340020080D040070B584B004460D4660
:1065B400022A11D0294B1B6813F4804F03D0284BB7
:1065C4001B68032B1ADC274B187800EB800293001E
:1065D400254AD55401232CE024490B78214A10780C
:1065E400234AD0540133DBB2224AA2FB0302D2086D
:1065F40002EB820250001B1A0B70DBE71E4BD3F830
:10660400043503940295174A127801921B4A0092AA
:1066140040F215321A49042017F0B2F9D3E75A1E92
:10662400A65C00EB800291000F4A0A44D654013361
:10663400DBB2132BF3D929460120FFF72DFF0949BB
:106644000B780133DBB20B4AA2FB0302920802EB84
:1066540082029B1A0B7004B070BD00BF003400208E
:10666400FC3300201C34002024340020203400207B
:1066740010340020CDCCCCCC00B000403C0D040044
:10668400860C040010B588B00C46134A1378013305
:1066940013700B46114A132103A819F08BFC104BFD
:1066A4001B6813F4804F03D00E4B1B68032B06DCCE
:1066B4000222132103A8FFF777FF08B010BD0A4B8D
:1066C400D3F804350194094A009240F2892208491A
:1066D400042017F055F9EBE71F340020DC0B04000D
:1066E40000340020FC33002000B00040F00B040014
:1066F400860C040000B589B000911346114A132199
:1067040003A819F057FC104B1B6813F4804F03D0F7
:106714000E4B1B68032B07DC0122132103A8FFF790
:1067240043FF09B05DF804FB094BD3F8043503AA11
:106734000192084A009240F267220749042017F0A8
:106744001FF9E9E7C80B040000340020FC330020E3
:1067540000B00040680D0400860C040070B582B0DF
:1067640004460D4616460E4B1B6813F4804F03D0A7
:106774000C4B1B68032B06DC32462946204602F0EC
:10678400BFFB02B070BD084BD3F80435074A009232
:1067940040F293120649042017F0F2F8ECE700BF28
:1067A40000340020FC33002000B000407C080400CA
:1067B400860C040010B59EB00378022B04D0012B84
:1067C40006D04BB11EB010BD40680BF025F8F9E7B8
:1067D40040680BF021F8F5E7A74C207805AB184486
:1067E4000CF000F923781A1F1EA90A4412F8642C2D
:1067F400452A27D09A1E1EA90A4412F8642C532A4B
:106804003CD09D4B1A78931E1EA90B4413F8643C8C
:10681400442B00F0E580984B1A78931E1EA90B4474
:1068240013F8643C6F2B00F06681934B1B781EAA0F
:106834001A4412F8642C0A2A00F0878101338E4A24
:106844001370BFE7DA1E0A4412F8642C522AD1D11D
:106854009A1E0A4412F8642C522ACBD15A1E0A44B6
:1068640012F8642C4F2AC5D10A461A4412F8642C33
:10687400522ABFD1814A00211170BBE75A1E0A4433
:1068840012F8642C4E2ABCD10B4413F8643C522BEE
:10689400B7D17B4B1B6813F4804F03D0794B1B6833
:1068A400032B3DDC764B1B6813F4804F03D0754BF0
:1068B4001B68032B40DC724B1B6813F4804F03D01E
:1068C400704B1B68032B46DC6C4B00221A706E4B1A
:1068D4001B78002B62D06A4B1B6813F4804F03D0E3
:1068E400684B1B68032B4DDC684C2278684B985C22
:1068F400684BA3FB00C1890801EB8101411A66487A
:10690400017061480178013901700132D2B2A3FBF0
:106914000213DB0803EB83035900521A227070E759
:106924005E4BD3F804355E4A00924FF459725D49C8
:10693400042017F025F8B5E7584BD3F80435524A2C
:1069440012780192584A009240F265325549042067
:1069540017F016F8AFE7514BD3F804354B4A1278C9
:106964004B498A5C0392514A127802924A4A12783D
:1069740001924F4A009240F266324A49042016F0CE
:10698400FFFFA1E7454BD3F804354A4A009240F291
:106994006A324449042016F0F3FFA5E7384B1B681C
:1069A40013F4804F03D0374B1B68032B0CDC3A499C
:1069B4000B780133DBB2374AA2FB0302920802EBE5
:1069C40082029B1A0B701CE7344BD3F804353A4A05
:1069D400009240F271323349042016F0D1FFE6E709
:1069E400531E0B4413F8643C652B7FF414AF0A4424
:1069F40012F8643C6C2B7FF40EAF204B00221A700B
:106A04001F4B1B6813F4804F03D01E4B1B68032BD2
:106A140019DC214B1B7803EB83039A00274B9B5C07
:106A2400002B51D0164B1B6813F4804F03D0154B29
:106A34001B68032B13DC114B00221A701321022054
:106A4400FFF72AFDE7E6154BD3F804351C4A0092FC
:106A54004FF45F721349042016F092FFD9E70F4BED
:106A6400D3F80435174A009240F27F320D490420CE
:106A740016F086FFDFE700BF2234002089340020AF
:106A840000340020FC3300201F3400202134002077
:106A940010340020CDCCCCCC8834002000B0004091
:106AA400240E0400860C0400300E04001C34002064
:106AB4003C0E0400700E0400800E040024340020F8
:106AC400900E0400A00E0400224B1B6813F4804FA8
:106AD4003FF4A1AE204B1B68032B7FF79CAE1F4BEA
:106AE400D3F804351E4A00924FF461721D49042004
:106AF40016F046FF8FE6531E0B4413F8643C752BC7
:106B04007FF493AE0A4412F8643C742B7FF48DAE88
:106B1400104B1B6813F4804F03D00F4B1B68032BDF
:106B240007DC114B00221A7013210220FFF7B4FC7A
:106B34007BE60A4BD3F804350C4A009240F28A32C1
:106B44000849042016F01CFFEBE7094B00221A70D9
:106B540038E600BF00340020FC33002000B00040C1
:106B6400B40E0400860C040089340020C00E040016
:106B74002234002000B583B06421174802F0B0FB32
:106B840014F088FDB0B9154B1B6813F4804F03D083
:106B9400134B1B68032B13DC00214FF4F01002F09D
:106BA40008FC0222C8214FF4F01002F00DFC03B0DF
:106BB4005DF804FB0B4A4FF492610BF0D9F9E2E75C
:106BC400094BD3F80435094A009240F2914208492E
:106BD400042016F0D5FEDFE719700200003400200F
:106BE400FC3300200C0C040000B00040180E04001C
:106BF400860C040000B583B0104B1B6813F4804F5F
:106C040003D00F4B1B68032B08DC00210D4B1970BC
:106C1400122002F0BDFB03B05DF804FB0A4BD3F86D
:106C240004350A4A52880192094A00924FF4AC7220
:106C34000849042016F0A4FEE7E700BF0034002052
:106C4400FC3300200436002000B000402836002029
:106C540094080400860C040000B583B00E4B1B6836
:106C640013F4804F03D00D4B1B68032B08DC002169
:106C74000B4B1970112002F08BFB03B05DF804FB81
:106C8400084BD3F80435084A009240F267120749CA
:106C9400042016F075FEEAE700340020FC330020DF
:106CA4000436002000B0004090090400860C040063
:106CB40000B583B00F4B1B6813F4804F03D00E4B09
:106CC4001B68032B0ADC0021112002F061FB012167
:106CD400122002F05DFB03B05DF804FB074BD3F810
:106CE4000435074A009240F25F120649042016F068
:106CF40047FEE8E700340020FC33002000B00040E9
:106D0400C0090400860C040000B583B0414B1B7815
:106D1400002B69D1404B5A881B889A4226D23F4B9C
:106D24001B6813F4804F03D03D4B1B68032B11DC0D
:106D34003948002300F118020221808802F07EF90C
:106D44000121122002F024FB324B01221A7003B0FD
:106D54005DF804FB334BD3F80435334A009240F218
:106D6400A5123249042016F00BFEE1E71E2B26D8AB
:106D74002F4B304A1A6004225A60284B1B6813F4C4
:106D8400804F03D0264B1B68032B0CDC284A224B74
:106D9400D988022001F086FA01F0A2FA012111201B
:106DA40002F0F6FAD0E71F4BD3F80435224A0092DA
:106DB40040F2BD121D49042016F0E2FDE6E7174B30
:106DC4001B6813F4804FC2D0154B1B68032BBEDD28
:106DD400144BD3F80435194A009240F2C5121349F2
:106DE400042016F0CDFDB2E70C4B1B6813F4804F62
:106DF400ADD00B4B1B68032BA9DD0A4BD3F804352C
:106E04000F4A009240F2CD120849042016F0B8FD52
:106E14009DE700BF043600202836002000340020FF
:106E2400FC33002000B00040140B0400860C040066
:106E3400B8350020780D0400480B0400780B0400DA
:106E4400940B040008B500224FF4203103480BF0E2
:106E54005BF800B908BD0AF0DFFCFBE7C035002091
:106E640070B582B01F4807F035FD1F4B1A781F4BD1
:106E74005A771F4B1B6813F4804F03D01D4B1B68BC
:106E8400032B21DC1E21174807F04DFD0646C8B12F
:106E9400164C0FCCC6F81100C6F81510C6F8192008
:106EA400C6F81D3007CCC6F82100C6F82510C6F870
:106EB40029202388A6F82D30FF2333713146094851
:106EC40007F070FD02B070BD0B4BD3F8043501928E
:106ED4000A4A009240F20F420949042016F050FD7C
:106EE400D0E700BFCC34002028330020C832002073
:106EF40000340020FC33002000B00040740804007B
:106F0400860C040008B5FFF7ABFF08BD08B53822AE
:106F14000021064819F09BF8054817F03FFA00B91C
:106F240008BD044817F088FCFAE700BF28360020A3
:106F3400E03500201833002010B582B004462E4BF3
:106F44001B6813F4804F03D02C4B1B68032B05DC08
:106F5400032C13D8DFE804F01014171C284BD3F8C3
:106F64000435421C0192274A009240F21F2226490E
:106F7400042016F005FDEBE7FFF7C6FE02B010BDD6
:106F840001F0E0F9FAE7FFF75DFFFFF769FFF5E7C6
:106F9400194B1B6813F4804F03D0184B1B68032B49
:106FA4001EDCFFF7B3FF02F083FB0422C8214FF479
:106FB400801002F009FA104B1B6813F4804FDDD0E7
:106FC4000E4B1B68032BD9DD0D4BD3F804350F4A48
:106FD40000924FF413720C49042016F0D1FCCDE753
:106FE400074BD3F804350A4A009240F24622064978
:106FF400042016F0C5FCD4E700340020FC33002044
:1070040000B00040AC0A0400860C0400D80A040056
:10701400C00A04003038042800D9704708B5FFF7C7
:107024008BFF08BDF8B5382201210F4817F0ADFADF
:10703400A8B107460D4C051D04F1300C26460FCEB1
:1070440028606960AA60EB60344610356645F5D166
:1070540003CC28606960384617F0D0FA02E004488F
:1070640017F0EAFB0020F8BDE035002028360020A8
:10707400F832002000B583B02E4B1B6813F4804F08
:1070840003D02D4B1B68032B22DC0021122002F0BD
:107094007FF92A4A53880133538002F0FDFFFFF73A
:1070A400C1FF20BB254B5B881E2B26D9214B1B68B7
:1070B40013F4804F03D0204B1B68032B2EDC0422D7
:1070C400C8214FF4F01002F07FF903B05DF804FB1F
:1070D4001B4BD3F80435194A52880192194A00927D
:1070E40040F23D121849042016F04AFCCDE7174A35
:1070F40040F243110AF03CFFD4E7154A154B1360E4
:10710400042353600D4BD988022001F0CBF801F021
:10711400E7F80121112002F03BF9D6E7084BD3F838
:1071240004350D4A00924FF4A8720749042016F062
:1071340027FCC4E700340020FC330020283600205C
:1071440000B00040F0080400860C04000C0C04009D
:10715400B8350020780D0400780B040008B5FFF75B
:1071640061FF00B908BD034A40F235110AF000FF7F
:10717400F8E700BF0C0C0400F0B585B004AF794B00
:107184001B6813F4804F03D0774B1B68032B18DC68
:10719400744B1B6813F4804F03D0734B1B68032B91
:1071A4001BDC704B1B6813F4804F52D06E4B1B6872
:1071B400032B4EDD6C468AB00DF1100C654600239E
:1071C40032E06A4BD3F80435694A009240F28442B3
:1071D4006849042016F0D4FBDAE7644BD3F804358D
:1071E400654A11885088D288039202900191634ABB
:1071F400009240F286425F49042016F0C1FBD0E7BA
:107204005D4A1A4492F828204FEA121E59005C483D
:10721400066816F80E6005F8136002F00F020131DB
:107224000068825C6A5401330F2BE9D900238CF87F
:1072340020304E4BD3F80435CDF808C0514A0192A2
:10724400514A009240F287424A49042016F098FBC2
:10725400A546444B1B6813F4804F32D0424B1B6845
:10726400032B2EDD6C468AB00DF1100C654600230D
:1072740012E0414A1A44127A4FEA121E5900404859
:10728400066816F80E6005F8136002F00F0201316B
:107294000068825C6A5401330F2BEAD900238CF80E
:1072A4002030324BD3F80435CDF808C0374A019268
:1072B400354A00924FF491622E49042016F060FB87
:1072C400A546284B1B6813F4804F32D0264B1B680D
:1072D400032B2EDD6C468AB00DF1100C654600239D
:1072E40012E0254A1A44127E4FEA121E590024481D
:1072F400066816F80E6005F8136002F00F020131FB
:107304000068825C6A5401330F2BEAD900238CF89D
:107314002030164BD3F80435CDF808C01C4A01922E
:10732400194A009240F289421249042016F028FBBF
:10733400A5460C4B1B6813F4804F03D00A4B1B6803
:10734400032B02DC0437BD46F0BD084BD3F80435EB
:10735400104A009240F28A420649042016F010FBBB
:10736400F0E700BF00340020FC33002000B00040F0
:10737400DC090400860C040028360020F809040007
:10738400043400203C0A0400480A0400500A0400A3
:107394005C0A0400680A040000B583B002780D2A70
:1073A40020D11B4B1B6813F4804F03D0194B1B686F
:1073B400042B05DC184B1B7873B103B05DF804FB98
:1073C400164BD3F80435164A00924FF4EC72154963
:1073D400052016F0D5FAEDE7FFF7CEFE0E4B01229D
:1073E4001A70EAE70A4B1B6813F4804FE5D0094B87
:1073F4001B68042BE1DD094BD3F8043501920A4ADA
:10740400009240F2E7120749052016F0B9FAD4E7D2
:1074140000340020FC3300206037002000B000401E
:1074240058090400860C04007409040010B582B0E5
:107434000446104B1B6813F4804F03D00E4B1B689B
:10744400032B04DC23781C2B0FD002B010BD0B4B94
:10745400D3F8043502780192094A009240F2871267
:107464000849042016F08CFAECE7002014F0C6F961
:10747400EBE700BF00340020FC33002000B00040E4
:10748400D4080400860C040000B589B0164B05939B
:10749400164B0693164B07930423049305F0CEFD75
:1074A400A0F5005002900123039302A9114817F09C
:1074B4007DF910B909B05DF804FB0F4817F0BCF969
:1074C4000E4B1B6813F4804FF4D00D4B1B68002B3C
:1074D400F0DD0C4BD3F804350B4A0092EB220B4938
:1074E400012016F04DFAE5E715750200D16202009D
:1074F400E5620200E0350020E8320020003400207C
:10750400FC33002000B000402C090400860C040069
:1075140010B582B01446154B1B6813F4804F03D08A
:10752400134B1B68032B07DC012C10D0022C12D048
:10753400032C14D002B010BD0E4BD3F804350E4A00
:107544000092BA220D49042016F01AFAECE77846A4
:1075540002F09CF8EAE7784602F098F8E8E7084A6F
:10756400C32104200AF004FDE4E700BF0034002036
:10757400FC33002000B00040A80C0400860C04007A
:107584000C0C0400F8B517F06FF9044628B915F08F
:10759400DFF90028F7D020BFF5E701210E4816F0E7
:1075A40027FF88B1051D0D4F00F1340C3E462868B5
:1075B4006968AA68EB680FC6103537466545F5D18A
:1075C4002868696803C705E038220021034818F0D9
:1075D4003EFD00242046F8BDE0350020283600207A
:1075E40010B582B0FFF750FFFFF7CCFF044658B147
:1075F400144B1B6813F4804F03D0134B1B68032BED
:1076040013DC204602B010BD104B00221A805A80B1
:107614004FF48072DA80FFF705FD0028F1D00C4AA0
:1076240040F213210AF0A4FCEBE70A4BD3F804352B
:10763400094A009240F217220849042016F0A0F9E2
:10764400DFE700BF00340020FC3300202836002090
:107654000C0C040000B0004018090400860C04005F
:1076640010B5064C4023064A0649204607F078FA2E
:107674004FF4FA71204607F0EFF910BDCC34002026
:107684008C3400208D76020010B582B00446234964
:107694000A78234BA3FB02035B0803EB4303D31ACF
:1076A4000B70204B1B6813F4804F03D01E4B1B68D8
:1076B400032B15DC616889B11C4A137801331370FC
:1076C4001B4B1B78DBB91A4B1B783BB9134B1B784C
:1076D400022B1BD0114A13780133137002B010BD72
:1076E400144BD3F80435114A12780192124A0092CD
:1076F40040F2D9321149042016F042F9DAE7204663
:1077040007F09AF9204607F007F9DCE7616820469C
:1077140007F092F9204607F0FFF8DBE71E3400205B
:10772400ABAAAAAA00340020FC330020283300208E
:10773400E632002000B0004068080400860C040013
:1077440030B58BB004AC0D4D0FCD0FC495E80300DC
:1077540084E803000A4B00934FF480730193094AB1
:10776400029203930723084A694604A80BF0D2F84F
:1077740008B90BB030BD0AF04FF8FAE72808040046
:107784006036002068370020B967020000B585B074
:1077940001AB0B4A07CA03C31A70002109480AF057
:1077A400CBFC38B901A900200AF01AFD28B905B0AC
:1077B4005DF804FB0AF030F8F4E70AF02DF8F6E778
:1077C40040080400C40B040008B50C4A01210C480D
:1077D4000AF084FB58B90B4A01210B480AF07EFBDE
:1077E40040B90A4A01210A480AF078FB08BD0AF0A8
:1077F40013F8F0E70AF010F8F3E700BF8578020009
:107804006C0D040029780200700D0400096F020059
:10781400740D040008B5FFF793FFFFF7B7FFFFF7F8
:10782400D3FF08BD10B5124B1B78242B07D0114B86
:107834001B78CBB90E4A13780133137010BD0D4B6E
:107844001B78002BF3D000240A4B1C700A480AF062
:1078540079FB22464FF0967108480AF055FB002840
:10786400ECD009F0D9FFE9E7FFF7FAFAE2E700BF45
:107874001D340020E6320020C035002008360020E8
:1078840008B50A4A11680A4BA3FB01035B0803EB22
:107894004303CB1A136023B1044A13680133136002
:1078A40008BD044900200AF0F3FCF5E76437002022
:1078B400ABAAAAAA1A34002008B5124B99881889D1
:1078C40003F060FC58B90F4B9988188903F01EFD2A
:1078D40058B90C4B188810F0F1F860B908BD0A4A81
:1078E4004FF4F9710AF044FBEDE7074A40F2F31153
:1078F4000AF03EFBEDE7044A4FF4FB710AF038FB53
:10790400ECE700BF903500200C0C040008B51A49C0
:107914004FF4414005F036FDA8B9184B9988184B2F
:10792400188803F02FFCA0B9134B1988144B18883E
:1079340003F036FB98B9114B9988124B188803F061
:1079440021FC90B908BD104A40F2FF110AF010FB67
:10795400E3E70D4A40F201210AF00AFBE4E70A4A90
:1079640040F202210AF004FBE5E7074A4FF40171F3
:107974000AF0FEFAE6E700BF083300209035002045
:1079840088350020AC3500200C0C040030B593B0D1
:10799400202200210DEB020018F059FB01238DF881
:1079A400203007238DF823308DF82830314B0C9389
:1079B400314B10930DF1470108A801F08FFE78BBFD
:1079C4002E4813F0B7FEFFF70BFE2D4B187602ACD2
:1079D4002C4D0FCD0FC495E8030084E8030002A8E2
:1079E40000F03CFD9DF8473063BB274B1B6813F444
:1079F400804F03D0254B1B68032B17DC00F056FD8A
:107A0400FFF75AFFFFF782FF02F046FBFFF7A6FBE2
:107A14001F49204801F076FBFFF722FE13B030BD6A
:107A24001D4A40F2B9210AF0A3FAC9E71B4BD3F867
:107A340004351B4A009240F2CE221A49042015F064
:107A44009FFFDBE7104B1B6813F4804F03D00F4BF1
:107A54001B68032B02DC00F09BFCD9E70F4BD3F827
:107A64000435114A00924FF436720E49042015F081
:107A740087FFF0E7317402002D6302000C3300200D
:107A8400903500204C08040000340020FC33002012
:107A9400F96B0200797002000C0C040000B0004085
:107AA400AC0D0400860C0400E40D040000B585B0A0
:107AB400204A04214FF4C04015F046FF1E4B1B68BA
:107AC40013F4804F03D01D4B1B68032B14DC0AF006
:107AD400D5F9E8B901F0A8FC194801F0C5FCE8B9EA
:107AE400184BD86B01F09AFBF0B9FFF74FFFFFF783
:107AF40091FE05B05DF804FB134BD3F80435134A2B
:107B0400009240F272421249042015F039FFDEE778
:107B1400104A40F274410AF02BFADBE70D4A4FF4A5
:107B24008F610AF025FADBE70A4A40F27D410AF048
:107B34001FFADAE721D9030000340020FC330020C7
:107B44003D6F02002808040000B00040C00C04008F
:107B5400860C04000C0C040000B587B0FFF7A6FFE8
:107B6400EFF3108572B6264B9B689BB9244A012318
:107B74009360244BD3F88010234801401160C3F86C
:107B84008000D3F8841051604FF0FF32C3F8842092
:107B9400002400E0012405B962B6FEF7EBFF184BA0
:107BA4009B686BB164B9EFF3108172B6144B18681B
:107BB400144A10605868506000229A6001B962B695
:107BC40005A805F03DFB114B1B6813F4804F14D03E
:107BD4000F4B1B68032B10DD0E4BD3F80435BDF897
:107BE4001420BDF81610029101920B4A009240F243
:107BF400A3420A49042015F0C3FEFEF761FBFCE72B
:107C0400484E002000E100E0FC06FFBD00340020E7
:107C1400FC33002000B000407C0D0400860C0400FE
:107C24001D4B1B781BB11C4B01221A70704700B509
:107C340087B01A4A03AB07CA03C323F8022B120CFA
:107C44001A70174917480BF0F1FAB0B9164B0093A4
:107C540003AB134A134915480BF0A5FA90B914481D
:107C64000CF0F6FD014611480BF0C8FA78B90A4B3E
:107C740001221A7007B05DF804FB0E4A7C210AF059
:107C840077F9E3E70B4A7D210AF072F9E7E7094A3D
:107C94007E210AF06DF9EAE7A43B0020D80E040027
:107CA4006C380020A83B0020F17D0200543A0020EB
:107CB4008C380020C011040030B583B0284B1B68F9
:107CC4001A6812B105465B68B3B9264B1B6813F4F6
:107CD400804F40D0244B1B68032B01DC01203BE088
:107CE400224BD3F80435224A00925622214904201B
:107CF40015F046FE01202FE0102B0FD80024184B5E
:107D04001B685A68C2F110018C4222D819682819DC
:107D140018F01AF930B10134E4B2F0E7784601F012
:107D2400B5FCEBE70F4B1B6813F4804F16D00E4BDA
:107D34001B68032B01DC01200EE00C4BD3F8043547
:107D44000D4A00925F220B49042015F019FE012010
:107D540002E0002000E0012003B030BD0120FBE779
:107D6400F03B002000340020FC33002000B0004031
:107D7400881204003A1204009C12040030B589B041
:107D840005460023019302930393049305930693FA
:107D94008DF81C30104B1A89ADF814200F4A128844
:107DA400ADF81A2001AC5B6853F8080F59689A685B
:107DB400DB680FC4012301AA294609480BF03AFAEB
:107DC40020B9084B03221A7009B030BD064A72214B
:107DD4000AF0CEF8F5E700BF8C3B0020EA3B002018
:107DE400543A0020883B0020C01104002DE9F041E2
:107DF4008AB006AF04460378082B0ED8DFE813F0E8
:107E04000900170255000D000D00F2010D00940148
:107E1400EB009D4B1B78012B03D01037BD46BDE80A
:107E2400F0819A4B1B6813F4804F31D0984B1B6838
:107E3400032B2DDD6D468AB00DF1180EF446002398
:107E440012E0E21812794FEA1218590091480668B4
:107E540016F808600CF8136002F00F020131006894
:107E6400825C0CF8012001330F2BEAD900238EF831
:107E74002030894BD3F80435CDF808E0874A0192C5
:107E8400874A009290228749042015F079FDAD4677
:107E940004342046FFF710FF0028BED02046FFF729
:107EA4006DFF794B03221A70B7E7784B1B6813F404
:107EB400804F03D0764B1B68032B2CDC724B1B7852
:107EC400032B39D0022BA8D1774C6368774A1288E8
:107ED4009A801A8801321A80DA88754909880A4416
:107EE400DA80E368984723699847684B1B6813F462
:107EF400804F03D0664B1B68032B5BDC6A4B5868CE
:107F0400002300F118020221808801F097F85E4BEB
:107F140000221A7081E7604BD3F80435654A127861
:107F24000292594A12780192634A00929B225D4957
:107F3400042015F025FDC1E75E4B1B78DBB1534BE4
:107F44001B6813F4804F03D0514B1B68032B07DCD1
:107F54004D4B01221A70574A1378013B13705CE7AA
:107F64004D4BD3F80435554A0092A0224D490420C4
:107F740015F006FDECE7454B1B6813F4804F12D057
:107F8400434B1B68002B0EDD434BD3F80435227A98
:107F94004649098802910192494A0092A72241491F
:107FA400012015F0EDFC384B00221A703E4B5B6942
:107FB400984732E7384BD3F80435626892883C49D5
:107FC4000988029101923F4A0092B5223549042062
:107FD40015F0D6FC92E72D4B1B6813F4804F03D0A9
:107FE4002B4B1B68032B75DC274B02221A70274B83
:107FF4001B6813F4804F03D0254B1B68032B74DCE0
:10800400E3683149D88A05F029F9002878D1E06875
:10801400254B19682D4BA2684988C08A05F044FE97
:10802400002872D1294B18880CF040FF002871D128
:10803400254B1988254B18880CF0EAFE00286ED1D0
:10804400124B1B6813F4804F3FF4E7AE104B1B68D0
:10805400032B7FF7E2AE104BD3F80435E268D28AE3
:108064001149096849881948008804900391164900
:10807400098802910192164A0092D62209490420E5
:1080840015F07EFCC9E600BF883B002000340020C8
:10809400FC3300200434002000B00040F80E04003B
:1080A400480A04003A1204008C3B0020EA3B0020FA
:1080B400EC3B0020E83B0020040F04004C0F0400BC
:1080C400700F0400B40F0400683800206A380020E0
:1080D40038100400614BD3F80435614A0092C02281
:1080E4006049042015F04CFC7EE75C4BD3F8043562
:1080F4005D4A0092C5225B49042015F041FC7FE7EC
:108104005A4AC72109F034FF81E7584ACB2109F0C4
:108114002FFF87E7554ACE2109F02AFF88E7534A03
:10812400D02109F025FF8BE7027A514B1A801023E6
:108134000022012140680BF0AAF800283FF46DAE3C
:108144004C4B1B6813F4804F03D04B4B1B68002B24
:1081540013DC4A4B1B783BB3464B1B6813F4804F2C
:1081640003D0454B1B68032B13DC454B01221A70CB
:10817400424A1378013B13704FE6384BD3F8043569
:108184000190404A0092E6223649012015F0F8FB9E
:10819400DFE7324BD3F804353B4A0092E9223149F8
:1081A400042015F0EDFBE0E7324B1B6813F4804F1D
:1081B40003D0314B1B68032B06DC314B00221A70B1
:1081C400324B5B69984728E6244BD3F80435304A90
:1081D400128801922F4A0092F0222249042015F0BD
:1081E400CFFBEAE72C4B0FCB87E80F001022394670
:1081F40060680BF055F8A8B91E4B1B6813F4804F48
:108204003FF40BAE1C4B1B68032B7FF706AE134BDE
:10821400D3F80435214A0092FE221249042015F0B5
:10822400AFFBFAE5114AFD2109F0A2FEE4E7114B88
:108234001B6813F4804F3FF4F0AD0F4B1B68032B06
:108244007FF7EBAD054BD3F80435154A009240F2A5
:1082540003120449042015F093FBDEE500B000404E
:10826400EC0F04003A12040010100400C0110400C2
:10827400EC3B002000340020FC330020E83B0020CD
:10828400883B00207C100400AC1004008C3B0020D0
:10829400EA3B0020BC100400E40E04002411040096
:1082A4004C11040010B51446094B1870094B198081
:1082B400094B01221A706368102B04D8074B1C6009
:1082C400FFF7AEFC10BD784601F0E0F9F6E700BF19
:1082D400E83B0020EA3B0020883B0020F03B0020E4
:1082E40000B583B0104B1B6813F4804F03D00F4BC1
:1082F4001B68032B06DC0E480AF0DCFF70B903B0E0
:108304005DF804FB0B4BD3F804350B4A00924FF491
:108314008D720A49042015F033FBECE7084A40F259
:108324001B1109F025FEEAE700340020FC3300208D
:10833400F17D020000B00040501204003A12040023
:10834400C011040000B583B00C4B1B6813F4804FBC
:1083540003D00B4B1B68032B04DC0AF0B3FF03B000
:108364005DF804FB074BD3F80435074A00924FF439
:1083740090720649042015F003FBEEE70034002058
:10838400FC33002000B00040741204003A120400D0
:1083940000B587B006A9012341F8083D284B1868A9
:1083A400023005F073FC00BB049B012B23D1244B4A
:1083B4001B6804AA191D588805F048FEF8B905A8D9
:1083C40004F03EFF1E4B1968BDF8140005F0B0FC24
:1083D400D8B91C4B1B6813F4804F03D01A4B1B688D
:1083E400032B18DC07B05DF804FB184A4FF49571B1
:1083F40009F0BEFDD8E7784601F048F9D7E7134AFB
:108404004FF4967109F0B4FDD9E7104A4FF498710E
:1084140009F0AEFDDDE70E4BD3F80435084A1268C7
:10842400518890881288039202900191094A00921F
:1084340040F233120849042015F0A2FAD2E700BF33
:108444008C3B002000340020FC330020C0110400C9
:1084540000B000406C1104003A12040038B5044620
:10846400C36883B1636993B12369A3B10C4D0FCC85
:108474000FC594E8030085E803000023094A13703C
:10848400094A137038BD784601F000F9EAE77846E6
:1084940001F0FCF8E8E7784601F0F8F8E6E700BFF9
:1084A4008C3B0020A43B0020883B002010B584B006
:1084B400334BDB6904A840F8043D04F07FFE002838
:1084C40036D1304C60681021083013F031FE6068FA
:1084D4001021183013F02CFE60681021283013F09E
:1084E40027FE6168226802320831002005F06EF927
:1084F40020BB254B1B6813F4804F03D0234B1B6810
:10850400032B21DC1F4B19685A680B1D183249884C
:10851400002005F029FC38BB1A4B19685A680B4631
:1085240028324988012005F0BFFB18BB04B010BDF8
:10853400174A4FF4A57109F01BFDC2E7144A4FF422
:10854400A97109F015FDD4E7124BD3F804350D4A8F
:10855400126852880192104A009240F253120F4955
:10856400042015F00DFACDE7094A4FF4AA7109F079
:10857400FFFCD1E7064A40F2571109F0F9FCD5E7B0
:10858400D80E04008C3B002000340020FC33002073
:10859400C011040000B00040AC1104003A12040001
:1085A40040F2012398420BD80E4B0F4A1A600F4B2E
:1085B4001B6813F4804F03D00D4B1B68032B00DCA6
:1085C400704700B583B00B4BD3F804350A4A0092C8
:1085D40040F2B7120949042015F0D2F903B05DF84E
:1085E40004FB00BF2C3300208C1504000034002051
:1085F400FC33002000B0004074160400661604002A
:1086040070B5064614460D4601B13AB1054B5E807D
:108614001D705C60044B00221A7070BD784601F036
:1086240035F8F3E7F83B0020A83D002010B584B0EE
:10863400444B5A8882421AD0434B1B6813F4804F30
:1086440079D0424B1B68002B02DC022004B010BD21
:108654003F4BD3F80435029001923E4A00924FF406
:1086640093723D49012015F08BF90220EEE73B4B54
:1086740001221A7048F2190398422AD007D8022816
:1086840048D048F20303984227D10C7808E048F216
:108694001F0398421FD048F23E0398421DD10C7824
:1086A400284B1B78002B48D0274B1B6813F4804FB2
:1086B40003D0264B1B68032B2EDC0023214A12789F
:1086C4009A4236D91F4A5268D25CA24237D001334B
:1086D400F4E70C78E4E70C78E2E71B4B1B6813F42F
:1086E400804F03D0194B1B68002B07DC1C4A4FF446
:1086F400A271052009F03CFCFF24D1E7144BD3F808
:108704000435184A009240F243121349012015F02F
:1087140037F9EBE7FF24C3E70D4BD3F80435019495
:10872400114A00924FF4A6720B49042015F028F95F
:10873400C3E701208AE7022088E7002086E70020BB
:1087440084E700BFF83B002000340020FC33002005
:1087540000B00040E012040066160400A83D0020AA
:10876400EC1504000C1304002C13040030B585B080
:10877400044615460180104612F038FE2071E5804B
:10878400174B1B88A3810023A3731E22E273227C50
:1087940002F0030263F30102227401226274A374DF
:1087A4005922E274237501226275A3750D4B1B686F
:1087B40013F4804F03D00C4B1B68032B01DC05B072
:1087C40030BD0A4BD3F80435228802950192084A39
:1087D40000924FF4BE720749042015F0D1F8EEE779
:1087E400F43B002000340020FC33002000B00040A3
:1087F400B41204006616040030B585B0044615466C
:108804000180104612F0F2FD2071E580174B1B88A1
:10881400A3810023A3731E22E273227C02F00302CD
:1088240063F30102227401226274A3745922E27474
:10883400237503226275A3750D4B1B6813F4804FD7
:1088440003D00C4B1B68934201DC05B030BD0A4BCE
:10885400D3F80435228802950192084A009240F226
:108864008F120749042015F08BF8EEE7F43B002043
:1088740000340020FC33002000B00040B014040099
:108884006616040010B582B0112802D058BB02B09D
:1088940010BD184B1B78002BF8D0174B1B6813F432
:1088A400804F03D0154B1B68032B10DC0CF0CEFB60
:1088B40013F0ECFA00F5F42000F590700D4CA06074
:1088C400201D13F0E5F92378013B2370DFE70C4BFF
:1088D400D3F804350B4A00924FF483720A490420FA
:1088E40015F04EF8E2E7094A4FF4877109F040FBAE
:1088F400CDE700BF8C3D002000340020FC33002075
:1089040000B000409815040066160400EC1504003D
:1089140010B58AB09D4B1B681B78013B142B00F2E9
:108924005582DFE813F0150036005B005302530252
:108934009901530253025302530253025302530246
:108944008900C300FD005B01E9010402380228002C
:108954008F4B1B6813F4804F03D08E4B1B68032B83
:108964000BDC00200CF0BCFAFFF78CFF0022114650
:108974000220FFF745FE0AB010BD874BD3F804353B
:10898400864A009240F2BA228549042014F0F8FF86
:10899400E7E77F4B1B6813F4804F03D07D4B1B68C4
:1089A400032B0FDC7F4B1A687F4B198800200CF0D7
:1089B400BDFAFFF767FF7D4A022148F20300FFF783
:1089C4001FFED8E7744BD3F80435794A00924FF46C
:1089D40031727349042014F0D3FFE3E74FF6FF73B9
:1089E400ADF810300223ADF81230724B1C88684B7E
:1089F4001B6813F4804F03D0664B1B68032B0EDCFB
:108A0400049A694B198820460CF016FBFFF73AFFCD
:108A1400694A012148F23E00FFF7F2FDABE75E4BE5
:108A2400D3F804350194654A009240F2D3225C499C
:108A3400042014F0A5FFE3E7614B1B881BBB5D4BCF
:108A44001B8801335E4A1380514B1B6813F4804F1B
:108A540003D0504B1B68032B19DC5923ADF810309D
:108A64000124ADF81240049A4F4B1988544B1888CE
:108A74000CF0E2FAFFF706FF524A214648F23E00A4
:108A8400FFF7BEFD77E701334D4A1380DCE7424B25
:108A9400D3F804354A4A128801924B4A00924FF4A3
:108AA4003A723F49042014F06BFFD6E7444B1B880D
:108AB4001BBB404B1B880133414A1380344B1B685A
:108AC40013F4804F03D0334B1B68032B19DC592359
:108AD400ADF810300223ADF81230049A324B1988E5
:108AE400374B18880CF0A8FAFFF7CCFE374A01215F
:108AF40048F23E00FFF784FD3DE70133304A13801E
:108B0400DCE7254BD3F804352D4A12880192304A0C
:108B1400009240F202322249042014F031FFD6E7D9
:108B2400274B1B8823B9234B1B880133244A13800A
:108B3400174B1B6813F4804F03D0164B1B68032B91
:108B440015DC5923ADF810300323ADF81230049A24
:108B5400154B19881A4B18880CF06EFAFFF792FE21
:108B64001C4A012148F23E00FFF74AFD03E70A4B85
:108B7400D3F80435124A12880192174A009240F23F
:108B84001B320749042014F0FBFEDAE72C330020E3
:108B940000340020FC33002000B0004048130400DF
:108BA40066160400AC3D0020F43B0020DC140400F5
:108BB40064130400F63B0020E01404007413040062
:108BC400AA3D0020E41404009C130400E8140400EB
:108BD400C8130400EC140400F41304007F4B1B8836
:108BE40023B97F4B1B8801337C4A13807D4B1B6860
:108BF40013F4804F03D07C4B1B68032B1DDC5923DB
:108C0400ADF810300423ADF81230049A774B19886C
:108C1400724B18880CF010FA0446FFF733FE744ABE
:108C2400012148F23E00FFF7EBFC002C7FF4A3AED9
:108C34006A4A1388013313809DE66E4BD3F80435DA
:108C4400664A128801926C4A009240F235326B49AE
:108C5400042014F095FED2E70023CDF81230CDF8AD
:108C64001630CDF81A30CDF81E30CDF82230ADF8DC
:108C740026305B4A1288ADF8102001218DF81410BB
:108C8400ADF816101E228DF81F209DF8202061F3E8
:108C94008702022060F301028DF820208DF8211054
:108CA4004FF0FF328DF823208DF824208DF8250015
:108CB4008DF826304B4B1B6813F4804F03D04A4B7E
:108CC4001B68032B0BDC04A80CF072F9FFF7DAFD28
:108CD4004B4A012148F21900FFF792FC4BE6454B41
:108CE400D3F804350191474A00924FF45672434930
:108CF400042014F045FEE6E700230493059306934D
:108D0400079308930993364B19880131022289B2DB
:108D140004A8FFF72BFD04A80CF04AF9FFF7B2FDF5
:108D2400394A012148F21900FFF76AFC23E62D4B6A
:108D34001B6813F4804F03D02B4B1B68032B1EDCE2
:108D4400274B18880023059303238DF810304FF424
:108D54004143ADF812305923ADF80C300223ADF87D
:108D64000E30039B04AA06CA0CF03DF9FFF78AFDF6
:108D7400264A012148F21F00FFF742FCFBE51D4B88
:108D8400D3F80435224A009240F277321B4904207A
:108D940014F0F6FDD4E70023049305930693079398
:108DA400089309930E4B19880131022289B204A851
:108DB400FFF722FD04A80CF0FBF8FFF763FD154A4A
:108DC400012148F21900FFF71BFCD4E5124A40F2D6
:108DD4009B31052009F0CCF8CDE500BFAA3D002069
:108DE400F63B002000340020FC330020F43B00203C
:108DF400F014040000B000402014040066160400BF
:108E0400F41404004C140400F8140400FC140400CA
:108E14008C14040000150400EC15040008B5034884
:108E240012F068FFFFF774FD08BD00BF903D0020FD
:108E340000B589B04FF6FF73ADF81E30ADF81C30A5
:108E440001238DF81430ADF816000DF11E0105A8AC
:108E540004F094FBE8B907A9BDF8160004F068FF14
:108E6400E8B9BDF81C000CF021F8F0B9BDF81E10EB
:108E7400BDF81C000BF0CCFFE8B91B4B1B6813F4C6
:108E8400804F03D0194B1B68032B1ADC09B05DF823
:108E940004FB174A40F2AE3109F06AF8DBE7144AE2
:108EA40040F2AF3109F064F8DBE7114A40F2B23125
:108EB40009F05EF8DAE70E4A40F2B33109F058F8E7
:108EC400DBE70C4BD3F80435BDF81E200292BDF845
:108ED4001C200192084A00924FF46D720749042045
:108EE40014F04EFDD2E700BF00340020FC33002014
:108EF400EC15040000B00040B4150400661604002C
:108F040030B583B000283BD13E4B1B6813F4804F2F
:108F140003D03D4B1B68032B0ADC3C4B1B889BB9DD
:108F24003B4B3C4A1A603C4B1B68984703B030BD2E
:108F34003A4BD3F804353A4A009240F2C7323949E1
:108F4400042014F01DFDE8E72E4B1B6813F4804F3A
:108F540003D02D4B1B68032B06DC2C4A1388013BE2
:108F64001380FFF7D5FCE1E72C4BD3F804352E4AE8
:108F7400009240F2CB322B49042014F001FDECE7BF
:108F84000C4615460228D1D1214B1B681B78162BA1
:108F9400CCD0264B1B78002BC8D1A9B1616820889E
:108FA400FFF744FB28BB2388022B11D0184A13680F
:108FB400591C11605B78162B15D11346154A1A609B
:108FC4001B4B1B689847B1E7784600F05FFBE5E769
:108FD40018480580616811F8013B83706A1E0330EC
:108FE40017F00CF8E2E7144B03221A70FFF790FC19
:108FF4009CE701289AD1064B064A1A60064B1B6867
:10900400984793E700340020FC330020883D00207B
:109014002C33002001150400803D002000B00040E6
:10902400041504006616040030150400A83D002051
:10903400843D0020003C00208C3D002010B582B00F
:10904400234C24682478A4B1224B1B6813F4804F6A
:109054002ED0214B1B68002B2ADD204BD3F804357E
:109064001F4A009240F202421E49012014F088FC7B
:109074001EE01D4C20801D4C21801D491D4CCC60E0
:1090840003240C701C490A601C4A1380114B1B6892
:1090940013F4804F03D0104B1B68A3420ADC124C1C
:1090A4002088FFF7C5FE2088FFF77AFAFFF730FC27
:1090B40002B010BD094BD3F804350190104A009258
:1090C40040F20C420749042014F05AFCE7E700BFC1
:1090D4002C33002000340020FC33002000B000407A
:1090E4003C15040066160400F63B0020883D002071
:1090F4008C3D0020218E0200AC3D0020F43B00207A
:109104007015040038B50C46054628B144B1064B29
:109114001D60064B1C6038BD784600F0B7FAF5E7D1
:10912400784600F0B3FAF2E7843D0020803D002049
:109134004BDF704710DF704760DF704769DF7047AF
:1091440010B588B0274B1B6813F4804F03D0264B0F
:109154001B68032B10DC254B0793079A0692002308
:1091640003930493059303A90120FFF7E7FF044643
:1091740068B1204608B010BD1D4BD3F804351D4A14
:1091840000924B221C49042014F0FAFBE3E700236D
:1091940004930593F8230393069A03A9A120FFF7E8
:1091A400CDFF04460028E4D106A8FFF7C5FF044616
:1091B400069A079B9A42DCD00A4B1B6813F4804F33
:1091C400D7D0094B1B68012BD3DD094BD3F80435E9
:1091D40001920A4A00926D220749022014F0D0FB42
:1091E400C7E700BF00340020FC330020C832002051
:1091F40000B0004008170400F11604001C17040016
:1092040000B583B002E0019812F098FA01A8FFF7C4
:109214008FFF0028F7D003B05DF804FB00B585B0DC
:1092240003901F4B1B6813F4804F03D01D4B1B6826
:10923400032B1FDC1C4903A8FFF77CFF0346A8B9D6
:109244001A4BE02283F8162393F816335B09012B9B
:1092540020D9042B21D0164B9B68B3B1144A136850
:1092640043F480031360FFF76BFF0346184605B011
:109274005DF804FB0F4BD3F804350F4A00927522B6
:109284000E49042014F07CFBD4E7084B4FF4800211
:109294001A60E8E742F20203E8E742F20203E5E774
:1092A40000340020FC3300203595020000E100E08A
:1092B400484E002000B0004058170400F116040086
:1092C40008B5064B1B683BB106F05EFE002803DBC5
:1092D400024B1B689847F7E708BD00BFB03D00206C
:1092E40010B50C46144B1860144A0121144808F0B8
:1092F400F5FDA0B9610CE00341F26F7200238B42CB
:1093040008BF824210D24FF47A72002316F0D0FCC8
:10931400014600220B4808F0F7FD38B910BD0A4A8F
:10932400462108F025FEE5E70521F2E7064A472134
:1093340008F01EFEF2E700BFB03D0020C592020017
:1093440074170400B43D00207817040008B50D4BD1
:109354001B6873B14FF0A042D2F804350A4909687A
:109364004B40C2F80435074A1368013B136023B12C
:1093740008BD002008F050FAECE7044808F0E2FDCC
:10938400F6E700BFD43D0020D83D0020DC3D00209E
:1093940039B9012303FA00F04FF0A043C3F80805DC
:1093A4007047012303FA00F04FF0A043C3F80C0503
:1093B400704721B94FF0A043C3F8080570474FF038
:1093C400A043C3F80C05704712B11346132900D803
:1093D400704770B5114A10605B00013B104A13607E
:1093E40000264D0CCC034FF47A72002314F5FA7066
:1093F40045F1000116F05CFC32460146094808F0CC
:1094040083FD48B94FF0A042D2F8043503490968F6
:1094140023EA0103C2F8043570BD00BFD83D002023
:10942400D43D0020DC3D002008B511230BE04FF0B3
:10943400A04103F5E072032041F8220001229A4082
:10944400C1F808250133142BF1D9054A0121054837
:1094540008F044FD00B908BD08F0DEF9FBE700BFE1
:1094640051930200D8170400F0B1104A1060002391
:1094740009E00F4AD25C02F5E0724FF0A0410D48BA
:1094840041F822000133032BF3D90B4B4FF0004278
:10949400C3F804230020C3F87C01084BE02283F8BE
:1094A400062340221A6070470E207047FC3D0020BE
:1094B400DC1704000C0003000060004000E100E041
:1094C40010B50024144BC3F87C410EE043F233334F
:1094D400994208D9114BD3F80425114B1A60114B4A
:1094E4001B68204698470134E4B2032C12D84FF08D
:1094F400A043D3F810250C4B195D01238B409343F3
:10950400F1D0074B1B68054AD2F80425991ADDD51A
:10951400D11ADBE710BD00BF0060004000B000407E
:10952400003E0020FC3D0020DC17040006207047AC
:1095340000B587B041F20103984245D020D944F2E6
:109544000103984256D044F2020398426DD1454B30
:109554001B6813F4804F1ED0434B1B68002B1ADD8D
:10956400424BD3F80435108803905268029201915B
:109574003F4A00925F223F49012014F001FA0AE0B9
:10958400012852D1374B1B6813F4804F03D0364B5C
:109594001B68002B0BDC4FF0A0434FF4F012C3F810
:1095A4001825C3F80C25EFF3108372B653E02F4B44
:1095B400D3F80435029201912F4A009254222D4986
:1095C400012014F0DDF9E6E7264B1B6813F4804F05
:1095D400E1D0254B1B68002BDDDD244BD3F804358B
:1095E40002920191254A009257222249012014F047
:1095F400C7F9D0E71B4B1B6813F4804FCBD01A4B31
:109604001B68002BC7DD194BD3F804351068049090
:1096140050680390029192680192194A009269225B
:109624001449012014F0ACF9B5E70E4B1B6813F490
:10963400804FB0D00C4B1B68002BACDD0B4BD3F828
:10964400043501910F4A00926D220A49012014F059
:1096540097F9A0E730BF0C4B1B78002BFAD107B069
:109664005DF804FB00340020FC33002000B000400F
:10967400841804003118040044180400601804001D
:10968400A4180400C81804003033002000B583B0C7
:109694000023ADF80030054B01936A46014644F2BD
:1096A4000200FFF745FF03B05DF804FB70090400F6
:1096B40008B501F00BFA03F007FD11F085F908BDB8
:1096C40000B583B001A803F0BBFDBDF80400003071
:1096D40018BF012003B05DF804FB000070B582B030
:1096E40060B304460D4611F067FF064610B13046DC
:1096F40002B070BD03F044FD01F0F0F920690EF0F2
:10970400A5F906460028F2D16369A269217F019177
:109714000092592200210A480EF04EFC0646002809
:10972400E5D1236A03B1984703F00CFC00F0E6FF8F
:10973400FFF7C6FF002DDAD02870D8E70E26D6E74B
:10974400043E002010B50446837803F00303032B82
:1097540021D8DFE803F0020C131981788B081A4A28
:1097640011681944A160194B1B6800201AE0837822
:109774009B0803EB830359000B46F0E783789B08AF
:10978400642101FB03F3EAE783789B0841F27071DB
:1097940001FB03F3E3E77846FFF778FF0023DEE7F6
:1097A4001846DB681BB19A688A1A002AF8DA18B1DD
:1097B40033B1C460E36010BDE360044B1C60FAE79E
:1097C400C4600023E360F6E7783E0020803E00207A
:1097D40010B56F4B19688B7803F003036D4A127848
:1097E400934240F3B0808C686B4B1B68E41A6B4B5C
:1097F40003FB04F4032A09D8DFE802F0020D04068F
:10980400664B09E0664B07E0664B05E07846FFF7D8
:109814003DFF002300E0644BB4FBF3F35C4A1268A1
:10982400927802F00302022A19D03AD8012A6AD1A6
:1098340002F1CC32A2FB0312D20802EB82025100E5
:109844008B4202D0002213465FE012F01FFB00F5AA
:10985400742303F5107301224E490A7055E04D4AF2
:10986400117839B9514AA2FB03025209642000FB62
:1098740012326AB1012902D00022134645E04C4A53
:10988400A2FB0312D20802EB820251008B4249D19F
:1098940012F0FCFA424B03443E4A022111700122A9
:1098A40033E03C4A117841B9424AA2FB0302D2098F
:1098B40041F2707000FB123282B1012904D00229F6
:1098C40015D00022134620E03B4AA2FB0302920972
:1098D4004FF4167000FB1232002AF0D112F0D6FABF
:1098E400304B03442B4A0321117001220DE0334A0B
:1098F400A2FB03125209C2EB021291008B42EDD07B
:109904000022134601E000221346002A3DD112F042
:10991400BDFA04461F4B1B78032B0CD8DFE803F079
:109924000510070900221346EFE71C4B09E01C4B06
:1099340007E01C4B05E07846FFF7A8FE002300E093
:10994400194B234421E012F0A1FA0446104B1B6882
:109954009B7803F00303032B09D8DFE803F0020D1F
:1099640004060E4B09E00E4B07E00E4B05E078466B
:10997400FFF78CFE002300E00B4B2344044A1268DB
:109984009278C2F3010203490A70184610BD00BF61
:10999400803E00207D3E0020783E0020A08601000D
:1099A400809698000046C32340420F001F85EB5168
:1099B400CDCCCCCCF1197605B5814E1B898888882D
:1099C40010B5294B1B7873B9284B1B68002B42D068
:1099D400FFF7FEFE0146244B1B78002B33D02448AE
:1099E40012F0B8F93AE0224B5C6812F04FFA241AEC
:1099F400204B1B78032B09D8DFE803F0020D040683
:109A04001D4809E01D4807E01D4805E07846FFF7BA
:109A14003DFE002000E01B48001B164B1B7843B999
:109A24004CF25033984204D9174A13680133136037
:109A3400CAE74009154BA3FB0030134A136803EB34
:109A4400D0101060C0E7084B01221A70084841602A
:109A540012F01EF902E0044B1B7803B910BD044850
:109A640012F048F9FAE700BF7C3E0020803E002057
:109A7400603E00207D3E0020A08601008096980074
:109A84000046C32340420F00783E0020C55A7C0A9A
:109A940030B583B006E063680199284698472046AC
:109AA400FFF750FE104B1C68D4B1A3680F4A12682C
:109AB400934204D00D4A12689B1A002B10DA2588B1
:109AC400E268094B1A6002A9002341F8043D2846C4
:109AD40001F0B2FD0028DED07846FFF7D7FDDAE7C3
:109AE400FFF76EFF03B030BD803E0020783E0020BB
:109AF40008B5134B1B78032B1ED8DFE803F0020CC8
:109B04001116104A1368013313600F4B00221A70A8
:109B1400FFF7BEFF08BD0B4A13680A331360F4E76E
:109B2400084A136864331360EFE7064A136803F5C1
:109B3400BB5310331360E8E77846FFF7A7FDE4E76B
:109B44007D3E0020783E00207C3E002010B5044677
:109B5400FFF7F8FD034B1B68A34200D010BDFFF7CD
:109B64002FFFFBE7803E0020074A00231360536069
:109B7400D3601361536105499160054A1360054A36
:109B84001360054A13707047603E0020F59A020086
:109B9400783E0020803E00207C3E002070B50E46BA
:109BA4001546044628B112F009FE144B1B68002226
:109BB40005E07846FFF76AFDF5E71A46DB680BB166
:109BC400A342FAD1A17866F3010165F38701A1707C
:109BD40013B13AB1D968D16045B903B152B112F0A9
:109BE4000DFE70BDD86805490860F5E72046FFF70B
:109BF400ADFFF4E7FFF7E4FEF1E700BF803E00208D
:109C040070B50E461546044640B1A378C3F301036C
:109C14003370A378C3F385032B7070BD7846FFF7C8
:109C240035FDF2E710B44FF6FF7399420CD00C4A9D
:109C340043001C1861000C461144C97822444B1C93
:109C4400D3705DF8044B7047054A43001C1861004B
:109C54000C461144897822444B1C9370F1E700BFF1
:109C6400843E002030B482B00191194943001D188C
:109C74006C000C44A57803445C002144CB78DD429D
:109C840001D0002303E000201FE001339BB2052B29
:109C94001AD8C3EBC301CC000E492144098A81427E
:109CA400F3D10C4921444C88BDF806108C42ECD108
:109CB400C3EBC305E900074C645ABDF804108C4299
:109CC400E3D11380012000E0002002B030BC7047D3
:109CD400843E0020C43E002082B00023009302781A
:109CE40002F0C003402B0ED00CD9802B1BD0C02B0C
:109CF4000FD1ADF800204278837843EA0223ADF80F
:109D0400023006E02BB9ADF800204FF6FF73ADF832
:109D14000230009B00209AB262F30F001B0C63F325
:109D24001F4002B07047437843EA0222ADF8002096
:109D34004FF6FF73ADF80230EBE782B00190000CF0
:109D44004FF6FF73984207D0BDF804300B70030A36
:109D54004B70887002B07047BDF8043013F47F4F25
:109D640001D10B70F6E71A0A0A704B70F2E782B061
:109D740001904FF6FF73B3EB104F0AD0BDF8040007
:109D840020F03F0080B2C02814BF0020012002B0A0
:109D94007047BDF8040010F47F4F07D120F07F0313
:109DA4009BB26BB97F2809D00120F0E700F4404052
:109DB400B0F5004F14BF00200120E8E70020E6E7DB
:109DC4000020E4E770B506460D460024AC4207D2F5
:109DD40056F83400FFF7CBFF034610B10134F5E722
:109DE4000123184670BD30B482B00191002300E015
:109DF4000133818D994210D9816A01EBC30531F891
:109E04003340BDF804108C42F2D16C88BDF80610C2
:109E14008C42EDD11360012000E0002002B030BC80
:109E240070470000438A052B13D803EB43039A00C1
:109E3400094B134404334A0953F8223001F01F013B
:109E440023FA01F111F0010F01D100207047012024
:109E540070470020704700BF1440002008B58047B9
:109E640008BD00004388C3F30B03052B1CD830B492
:109E74001D460E495A0013449A008B5C43F00103BB
:109E84008B5400230BE000EB83025168C94305EBBC
:109E94004502D418054A02EB840251600133012BB8
:109EA400F1D9012030BC70470020704714400020D5
:109EB4004388C3F30B03012B01D900207047818829
:109EC40003EB43035A00024B99520120704700BF31
:109ED400843E0020F0B583B00F4616464FF470431D
:109EE400ADF80430ADF8060000252C46224601A941
:109EF4000A4814F0A4FA044610B1B04740B1013541
:109F0400002CF3D1AF4205DA7846FFF7BFFB01E03E
:109F14004FF0FF35284603B0F0BD00BF9C3E002043
:109F240008B57846FFF7B2FB08BD0000F8B5054652
:109F34000E4617461C468BB13389B3F5BE7F11D24A
:109F4400052D16D8C5EBC503DA00214B134493F84D
:109F5400343013F0010F19D100230BE07846FFF7DA
:109F640095FBE9E7092323602068B0FA80F04009F3
:109F7400F8BD00233BB1C5EBC503DA00144B134411
:109F84001B8A012B04D905232360EDE70123F1E7A4
:109F940037B13068FFF7EBFEB0B100232360E3E78D
:109FA400C5EBC503DA000A4B13449A884FF6FF73D6
:109FB4009A4209D0C5EBC505EA00054B1344DA887B
:109FC4004FF6FF739A42E4D107232360CCE700BF26
:109FD400C43E0020F8B54388C3F30B03052B3ED8D9
:109FE400021D818A012901D9002039E0C3EBC30194
:109FF400CC001D492144498A05290CD8C48AA142B0
:10A0040001D000202CE004EB4404A100174C615C57
:10A0140011F0010F25D0C18A052907D8134E4C0031
:10A024006718BD00715D41F0040171550E4EC3EB1C
:10A03400C303DD00731914685168D2F808C0D768E7
:10A0440074515960C3F808C0DF60146951691C6118
:10A0540059618188808AFFF7E5FD012000E0002036
:10A06400F8BD0020FCE700BFC43E002014400020DF
:10A0740008B5064B01221A70054814F08FF900B98F
:10A0840008BD044814F0D8FBFAE700BFC03E002026
:10A094009C3E0020443300202DE9F04112F08EFB59
:10A0A400624B1B78002B4BD1614B1B780BB1002505
:10A0B40047E0062201215F4814F067FA58B10222F2
:10A0C400C28006220281828014F098FA584B012241
:10A0D4001A70002535E0112533E004EB4402D11851
:10A0E400554A02EB81025268D24306EB83014A606F
:10A0F4000133012BF1D9304614F080FA4E49630044
:10A10400181982008B5C23F002038B540134A4B22F
:10A11400052C42D8BDB904EB44029300464AD35CF3
:10A1240003F00303032BF1D1082244F440514148C6
:10A1340014F02BFA064608B12B46DAE71125E5E7B9
:10A1440008250024E4E7002402E011250134A4B228
:10A15400012C60D81DBB04EB44035A00374B134455
:10A164005B7913F0020FF1D0022244F4805131489C
:10A1740014F00BFA0028E8D0304E670039194B0070
:10A1840006EB0308F35A838014F038FA98F8053084
:10A1940023F0020388F80530D8E70024D8E7002428
:10A1A40002E011250134A4B2052C36D8ADBBC4EBB2
:10A1B400C403DA00224B134493F8343003F003034E
:10A1C400032BEFD1182244F400511A4814F0DDF99E
:10A1D40002460028E5D0DFF86880E600311BCF0096
:10A1E400474438687968D7F808E0D7F80CC050605D
:10A1F4009160C2F80CE0C2F810C038697969506106
:10A204009161104614F0FAF997F8343023F0020300
:10A2140087F83430C6E70024C6E71DB912F0EEFA19
:10A22400BDE8F081074814F007FBF7E7C03E0020C3
:10A23400C13E00209C3E002014400020843E0020AB
:10A24400C43E0020543300200378012B08D04388F7
:10A2540004339BB2032B12D800230B8001207047D8
:10A2640030B583B00D46044601A802F0E9FF6388C7
:10A27400BDF804209B1A2B80012003B030BD0020C0
:10A284007047000038B54FF4A8720021114815F04A
:10A29400DEFE114B00241C605C609C604822214659
:10A2A4000E4815F0D4FE214610E00A48CA00541A9C
:10A2B400E30003444FF6FF74DC809C8006255D8236
:10A2C400531ADA0010440482013189B20529ECD909
:10A2D40038BD00BFC43E0020843E0020144000204E
:10A2E40000B587B00F4B03930F4B04930F4B0593AB
:10A2F4000423029302F0A2FEA0F5805000900123F3
:10A3040001930B4A137069460A4814F04FFA28B9AE
:10A31400074B00221A7007B05DF804FB064814F0DE
:10A324008BFAF8E7E5A30200259F020041A302008F
:10A33400C03E00209C3E00203433002010B5002392
:10A3440001E001339BB2052B0FD803EB43018A00D4
:10A3540020498A5C12F0010FF3D003EB4300810023
:10A3640042F002021B484254EBE7002301E00133B0
:10A374009BB2012B10D803EB43014A0016498A5AB9
:10A38400002AF4D008465A00D418610001444A79DE
:10A3940042F002024A71EAE7002301E001339BB272
:10A3A400052B13D8C3EBC302D1000C4A0A4492F81C
:10A3B400342012F0010FF1D0C3EBC301C8000749E8
:10A3C400014442F0020281F83420E7E7FFF788FFF6
:10A3D40010BD00BF14400020843E0020C43E002075
:10A3E40070B58CB005460E461446012A05D0022CE1
:10A3F40007D0032C09D00CB070BD7846FFF746F99E
:10A40400F5E77846FFF742F9F3E72C22002101A88B
:10A4140015F01DFE10238DF8043002238DF808304A
:10A424000396EB6805932B69069301A80FF058FA7D
:10A43400E1E700002DE9F04F95B004AF04460D4666
:10A44400164607F13C03FFF771FD20B9F86B44375A
:10A45400BD46BDE8F08F07F1380002F0F1FEC4EB11
:10A46400C4039C4A02EBC303B3F810807B8F984566
:10A4740080F029813B8F98441FFA88F8002E00F061
:10A484009E80B6F81E90B6F824A007F130030C366F
:10A4940096E8030083E80300C4EBC4048D4B03EB8C
:10A4A400C404247DFF2C00F09E8007F1300001F0ED
:10A4B4009FFC0646002840F0998026B197F830307A
:10A4C400012B00F0FE80EB462422002107F10C0052
:10A4D40015F0BDFD2B892A683A604FF6FF71B1EB88
:10A4E400124F00F0A18003221344073323F0070323
:10A4F400ADEB030D04AE07F124024946504603F0C8
:10A50400C7FDF863002840F0968007F10C0307F1BB
:10A51400300292E8030083E80300A7F81480BC75B6
:10A52400AB7AFB75EB7A3B76FE612B892A68BA60BD
:10A534004FF6FF71B1EB124F7FD0032213443B84DB
:10A54400EB68FB6231462868FFF7F7FB2B687B60FA
:10A554004FF6FF72B2EB134F76D003202A89696855
:10A56400304415F04BFD002107F10C0011F0B4F854
:10A57400F863002840F0A480574B1B6813F4005F75
:10A5840003D0564B1B68042B65DC534B1B6813F438
:10A59400005F00F09580514B1B68042B40F39080C2
:10A5A400E846B5F808C04FEA4C030833DB08A8EBCB
:10A5B400C3039D460DF1100E764600236BE0C4EBF9
:10A5C400C403444A02EBC303B3F8049007F1300117
:10A5D400D88802F029FF002877D17B8E002B76D013
:10A5E4004FF6FF7A58E73E4B1C785EE7EB68FB605A
:10A5F4002B683B616B687B612B893B83A7F81A80CE
:10A6040007F11C0307F1300292E8030083E803001A
:10A6140087F82440A7F82690A7F828A007F10C0093
:10A6240001F0F6FBF86348E73A88FF2A01D90222D1
:10A634005AE7012258E7DD4609E73A89FF2A01D99A
:10A6440002227BE7012279E7BB88FF2B01D9022094
:10A6540084E7012082E7234BD3F804352A8801924A
:10A66400214A00924FF4CC722049052013F088F956
:10A674008BE76A68D25C4FEA121959001C4C2068B7
:10A6840010F8090006F8130002F00F0201312068E7
:10A69400825C725401336345EBD300230EF81C3003
:10A6A400104BD3F80435CDF808E0124A0192124A4F
:10A6B400009240F299120D49052013F061F9C54644
:10A6C400DD46F86BC3E61020C1E60520BFE6102086
:10A6D400BDE600BFC43E002000340020FC3300204F
:10A6E4006433002000B000407019040065190400B0
:10A6F4000434002084190400480A0400F8B514F056
:10A70400B3F828B912F024F90028F8D020BFF6E7EE
:10A71400664B00221A700121654813F069FE002877
:10A7240000F0C280C288022A40F0B6800289062A5C
:10A7340001D00024B1E08388062B01D00024ACE0D2
:10A744005A4B01221A705B4A06214FF44050FFF71E
:10A75400C1FB002820DA00231C46002B00F09D805A
:10A76400A0E0554C5A001A44510062180020907021
:10A77400D0706052517921F0020151710133012BE3
:10A78400EFDD4E4A02214FF48050FFF7A3FBC7438D
:10A79400FF0F1FB90023DFE70023F0E7484A062133
:10A7A4004FF40050FFF796FB00286FDD002540E0D2
:10A7B4007846FEF76BFF56E05A421340414A02FBCB
:10A7C40003F3DB0E404AD35C03EB441411E023246F
:10A7D4000FE07846FEF75AFF12E051420A40394929
:10A7E40001FB02F2D20E38498C5C04EB431400E006
:10A7F4002324232C1BD0A0B202F0CEFD0028E8D1E4
:10A804000134222CF4D8630956F8232004F01F04E1
:10A81400012101FA04F461420A40002ADDD1013326
:10A82400012B02D856F82320F7E72324E1E701356A
:10A83400ADB2052D2BD8C5EBC503DA00234B134469
:10A844001A8A4FF6FF739A42F1D0C5EBC502D300C2
:10A854001E4C1C44E0884FF6FF73984203D002F06C
:10A8640003FD0028A4D1638A062BE0D003EB430345
:10A874009A00174B13441E1D5B680024002B9BD1C8
:10A884000134012CA3D856F82430F7E700270FB180
:10A89400012361E700235FE70024044B00221A70C0
:10A8A400FFF7E6FB2046F8BD0024FBE7C13E00208D
:10A8B4009C3E0020699E0200843E0020B59E02005A
:10A8C400D99F020031B57C07F8180400C43E00206B
:10A8D40014400020F0B583B0064600F1140420466D
:10A8E40003F0CAFD08B903B0F0BD4FF6FF73ADF82D
:10A8F400023069462046FFF7A7FC074608B100244A
:10A904001FE00DF10201204602F038FE0028F6D0C7
:10A914007846FEF7BBFEF2E7BDF802102846FFF7C3
:10A9240081FA1EE0E200121BD100274B0B449A6A05
:10A93400019902EBC10255681A6B3146A0B2A847CF
:10A944000134052CCFDCC4EBC402D3001E4D1D44DE
:10A95400002FE1D02B8ABDF80000984214BF0020DC
:10A964000120C4EBC403DA00174B134493F83430CA
:10A9740013F0010FE4D00028E2D0C4EBC402D300EA
:10A984000833114A1A44F38B590952F8212003F071
:10A994001F0322FA03F313F0010FD1D001AA316887
:10A9A4002846FFF720FA0028CAD0337D012BB9D1FD
:10A9B400C4EBC403DA00044B13441A6B3146A0B24F
:10A9C40001F0FEF8AEE700BFC43E002070B590B0C1
:10A9D400044600284BD02068FFF77EF90F9085B21B
:10A9E4007F2D42D0304B1B6813F4005F03D02F4BF4
:10A9F4001B68042B3FDCE06902F043FE0646A069B5
:10AA040002F028FE0F9A059223684FF6FF71B1EB0E
:10AA1400124F3CD0032213440693A388BDF83E1082
:10AA24004FF6FF72914238D003229B1AADF81C30C6
:10AA3400237A8DF820306389ADF82230E3680993D6
:10AA4400237C8DF82830638AADF82A3063690B9330
:10AA540094F820308DF83030ADF83260636A0D938D
:10AA6400ADF8380005A8FFF735FF10B070BD784683
:10AA7400FEF70CFEAFE70E4BD3F8043501950D4AF3
:10AA84000092F1220C49052012F07AFFB3E7FF2D62
:10AA940001D90222BFE70122BDE7FF2D01D801221F
:10AAA400C3E70222C1E700BF00340020FC330020CA
:10AAB40000B00040E41804006519040008B50378E8
:10AAC40003B108BD0430FFF781FFFAE708B5FFF7CB
:10AAD400D9FB01F0BFF8FFF7CBFA08BD08B5FFF7C3
:10AAE400D1FB0748074B036010F024FE01F0A2F8E5
:10AAF400FFF73AF801F080F9FFF7F2FB08BD00BF59
:10AB0400903E0020C1AA0200002800F0B28070B577
:10AB140004468268002A00F0AE80002900F0AD806F
:10AB24004FF6FF720A80C268002A00F0A88080886D
:10AB3400012801D9052070BD0D460A462168FFF79A
:10AB440091F858B12B88C3EBC303DA00504B13447C
:10AB540093F8343013F0010F40F09380E168A0685B
:10AB6400FFF730F9002800F08E8028884FF6FF7335
:10AB740098426FD02A882069454BC2EBC202D100AB
:10AB8400194408632A88A068C2EBC202D1001944A0
:10AB94008862E0682A88C2EBC202D1001944888521
:10ABA4002A886069C2EBC202D1001944C8612988AD
:10ABB400C1EBC100C2001A4411832888C200141AD0
:10ABC400E100194491F8343043F0010381F8343042
:10ABD4000020B0E798B228804FF6FF73984254D013
:10ABE4002B4EC0EBC000C30033444FF6FF71D98035
:10ABF4002B88C3EBC303DA00324491802B88A188ED
:10AC0400C3EBC303DA00324411822B886188C3EB9F
:10AC1400C303DA00324451802B882188C3EBC30379
:10AC2400DA00B1522B88C3EBC303DA003244194B68
:10AC34001B7813752188A088FEF7F4FF2988CB00C0
:10AC4400581AC200324492F8343043F0020382F8B6
:10AC540034308FE70023052BBDD8C3EBC302D100EA
:10AC64000B4A0A4492F8342012F0010FB2D0013397
:10AC7400F1E70E2070470E205DE70E205BE7092008
:10AC840059E70F2057E7072055E7042053E700BF93
:10AC9400C43E00206433002021B108B50022FFF730
:10ACA400C9FB08BD0E20704739B108B50B4632B157
:10ACB40011461A46FFF7BEFB08BD0E2070470E2052
:10ACC400FAE7000005280BD8C0EBC003DA00164BE6
:10ACD400134493F8343013F0010F1DD1002300E026
:10ACE4000023DBB122291BD8C0EBC003DA000E4BD2
:10ACF4001344DB888B4215D030B40B4CC200151AB8
:10AD0400EB002344D98093F8342042F0020283F804
:10AD14003420002030BC70470123E2E7052070474F
:10AD24000720704700207047C43E0020F1B110B4E2
:10AD34000C4605280BD8C0EBC003DA000D4B1344B6
:10AD440093F8343013F0010F0ED1002300E00023F8
:10AD540073B1C0EBC000C200064B1344DB882380F0
:10AD640000205DF8044B70470123F1E70E20704783
:10AD74000520F6E7C43E002005282FD8C0EBC00309
:10AD8400DA00184B134493F8343013F0010F27D032
:10AD9400144B13449B7D03F0070301F00702934215
:10ADA4000FD030B40F4CC200151AEB002344997530
:10ADB40093F8342042F0020283F83420002030BC9F
:10ADC4007047C0EBC003DA00064B13449A7DC1F30D
:10ADD400C403B3EBD20FE4D10020704705207047C1
:10ADE40005207047C43E0020A1B110B4052813D833
:10ADF400C0EBC003DA000A4B134493F8343013F069
:10AE0400010F0BD0064B13449B7D0B7000205DF8A3
:10AE1400044B70470E2070470520F8E70520F6E73D
:10AE2400C43E0020052839D8F8B5C0EBC003DC00C7
:10AE3400204B234493F8343013F0010F30D01D4BD2
:10AE44002344DB6973B33F2A2ED803292ED8194B28
:10AE540023445B7DB2EB930F06D1164B23445B7DF9
:10AE640003F003038B4223D00746124EC400231A77
:10AE7400DD0035446B7D62F3870361F301036B7579
:10AE8400E31BD80018303044FEF788FE95F83430C0
:10AE940043F0020385F83430002002E005207047B7
:10AEA4000520F8BD0620FCE70720FAE70720F8E7AD
:10AEB4000020F6E7C43E002021B30B4622B310B5B0
:10AEC40005280BD8C0EBC001CC001249214491F8ED
:10AED400341011F0010F13D1002100E00021A9B1B9
:10AEE400C0EBC001CC000B492144C96981B11946AA
:10AEF4002346183307481844FEF782FE002010BD8D
:10AF04000121ECE70E2070470E2070470520F6E77C
:10AF14000620F4E7C43E002005280BD8C0EBC0038C
:10AF2400DA001D4B134493F8343013F0010F0DD1A4
:10AF3400002300E0002363B3C0EBC003DA00164B28
:10AF440013445B8A062B03D0002070470123F2E7E9
:10AF54000023052B1BD803EB43018A000F498A5CAD
:10AF640012F0010F01D00133F3E710B403EB4304F3
:10AF7400A10042F00102094C6254C0EBC000C100C0
:10AF8400054A0A44538200205DF8044B70470420AC
:10AF940070470520704700BFC43E002014400020C5
:10AFA40005280BD8C0EBC003DA00244B134493F8F4
:10AFB400343013F0010F36D1002300E00023A3B393
:10AFC400C0EBC003DA001D4B13445B8A062B2ED062
:10AFD40022292ED830B403EB43039A00184B1344B0
:10AFE40004334C0953F8242001F01F0122FA01F51F
:10AFF40015F0010F1FD1012505FA01F10A4343F8A9
:10B004002420C0EBC000C2000C4B13445A8A0C48E5
:10B0140002FA05F39C18A100435C43F00203435475
:10B02400002030BC70470123C9E705207047062083
:10B034007047072070470020F3E700BFC43E00209C
:10B044001440002005280BD8C0EBC003DA00244BC1
:10B05400134493F8343013F0010F37D1002300E088
:10B064000023ABB3C0EBC003DA001D4B13445B8A6F
:10B07400062B2FD022292FD830B403EB43039A0098
:10B08400184B134404334C0953F8242001F01F01D6
:10B0940022FA01F515F0010F20D0012505FA01F17E
:10B0A40022EA010243F82420C0EBC000C2000C4B8A
:10B0B40013445A8A0B4802FA05F39C18A100435C16
:10B0C40043F002034354002030BC70470123C8E717
:10B0D4000520704706207047072070470020F3E7DB
:10B0E400C43E00201440002000293ED02DE9F8433E
:10B0F4008846002A3BD005280BD8C0EBC003D900F2
:10B104001F4B0B4493F8343013F0010F12D100237A
:10B1140000E000236BB30646C0EBC000C100184B2F
:10B124000B445B8A062B26D01746B2F80090002405
:10B13400148002E00123EDE70134222C13D8C6EB7E
:10B14400C600C300A5B229460D481844FEF76AFE9E
:10B154000028F1D03B8899450FD928F813503B8833
:10B1640001333B80E8E7002008E00E2070470E2002
:10B1740004E0052002E0062000E00920BDE8F88391
:10B18400C43E002005280BD8C0EBC003DA001D4BD9
:10B19400134493F8343013F0010F2AD1002300E054
:10B1A400002343B3202928D830B4C0EBC002D30015
:10B1B4000833144A13444C0953F8242001F01F01A6
:10B1C40022FA01F515F0010F19D1012505FA01F153
:10B1D4000A4343F824200B49C3001C1AE2000A4422
:10B1E40092F8343043F0020382F83430002030BC4B
:10B1F40070470123D5E705207047072070470020DA
:10B20400F5E700BFC43E002005280BD8C0EBC003FF
:10B21400DA001D4B134493F8343013F0010F2BD193
:10B22400002300E000234BB3202929D830B4C0EB1D
:10B23400C002D3000833144A13444C0953F82420A1
:10B2440001F01F0122FA01F515F0010F1AD00125B2
:10B2540005FA01F122EA010243F824200A49C30055
:10B264001C1AE2000A4492F8343043F0020382F8D4
:10B274003430002030BC70470123D4E705207047E8
:10B28400072070470020F5E7C43E0020A1B370B446
:10B294000D469AB305280BD8C0EBC003D9001A4B4E
:10B2A4000B4493F8343013F0010F0AD1002300E06B
:10B2B40000232BB316880023138023B1002070BC15
:10B2C40070470123F5E7C0EBC004E10008310E4CE0
:10B2D40021445C0951F8241003F01F04E14011F0EB
:10B2E400010F07D011888E420CD925F8113011882E
:10B2F400013111800133E0E70E2070470E20DEE7B4
:10B304000520DCE70920DAE7C43E002005280BD835
:10B31400C0EBC003DA00164B134493F8343013F037
:10B32400010F1DD1002300E00023DBB120291BD82D
:10B33400C0EBC003DA000E4B13449B888B4215D03C
:10B3440030B40B4CC200151AEB002344998093F8D7
:10B35400342042F0020283F83420002030BC7047CD
:10B364000123E2E70520704707207047002070475B
:10B37400C43E0020F1B110B40C4605280BD8C0EB34
:10B38400C003DA000D4B134493F8343013F0010F6B
:10B394000ED1002300E0002373B1C0EBC000C20053
:10B3A400064B13449B88238000205DF8044B7047B0
:10B3B4000123F1E70E2070470520F6E7C43E002084
:10B3C40010F0800F05D1012805D0044B187000201F
:10B3D4007047072070470720704700BF6433002080
:10B3E400014B1878704700BF6433002005280BD840
:10B3F400C0EBC003DA00174B134493F8343013F056
:10B40400010F1FD1002300E00023EBB181F0800382
:10B414007E2B1BD9C0EBC003DA000E4B13441B7DFB
:10B424008B4215D030B40B4CC200151AEB002344E8
:10B43400197593F8342042F0020283F83420002076
:10B4440030BC70470123E0E70520704707207047B0
:10B4540000207047C43E0020F1B110B40C4605280A
:10B464000BD8C0EBC003DA000D4B134493F834300F
:10B4740013F0010F0ED1002300E0002373B1C0EBE1
:10B48400C000C200064B13441B7D237000205DF8EE
:10B49400044B70470123F1E70E2070470520F6E7BF
:10B4A400C43E00200B4649B1012809D800EB4000F6
:10B4B400420004498A5A1A80002070470E207047BF
:10B4C40005207047843E00200A4651B101280AD85D
:10B4D40000EB40004100054B0B449B7813700020A7
:10B4E40070470E2070470520704700BF843E00203F
:10B4F4000A4651B101280AD800EB40004100054B2F
:10B504000B44DB781370002070470E207047052031
:10B51400704700BF843E002001B330B40C460528B8
:10B524000BD8C0EBC003DA000E4B134493F834304D
:10B5340013F0010F10D1002300E0002383B1094967
:10B54400C3001D1AEA0015460A44528862804B5B08
:10B554002380002030BC70470123EFE70E207047A2
:10B564000520F7E7C43E002030B482B0019152B305
:10B574001546012829D84FF6FF731380002301E0F4
:10B5840001339BB2052B1AD8C3EBC302D100104A76
:10B594000A44128A8242F3D10D4A0A445188BDF802
:10B5A40006209142ECD1C3EBC304E2000849895A56
:10B5B400BDF804209142E3D12B80002000E0052057
:10B5C40002B030BC70470E20FAE70520F8E700BF50
:10B5D400C43E002029B3F0B40E4622B3012824D877
:10B5E40017880023138000E00133052B17D8158832
:10B5F400BD421DD2C3EBC301CC000E49214491F8D6
:10B60400341011F0010FEFD00A492144098A814214
:10B61400EAD126F81530118801311180E4E70020C1
:10B6240004E00E2070470E2000E00520F0BC7047B7
:10B634000920FBE7C43E0020F1B110B40C460528F4
:10B644000BD8C0EBC003DA000D4B134493F834302D
:10B6540013F0010F0ED1002300E0002373B1C0EBFF
:10B66400C000C200064B13441B6B236000205DF82E
:10B67400044B70470123F1E70E2070470520F6E7DD
:10B68400C43E002005280BD8C0EBC003DA00204BD1
:10B69400134493F8343013F0010F34D1002300E045
:10B6A400002393B370B50446194EC5002B1AD80075
:10B6B4001830002211463044FEF770FA204600F09C
:10B6C40005FB2A1BD30033444FF6FF72DA809A80BD
:10B6D400997D01F0F8016FF3C70199750020187581
:10B6E400597D01F0030160F3010159759A7E02F05E
:10B6F400030260F301029A7693F8342042F00202C6
:10B7040083F8342070BD0123CBE70520704700BFC8
:10B71400C43E002020281AD830B583B00546002442
:10B7240001E00134A4B2052C0ED80DF10601204627
:10B73400FFF720FE0028F4D1BDF80630AB42F0D16B
:10B744002046FFF79FFFECE7002003B030BD072041
:10B754007047000010B44FF6FF730B80002300E025
:10B764000133052B0ED80C4C2C2202FB034292F819
:10B774004020002AF4D02C2202FB0342128B824286
:10B78400EED10B8008884FF6FF73C01A18BF012052
:10B794005DF8044B704700BF5C4000200B4BB3F8CE
:10B7A400203173B1094AB2F822312C2101FB032361
:10B7B4009B6B01FB0020826B9B1A002B03DB012097
:10B7C4007047012070470020704700BF5C40002094
:10B7D40010B4124A2C2303FB0020836B104C1C442E
:10B7E40000234FF6FF7001E001339BB2052B11D803
:10B7F4000A492C2202FB031292F84020002AF3D0BB
:10B804002C2202FB0312926B111B0029ECDA18465E
:10B814001446E9E75DF8044B704700BF5C40002024
:10B824000087930370B506460C4615464FF6FF7322
:10B834000B800423136010F0C1FF164BB3F82031C2
:10B84400062B1FD8002308E012492C2202FB031206
:10B85400118B3288914213D00133052B12D80D4934
:10B864002C2202FB031292F84020002AECD12188FA
:10B874004FF6FF729142EFD100222A602380EBE75A
:10B8840008232B6010F0BAFF2868B0FA80F0400952
:10B8940070BD00BF5C40002010B50446204A2C2334
:10B8A40003FB002393F84030B3B11D4BB3F82031B0
:10B8B400B3B11B4A2C2303FB0423002183F840105B
:10B8C400B2F82031013B9BB2A2F8203123B3B2F885
:10B8D4002231A34208D010BD7846FDF7D7FEE4E735
:10B8E4007846FDF7D3FEE4E72046FFF771FF0C4BE3
:10B8F400A3F822014FF6FF73984209D00848B0F824
:10B9040022312C2202FB0303996B10F023FAE2E7A5
:10B914007846FDF7BBFEF1E7014810F0EBF9DAE7F2
:10B924005C400020F0B583B00546594BB3F8203194
:10B9340043B105F57A76564B4FF6FF72A3F82221F0
:10B94400002471E07846FDF7A1FEF2E72C2303FB07
:10B954000423002183F84010B2F820110139A2F821
:10B96400201101A9188BFFF767FE48B9484A2C2318
:10B9740003FB04235F6B01220199188BB84752E043
:10B984007846FDF783FEF1E7414F2C2101FB04F1DA
:10B994007B18183139440431188BFFF77DF9A7F867
:10B9A4002241B8B92C2303FB0473DA6B996B11445D
:10B9B40099635200DA63364A2C2303FB04231A6B7F
:10B9C4009B6BD31A002B2EDA31492C2303FB04136F
:10B9D4009A6328E0042803D07846FDF757FEEAE787
:10B9E4002B4B2C2202FB0434A36B03F51C43403382
:10B9F400A363274BB3F82031002B44D0244BB3F876
:10BA04002231052B39D8224AB2F822312C2101FBEC
:10BA140003239B6B5A1B34D41D4BDA6003B0F0BD77
:10BA24001B4BA3F822410134052CE2D8184A2C23DD
:10BA340003FB042393F84030002BF4D02C2303FBA6
:10BA440004231B6B9B1B002B80DB114A2C2303FB61
:10BA540004239B6B9A1B002A96DB0D4AB2F8222121
:10BA64004FF6FF718A42DBD009492C2000FB0212F9
:10BA7400926B9B1A002BD6DAD2E77846FDF706FEC6
:10BA8400C1E7EA1AC8E7024B0022DA60C6E700BF42
:10BA94005C40002010B582B004460DF10701008817
:10BAA400FFF7DAFC08BB636800934FF6FF72B2EB52
:10BAB400134F1ED00322A38913449BB29DF8072081
:10BAC40044F6206000FB02F000F5433000F5A0705E
