:020000022000DC
:1060000000F0002035620200656202006762020053
:10601000696202006B6202006D6202000000000013
:106020000000000000000000000000006F6202009D
:1060300071620200000000007362020075620200DB
:10604000796202007B6202008DB603007F6202006B
:1060500081620200836202000D850200C9B0030064
:10606000896202008B620200F97103008F620200F4
:106070009162020093620200956202009762020040
:10608000996202006DAA030039CF02009F620200EC
:1060900095AA0300A36202001DA00300A7620200EC
:1060A000A9620200AB620200AD620200AF620200B0
:1060B000B1620200B36202007762020077620200FE
:1060C000B5620200B7620200B9620200BB62020060
:0C60D000BD620200BF620200C16202005B
:1060DC00354936480A1A02D0072291438D46344975
:1060EC0034480A1A06D00722914381F30988022208
:1060FC0082F3148830483149314A00F043F8314872
:10610C003149324A00F03EF831483249324A00F007
:10611C0039F832483249334A00F034F832483349BE
:10612C00334A00F02FF833483349344A00F02AF848
:10613C0033483449344A00F025F8344834490022B5
:10614C0000F02BF833483449002200F026F833488D
:10615C003349091A082903DB00220260043001606C
:10616C001F482049884205D00268043003B4904788
:10617C0003BCF7E700208646EC4600200021294AA4
:10618C009047FEE7884207D0521A05D003780130B9
:10619C000B700131013AF9D17047884202D002707C
:1061AC000130FAE77047000000F0002000E8002002
:1061BC0000F0002000F00020A8360400C8320020B7
:1061CC00AC340020C4620200C46202008C190400CA
:1061DC00A8360400C8320020C8320020BC190400C4
:1061EC00BC190400BC190400BC190400BC1904003F
:1061FC00BC190400BC190400BC190400A836040026
:10620C008C380400AC340020AC340020AC340020BA
:10621C009C6C00209C6C00209C6C00209C6C0020D2
:10622C009C7000202580020008484FF0070188432D
:10623C008546074880470748016841F470010160B2
:10624C00BFF34F8FBFF36F8FFFF742BF00F00020FB
:10625C0075AE030088ED00E0FEE7FEE7FEE7FEE723
:10626C00FEE7FEE7FEE7FEE7FEE7FEE7FEE7FEE7FA
:10627C00FEE7FEE7FEE7FEE7FEE7FEE7FEE7FEE7EA
:10628C00FEE7FEE7FEE7FEE7FEE7FEE7FEE7FEE7DA
:10629C00FEE7FEE7FEE7FEE7FEE7FEE7FEE7FEE7CA
:1062AC00FEE7FEE7FEE7FEE7FEE7FEE7FEE7FEE7BA
:0862BC00FEE7FEE7FEE700BF6C
:1062C40076DF70477ADF70477CDF704741DF7047C5
:1062D4001C4B1B78F3B910B41B4B5C78194B1C7026
:1062E400184B1B78934205D901280AD0164B998084
:1062F400144B1A70144B1B78052B07D05DF8044B14
:106304007047114B99800F4B1A70F3E70D4B002225
:106314001A70F3E70B4B1B78934205D9012808D078
:10632400094B9980074B1A70074B1B78052B05D036
:106334007047054B9980034B1A70F5E7014B002217
:106344001A707047C93400208436002008B505F05F
:106354006BFC08BD30B587B005460C4600231846D3
:1063640001E00133DBB294490978994206D3934999
:1063740031F813109142F4D10120F2E700BB8F4BA6
:1063840023F811200131C9B28B4B19708C4B5B7A05
:106394006BB18C4BB3F90030993B8B4A82FB0302FF
:1063A400DB17C3EBA20351FA83F1884BD970884BF6
:1063B4001B6813F4804F03D0864B1B68032B20DC2F
:1063C4007F4B5B7A002B00F09980804B9B78A34233
:1063D40026D27E4B9C701D807D4B1B6813F4804F2E
:1063E40020D07C4B1B68032B1CDD7B4BD3F804357E
:1063F4007A4A00924FF4AF727949042007F0E0FD25
:1064040010E0754BD3F80435704AD2780192754A7E
:1064140000924FF4A9727249042007F0D1FDCFE72E
:10642400A3421ED0694AD3789278934235D9674AF9
:106434009370634BDB881380654B1B6813F4804FA8
:106444002DD0644B1B68032B29DD634BD3F8043533
:10645400654A00924FF4B8726149042007F0B0FD18
:106464001DE05A4B1B88AB42DCD9584B9C701D80F5
:10647400574B1B6813F4804FD4D0564B1B68032B27
:10648400D0DD554BD3F80435584A009240F26712D8
:106494005349042007F094FDC4E7934210D04C4BB9
:1064A4001B6813F4804F03D04A4B1B68032B5FDC3B
:1064B400434B1B78033BDBB2012B6FD907B030BDD4
:1064C4003F4AD288414909888A42E8D23F498B70C1
:1064D4000A803F4B1B6813F4804FE0D03D4B1B6890
:1064E400032BDCDD3C4BD3F80435414A009240F2E7
:1064F40079123B49042007F063FDD0E7334B9B78C6
:10650400A34217D2314B9C701D80314B1B6813F48E
:10651400804FC4D02F4B1B68032BC0DD2E4BD3F808
:106524000435344A00924FF4C2722D49042007F016
:1065340047FDB4E7A342B2D1244B1B88AB42AED98A
:10654400224B9C701D80224B1B6813F4804FA6D0F5
:10655400204B1B68032BA2DD1F4BD3F80435264ABE
:1065640000924FF4C7721E49042007F029FD96E7F4
:10657400194BD3F80435154A11889078104CE488E7
:10658400D27804920394029001911C4A009240F242
:1065940095121349042007F013FD89E70023064AE6
:1065A400137005E0054A002122F813100133DBB211
:1065B400092BF7D982E700BFC8340020B03400208B
:1065C40084360020AC34002067666666C43400203C
:1065D400BC330020B833002000B00040501C04003D
:1065E4001E1C0400281C0400581C0400541C040035
:1065F4005C1C0400601C0400641C0400681C04008F
:106604000D4B1B6813F4804F03D00C4B1B68032BFA
:1066140000DC704700B583B0094BD3F80435019210
:10662400084A009240F2F5220749042007F0C8FC0A
:1066340003B05DF804FB00BFBC330020B833002076
:1066440000B00040501D04001E1C040000B583B0BF
:10665400012930D0B1B1022943D02D4B1B6813F46A
:10666400804F18D02B4B1B68002B14DD2A4BD3F81A
:1066740004352A4A009240F2CE222949012007F02B
:106684009FFC08E0224B1B6813F4804F03D0214B7E
:106694001B68032B02DC03B05DF804FB1E4BD3F82C
:1066A400043501921F4A00924FF42E721C490420B3
:1066B40007F086FCEFE7164B1B6813F4804FEAD013
:1066C400144B1B68032BE6DD134BD3F804350192FE
:1066D400154A00924FF430721149042007F070FCFF
:1066E400D9E70B4B1B6813F4804FD4D0094B1B68BC
:1066F400012BD0DD084BD3F8043501920B4A0092EC
:1067040040F2C7220649022007F05AFCC3E700BF43
:10671400BC330020B833002000B000403C1D04000E
:106724001E1C0400E01C0400FC1C0400181D0400D2
:106734000C4B1B6813F4804F13D00B4B1B68002BBE
:106744000FDD00B583B0094BD3F80435084A009235
:1067540040F2AE220749012007F032FC03B05DF895
:1067640004FB7047BC330020B833002000B0004065
:10677400C01C04001E1C040000B583B09DF8043046
:10678400012262F3030362F3071302A800F8043D35
:106794000A220549FFF798FD10B903B05DF804FB20
:1067A40012F0E3FFF9E700BF6C1D040008B512F016
:1067B400DCFF08BD00B583B0037823B1012B0BD0F7
:1067C40003B05DF804FB3B214088FFF779FD002806
:1067D400F6D012F0CAFFF3E70A4B1B6813F4804F9C
:1067E400EED0094B1B68032BEADD084BD3F80435C4
:1067F400074A009240F299320649042007F0E0FB70
:10680400DEE700BFBC330020B833002000B00040F6
:10681400241F04001E1C040000B58BB00023ADF837
:1068240008307823ADF80430C823ADF806304FF4AF
:10683400C873ADF80A3001A8FFF744FDC0B90023BE
:106844000693079301AB039340F6CD4304934FF4AF
:106854008033059303238DF81830084B0893084BB5
:10686400099303A813F0EEFD28B90BB05DF804FBFF
:1068740012F07BFFE3E712F078FFF6E7B967020056
:10688400B167020010B582B00C460E4B1B6813F4BE
:10689400804F03D00C4B1B68032B06DC22460121DE
:1068A4000A481AF08FF902B010BD094BD3F8043529
:1068B4000191084A009240F2EF220749042007F0B0
:1068C4007FFBEBE7BC330020B83300200436002004
:1068D40000B00040501D04001E1C040010B584B01C
:1068E4001446154B1B6813F4804F03D0134B1B68DD
:1068F400032B09DC234601221149097811481AF0B7
:10690400AFF890B104B010BD0F4BD3F804350F4A63
:10691400D2880391029401920D4A009240F2DD2242
:106924000C49042007F04CFBE4E7062232214FF423
:10693400003001F06DFDE5E7BC330020B8330020E2
:10694400AC340020AC35002000B000408436002078
:10695400601A04001E1C040000B583B00F4B1B68B2
:1069640013F4804F03D00E4B1B68032B0ADC032265
:10697400C8214FF4F01001F04BFD09F07FFE03B085
:106984005DF804FB074BD3F80435074A00924FF433
:106994003F720649042007F013FBE8E7BC330020EC
:1069A400B833002000B00040081F04001E1C04007F
:1069B40070B582B00446604B1B6813F4804F03D05B
:1069C4005E4B1B68032B06DC022C17D0032C6ED005
:1069D40074B102B070BD5A4BD3F804350190594AD2
:1069E40000924FF443725849042007F0E9FAEBE7A8
:1069F4000022012155481AF0E5F8EAE7544BDB88F8
:106A040001225449097854481AF02AF80646002805
:106A140042D0142001F0D4FC002844D04F4B002273
:106A24001A704E4D2978112001F0D6FC29781220D5
:106A340001F0D2FC2978132001F0CEFC297814202F
:106A440001F0CAFC112E6CD801A353F826F000BF44
:106A5400D7690200276B0200276B0200276B020034
:106A6400BD6A0200276B0200276B0200F76A02006E
:106A7400BD6A0200276B0200276B0200276B02002D
:106A8400276B0200276B0200276B0200276B0200B2
:106A9400276B0200BD6A0200062232214FF4003047
:106AA40001F0B6FCB5E72D4B01221A70B9E709F0E5
:106AB4008BFDFFF751FF8CE71F4B1B6813F4804FCE
:106AC40003D01E4B1B68032B06DC062232214FF435
:106AD400F01001F09DFC7CE7194BD3F804350194C8
:106AE4001F4A00924FF454721749042007F068FAC1
:106AF400EBE7114B1B6813F4804F3FF46AAF0F4B65
:106B04001B68032B7FF765AF0D4BD3F80435019455
:106B1400144A009240F25D320B49042007F050FA07
:106B240057E7002E3FF455AF0F4A40F2613130462B
:106B340014F0BAFA4DE700BFBC330020B83300208C
:106B440000B00040E81A04001E1C040004360020B3
:106B540084360020AC340020AC350020923600206E
:106B6400FC1A0400201B0400C41B04003038032852
:106B740000D9704708B5FFF71BFF08BD08B50378B7
:106B84001C2B00D008BDFFF7E7FEFBE700B583B080
:106B940001A80EF043FDBDF8040003B05DF804FB4A
:106BA4002DE9F04188B004AF64213F4801F0B0FB07
:106BB40009F05AFDE8B93D4B1B7833BB3C4A3B1DF9
:106BC40007CA83E80700184601F03CFBB8B901F096
:106BD4006DFE384B1B6813F4804F56D0364B1B6840
:106BE400032B52DDE8468AB00DF1100C66460023F3
:106BF40036E0324A40F2D45114F056FADBE72F4A19
:106C040040F2DC5114F050FAE1E7FFF7BFFF2C4BE0
:106C1400D880284B1B6813F4804FD8D0264B1B68B0
:106C2400032BD4DD274BD3F804350190264A009278
:106C340040F2E3522549042007F0C2F9C7E7C25CD9
:106C44004FEA121E5900224C256815F80EE006F88A
:106C540013E002F00F0201312468A25C7254013384
:106C64000F2BECD900238CF82030164BD3F80435C5
:106C7400CDF808C0174A0192174A009240F2E75231
:106C84001249042007F09CF9C54600214FF4F01086
:106C940001F0B3FB0222C8214FF4F01001F0B8FB5D
:106CA4001037BD46BDE8F081716B0200003600204C
:106CB400BC190400BC330020B8330020C41B0400FA
:106CC4008436002000B00040582004001E1C04003C
:106CD400C0330020702004008020040000B583B07D
:106CE400204B1B6813F4804F03D01F4B1B68032BEE
:106CF4001EDCFFF741FDFFF78FFDFFF747FF1B4B3E
:106D0400D880184B1B6813F4804F03D0164B1B68B4
:106D1400032B19DC00214FF4F01001F06EFB042268
:106D2400C8214FF4F01001F073FB03B05DF804FBCD
:106D34000F4BD3F804350F4A009240F21F120E494C
:106D4400042007F03DF9D4E7094BD3F8043501904A
:106D54000A4A009240F229120749042007F030F948
:106D6400D8E700BFBC330020B833002084360020AD
:106D740000B00040501F04001E1C040058200400F2
:106D840008B500224FF42031034813F0CBFE00B9BC
:106D940008BD12F0EAFCFBE7E035002008B5034B20
:106DA40001221A70FFF7ECFF08BD00BFCD340020AC
:106DB40010B584B01B4C2146002014F005FB1A4B7F
:106DC400DB8801222178194819F04AFEC0B240B983
:106DD400174B1B6813F4804F03D0164B1B68032B0F
:106DE40009DC104BB3F90030E52B02DC0E4B1B7AA7
:106DF400ABB904B010BD104BD3F804350A4AD1889E
:106E040092880392B4F90020029201910B4A0092F5
:106E140040F2B2320A49042007F0D2F8E1E7FFF762
:106E2400AFFFE6E7AC34002084360020AC35002008
:106E3400BC330020B833002000B000409C1A04008A
:106E44001E1C040008B500224FF42031034813F03F
:106E540069FE00B908BD12F088FCFBE7603600202B
:106E640038B50D4614460F4B1B786BB10E4B1B788F
:106E7400A34204D90C4B1C700C4B9C709D800B4B93
:106E84001B78052B06D038BD064B01221A70FFF77C
:106E9400D9FFEBE7034B00221A70034BFF221A7051
:106EA400F1E700BFCA3400204B33002084360020B1
:106EB40008B500224FF06171034813F033FE00B9A6
:106EC40008BD12F052FCFBE7B835002008B50022DB
:106ED4004FF42031034813F025FE00B908BD12F029
:106EE40044FCFBE7203600202DE9704889B00446B5
:106EF4000D46604B1B785BB15E4B00221A705E4BF3
:106F04001B6813F4804F03D05C4B1B68032B4ADCD3
:106F14005B4B00221A725B4B1B78002B5BD0052D58
:106F240059D9554B1B6813F4804F03D0534B1B683E
:106F3400032B44DC524B02221A700024514B1C7068
:106F4400C5F12800C2B20023900010EB020B44EB01
:106F5400030C4FEACC0545EA5B754FEACB06B01A41
:106F640065EB03010D0145EA107506012946B518C4
:106F740041EB0306B30443EA9533AA0415461E46BF
:106F84004FF47A72002315F5FA7046F1000119F0F6
:106F94003FFF224601463C4813F0C4FD00284FD071
:106FA40012F0E3FB4CE0394BD3F80435384A009235
:106FB40040F251423749042007F002F8A8E7334B66
:106FC400D3F80435344A00924FF48B6231490420DB
:106FD40006F0F6FFAEE731480FF076FE284B5C7002
:106FE4002F4B1C775D77244B1B6813F4804F03D021
:106FF400224B1B68032B26DC1E2128480FF08DFE34
:107004000646C8B1264C0FCCC6F81100C6F81510B8
:10701400C6F81920C6F81D3007CCC6F82100C6F8FA
:107024002510C6F829202388A6F82D30FF233371B4
:1070340031461A480FF0B0FE1A4A13780133137020
:1070440009B0BDE87088114BD3F80435144A117E99
:10705400507E967ED27E0695059404920396029005
:107064000191114A009240F272420A49042006F04A
:10707400A7FFC1E74C330020BC330020B833002005
:10708400843600204A3300204036002000B00040FF
:10709400D81904001E1C0400F01904001035002047
:1070A400CC320020CC340020141A04002DE9F0471F
:1070B4009AB008AF04468E4B1D7881684A6891F9EE
:1070C4000D300078CE7B91F810C091F811E091F862
:1070D400128091F81390097D0691CDF81490CDF8A3
:1070E4001080CDF80CE0CDF808C0019600908149DD
:1070F400381D1AF00FF8A36893F90D3013F15E0FE1
:1071040016DB63685A7AE22A16D063685A7A882AA8
:107114004CD063685A7A022A00F00A8163685A7A6A
:10712400F82A00F0638163685A7A382A00F0E8810B
:107134004837BD46BDE8F0879A7A1F2AE5D1DA7A46
:10714400C42AE2D11A7B9B2ADFD15A7BDA2ADCD10A
:107154005B7F002BD9D1684B1B6813F4804F03D09D
:10716400664B1B68032B15DC65490B780133DBB2D6
:10717400644AA2FB0302920802EB82029B1ADBB26E
:107184000B70002BC1D15A4BDA8801215E4819F0EB
:1071940019FDBAE75D4BD3F804355D4A00924FF40C
:1071A40001725C49042006F00BFFDDE79A7A1B2A82
:1071B400AFD1DA7AA12AACD11A7BB42AA9D1597FEA
:1071C400554A12789142A4D91A7F544B1B789A429B
:1071D4009FD8494B1B6813F4804F3AD0474B1B6828
:1071E400032B36DDE94694F801C04FEA4C0308331B
:1071F40003F47E73ADEB030D0DF12008C6460023A6
:1072040012E06268D25C4FEA121A5900444E3068A8
:1072140010F80A000EF8130002F00F020131306872
:10722400825C0EF8012001336345EAD3002308F899
:107234001C30364BD3F80435CDF808803A1D019242
:10724400384A009240F21E223249042006F0B8FE69
:10725400CD4663681A7E12B95A7E0C2A17D0264B83
:107264001B6813F4804F03D0244B1B68032B32DCC0
:107274006268137F29490B70517F274A11701C4A99
:10728400012050720344D8B2FFF72EFE41E79A7EE4
:10729400022AE4D1DB7E0B2BE1D1174B1B6813F4DC
:1072A400804F0ED0154B1B68032B0ADD174BD3F808
:1072B40004351D4A009240F225221649042006F0A6
:1072C4007FFE6368187F154A1070597F124B19703E
:1072D400FFF70AFE1DE70D4BD3F80435134A00925D
:1072E4004FF40B720B49042006F06AFEC0E700BF9E
:1072F400843600206C1F0400BC330020B833002007
:107304008E360020CDCCCCCC0436002000B000401A
:10731400B41F04001E1C040080360020C832002064
:10732400C033002080200400B81F0400BC1F0400E8
:107334009A7A562A7FF4F2AEDA7AF62A7FF4EEAE1F
:107344001A7BDE2A7FF4EAAE5A7BDE2A7FF4E6AEAD
:107354005A7E002A7FF4E2AE9A7E0C2A7FF4DEAED7
:10736400DA7E022A7FF4DAAE1B7F0B2B7FF4D6AED3
:10737400052D18BF022D7FF4D1AEA74B1B783BB16E
:10738400A54B00221A70A54813F0EAFBFFF7F8FC9E
:1073940063689A7BDE7B46EA02265A7C93F8128065
:1073A40048EA02289E4B1B6813F4804F11D09D4B72
:1073B4001B68032B0DDD9C4BD3F80435CDF80880F6
:1073C40001969A4A009240F251229949042006F00B
:1073D400F7FD2EB163684246197C3046FEF7BAFFCA
:1073E400052D7FF49BAEFFF7CBFC97E69A7A442AEF
:1073F4007FF499AEDA7A7E2A7FF495AE1A7B272A37
:107404007FF491AE5A7B702A7FF48DAE9A7BCC2A9E
:107414007FF489AEDA7B642A7FF485AE1A7CD82A9D
:107424007FF481AE5A7C352A7FF47DAE9A7CBB2AE8
:107434007FF479AEDA7C0C2A7FF475AE1A7DE02AEB
:107444007FF471AE012D3FF46EAE022D3FF46BAEAE
:10745400052D3FF468AE5A7E9E7E46EA02265A7D8A
:107464001ABB9A7D0C2A20D1DA7D022A1DD11B7EFB
:107474000B2B1AD1032D18D0694B1B6813F4804FC2
:107484000ED0684B1B68032B0ADD674BD3F8043519
:10749400684A009240F272226549042006F090FD89
:1074A400002231460120FFF7DBFC63685A7D62B994
:1074B4009A7D0C2A09D1DA7D022A06D11B7E0B2B78
:1074C4003FF431AE032D7FF42EAE554B1B6813F4FD
:1074D400804F0ED0534B1B68032B0ADD524BD3F85D
:1074E4000435554A009240F27B225149042006F0AB
:1074F40067FD6368DA7E31460120FEF7E9FE12E695
:107504009A7A322A7FF414AEDA7A892A7FF410AE9A
:107514001A7BBF2A7FF40CAE5A7BDE2A7FF408AEB6
:107524009A7BC22A7FF404AEDA7B712A7FF400AE20
:107534001A7C842A7FF4FCAD5A7C4A2A7FF4F8AD85
:107544009A7C472A7FF4F4ADDA7C242A7FF4F0ADE8
:107554001A7D822A7FF4ECAD012D3FF4E9AD022DB2
:107564003FF4E6AD052D3FF4E3AD5A7E9E7E46EA38
:1075740002265A7D22BB9A7D0C2A21D1DA7D022A69
:107584001ED11B7E0B2B1BD1042D19D1244B1B6840
:1075940013F4804F0ED0234B1B68032B0ADD224BC0
:1075A400D3F80435254A009240F299222049042058
:1075B40006F006FD6368DA7E31460120FFF750FCD1
:1075C40063685A7D62B99A7D0C2A09D1DA7D022A50
:1075D40006D11B7E0B2B3FF4ABAD032D7FF4A8AD7E
:1075E4000F4B1B6813F4804F0ED00E4B1B68032BFC
:1075F4000ADD0D4BD3F80435114A009240F2A22261
:107604000B49042006F0DCFC63681A7F3146022033
:10761400FEF75EFE8CE500BFCD340020403600202E
:10762400BC330020B833002000B00040C01F040069
:107634001E1C0400F81F040010200400282004006D
:107644004020040070B586B00446814B1B78052B9E
:1076540027D00D4601337E4A13707E480FF034FB69
:10766400002C40F096807C4B5B7A002B00F09180DC
:107674007A4BB3F90020993A794981FB0231D31747
:10768400C3EBA103DBB27749CB70734AD2880A807B
:10769400100A75498873D2B2CA730B7448748A7419
:1076A40094E06B4B00221A70704813F059FA6A4B3D
:1076B400DB88A34241D000226D4B1B7883F0010389
:1076C40013434DD06B4B1B6813F4804F03D06A4BAC
:1076D4001B68032B38DC604B03221A7001211972DA
:1076E400142000F079FEFFF7F1FB0022114610464A
:1076F400FEF730FE5B4A002313809370D3705C4A1C
:1077040013705C4B1B6813F4804F00F088805A4B55
:107714001B68032B40F38380584BD3F804354E4A3F
:10772400527A002102910192554A009240F2A342FA
:107734005449042006F044FC71E0474B5B7A0BB9D2
:107744000022B9E70122B7E74C4BD3F804354E4A7F
:10775400009240F28D424B49042006F031FCBAE716
:10776400444B1B6813F4804F03D0434B1B68032B1B
:1077740003DC394B04221A70B7E7404BD3F80435C5
:10778400424A00924FF493623E49042006F018FCEA
:10779400EFE774B9304B5B7A5BB92F4BDA88110A87
:1077A400314B9973D2B2DA730020187459749A74F5
:1077B4000CE0220A2C4B9A73DC731D74264AD2887F
:1077C400110A59749A742A4B01221A70294B1B68A6
:1077D40013F4804F03D0284B1B68032B21DC1E219C
:1077E4001C480FF09AFA0646C8B11F4C0FCCC6F8D5
:1077F4001100C6F81510C6F81920C6F81D3007CCBC
:10780400C6F82100C6F82510C6F829202388A6F852
:107814002D30FF23337131460E480FF0BDFA06B008
:1078240070BD164BD3F804350F4A917BD07B147C82
:10783400557C927C05920495039402900191144A1C
:10784400009240F2D7420F49042006F0B9FBC6E784
:107854008F3600201035002084360020AC34002000
:1078640067666666C4340020EC320020E0350020F0
:10787400CB340020BC330020B833002000B00040DB
:107884006C1B04001E1C04004C1B04005C1B040045
:10789400741B040008B5034B99781888FFF7D2FECF
:1078A40008BD00BFC434002000B583B0414B1B6841
:1078B40013F4804F03D0404B1B68032B3EDC3F483E
:1078C4003F4B4360012119F0ADF8002842D13B4BF6
:1078D40018880BF079FE002842D13A483A4B4360AD
:1078E400022119F0F5F9002840D1364B18880BF025
:1078F4006BFE002840D13548354B4360304B8360E4
:10790400012119F03BF900283CD1304B18880BF0C9
:107914005BFE00283CD12F482F4B83602F4B4360E4
:10792400022119F053FA002838D12A4B18880BF099
:107934004BFE002838D103B05DF804FB284BD3F884
:107944000435284A009240F273322749042006F095
:1079540037FBB4E7254A40F2773113F0A5FBB6E7CD
:10796400224A4FF45E7113F09FFBB6E71F4A40F2C0
:107974007D3113F099FBB8E71C4A40F27E3113F0D5
:1079840093FBB8E7194A4FF4617113F08DFBBCE720
:10799400164A40F2853113F087FBBCE7134A40F2E4
:1079A4008A3113F081FBC0E7104A40F28B3113F0A7
:1079B4007BFBC0E7BC330020B8330020AC3500208B
:1079C40035670200D8350020E16802000436002043
:1079D4005166020014360020896802000566020020
:1079E40000B00040E81E04001E1C0400C41B040078
:1079F40010B5064C4023064A064920460FF0AAFA61
:107A04004FF4FA7120460FF021FA10BD1035002012
:107A1400D0340020A57A020000B58FB01A4BDB6881
:107A24000EA941F8143D04220AA800F007FFF8B992
:107A340020220021684619F0BBFB01238DF8003099
:107A440007238DF803308DF808300AAB03930F4BEE
:107A540004930F4B08930F49684608F0CBFD68B9AF
:107A64000D4804F0E7F8FFF7C3FF0FB05DF804FB1F
:107A74000A4A4FF47D7113F017FBD9E7074A4FF414
:107A84007F7113F011FBEBE7BC190400816B02005A
:107A9400AD78020000360020B1700200C41B04005F
:107AA400416839B110B504460FF0C0F920460FF013
:107AB4002DF910BD7047000000B585B001AB0B4A2D
:107AC40007CA03C31A700021094813F0D1FB38B95F
:107AD40001A9002013F020FC28B905B05DF804FBCF
:107AE40011F043FEF4E711F040FEF6E7CC19040070
:107AF400DC1C040008B5174A0121174812F0FCFFEA
:107B0400C0B9164A0121164812F0F6FFA8B9154A61
:107B14000121154812F0F0FF90B9144A01211448CC
:107B240012F0EAFF78B9134A0021134812F0E4FF77
:107B340060B908BD11F019FEE3E711F016FEE6E79F
:107B440011F013FEE9E711F010FEECE711F00DFE61
:107B5400EFE700BFB56D0200341E040099780200FF
:107B6400381E04001D8002003C1E0400257E020015
:107B7400441E0400A16D0200401E040008B5FFF776
:107B84009BFFFFF7B7FF08BD00B585B0294A042164
:107B94004FF4C04006F0F8F9274B1B6813F4804FEC
:107BA40003D0264B1B68032B22DC12F075FF58BB55
:107BB40000F05EFC224800F07BFC58BB12F09EF9FA
:107BC40070BB04A9002341F8043D012012F084FA9B
:107BD40048BB03A812F0D2FA40BBFEF7CDFDFEF776
:107BE4001BFEFFF719FFFFF7C9FF05B05DF804FBA3
:107BF400144BD3F80435144A009240F2B45213499A
:107C0400042006F0DDF9D0E7114A40F2B65113F032
:107C14004BFACDE70E4A40F2BA5113F045FACDE7DC
:107C240011F0A3FDCDE711F0A0FDD2E711F09DFD09
:107C3400D3E700BF61DF0200BC330020B83300206B
:107C4400B569020000B00040201E04001E1C0400A0
:107C5400C41B040030B583B005460C4602A94FF698
:107C6400FF7321F8023D20460BF0C0FBBDF806006F
:107C74000DF034FD48B90DF1060128460DF0DCFC89
:107C8400034630B1184603B030BD784600F0C4FD59
:107C9400F1E7BDF8061020460BF078FB0346F1E748
:107CA40070B586B0504B1B78052B3FD001334E4A3C
:107CB40013704E480FF008F84D49CA88140A4D4B0A
:107CC4005C76D0B298768A780132D2B2DA76497884
:107CD400197701255D77484B1B6813F4804F03D057
:107CE400464B1B68032B6DDC1E2140480FF015F832
:107CF4000646C8B13F4C0FCCC6F81100C6F81510A3
:107D0400C6F81920C6F81D3007CCC6F82100C6F8FD
:107D14002510C6F829202388A6F82D30FF233371B7
:107D2400314632480FF038F806B070BD304B0522AA
:107D34001A70334812F014FF2B4B00221A702E4B8A
:107D44001B6813F4804F03D02C4B1B68032B21DCDE
:107D5400274CA0882B4D0230298880B2FFF77AFF88
:107D6400A0880230284B198880B2FFF773FFFFF711
:107D74009FF8E388032225490978284618F070FE05
:107D8400C8B1002211461046FFF76AF8184B0022CA
:107D94009A70C9E71E4BD3F80435154AD1889288E6
:107DA400029201911B4A009240F246521A49042061
:107DB40006F006F9CCE7062232214FF4003000F039
:107DC40027FBDEE7124BD3F80435059504910392A3
:107DD40002900194114A009240F26E520E4904201E
:107DE40006F0EEF880E700BF913600201035002041
:107DF400843600202C330020BC330020B83300200C
:107E040060360020AC35002004360020AC3400205D
:107E140000B00040581E04001E1C0400941E040000
:107E240008B5FFF73DFF08BD70B584B06B4B1B78F8
:107E3400052B0DD00133694A137069480EF044FFD5
:107E4400684BDB88180A684A5076D9B2917687E085
:107E5400644C2370654812F083FE604B00221A7054
:107E64006378012B28D0624B1B6813F4804F03D036
:107E7400604B1B68032B57DC5A4CA0885E4D0230C4
:107E8400298880B2FFF7E6FEA08802305B4B198890
:107E940080B2FFF7DFFEFFF70BF8E38803225849AF
:107EA4000978284618F0DCFD00284ED0002211463F
:107EB4001046FEF70DFA80E04D4B1B6813F4804F1B
:107EC40003D04C4B1B68032B20DC464C0023A380BF
:107ED400494D29880220FFF7BDFEA0880230474B98
:107EE400198880B2FFF7B6FEFEF7E2FFE3880322AB
:107EF40043490978284618F0B3FD0028D6D1062254
:107F040032214FF4003000F083FACFE73D4BD3F831
:107F14000435E28801923C4A009240F2F4423B4923
:107F2400042006F04DF8D0E7364BD3F804352D4A3B
:107F3400D188928802920191354A009240F2065209
:107F44003249042006F03CF896E7062232214FF429
:107F5400003000F05DFAA9E7224B5A78224BDA761A
:107F6400214BDA7E002AF7D0214B1B6813F4804F93
:107F740003D0204B1B68032B21DC1E2118480EF074
:107F8400CCFE0646C8B1184C0FCCC6F81100C6F892
:107F94001510C6F81920C6F81D3007CCC6F8210004
:107FA400C6F82510C6F829202388A6F82D30FF230B
:107FB400337131460A480EF0EFFE04B070BD114B28
:107FC400D3F80435039202910190124A009240F2D0
:107FD40029520E49042005F0F3FFCEE79036002025
:107FE40010350020843600200C3300202036002079
:107FF400BC330020B8330020AC3500200436002008
:10800400AC34002000B00040781D04001E1C0400A5
:10801400B41D0400F01D040008B5FFF705FF08BDFA
:1080240000B583B0FFF7B0FDEFF3108572B6264BB1
:108034009B689BB9244A01239360244BD3F8801096
:10804400234801401160C3F88000D3F884105160C4
:108054004FF0FF32C3F88420002400E0012405B966
:1080640062B6FEF79DFD184B9B686BB164B9EFF3E4
:10807400108172B6144B1868144A10605868506026
:1080840000229A6001B962B61249002013F09CF9EB
:10809400114B1B6813F4804F12D0104B1B68032B39
:1080A4000EDD0F4BD3F804350A4AB2F900200192D1
:1080B4000C4A009240F2F3520B49042005F080FF71
:1080C400FEF704F9FCE700BF586A002000E100E075
:1080D400FC06FFBDAC340020BC330020B8330020C4
:1080E40000B00040481E04001E1C04002A4B1B78EC
:1080F400002B4FD000B585B0012804D0032842D00E
:1081040005B05DF804FB04A9002341F8083D0120F3
:1081140011F0E2FF40BB02A812F030F838BB04A90A
:10812400012341F8043D0DF106000DF0A5FF08BB45
:10813400BDF806000DF03AFC0DF105010DF08CFDC3
:10814400D8B909F0D1FC9DF80510002009F08EFD86
:1081540003F000FDA0B9104B00221A700F4B1B68EE
:10816400002BCDD09847CBE711F0FFFAD3E711F0FD
:10817400FCFAD4E711F0F9FADAE711F0F6FAE0E7DD
:1081840011F0F3FAE7E711F0B9FE0028B8D011F0C6
:10819400ECFAB5E7704700BF94360020983600200B
:1081A40008B5084B01221A7003F0F6FC18B911F057
:1081B400EBFE18B908BD11F0D8FAF8E711F0D5FABA
:1081C400F8E700BF9436002008B5032300220349D2
:1081D4004968034814F02EF808BD00BF9836002003
:1081E400DC38002008B50378052B0DD0082B16D0F9
:1081F400022B00D008BD104B1B7813B9FFF7E4FF26
:10820400F8E7FFF7CDFFF5E710220C4B99680C480F
:1082140014F09AF80028EDD011F0A7FAEAE7816883
:10822400C06808F096F918B9034B01221A70E1E707
:1082340011F09BFAF8E700BF93360020983600202F
:10824400DC38002010B586B00446214A03AB07CAC7
:1082540003C323F8022B120C1A701E4B94E8070078
:1082640083E80700002A31D01B491C4813F0C6FFDD
:10827400034610B1184606B010BD194B009303AB6A
:10828400154A1649174813F075FF03460028F1D123
:10829400154815F02DFB0146124813F097FF0346CD
:1082A4000028E7D1114813F04FFB03460028E1D121
:1082B4000E4813F07FFB01460A4813F087FF03467C
:1082C4000028D7D1FFF780FF0346D3E70723D1E780
:1082D4009820040098360020A4360020103A00208C
:1082E400E9810200DC380020C43600208C380020EC
:1082F40008B5064B1B683BB110F07AF8002803DB85
:10830400024B1B689847F7E708BD00BF503A0020AE
:1083140010B50C46144B1860144A0121144812F08D
:10832400EBFBA0B9610CE00341F26F7200238B42B6
:1083340008BF824210D24FF47A72002318F068FD0D
:10834400014600220B4812F0EDFB38B910BD0A4A71
:10835400462112F0A9FEE5E70521F2E7064A472186
:1083640012F0A2FEF2E700BF503A0020F5820200AC
:10837400A4200400543A0020A820040008B50D4BA2
:108384001B6873B14FF0A042D2F804350A4909685A
:108394004B40C2F80435074A1368013B136023B10C
:1083A40008BD002011F0E1F9ECE7044812F0D8FB15
:1083B400F6E700BF743A0020783A00207C3A0020A7
:1083C4004FF0A043D3F80425012303FA00F002423E
:1083D4000CBF18460020704739B9012303FA00F096
:1083E4004FF0A043C3F808057047012303FA00F0D7
:1083F4004FF0A043C3F80C05704721B94FF0A043D8
:10840400C3F8080570474FF0A043C3F80C05704744
:1084140012B11346132900D8704770B5114A106081
:108424005B00013B104A136000264D0CCC034FF453
:108434007A72002314F5FA7045F1000118F0E8FC93
:1084440032460146094812F06DFB48B94FF0A0428C
:10845400D2F804350349096823EA0103C2F8043554
:1084640070BD00BF783A0020743A00207C3A0020A6
:1084740008B511230BE04FF0A04103F5E07203208F
:1084840041F8220001229A40C1F808250133142B37
:10849400F1D9054A0121054812F02EFB00B908BDA7
:1084A40011F063F9FBE700BF81830200002104009F
:1084B400F0B1104A1060002309E00F4AD25C02F5C3
:1084C400E0724FF0A0410D4841F822000133032B24
:1084D400F3D90B4B4FF00042C3F804230020C3F838
:1084E4007C01084BE02283F8062340221A6070477F
:1084F4000E2070479C3A0020042104000C00030065
:108504000060004000E100E010B50024144BC3F803
:108514007C410EE043F23333994208D9114BD3F82E
:108524000425114B1A60114B1B68204698470134EF
:10853400E4B2032C12D84FF0A043D3F810250C4B0F
:10854400195D01238B409343F1D0074B1B68054A07
:10855400D2F80425991ADDD5D11ADBE710BD00BF86
:108564000060004000B00040A03A00209C3A002087
:108574000421040072DF704773DF704774DF7047B3
:108584002DE9F047A2B0074688469146314C0026B3
:10859400C4F80660E68130490B78C3EB43102F4DD5
:1085A400054425602E4A0244A2601F22A280A281B3
:1085B400013303F001030B704FF03C0A524631467D
:1085C40013A818F0F5FD06238DF84F30ADF8487068
:1085D40001238DF84A30ADF85C3012AA1892ADF838
:1085E4003C70ADF84090CDF844800DEB0A021D922A
:1085F4008DF8783052463146684618F0D9FD02238A
:108604008DF80030221D294613A811F057FB90B9AC
:10861400104B03F10C029968684611F04FFB68B9DE
:10862400104A0C491048FFF7A5FF082809D070B973
:1086340022B0BDE8F08711F098F8E9E711F095F859
:10864400EEE7002203490848FFF794FFEFE711F033
:108654008CF8EDE7E83A0020A43A0020A83A00207C
:10866400F83A0020503300204D330020034B00EB38
:10867400800042009A819960704700BF5033002007
:1086840008B50121054B1878FFF776FF10B904F0FF
:108694008BFA08BD11F069F8F9E700BF4D330020EB
:1086A40008B5044B1878FFF769FF00B908BD11F04D
:1086B4005CF8FBE74D3300200620704700B587B017
:1086C40041F20103984245D020D944F20103984273
:1086D40056D044F2020398426DD1454B1B6813F403
:1086E400804F1ED0434B1B68002B1ADD424BD3F83E
:1086F4000435108803905268029201913F4A009217
:108704005F223F49012005F05BFC0AE0012852D1B9
:10871400374B1B6813F4804F03D0364B1B68002B78
:108724000BDC4FF0A0434FF4F012C3F81825C3F844
:108734000C25EFF3108372B653E02F4BD3F80435B6
:10874400029201912F4A009254222D49012005F0F2
:1087540037FCE6E7264B1B6813F4804FE1D0254B2A
:108764001B68002BDDDD244BD3F804350292019104
:10877400254A009257222249012005F021FCD0E726
:108784001B4B1B6813F4804FCBD01A4B1B68002B78
:10879400C7DD194BD3F80435106804905068039072
:1087A400029192680192194A0092692214490120A7
:1087B40005F006FCB5E70E4B1B6813F4804FB0D0F0
:1087C4000C4B1B68002BACDD0B4BD3F8043501912B
:1087D4000F4A00926D220A49012005F0F1FBA0E73F
:1087E40030BF0C4B1B78002BFAD107B05DF804FBAB
:1087F400BC330020B833002000B00040A4210400A2
:10880400512104006421040080210400C4210400D7
:10881400E82104006833002000B583B00023ADF8DC
:108824000030054B01936A46014644F20200FFF70B
:1088340045FF03B05DF804FB4C1D0400082A10D862
:1088440038B51446054618F08AFCC4F10802002124
:10885400281918F0ADFC044B03CBA860E960002094
:1088640038BD0920704700BF6000001010B40346F3
:10887400044C006859689A68DB680FC45DF8044BBF
:10888400704700BF383B0020064B074A92E80300BC
:1088940083E803000833443292E8030083E80300CA
:1088A400704700BF383B002060000010004870474C
:1088B400383B0020002308E0074901EBC3000022F5
:1088C4004280426001F8332001331F2BF4D9034B5B
:1088D40000221A60704700BF483B0020483C00203B
:1088E40030B405460F4B1B6800240AE01F230E4AD0
:1088F40012F83300A0B102EBC3025288AA4207D097
:1089040001341F2C0BD85A1E002BEFD01346EEE770
:10891400054A02EBC30252688A42F1D100E000200A
:1089240030BC7047483C0020483B002030B40A4A21
:1089340013680A4C04EBC30568806960012104F8DC
:1089440033100B441360202B01D030BC7047134606
:1089540000221A60F9E700BF483C0020483B002091
:10896400C0F30C038B4202D3C91A08447047C91AD6
:108974000844A0F500507047C37D002B42D0837893
:108984000A7802F0800203F07F0313430B7002782D
:108994000B7803F07F0343EAC2130B700378002BB8
:1089A40041D030B44378082B14BF002201224B7805
:1089B40003F07F0343EAC2134B70858803F08003FE
:1089C400C5F3861423434B708A7802F0030242EA0B
:1089D4008502D2B28A70857902F0FC02C5F3C10423
:1089E40022438A70CB7803F01F0343EA4513DBB2BA
:1089F400CB70C27903F0E00302F01F021343CB7083
:108A040030BC704783780A7802F0BF029B0103F000
:108A1400400313430B70C27803F0C00302F03F021B
:108A240013430B70B3E770470023032B22DC10B40D
:108A340002E00133032B19DC0F4C6C2202FB0342CE
:108A440092F84420012AF4D16C2202FB0342948A56
:108A5400C2899442EDD1084C6C2202FB03429288F5
:108A64008A42E6D16C2202FB034000E000205DF85C
:108A7400044B704700207047C03C0020002300E0F6
:108A84000133032B13DC0B496C2202FB031292F813
:108A94004420022AF4D16C2202FB0312918A828AB6
:108AA4009142EDD103486C2202FB03007047002081
:108AB400704700BFC03C002008B108207047042064
:108AC4007047000038B505460C46CB695B78C37027
:108AD400CB691B7883F001038370CB694362087B05
:108AE400022814D0FFF7E8FF6870E27A32B9A18A4D
:108AF400C0F10F03994201DC082831D0A18A034652
:108B0400C0F10F00814207DC42B3012205E0154B9E
:108B1400987DFFF7D1FFE7E701222A7062B1A28AAC
:108B240013440B33104A82FB0312DB17C3EB6203BB
:108B3400013BEB710023AB710023EB7505F10C02D3
:108B440094E8030082E80300A2692A622289AA82C7
:108B5400A27AAA75226AAA62184638BD0022DCE706
:108B64000720FAE7A83C0020ABAAAA2A30B403469F
:108B74000C460978817000214162A1680B2903D851
:108B8400217BF1B1012100E001211970002058700E
:108B940029B1A1680731C9080139D9719871012136
:108BA400D97503F10C0504F1100103C985E803002C
:108BB400E1899982A1691962217F99759A6230BC11
:108BC40070470021E1E700000021164B1B688B422F
:108BD40026D90023144A02EBC10252689A421DD9D5
:108BE40010B4114A52F8312002EBC30412F83320B6
:108BF40082420DD001330C4A02EBC10252689A4200
:108C0400EFD80131074B1B688B4205D90023F2E7EB
:108C140060685DF8044B70470020FAE70131D4E73F
:108C2400002070474C3C0020503C002070B58CB0B4
:108C340006460D4614462C22002101A818F0B8FA65
:108C44000E238DF80430ADF808604FF0000365F38F
:108C540000038DF80A308DF80B4001A801F0B0F93B
:108C64000CB070BD30B58DB005460C462C220021E9
:108C740001A818F09DFA0F238DF8043002958DF8A1
:108C84000C4001A801F09CF90DB030BD00B58DB0C9
:108C940048B913F1020F06D001228DF80420029383
:108CA40001A801F08DF9034B186804F073F80DB0B6
:108CB4005DF804FB5C3C00202DE9F0410546884644
:108CC4000378BBB10D4B1C68621C1A6004F00704E6
:108CD400AB8A0B4F07EBC4067380A988A869FFF71A
:108CE4003FFE7060EB6903F00103737007F8348092
:108CF400BDE8F0817846FFF78FFDE3E7A43C002050
:108D0400643C002070B5064603784BB1B58A347FC5
:108D140004F00104B188B069FFF722FE002304E0E7
:108D24007846FFF779FDF1E70133072B15D80C4A94
:108D340002EBC30252688242F6D1094A02EBC30233
:108D44005288AA42F0D1064A02EBC3025278A242E8
:108D5400EAD1034800EBC30000E0002070BD00BF6F
:108D6400643C0020F0B40D684C688F68CE68D56010
:108D74001461576196610D694C69D5611462037879
:108D8400DB091370D17DF9B1037803F07F0393708D
:108D94000023537013789BB143789B0103F4FE5373
:108DA400817843EA910393808378DB0003F018030E
:108DB400C17843EA51139371C37803F01F03D3714D
:108DC40000235362F0BC70470178C1F380119170A5
:108DD400017801F03F01D17043B190F90130002BCB
:108DE40002DB04235370D5E70823FBE70423537005
:108DF400D0E770B50C461E4603788BB104252A448F
:108E0400A26000F10C032360836A6360204604F0CF
:108E140067FB024610B923691D443560104670BDD6
:108E24000125ECE72DE9F0418EB00D4616461C46AF
:108E3400804600282DD0002D2FD0002C31D0636A1D
:108E44000233059304F10C00A378002B2DD00121EB
:108E5400627801AF3B46082A14BF0022012204F0C5
:108E640096F80697CDF81C80B2B2ADF820200B9589
:108E740015440C9563788DF83430237B022B16D07F
:108E84000023ADF8283005A804F079F80EB0BDE849
:108E9400F0817846FFF7C0FCCDE77846FFF7BCFCCD
:108EA400CBE77846FFF7B8FCC9E70221D0E723698E
:108EB4002BB1236909931023ADF82830E3E77846F2
:108EC400FFF7AAFCF5E72DE9F04186B004460D460C
:108ED400C37D002B3ED0082605FB06F8E379AB42A0
:108EE4003AD0A5716B46324601A92046FFF781FFAF
:108EF400074648BB4DB994F84F3033B9A369C3F35F
:108F04000C03A380012384F84F30E37D7BB994F8EC
:108F14004E3063B92DBBB4F84610627823468A1AE2
:108F2400A16E0846FFF77EFF012384F84E300599B1
:108F34002046FFF721FDA16E32464144009818F007
:108F44000EF901A804F0E6FAB7FA87F0400906B072
:108F5400BDE8F0810C26BFE7B4F84660A6EB08062E
:108F6400BFE77846FFF758FCD5E770B5054690F89B
:108F74004C40002605E00136631C85F84C30013472
:108F8400E4B2EB79A3420AD3AA6C0123A3401A42A8
:108F9400F5D121462846FFF796FF0028EBD130464D
:108FA40070BDF0B587B045781544C37DDBB10B23A4
:108FB4009D4221D816460F4604466B462A4601A90F
:108FC400FFF717FF0546C0B905992046FFF7D4FC03
:108FD400E37D53B132463946009818F0C0F801A831
:108FE40004F098FA09E00F23E2E723463246009999
:108FF4003846FFF717FFF2E70925284607B0F0BD0A
:1090040010B5044690F84430012B0ED1237B012B7C
:109014000FD00C4BDB68A36303F0B8F9A16B0144D8
:1090240004F12C0003F016F910BD7846FFF7F4FBA9
:10903400ECE7A37D034AD168126902FB0313A3631F
:10904400EAE700BFA83C002038B5002400E0013462
:10905400032C13D80A4A6C2303FB042393F84430EB
:10906400012BF4D16C2505FB04252846FFF77DFF71
:109074000028ECD02846FFF7C3FFE8E738BD00BF5F
:10908400C03C002038B5044690F84430022B02D08E
:109094007846FFF7C1FB054B1D6803F077F94119CA
:1090A40004F12C0003F0D6F838BD00BFA83C002022
:1090B40038B5044690F84430022B02D07846FFF7C6
:1090C400ABFB084B5D7D5A689B6803FB052503F0E9
:1090D4005DF9411904F14C0003F0BCF8012384F854
:1090E400643038BDA83C002010B504460C4B1B6806
:1090F400806E98470023A36604F12C0003F07AF8ED
:1091040094F84430022B05D0002084F8440002F087
:1091140007F910BD04F14C0003F06CF8F4E700BF4C
:10912400603C002010B504460121FFF7C5FD204630
:10913400FFF7DAFF10BD10B58CB0044690F8443048
:10914400012B02D07846FFF767FB01238DF804302A
:10915400236D029301A800F033FF2046FFF7C4FFFC
:109164000CB010BD2DE9F04104460E4615461F46CD
:10917400531EDBB2012B46D8A36E13B17846FFF71A
:109184004BFB2E4B1B6838469847A066002852D0EC
:109194003346224606F12001D3F80080D3F804E0D8
:1091A400D3F808C0D868C2F80080C2F804E0C2F856
:1091B40008C0D060103310328B42EDD11868596862
:1091C4009B681060516093600023A364A4F8467008
:1091D400B188B069FFF7C4FBA061012D17D06FF00F
:1091E4000103A362002384F86430154B6365E465CE
:1091F400144B6363E463012002F092F884F8445052
:109204000120BDE8F0817846FFF706FBB4E70E4B7A
:109214001B7D84F84D30002384F84E3084F84F30A1
:1092240084F84C30B36A23656FF00103A362074BE3
:109234006363E463DFE70020E3E700BF583C0020FA
:10924400939D020079930200A83C002085930200BC
:1092540030B583B0C3790133C27D92B1082505FBD3
:1092640003F582B14FF48073AB422AD21E4B1B68C4
:1092740013F0040F36D01D4B1B68002B06DC0024B2
:109284002DE00C25EBE74FF4C073EDE7184BD3F852
:1092940004350195174A00924FF4177216490120BC
:1092A40004F08EFE00241AE0144C6C2303FB0244E9
:1092B4002B46022201462046FFF754FF78B90024CA
:1092C4000DE00022032A09DC0C4B6C2404FB02345D
:1092D40094F84430002BE7D00132F3E70024204611
:1092E40003B030BD0024FAE7BC330020B8330020BB
:1092F40000B00040782204006B220400C03C00202F
:1093040030B585B00D460446A8B100212046FFF7CC
:10931400D3FC2946206DFFF7A5FC2046FFF7E4FEA9
:109324000F4B1B6813F0040F03D00E4B1B68032B69
:1093340005DC05B030BD7846FFF76EFAE5E70A4B69
:10934400D3F8043594F8442002950192074A009218
:109354004FF4D2720649042004F032FEE9E700BF5C
:10936400BC330020B833002000B0004004220400C5
:109374006B22040008B508460021FFF7C1FF08BDB1
:1093840010B50C4691F84430012B09D194F84D30B6
:109394007BB9237B012B07D02046FFF7CCFE10BD01
:1093A4007846FFF739FAF1E700212046FFF7A8FFD6
:1093B400F5E7013B84F84D30002384F84C30204617
:1093C400FFF7D3FDEBE70000062900D0704770B526
:1093D40082B003460178890101F4FE5140789D78FA
:1093E400DC78240444EA05641D7944EA05245B79A5
:1093F4001C4341EA90011046FFF716FB0546B8B13D
:10940400866C2643866444B3037853B3EB795A1CC1
:1094140001239340013B9E4227D0002385F84C3022
:109424002846FFF7A2FD2846FFF7EAFD02B070BD0B
:10943400104B1B6813F0040FF8D00F4B1B68012B63
:10944400F4DD0E4BD3F804350D4A009240F2B242DB
:109454000C49022004F0B4FDE8E70321FFF750FFB4
:10946400E4E77846FFF7D8F9D0E72846FFF763FE2C
:10947400DCE700BFBC330020B833002000B000405C
:109484008C2204006B2204002DE9F04389B080464D
:109494000F4614461E4695780DB32846FFF794FBF5
:1094A4008146C8B18DF80050236A0693A38AADF8AB
:1094B4000E3004AB04F10C0292E8030083E80300CD
:1094C400A37D8DF81C30CDF80480029723788DF8A5
:1094D4000C3031466846C84709B0BDE8F083FFF751
:1094E40073FFF9E700B585B000238DF80F3098B10C
:1094F4000346084602330B600DF10F0103F043FDF0
:109504009DF80F3043B10D4B1B6813F0040F03D0CB
:109514000B4B1B68032B04DC9DF80F0005B05DF8B2
:1095240004FB084BD3F80435074A00924FF4397210
:109534000649042004F044FDEEE700BFBC330020DC
:10954400B833002000B00040CC2204006B22040099
:109554002DE9F0438FB004460E4615461F46D0F859
:109564001890037823B181884846FFF7F9F9A06180
:1095740004F10C00A378002B3AD0012162780DF19C
:1095840028084346082A14BF0022012203F0FFFCE6
:10959400C4F81890CDF8088003966378EA1A92B25A
:1095A400ADF810203244089207978DF82430002338
:1095B400ADF81830237B022B1CD0A3786BB3237B2C
:1095C400022B1BD02546002345F8243F2A46E17888
:1095D400206A0DF081F8606A98B101A9FFF782FF53
:1095E40000283AD12A46E178206A0DF075F8F2E7AE
:1095F4000221C3E71023ADF81830DEE72369059391
:10960400E0E7237B022B2CD104F10C01E0890DF05F
:1096140011F90028D3D1052020E000236362237BC5
:10962400012B0DD02146002341F8243FA08A0DF0E0
:1096340070F801A9606AFFF755FFA0B100200DE0A2
:1096440004F12401E0890DF064F801A9606AFFF7D0
:1096540049FF0028E6D0002000E000200FB0BDE85C
:10966400F0830520FAE70520F8E7000070B5F0B0B4
:109674000D4614461E4610AB0A4601462046FFF727
:1096840067FFA0B11F4B1B6813F0040F37D01E4BAC
:109694001B68052B33DD1D4BD3F804351C4A00929F
:1096A40040F221521B49062004F08AFC27E003AB58
:1096B40001228DF80C20A28AADF80E20002204921B
:1096C4008DF8142010AA06926278AD1AADF81C50D9
:1096D40008AA93E8030082E803000AAB04F10C0231
:1096E40092E8030083E80300A37D8DF83830236AF1
:1096F4000C93636A0D930F9605A800F061FC70B09B
:1097040070BD00BFBC330020B833002000B000405F
:10971400F02204006B22040010B5D47D14B9FFF7C5
:10972400A5FF10BDFFF7B0FEFBE700002DE9F043F5
:1097340085B004AF43781344C47D94B14FF480746E
:109744009C4273D3EFF3108C72B60024032C10DC0C
:109754003B4E6C2505FB046595F8445025B1013456
:10976400F4E74FF4C074EBE735466C2606FB04546B
:1097740000E00024BCF1000F00D162B6002C5AD0E6
:1097840015460E46014601222046FFF7EBFC002851
:1097940053D02A463146A06E17F0E1FC294B1B68D2
:1097A40013F0040F3AD0284B1B68032B36DD6D46AB
:1097B400B4F846E04FEA4E030833DB08A5EBC303D5
:1097C4009D460DF11008C446002312E0A26ED25C3F
:1097D4004FEA121959001D48066816F809600CF87A
:1097E400136002F00F0201310068825C0CF8012062
:1097F40001337345EAD3002308F81E30144BD3F821
:109804000435CDF80880134A0192134A00924FF4AC
:109814007C721249042004F0D3FBAD462046FFF7C6
:10982400A4FB2046FFF7ECFB002000E009200437EE
:10983400BD46BDE8F0830420F9E70420F7E700BF44
:10984400C03C0020BC330020B8330020C0330020CB
:1098540000B00040BC220400802004006B220400FD
:1098640070B504460D461646808A02F01FF801289A
:109874001AD1237BD3B1022B0BD094F91630002BD1
:1098840016DB237853B9324629462046FFF789FB75
:109894000BE02369002BF0D1102006E03246294664
:1098A4002046FFF743FF00E0102070BD1020FCE7C6
:1098B4000720FAE708B50549054800F04FF800B954
:1098C40008BD7846FEF7A8FFFAE700BFE50F0400DD
:1098D400510F040010B5FFF7EDFF4FF4D8720021CB
:1098E400134817F065FC05F0FBFC0024114B1C60C9
:1098F40040222146104817F05BFC104B104A1A60B6
:10990400104A5A604CF250329A600F49D9601A6179
:1099140004221A759C7508225A750C4803F01AFA29
:109924000B4B18600B4B1C600B4805F0DFFD10BDA2
:10993400C03C0020A43C0020643C0020A83C002043
:1099440080969800F049020020A10700499B02007C
:109954005C3C00204C3C0020918C020008B503467E
:10996400B0FA80F040090A46B1FA81F14909884207
:1099740010D14BB1EFF3108072B608490B60084B5D
:109984001A6048B962B606E0002AF3D1FFF792FFE5
:10999400002000E00E2008BD0020FCE7583C002019
:1099A400603C0020C0B110B58CB004460369B3B16B
:1099B400C369B3B18369B3B1014601A8FFF782F863
:1099C400034610B118460CB010BDA28A216901A843
:1099D400FFF746FF0346F5E70E23184670470E23AC
:1099E400F0E70E23EEE70E23ECE7D0B110B58CB010
:1099F40004464068B8B1A269BAB1207C022816D0E6
:109A0400B8B194F90020002A15DB0A46214601A8C2
:109A1400FFF7ACF8A268616801A8FFF721FF0CB05A
:109A240010BD0E2070470E20F9E70E20F7E7102036
:109A3400F5E71020F3E70720F1E70000037B012B93
:109A440001D00020704710B58AB000228388C3F388
:109A540086148DF800409B008DF801300B0E8DF8B4
:109A640002300B0C8DF803300B0A8DF804308DF89E
:109A740005100623049301238DF81830838AADF86A
:109A84001A3007928DF80820CDF80CD0036A089399
:109A94008DF81420C389ADF81630837D43B98DF851
:109AA40024206FF0010102A8FFF79FFF0AB010BD48
:109AB400024B5B7D8DF82430F3E700BFA83C002007
:109AC40038B500240BE01E4A6C2303FB0423DB7926
:109AD4005A1C01239340013B9D4228D00134032C9E
:109AE4002CD8174A6C2303FB042393F84430022B2D
:109AF400F4D16C2303FB042393F86430022BEDD1DF
:109B04006C2000FB0420816CFFF798FF0028E5D14E
:109B14000B4A6C2303FB04F3D11881F864008D6CA9
:109B2400D35C002BCFD17846FEF776FECBE7044B0F
:109B34006C2000FB0430FFF7F5FACFE738BD00BF17
:109B4400C03C002008B5FFF77FFAFFF7B9FF0120FA
:109B540008BD00002DE9F04182B007460E461446C8
:109B640098461046FEF78AFF054620B1A2888388EE
:109B74009A4210D312D82046FFF7C4F8B8B103783C
:109B84004BB123787BB1E1794B1C01219940013918
:109B94002046FFF753FF02B0BDE8F0810521FFF72F
:109BA400AFFB0025E7E77846FEF736FEEBE7002D2E
:109BB4004FD0464B1B6813F0040F03D0444B1B6873
:109BC400032B55DC2846FFF75DFA2B7B012B5DD078
:109BD400AA6CA17901238B401A42DCD11343AB64F4
:109BE400A279EB799A4259D0E37D002B61D0082306
:109BF400B34260D1AB6EA079E27D002A60D0082424
:109C04003246394604FB003017F0A9FAAC6C2B78C5
:109C1400002B57D0EB795A1C01239340013B9C4203
:109C2400B9D1022385F86430A96C2846FFF706FFF2
:109C3400044643462A46B5F84610A86EFFF76CFD65
:109C4400002CA8D1002385F864302846FFF76AFA6F
:109C5400A1E72046FFF7FCFA05460028A9D1002118
:109C64002046FFF7EBFE02210020FEF7FBFF92E700
:109C7400184BD3F80435A2790192174A00924FF495
:109C840028721649042004F09BF99BE795F8643088
:109C9400002B9DD12846FFF70BFA99E79BB2E27D92
:109CA4002AB1082203FB0263A5F84630A2E70C227E
:109CB400F8E70C239CE704212846FFF721FB6AE719
:109CC4000C249DE77846FEF7A7FDA3E7BC330020EC
:109CD400B833002000B00040E02204006B220400EE
:109CE4002DE9F0418EB000284DD00546002A4CD015
:109CF400984614460F4600220C920D920CA96088D7
:109D04000CF098FD20B9002630460EB0BDE8F08175
:109D1400226902F00102E168208905F0AFFA08B176
:109D24000026F1E7226902F00102E168208905F0CA
:109D340075FA0646C0B901AA21462846FFF712F86B
:109D440004AB0EAA12E9030083E8030002F0C0FF8B
:109D54009DF8043083B1434601AA391F281DFFF73B
:109D6400F9FE02F0D5FFCFE72169002201F00101DD
:109D74002089FEF75BFFC7E7434601AA791E681CEA
:109D8400FFF7CAFCEDE70E26BEE70E26BCE710B5CA
:109D94000C4691F84430022B0BD1022384F8643032
:109DA400A16C2046FFF74AFE10B9002384F8643002
:109DB40010BD7846FEF730FDEFE70000002959D0CA
:109DC400A0F59670072857D8DFE800F0040E1A258E
:109DD400313D454D4A68314B134431498B424DD88E
:109DE400304B1A60002070474A68A2F51233A3F57D
:109DF400F8732D498B4243D82A4B5A600020704790
:109E04004A68A2F54343503B28498B423AD8254B34
:109E14009A60002070474A68A2F54333A3F5A07303
:109E240023498B4230D81F4BDA60002070474A68C0
:109E3400A2F54333A3F5A0731D498B4226D8194BD1
:109E44001A61002070474B689A1EFD2A20D8154AD3
:109E54001375002070474B685A1E7E2A1AD8114A7F
:109E64005375002070474B68012B15D80D4A937524
:109E7400002070470E207047052070470720704768
:109E84000720704707207047072070470720704756
:109E9400072070470720704707207047806967FFD5
:109EA40080778E06A83C0020904C960030D3970013
:109EB40040899500002934D000220A604A60A0F548
:109EC400967007282FD8DFE800F004090E13181D38
:109ED4002227164A12684A6000207047134A5268C3
:109EE4004A6000207047114A92684A600020704717
:109EF4000E4AD2684A60002070470C4A12694A60D0
:109F040000207047094A127D4A6000207047074AC2
:109F1400527D4A6000207047044A927D4A600020C6
:109F240070470E2070470520704700BFA83C0020F2
:109F3400F8B500B30546164B1F68F7B90E463C4604
:109F4400B4420ED205EBC4035B68CBB115F8340000
:109F540010F0800F16D1B8B1FEF736FEB0B9013457
:109F6400EEE70C4B43F8375003EBC7035E607B1CF2
:109F7400074A136002E00E2700E004273846F8BDC4
:109F84000E27FBE70B27F9E70F27F7E70F27F5E77E
:109F94004C3C0020503C0020084B196861B110B5BE
:109FA40001E021463CB10C680B79002BF9D0034841
:109FB40003F06FFFF5E710BD704700BF743E00204B
:109FC40038B5054630B1104B1C68ACB10F4B0122BB
:109FD4001A7004E07846FEF71FFCF4E724683CB1ED
:109FE4002379002BFAD154F8043C28469847F5E726
:109FF400064B1B78022B00D038BDFFF7CDFF034B77
:10A0040000221A70F8E700BF743E0020703E002062
:10A0140010B5044630B100232372211D034803F018
:10A024000DFF10BD7846FEF7F7FBF4E7743E002001
:10A0340010B5044650B10A4B1B78013BDBB2012B2F
:10A0440008D9211D074803F024FF10BD7846FEF708
:10A05400E3FBF0E7024B02221A7001232372F4E7B8
:10A06400703E0020743E00200A8883689B5A0733A0
:10A074009BB223F0030313449BB20288043A934235
:10A0840000D900230B80704710B582B00446836862
:10A09400CB1A02A921F8023DFFF7E6FFBDF806300E
:10A0A400A068184402B010BD0088043880B270471C
:10A0B40043888268D018D152012383707047826824
:10A0C40000239370438083807047073189B221F065
:10A0D400030189B2428883889A4204D29B1A994226
:10A0E4001CDC0020704710B59A420FD90488A41ACA
:10A0F400A14215D98B4215D3032C03D98368134489
:10A1040004229A7000234380184606E082681344B0
:10A114009B784BB9FFF7D3FF002010BD0420704794
:10A124000020FAE70420F8E70420F6E738B50446EF
:10A134000D468368828813448B4202D07846FEF72A
:10A144006BFB0023AB70211D2046FFF78DFFA28817
:10A15400A36813449B78042B00D038BD0023A3804C
:10A16400FBE710B50C468368428813448B4202D047
:10A174007846FEF751FB0023A37010BD70B5064668
:10A1840015460C46002944D0002E46D0B4F1005F99
:10A1940008D94FF08053D3F80C3103F50023B4EB06
:10A1A400832F0ED3B4F5000F08D94FF08053D3F8A2
:10A1B4000C3103F50053B4EB832F02D37846FEF73A
:10A1C4002BFB6B1E2344B3F1005F08D94FF0805280
:10A1D400D2F80C2102F50022B3EB822F0ED3B3F593
:10A1E400000F08D94FF08052D2F80C2102F500522A
:10A1F400B3EB822F02D37846FEF70EFB042D10D961
:10A20400358000237380B380B460043D2580A3703F
:10A2140070BD7846FEF700FBB6E77846FEF7FCFA19
:10A22400B4E77846FEF7F8FAEAE738B50446A0B191
:10A234006288A36813449B78012B12D0A388A16879
:10A244001944EFF3108572B68B78032B0DD020469A
:10A25400FFF735FF05B962B638BD7846FEF7DCFA7C
:10A26400E6E77846FEF7D8FAE8E72046FFF70CFF62
:10A27400A368C31A638000238370EBE7F8B50E4626
:10A2840015460446C0B1DEB16288A36813449B78C6
:10A29400012B19D0E5B12046FFF706FFA84219D3D8
:10A2A40029462046FFF711FF0746A0B92946204654
:10A2B400FFF7FEFE30600EE07846FEF7ADFAE2E707
:10A2C4007846FEF7A9FADFE77846FEF7A5FAE1E754
:10A2D400092700E009273846F8BD70B50C46164634
:10A2E4000546B8B1D4B1A378012B1BD12388B3425E
:10A2F4001CD3FEB126800223A370E9182846FFF779
:10A30400B3FE6A88AB889A4203D0AB681344002238
:10A314009A7070BD7846FEF77FFAE3E77846FEF759
:10A324007BFAE0E77846FEF777FADFE77846FEF750
:10A3340073FADEE77846FEF76FFADBE738B50D46C9
:10A34400044650B16DB1A288A36813449A78022AD6
:10A354000BD0032A0ED005200BE07846FEF75CFAFA
:10A36400F0E77846FEF758FAEDE703229A702B607F
:10A37400002038BD7846FEF74FFA0020F9E710B503
:10A38400044640B1A288A36813449878022814BFF5
:10A394000020012010BD7846FEF73EFAF2E710B522
:10A3A400044618B1A088A168014407E07846FEF786
:10A3B40033FAF7E72046FFF767FE0146887803285B
:10A3C400F8D0022814BF0020012010BD38B50C4677
:10A3D400054650B16CB1A378012B0ED0032B03D1E9
:10A3E40021462846FFF7A2FE38BD7846FEF714FA48
:10A3F400F0E77846FEF710FAEDE721462846FFF726
:10A40400B0FEF1E708B5064B986800221A605A605E
:10A414009A60DA601A615A619A6104F055FD08BDC8
:10A42400783E002000B585B00A4BDB6802228DF827
:10A43400002001934FF480530293074A6946012098
:10A4440001F098F918B1002005B05DF804FB012073
:10A45400FAE700BF783E0020943E002000B585B0A6
:10A464000A4B1B6802228DF8002001934FF480539D
:10A474000293074A6946012001F07CF918B10020D3
:10A4840005B05DF804FB0120FAE700BF983E002008
:10A49400943E0020164BDA68137951795B1A03F560
:10A4A4007F2303F6FF7302EB03339A4205D002F5D0
:10A4B40080520F4BDA600320704700B585B00D4B16
:10A4C4001B6801208DF8000001930B4B03930423B8
:10A4D40002930A4A694601F04DF918B1002005B00B
:10A4E4005DF804FB024B01221A760220F7E700BF55
:10A4F400783E0020983E00209C3E0020943E0020A0
:10A5040000B585B00C4BDA680C4B1B680433012092
:10A514008DF800000192039340F6FC730293084AFD
:10A52400694601F027F928B90120034B187605B0D4
:10A534005DF804FB0020FAE7783E0020983E0020F6
:10A54400943E002000B585B00A4B1B6801208DF8AD
:10A5540000000193084B039304230293074A6946BE
:10A5640001F008F918B1002005B05DF804FB0120E2
:10A57400FAE700BF983E0020843E0020943E00206D
:10A5840010B584B0114BDA681478114B1B6804338E
:10A5940001208DF800000193039202940D4A69464C
:10A5A40001F0E8F880B90A4B1B6804F0FC041C4471
:10A5B4000434064B5C61D9680A780A441A610022A3
:10A5C4005A76012004B010BD0020FBE7783E00203D
:10A5D400983E0020943E002008B50023092B09D89A
:10A5E400064A52F82320824201D00133F6E7044A96
:10A5F400536002E07846FEF70FF908BD1C230400FF
:10A60400783E002010B5214BDB6853B11F4B1B7EF5
:10A614005BB91E4B5B68092B15D97846FEF7FCF82D
:10A6240011E07846FEF7F8F8F0E77846FEF7F4F81C
:10A63400EFE7164B00225A60012C01D0032C23D1E2
:10A64400124B1B7E03BB114B5A68114B53F822303B
:10A654009847044602280DD00328EAD00128EBD1FC
:10A664000A4A536801335360092BE5D97846FEF74B
:10A67400D3F8E1E7054B1B7E1BB1044B02221A7091
:10A68400DAE7FFF7BFFED7E710BD00BF783E002032
:10A694001C230400104B1B681B685A1E12F1030F85
:10A6A40018D8C3F30B020AB10020704710B50B4A47
:10A6B400D360002313765376012414709360084802
:10A6C400FFF78AFF0749204601F042F8FFF79AFF97
:10A6D400204610BD00207047983E0020783E0020A0
:10A6E40029A40200EDA6020008B50B78032B06D0BE
:10A6F4000B4B1B78012B06D0022B0BD008BD084B4B
:10A7040000221A76F4E7064B1B7E002BF6D1FFF7E6
:10A7140079FFF3E70B78032BF0D1FFF773FEEDE736
:10A72400783E002000B585B0174BDB6818784FF6EB
:10A73400FF7203F58051184404F08EFEF0B1024616
:10A74400114BD9680B780B44984219D00E4B5B7EA1
:10A7540093B10E4B01208DF8000001920393042362
:10A7640002930B4A694601F005F858B90120064BDB
:10A77400187605B05DF804FB064BEBE70120F8E71B
:10A784000120F6E70020F4E7783E0020502504007D
:10A79400943E00204C25040008B5104BDB68187863
:10A7A400002203F58051184404F056FE08B101203C
:10A7B40008BD0A4BDA68137951795B1A03F57F23D4
:10A7C40003F6FF7302EB03339A4205D002F580527D
:10A7D400024BDA600320EBE70220E9E7783E002031
:10A7E400F0B585B0524BDE6872793379591E8A42CE
:10A7F40000F0968006F580510D780D444D490968A6
:10A80400081D0F7907449B1A03F57F2303F6FF7392
:10A814001B0303F580531E446B88013B9BB247F630
:10A82400FE6293425CD92C4616E07846FDF7F4FFAD
:10A8340015E024F47F6424F00F0404F58054237895
:10A844001C44A64247D9A54247D26388013B9BB228
:10A8540047F6FE62934211D92388002BE5D0238862
:10A8640004EB830323F47F6222F00F029342E0D0CF
:10A874006288B2F5FE4FDCD01C46E2E725462FE0A5
:10A884007846FDF7C9FF15E024F47F6424F00F0433
:10A8940004F5805423781C44A64220D9A5423BD217
:10A8A4006388013B9BB247F6FE62934211D9238829
:10A8B400002BE5D0238804EB830323F47F6222F08A
:10A8C4000F029342E0D06288B2F5FE4FDCD01C4602
:10A8D400E2E7254604E0002502E0002500E000252B
:10A8E400E5B1144B19686A8801F58051384604F0C3
:10A8F400B3FD0746B8B101200D4B18768DF8000062
:10A9040001950D4B0393042302930C4A694600F00E
:10A9140031FF50B92C46CAE70025E1E7012000E0E9
:10A92400012005B0F0BD0120FBE70020F9E700BFDE
:10A93400783E0020983E002048250400943E0020E4
:10A944002DE9F04186B06A4B1B692BB1684B5B69FA
:10A9540033B14FF0000848E07846FDF75DFFF5E7B6
:10A964007846FDF759FFF4E77846FDF755FF15E003
:10A9740025F47F6525F00F0505F580552B781D44DA
:10A98400AE421CD9AC421ED26B88013B9BB247F647
:10A99400FE62934211D92B88002BE5D02B8805EB5E
:10A9A400830323F47F6222F00F029342E0D06A888B
:10A9B400B2F5FE4FDCD01D46E2E72C4600E0002451
:10A9C4001CB1009445E00024FAE700230093019BA6
:10A9D400002B68D14FF0010824B1628847F6FF7359
:10A9E4009A4202D1424B01225A76414B5B7E002BA4
:10A9F4007AD1B8F1000F75D13D4B5A6922F47F67C3
:10AA040027F00F07BF1A07F580571C69DE683379F2
:10AA140072799B1A03F57F2303F6FF731B0303F577
:10AA240080531E44002301936388013B9BB247F685
:10AA3400FE629342C5D92546ADE77846FDF7ECFEA4
:10AA440022E024F47F6424F00F0404F58054237876
:10AA54001C44A642BBD92388019A02EB8302974285
:10AA6400B5D9009B634023F47F6323F00F03002BCD
:10AA7400ADD16388013B9BB247F6FE618B42A6D8F9
:10AA840001922388002BD8D0238804EB830323F47A
:10AA94007F6222F00F029342D3D06288B2F5FE4F58
:10AAA400CFD01C46D5E7124A526901208DF8080020
:10AAB4000392009A059204930E4A02A900F05AFEEA
:10AAC40070B90B49019B23F003024B6913444B619A
:10AAD40014B1074B1C617FE77846FDF79DFEF8E74C
:10AAE400002002E0012000E0012006B0BDE8F08172
:10AAF400783E0020943E002008B54FF010235B6997
:10AB0400B3F1FF3F03D04FF010235B6963B94FF0FB
:10AB140080525169136903FB01F3A3F58053054A7D
:10AB24001360FFF7B7FD08BD4FF010235B69A3F571
:10AB34008053F2E7983E0020024B1878003018BF8B
:10AB440001207047783E002010B504460E4B1B7858
:10AB5400ABB92378032B02D07846FDF75DFE0A4B90
:10AB64009C60E268DA6000225A601A76012018704C
:10AB74005A76064900F0ECFDFFF744FD10BD784617
:10AB8400FDF74AFEE5E700BF783E0020EDA602008F
:10AB9400014B1868704700BF983E002010B504466A
:10ABA40080B163681BB123680BB1A36813B97846FD
:10ABB400FDF732FEA3685A1E134207D10023E36057
:10ABC400236110BD7846FDF727FEEAE77846FDF7D6
:10ABD40023FEF3E7F8B5F8B10446F9B18268FAB197
:10ABE400EFF3108572B6026980680244E668B242E7
:10ABF40003D1C5B962B6042513E027686368013838
:10AC040030401A4600FB037016F0A9FAE3680133DA
:10AC1400E36055B962B604E00E2502E00E2500E0BB
:10AC240009252846F8BD0425FBE70025F9E770B59A
:10AC3400F0B104468268EAB1EFF3108572B6066992
:10AC4400C268964210D0084621686268A368013B36
:10AC54001E4006FB021108B116F081FA2369013384
:10AC6400236165B962B606E03DB962B6052502E026
:10AC74000E2500E00925284670BD0525FBE70025C3
:10AC8400F9E70000C0F30B0333BB39B301F6FF71DE
:10AC9400090B134B0222C3F80425114BD3F80034DB
:10ACA400002BFAD000220AE00D4BC3F808050C4B28
:10ACB400D3F80034002BFAD000F5805001328A42D8
:10ACC400F2D3074B0022C3F80425054BD3F8003414
:10ACD400002BFAD0002070471020704709207047DD
:10ACE40000E0014010F0030F2FD111F0030F2FD11A
:10ACF40082B312F0030F2FD110B49208174B012422
:10AD0400C3F80445154BD3F80034002BFAD002E005
:10AD1400043004312246541E52B10B68B3F1FF3F94
:10AD2400F6D003600D4BD3F80034002BFAD0EFE7D4
:10AD34000A4B0021C3F80415084BD3F80034002B48
:10AD4400FAD010465DF8044B704710221046704745
:10AD54001022FBE70922F9E70922F7E700E00140A6
:10AD640001800023438042607047000038B5124CD4
:10AD74004FF480552A460021204616F019FA0F4B4D
:10AD84001C600AE0002228212046FFF7E9FF2388FF
:10AD9400083323446360303D1C46502DF2D8083DEF
:10ADA40005D00022A9B22046FFF7DAFF38BD784665
:10ADB400FDF732FDF5E700BFA03E0020A04E0020C5
:10ADC40008B508220221084803F0FFFE38B1074AFB
:10ADD40091684160127B027203F030FF08BD0448A1
:10ADE40004F04AF8FAE700BFAC4E0020F44E00200D
:10ADF4007C3300200E4B1B78CBB910B50D4B5C682F
:10AE040004F50054B4F1807F00D910BD042201215F
:10AE1400094803F0DAFE30B14460054A012111709B
:10AE240003F00CFFF1E7054804F026F8EDE770475E
:10AE3400084F0020F44E0020AC4E00206C3300205C
:10AE440010B5044608B1A04710BD7846FDF7E4FCF0
:10AE5400F9E7000008B501210B4803F017FF20B9FA
:10AE64000221094803F012FF28B1084804F004F84D
:10AE7400FFF7C0FF08BD064B00221A605A609A60B3
:10AE8400DA601A61F4E700BFAC4E00209C33002066
:10AE9400F44E002000B58DB004918DF80820039085
:10AEA4000CA8022300F82C3DFFF78AF80DB05DF8DA
:10AEB40004FB000010B58CB00C4682B94B88012B02
:10AEC40020D1134B1B7833B16268124B5A60104B7C
:10AED40000221A7016E07846FDF79EFCF4E7032A78
:10AEE40012D12C22002101A816F062F910238DF84A
:10AEF40004300394084BDA6805921B69069301A891
:10AF0400FFF75EF80CB010BD7846FDF785FCE8E766
:10AF1400084F0020F44E0020AC4E002038B503F05A
:10AF2400C3FF28B901F09EFF0028F8D020BFF6E740
:10AF340001F0CEFE002211461A4803F0A0FD0025C0
:10AF44002C4605E0051D02460021164803F097FD36
:10AF540030B14388012BF5D0022BF4D1041DF2E764
:10AF6400A4B19DB12268104B9A6022791A73AC4245
:10AF740001D9237993B12A680B4B1A600A4B1A68DA
:10AF84005A60FFF737FF01F0C3FE38BD064B0022BD
:10AF94001A609A601A73FFF713FFEFE7024B00225F
:10AFA4001A60EBE7AC4E0020F44E002008B503F025
:10AFB400BDFFA0F5805008BD00B587B00023009305
:10AFC40001930293039304930593FFF7EFFF00901B
:10AFD40001230193064B03936946064803F006FFD9
:10AFE40010B907B05DF804FB034803F045FFF8E728
:10AFF400B9AE0200AC4E00208C33002038B50F4BA4
:10B0040000241C605C609C60DC601C6101F0BEF983
:10B014000B4D68600B4BAB600B4BEB602C616C61B0
:10B024000A4B1C700A480B4B036000F0F9FD2846DC
:10B0340001F0AEF8FFF7C0FF38BD00BFF44E0020AA
:10B04400D04E002025B2020000879303094F002050
:10B05400E84E0020F9B1020038B501F039FE174B73
:10B064001B7B13BB154B9B7B23BB144B1A8A41F2EE
:10B0740082639A4204D8124B1B78A3B1012300E0E7
:10B084000123CBB10D4D01232B7300242C82AB681B
:10B094000133AB60FFF794FEA9682A7B013920468F
:10B0A400FFF7F8FE02E00023EBE7082401F030FE8E
:10B0B400204638BD0824F9E70824F7E7F44E0020B9
:10B0C400094F002010B501F003FE214B5B7B9BB1BF
:10B0D4001F4B9B7BF3B91E4B1A8A41F282639A423F
:10B0E40004D81C4B1B782BB1012300E001239BB136
:10B0F400012302E00023FAE700231C461BB3144B90
:10B1040000225A731B7B4BB1012B0ED07846FDF7FE
:10B1140083FB18E00023F0E70023EEE7FFF79CFF32
:10B1240088B17846FDF778FB0DE0094B00201860E4
:10B1340058601873188202469968FFF7ABFEFFF750
:10B144003FFEFFF757FE01F0E3FD204610BD00BFB0
:10B15400F44E0020094F002038B5254B1B7B002BF3
:10B1640036D10446224B5B8A33BB1AB9204B9B6809
:10B174008B4205D302B31E4B9B6801338B421BD217
:10B184001B4B9B682A338B4224D3194B9B7B0BBBF1
:10B19400174DA9602B606B602B8242F606526A82BF
:10B1A4006B732B73FFF70CFEFFF724FE2A7BA96851
:10B1B4002046FFF76FFE0DE062B10D4B9B68013333
:10B1C4008B4207D10A4B01225A73FFF77BFF01E040
:10B1D400012B00D038BD002AFCD1054B9B688B4263
:10B1E400F8D1034B01225A73FFF76CFFF2E700BF5B
:10B1F400F44E00200378042B00D0704743681B787A
:10B20400002BFAD010B58468027E437E012A14BF55
:10B2140000220122416904F11000FFF79DFF10BDD7
:10B2240008B5214B1B7B7BB1012B20D07846FDF761
:10B23400F3FA1D4A138A013313821B4B5B8A13B141
:10B24400013B194A538208BD174B1A8A41F28263A3
:10B254009A4204D8154B1B783BB1012300E001232B
:10B26400002BE6D0FFF72EFFE7E70023F8E70E4BAD
:10B274001B8A41F28262934204D80C4A127872B15A
:10B28400012200E00122002AD3D042F2B0129342FC
:10B2940007D9054B01225A73FFF714FFCDE70022AB
:10B2A400F1E7FFF70FFFC4E7F44E0020094F002039
:10B2B40010B5184B1A685B689A4225D20446154BA0
:10B2C4001B7B012B13D0144B9A4212D2114B1A68D8
:10B2D4005B68403B9A4214D2EFF3108072B60D4A79
:10B2E4001368591C1160236090B962B610BD0B4BF2
:10B2F400EAE7084B01225A73FFF7E4FE0028EBD17A
:10B30400E4E7FFF777FDE7E7FFF774FD0F20EDE7CC
:10B314000020EBE7F44E0020FFFF7F0000E0FF0079
:10B3240008B568B90C4B1B6893B10B4A1368013B11
:10B33400136063B9094B00229A73FFF7C3FE06E05A
:10B34400064B01229A73044A13680133136008BD43
:10B354007846FDF761FAE8E7A84E0020F44E002095
:10B3640000B58DB0ADF808008DF8102003910CA83D
:10B37400032300F82C3DFEF723FE0DB05DF804FB1B
:10B38400014B9868704700BFF44E0020054B1B7BAF
:10B39400012B02D0034B98687047024B9868013820
:10B3A400704700BFF44E0020044B9B68584010F0D7
:10B3B400010F00D0013B1846704700BFF44E002037
:10B3C400014B187B704700BFF44E002038B50A4B80
:10B3D4001B7873B9084B01221A70084DA8602973B1
:10B3E400FFF7EEFC00242C606C60FFF703FD2046A1
:10B3F40038BD0820FCE700BFA44E0020F44E002016
:10B404002DE9F041002724E02449BC2303FB04F385
:10B41400CA5A0132CA520221284602F081FB01367F
:10B424000221284602F04CFB80B11C4ABC2303FBDA
:10B434000423D3F80880B8F1000FE5D0BC2303FB44
:10B4440004F3D25A01463846C047DDE78EB90137C6
:10B45400FFB2022F1FD83C46BC2303FB07F308337B
:10B464000E4D1D4404350221284602F029FB002616
:10B47400DAE70021284602F0BBFB0828E7D1074B96
:10B48400BC2202FB0434A368002BE0D00022044950
:10B4940038469847DBE70120BDE8F081144F0020CF
:10B4A4004423040008B5082383731023437300F175
:10B4B4001C0343610323037300F1180303610C307D
:10B4C40002F068FB08BD000008B50378012B06D024
:10B4D400022B07D07846FDF79FF9002001E04FF4D6
:10B4E400A97008BD0048FCE7645E010008B5027855
:10B4F400012A07D0022A13D07846FDF78DF94FF4BC
:10B50400FA7308E083685B1A98084FF4A97303FB85
:10B5140000F303F5FA730748984228BF184608BD9C
:10B5240083685B1A180B044B03FB00F303F5FA73EF
:10B53400F1E700BFA0860100645E010010B5044677
:10B5440001210C3002F0BCFAA0B10D4AC4F89C20D1
:10B554000022C4F8A0206168FFF7C8FFC4F8A8005F
:10B56400C4F8AC40012384F8B83004F19C000BF01B
:10B57400B1FE00B910BD7846FDF74EF9FAE700BFF9
:10B5840085B60200F8B506460C46174615680378DA
:10B59400012B18D11249A1FB0431C9098900B468EF
:10B5A400641B8C4200D30C468CB1706825F00305F3
:10B5B400F168224629442844FFF794FB58B93B68B4
:10B5C4001C443C60F8BD7846FDF726F9E2E778466E
:10B5D400FDF722F9E9E77846FDF71EF9EFE700BF2A
:10B5E400EB5DF260F8B507460C461646156803781D
:10B5F400022B16D1114BA3FB04231B0C1B03BC68A9
:10B60400641B9C4200D31C467CB1786825F003057A
:10B6140021462844FFF736FB58B933681C4434608C
:10B62400F8BD7846FDF7F8F8E4E77846FDF7F4F856
:10B63400EBE77846FDF7F0F8EFE700BFB77609BB14
:10B6440038B505460C4611462378012B06D0022B4B
:10B654000FD07846FDF7E0F8002304E0021D2046F1
:10B66400FFF790FFA3686868984214BF0020012088
:10B6740038BD021D2046FFF7B5FFA368F3E70000BD
:10B684002DE9F8430F46D1F8A850234B1B7863B932
:10B694000646A5F5FA7501F10C090121484602F0A8
:10B6A4000FFA804640B1002422E00BF04FFE002345
:10B6B40087F8B830BDE8F8837846FDF7ADF8F2E7CF
:10B6C4000BF044FE0121484602F02AFA00237B6075
:10B6D40087F8B830114B186801F05CFB3846FFF767
:10B6E4002DFFE7E74046FFF7EFFE2044A8420CD8C1
:10B6F4002A1B41463846FFF7A3FF0028E0D100F09B
:10B7040045FE841BEED5341AECE70BF01FFE3846D9
:10B71400FFF714FFCEE700BF104F00200C4F0020AE
:10B7240010B5084801F016FB074B1860002406E02A
:10B73400064BBC2000FB0430FFF7B4FE0134022C9E
:10B74400F6D910BD05B402000C4F0020144F0020A0
:10B7540038B504460D46022805D8054BBC2202FB29
:10B764000434A56038BD7846FDF756F8F5E700BF08
:10B77400144F00202DE9F84306460C4617460228CC
:10B7840016D8CCB12378012B1AD0022B3ED1636892
:10B79400C3F30B03002B31D1A368C3F30B03002BBA
:10B7A40030D1A368002B34D17846FDF735F830E06A
:10B7B4007846FDF731F8E4E77846FDF72DF8E1E740
:10B7C400636813F0030F0DD1E36813F0030F0DD179
:10B7D400A36813F0030F0DD1A368D3B97846FDF71E
:10B7E4001BF816E07846FDF717F8EDE77846FDF705
:10B7F40013F8EDE77846FDF70FF8EDE77846FDF727
:10B804000BF8C9E77846FDF707F8CAE77846FDF76D
:10B8140003F8EFF3108872B6BC2505FB06F505F1B5
:10B824000803204D1D4404350021284602F048F940
:10B83400814668B30021284602F072F920686168E5
:10B84400A268E368C9F80000C9F80410C9F8082020
:10B85400C9F80C302FB1134ABC2303FB06235B88C1
:10B864003B80104ABC2303FB06235A8801325A80CA
:10B8740093F8B83073B90C4B1B780BB100200AE075
:10B88400084BBC2000FB0630FFF758FE002002E006
:10B89400042000E00020B8F1000F00D162B6BDE83A
:10B8A400F88300BF144F0020104F002018B1830B01
:10B8B400024AD05C70470020704700BF5423040044
:10B8C40012DF704700B583B01378A3B1042B14D1F1
:10B8D400072110F8013C163B152B31D8DFE803F0A3
:10B8E400593030303030303030303030303030302B
:10B8F4003030302E0F3A517DEBE70021E9E7022981
:10B9040001D007291CD110F8021C013901F068FE8E
:10B91400B0B1264B1B6813F0400F11D0244B1B68A9
:10B92400012B0DDD234BD3F804350190224A0092FC
:10B934008C222249022002F043FB01E0022902D0BA
:10B9440003B05DF804FB10F8021C0139C9B211F010
:10B95400F1FFF5E70229F3D110F8021C0139C9B24D
:10B9640003F0ECFC0028EBD0104B1B6813F0400FE5
:10B97400E6D00F4B1B68012BE2DD0E4BD3F80435E8
:10B9840001900F4A00929F220C49022002F018FBFA
:10B99400D6E701884FF6E4639942D1D110F8021C2E
:10B9A40003390230FCF788FECAE700BFBC3300202D
:10B9B400B833002000B00040C0230400B3230400C7
:10B9C400EC23040000B58DB02C22002101A815F051
:10B9D400EFFB0D238DF8043001A8FEF7F1FA0DB04A
:10B9E4005DF804FB70B58AB00CF0F4F958B3064660
:10B9F40000238DF8103005AC05460FCD0FC42B681D
:10BA04002360727D052A04D9337D03F00F03072BCD
:10BA140020D1184B1B689BB104AB0393337DC3F354
:10BA240003038DF80430737D062B1DD9063B8DF876
:10BA3400053006F11D0302930E4B1B6801A89847BD
:10BA440030460CF0A7F90CF0DFF980F00100C0B229
:10BA54000AB070BD307D04AB063A06F11D0100F05A
:10BA64000F000AF08BFFD4E700238DF80530029312
:10BA7400E2E700BF4C51002070B582B0304B1B7818
:10BA8400002B55D1002857D0067A0F2E01D0072E4F
:10BA940054D10446C06870B1FCF7E8FE0DF107000C
:10BAA400FFF70EFF0546002843D19DF80730012B10
:10BAB40004D002253DE0FCF7E7FEEFE7FCF7FAFED1
:10BAC40000F052FB304601F0CBF8E07800F032F998
