:020000022000DC
:1060000000F0002035620200656202006762020053
:10601000696202006B6202006D6202000000000013
:106020000000000000000000000000006F6202009D
:1060300071620200000000007362020075620200DB
:10604000796202007B62020041B503007F620200B8
:106050008162020083620200C18302007DAF0300FF
:10606000896202008B620200AD7003008F62020041
:106070009162020093620200956202009762020040
:106080009962020021A90300EDCD02009F62020087
:1060900049A90300A3620200D19E0300A762020087
:1060A000A9620200AB620200AD620200AF620200B0
:1060B000B1620200B36202007762020077620200FE
:1060C000B5620200B7620200B9620200BB62020060
:0C60D000BD620200BF620200C16202005B
:1060DC00354936480A1A02D0072291438D46344975
:1060EC0034480A1A06D00722914381F30988022208
:1060FC0082F3148830483149314A00F043F8314872
:10610C003149324A00F03EF831483249324A00F007
:10611C0039F832483249334A00F034F832483349BE
:10612C00334A00F02FF833483349344A00F02AF848
:10613C0033483449344A00F025F8344834490022B5
:10614C0000F02BF833483449002200F026F833488D
:10615C003349091A082903DB00220260043001606C
:10616C001F482049884205D00268043003B4904788
:10617C0003BCF7E700208646EC4600200021294AA4
:10618C009047FEE7884207D0521A05D003780130B9
:10619C000B700131013AF9D17047884202D002707C
:1061AC000130FAE77047000000F0002000E8002002
:1061BC0000F0002000F00020A8340400C8320020B9
:1061CC00AC340020C4620200C4620200F017040068
:1061DC00A8340400C8320020C83200202018040063
:1061EC0020180400201804002018040020180400B3
:1061FC00201804002018040020180400A8340400FF
:10620C008C360400AC340020AC340020AC340020BC
:10621C009C6C00209C6C00209C6C00209C6C0020D2
:10622C009C700020F17E020008484FF00701884363
:10623C008546074880470748016841F470010160B2
:10624C00BFF34F8FBFF36F8FFFF742BF00F00020FB
:10625C0029AD030088ED00E0FEE7FEE7FEE7FEE770
:10626C00FEE7FEE7FEE7FEE7FEE7FEE7FEE7FEE7FA
:10627C00FEE7FEE7FEE7FEE7FEE7FEE7FEE7FEE7EA
:10628C00FEE7FEE7FEE7FEE7FEE7FEE7FEE7FEE7DA
:10629C00FEE7FEE7FEE7FEE7FEE7FEE7FEE7FEE7CA
:1062AC00FEE7FEE7FEE7FEE7FEE7FEE7FEE7FEE7BA
:0862BC00FEE7FEE7FEE700BF6C
:1062C40076DF70477ADF70477CDF704741DF7047C5
:1062D4001C4B1B78F3B910B41B4B5C78194B1C7026
:1062E400184B1B78934205D901280AD0164B998084
:1062F400144B1A70144B1B78052B07D05DF8044B14
:106304007047114B99800F4B1A70F3E70D4B002225
:106314001A70F3E70B4B1B78934205D9012808D078
:10632400094B9980074B1A70074B1B78052B05D036
:106334007047054B9980034B1A70F5E7014B002217
:106344001A707047CA3400208436002008B505F05E
:10635400C5FB08BD30B587B005460C46002318467A
:1063640001E00133DBB294490978994206D3934999
:1063740031F813109142F4D10120F2E700BB8F4BA6
:1063840023F811200131C9B28B4B19708C4B5B7A05
:106394006BB18C4BB3F90030993B8B4A82FB0302FF
:1063A400DB17C3EBA20351FA83F1884BD970884BF6
:1063B4001B6813F4804F03D0864B1B68032B20DC2F
:1063C4007F4B5B7A002B00F09980804B9B78A34233
:1063D40026D27E4B9C701D807D4B1B6813F4804F2E
:1063E40020D07C4B1B68032B1CDD7B4BD3F804357E
:1063F4007A4A009240F25B127949042007F03AFD90
:1064040010E0754BD3F80435704AD2780192754A7E
:10641400009240F24F127249042007F02BFDCFE79F
:10642400A3421ED0694AD3789278934235D9674AF9
:106434009370634BDB881380654B1B6813F4804FA8
:106444002DD0644B1B68032B29DD634BD3F8043533
:10645400654A009240F26D126149042007F00AFD7A
:106464001DE05A4B1B88AB42DCD9584B9C701D80F5
:10647400574B1B6813F4804FD4D0564B1B68032B27
:10648400D0DD554BD3F80435584A00924FF4B2721C
:106494005349042007F0EEFCC4E7934210D04C4B60
:1064A4001B6813F4804F03D04A4B1B68032B5FDC3B
:1064B400434B1B78033BDBB2012B6FD907B030BDD4
:1064C4003F4AD288414909888A42E8D23F498B70C1
:1064D4000A803F4B1B6813F4804FE0D03D4B1B6890
:1064E400032BDCDD3C4BD3F80435414A00924FF4D6
:1064F400BB723B49042007F0BDFCD0E7334B9B78CB
:10650400A34217D2314B9C701D80314B1B6813F48E
:10651400804FC4D02F4B1B68032BC0DD2E4BD3F808
:106524000435344A009240F281122D49042007F0C8
:10653400A1FCB4E7A342B2D1244B1B88AB42AED931
:10654400224B9C701D80224B1B6813F4804FA6D0F5
:10655400204B1B68032BA2DD1F4BD3F80435264ABE
:10656400009240F28B121E49042007F083FC96E748
:10657400194BD3F80435154A11889078104CE488E7
:10658400D27804920394029001911C4A00924FF431
:10659400C9721349042007F06DFC89E70023064AF9
:1065A400137005E0054A002122F813100133DBB211
:1065B400092BF7D982E700BFC8340020B03400208B
:1065C40084360020AC34002067666666C43400203C
:1065D400BC330020B833002000B00040781A040017
:1065E400471A0400501A0400801A04007C1A04009C
:1065F400841A0400881A04008C1A0400901A0400F7
:106604000D4B1B6813F4804F03D00C4B1B68032BFA
:1066140000DC704700B583B0094BD3F80435019210
:10662400084A009240F2F2220749042007F022FCB3
:1066340003B05DF804FB00BFBC330020B833002076
:1066440000B00040781B0400471A040000B583B072
:10665400012930D0B1B1022943D02D4B1B6813F46A
:10666400804F18D02B4B1B68002B14DD2A4BD3F81A
:1066740004352A4A009240F2CD222949012007F02C
:10668400F9FB08E0224B1B6813F4804F03D0214B25
:106694001B68032B02DC03B05DF804FB1E4BD3F82C
:1066A400043501921F4A009240F2B7221C4904208B
:1066B40007F0E0FBEFE7164B1B6813F4804FEAD0BA
:1066C400144B1B68032BE6DD134BD3F804350192FE
:1066D400154A009240F2BF221149042007F0CAFB78
:1066E400D9E70B4B1B6813F4804FD4D0094B1B68BC
:1066F400012BD0DD084BD3F8043501920B4A0092EC
:1067040040F2C6220649022007F0B4FBC3E700BFEB
:10671400BC330020B833002000B00040641B0400E8
:10672400471A0400081B0400241B0400401B040037
:106734000C4B1B6813F4804F13D00B4B1B68002BBE
:106744000FDD00B583B0094BD3F80435084A009235
:1067540040F2AD220749012007F08CFB03B05DF83D
:1067640004FB7047BC330020B833002000B0004065
:10677400E81A0400471A040000B583B09DF80430F9
:10678400012262F3030362F3071302A800F8043D35
:106794000A220549FFF798FD10B903B05DF804FB20
:1067A40012F03DFFF9E700BF941B040008B512F096
:1067B40036FF08BD00B583B0037823B1012B0BD09D
:1067C40003B05DF804FB3B214088FFF779FD002806
:1067D400F6D012F024FFF3E70A4B1B6813F4804F42
:1067E400EED0094B1B68032BEADD084BD3F80435C4
:1067F400074A009240F285320649042007F03AFB2A
:10680400DEE700BFBC330020B833002000B00040F6
:106814004C1D0400471A040000B58BB00023ADF8EA
:1068240008307823ADF80430C823ADF806304FF4AF
:10683400C873ADF80A3001A8FFF744FDC0B90023BE
:106844000693079301AB039340F6CD4304934FF4AF
:106854008033059303238DF81830084B0893084BB5
:10686400099303A813F048FD28B90BB05DF804FBA5
:1068740012F0D5FEE3E712F0D2FEF6E7B9670200A4
:10688400B167020008B500224FF42031034814F028
:10689400A3F800B908BD12F0C2FEFBE7E035002002
:1068A40008B5034B01221A70FFF7ECFF08BD00BFC7
:1068B400CE34002008B500224FF42031034814F0F0
:1068C4008BF800B908BD12F0AAFEFBE76036002081
:1068D40038B50D4614460F4B1B786BB10E4B1B7825
:1068E400A34204D90C4B1C700C4B9C709D800B4B29
:1068F4001B78052B06D038BD064B01221A70FFF712
:10690400D9FFEBE7034B00221A70034BFF221A70E6
:10691400F1E700BFCB3400204B3300208436002045
:1069240008B500224FF42031034814F055F800B99B
:1069340008BD12F074FEFBE72036002000B583B0DA
:106944000F4B1B6813F4804F03D00E4B1B68032BB3
:106954000ADC0322C8214FF4F01001F0B3FC09F063
:10696400E7FD03B05DF804FB074BD3F80435074A91
:10697400009240F2F9220649042007F07BFAE8E786
:10698400BC330020B833002000B00040301D0400A8
:10699400471A040010B582B00446204B1B6813F458
:1069A400804F03D01E4B1B68032B05DC032C32D80D
:1069B400DFE804F00F19232D1A4BD3F804350190A6
:1069C400194A009240F209321849042007F052FA99
:1069D400ECE7002240F26661154813F0FDFFD0B1E8
:1069E40012F01DFE17E0002240F6CD41104813F0CE
:1069F400F3FF80B112F013FE0DE000224FF480414A
:106A04000B4813F0E9FF30B112F009FE03E009F07E
:106A140035FDFFF793FF02B010BD00BFBC3300206B
:106A2400B833002000B0004054190400471A040091
:106A3400B83500203038032800D9704708B5FFF76F
:106A4400A9FF08BD08B503781C2B00D008BDFFF7CB
:106A540075FFFBE700B583B001A80EF039FDBDF862
:106A6400040003B05DF804FB2DE9F04188B004AFE5
:106A74006421414801F0B2FB09F050FDE8B93F4BF5
:106A84001B7833BB3E4A3B1D07CA83E80700184600
:106A940001F03EFBB8B901F063FE3A4B1B6813F4F6
:106AA400804F59D0384B1B68032B55DDE8468AB01C
:106AB4000DF1100C6646002339E0344A40F2BD5112
:106AC40014F04CFADBE7314A40F2C55114F046FAAF
:106AD400E1E7FFF7BFFF2E4BD8802E4B01221A703F
:106AE400284B1B6813F4804FD5D0274B1B68032B0E
:106AF400D1DD294BD3F804350190284A009240F2A5
:106B0400CC522749042007F0B5F9C4E7C25C4FEA28
:106B1400121E5900234C256815F80EE006F813E000
:106B240002F00F0201312468A25C725401330F2B6E
:106B3400ECD900238CF82030174BD3F80435CDF86A
:106B440008C0194A0192194A00924FF4BA621449D2
:106B5400042007F08FF9C54600214FF4F01001F02E
:106B6400A6FB0222C8214FF4F01001F0ABFB103752
:106B7400BD46BDE8F08100BF396A0200003600203E
:106B840020180400BC330020B8330020E0190400AE
:106B9400843600208036002000B000407C1E0400B3
:106BA400471A0400C0330020941E0400A41E0400ED
:106BB40000B583B0214B1B6813F4804F03D0204BE6
:106BC4001B68032B21DCFFF7D7FDFFF725FEFFF73A
:106BD40041FF1C4BD8801C4B01221A70174B1B68B9
:106BE40013F4804F03D0164B1B68032B19DC0021D0
:106BF4004FF4F01001F05BFB0422C8214FF4F010B5
:106C040001F060FB03B05DF804FB104BD3F80435CE
:106C14000F4A00924FF48E720E49042007F02AF9AD
:106C2400D1E70A4BD3F8043501900B4A00924FF494
:106C340093720849042007F01DF9D8E7BC330020FB
:106C4400B8330020843600208036002000B0004095
:106C5400781D0400471A04007C1E040010B582B09D
:106C64000C460E4B1B6813F4804F03D00C4B1B686F
:106C7400032B06DC224601210A4819F0FDFE02B06E
:106C840010BD094BD3F804350191084A00924FF422
:106C94003B720749042007F0EDF8EBE7BC33002012
:106CA400B83300200436002000B00040781B0400F4
:106CB400471A04002DE9704889B004460D46604B1C
:106CC4001B785BB15E4B00221A705E4B1B6813F499
:106CD400804F03D05C4B1B68032B4ADC5B4B0022C8
:106CE4001A725B4B1B78002B5BD0052D59D9554B81
:106CF4001B6813F4804F03D0534B1B68032B44DCF5
:106D0400524B02221A700024514B1C70C5F128000A
:106D1400C2B20023900010EB020B44EB030C4FEAC9
:106D2400CC0545EA5B754FEACB06B01A65EB030167
:106D34000D0145EA107506012946B51841EB030615
:106D4400B30443EA9533AA0415461E464FF47A72F7
:106D5400002315F5FA7046F1000119F08BFF224665
:106D640001463C4813F038FE00284FD012F057FC7F
:106D74004CE0394BD3F80435384A009240F23D4296
:106D84003749042007F076F8A8E7334BD3F80435E5
:106D9400344A009240F246423149042007F06AF82E
:106DA400AEE731480FF0EAFE284B5C702F4B1C779E
:106DB4005D77244B1B6813F4804F03D0224B1B6870
:106DC400032B26DC1E2128480FF001FF0646C8B11C
:106DD400264C0FCCC6F81100C6F81510C6F81920B9
:106DE400C6F81D3007CCC6F82100C6F82510C6F831
:106DF40029202388A6F82D30FF23337131461A4801
:106E04000FF024FF1A4A13780133137009B0BDE858
:106E14007088114BD3F80435144A117E507E967E47
:106E2400D27E069505940492039602900191114A2C
:106E3400009240F261420A49042007F01BF8C1E7BE
:106E44004C330020BC330020B833002084360020AB
:106E54004A3300204036002000B000403C180400B3
:106E6400471A04005418040010350020CC320020C6
:106E7400CD340020781804002DE9F0479AB008AF0B
:106E84000446864B1D7881684A6891F90D30007874
:106E9400CE7B91F810C091F811E091F8128091F82E
:106EA4001390097D0691CDF81490CDF81080CDF89B
:106EB4000CE0CDF808C0019600907949381D1AF00D
:106EC4005BF8A36893F90D20764B1B78CBB112F1D4
:106ED4005E0F16DB63685A7AE22A16D063685A7A20
:106EE400882A36D063685A7A022A00F0F5806368EB
:106EF4005A7AF82A00F0528163685A7A382A00F0E4
:106F0400D7814837BD46BDE8F0879A7A1F2AE5D174
:106F1400DA7AC42AE2D11A7B9B2ADFD15A7BDA2A95
:106F2400DCD15B7F002BD9D15F490B780133DBB215
:106F34000522B3FBF2F202EB82029B1ADBB20B7066
:106F4400002BCBD1554BDA880121584819F094FD18
:106F5400C4E79A7A1B2AC5D1DA7AA12AC2D11A7B4C
:106F6400B42ABFD1597F524A12789142BAD91A7FB2
:106F7400504B1B789A42B5D84F4B1B6813F4804F83
:106F84003ED04E4B1B68032B3ADD6E4694F801C08D
:106F94004FEA4C03083303F47E73ADEB030D08A9E9
:106FA4008846002318E06268D25C4FEA121A4FEA5E
:106FB400430EDFF82091D9F8000010F80A0008F811
:106FC400130002F00F020EF10100D9F800E01EF8E0
:106FD400022008F8002001336345E4D3002301F8BC
:106FE4001C30374BD3F8043502913A1D0192354ACF
:106FF400009240F21B223449042006F03BFFB546C0
:1070040063681A7E12B95A7E0C2A17D02A4B1B6861
:1070140013F4804F03D0294B1B68032B32DC6268C6
:10702400137F24490B70517F214A11701B4A0120A0
:1070340050720344D8B2FFF73DFE53E79A7E022A0A
:10704400E4D1DB7E0B2BE1D11B4B1B6813F4804F87
:107054000ED01A4B1B68032B0ADD194BD3F80435E9
:107064001A4A009240F222221749042006F002FF35
:107074006368187F0F4A1070597F0D4B1970FFF722
:1070840019FE2FE70E4BD3F80435114A009240F253
:1070940029220D49042006F0EDFEC0E784360020C5
:1070A400941D0400803600208E3600200436002013
:1070B40081360020C8320020BC330020B8330020C1
:1070C40000B00040A41E0400471A0400DC1D0400A4
:1070D400E01D0400C03300209A7A562A7FF407AFDB
:1070E400DA7AF62A7FF403AF1A7BDE2A7FF4FFAE46
:1070F4005A7BDE2A7FF4FBAE5A7E002A7FF4F7AE79
:107104009A7E0C2A7FF4F3AEDA7E022A7FF4EFAE85
:107114001B7F0B2B7FF4EBAE052D18BF022D7FF4E4
:10712400E6AEA94B1B785BB10121132001F0AEF848
:10713400A54B00221A70A54813F06CFCFFF7A2FBC4
:1071440063689A7BDE7B46EA02265A7C93F81280B7
:1071540048EA02289E4B1B6813F4804F11D09D4BC4
:107164001B68032B0DDD9C4BD3F80435CDF8088048
:1071740001969A4A00924FF414729949042006F039
:1071840079FE2EB163684246197C3046FFF7E2F877
:10719400052D7FF4ACAEFFF775FBA8E69A7A442A76
:1071A4007FF4AAAEDA7A7E2A7FF4A6AE1A7B272A67
:1071B4007FF4A2AE5A7B702A7FF49EAE9A7BCC2ACF
:1071C4007FF49AAEDA7B642A7FF496AE1A7CD82ACE
:1071D4007FF492AE5A7C352A7FF48EAE9A7CBB2A19
:1071E4007FF48AAEDA7C0C2A7FF486AE1A7DE02A1C
:1071F4007FF482AE012D3FF47FAE022D3FF47CAECE
:10720400052D3FF479AE5A7E9E7E46EA02265A7DCB
:107214001ABB9A7D0C2A20D1DA7D022A1DD11B7E4D
:107224000B2B1AD1032D18D0694B1B6813F4804F14
:107234000ED0684B1B68032B0ADD674BD3F804356B
:10724400684A009240F271226549042006F012FE59
:10725400002231460120FFF73BFB63685A7D62B987
:107264009A7D0C2A09D1DA7D022A06D11B7E0B2BCA
:107274003FF442AE032D7FF43FAE554B1B6813F42D
:10728400804F0ED0534B1B68032B0ADD524BD3F8AF
:107294000435554A009240F27A225149042006F0FE
:1072A400E9FD6368DA7E31460120FFF711F823E631
:1072B4009A7A322A7FF425AEDA7A892A7FF421AECB
:1072C4001A7BBF2A7FF41DAE5A7BDE2A7FF419AEE7
:1072D4009A7BC22A7FF415AEDA7B712A7FF411AE51
:1072E4001A7C842A7FF40DAE5A7C4A2A7FF409AEB4
:1072F4009A7C472A7FF405AEDA7C242A7FF401AE17
:107304001A7D822A7FF4FDAD012D3FF4FAAD022DE2
:107314003FF4F7AD052D3FF4F4AD5A7E9E7E46EA68
:1073240002265A7D22BB9A7D0C2A21D1DA7D022ABB
:107334001ED11B7E0B2B1BD1042D19D1244B1B6892
:1073440013F4804F0ED0234B1B68032B0ADD224B12
:10735400D3F80435254A00924FF4267220490420BC
:1073640006F088FD6368DA7E31460120FFF7B0FA43
:1073740063685A7D62B99A7D0C2A09D1DA7D022AA2
:1073840006D11B7E0B2B3FF4BCAD032D7FF4B9ADAE
:107394000F4B1B6813F4804F0ED00E4B1B68032B4E
:1073A4000ADD0D4BD3F80435114A009240F2A122B4
:1073B4000B49042006F05EFD63681A7F3146022003
:1073C400FEF786FF9DE500BFCE3400204036002046
:1073D400BC330020B833002000B00040E41D04009A
:1073E400471A04001C1E0400341E04004C1E040032
:1073F400641E040070B586B00446814B1B78052BCF
:1074040027D00D4601337E4A13707E480FF0B6FB39
:10741400002C40F096807C4B5B7A002B00F091802E
:107424007A4BB3F90020993A794981FB0231D31799
:10743400C3EBA103DBB27749CB70734AD2880A80CD
:10744400100A75498873D2B2CA730B7448748A746B
:1074540094E06B4B00221A70704813F0DBFA6A4B0D
:10746400DB88A34241D000226D4B1B7883F00103DB
:1074740013434DD06B4B1B6813F4804F03D06A4BFE
:107484001B68032B38DC604B03221A70012119722C
:10749400142000F0FBFEFFF743FA002211461046C9
:1074A400FEF758FF5B4A002313809370D3705C4A45
:1074B40013705C4B1B6813F4804F00F088805A4BA8
:1074C4001B68032B40F38380584BD3F804354E4A92
:1074D400527A002102910192554A009240F292425E
:1074E4005449042006F0C6FC71E0474B5B7A0BB9A3
:1074F4000022B9E70122B7E74C4BD3F804354E4AD2
:10750400009240F27C424B49042006F0B3FCBAE7F7
:10751400444B1B6813F4804F03D0434B1B68032B6D
:1075240003DC394B04221A70B7E7404BD3F8043517
:10753400424A009240F287423E49042006F09AFCF7
:10754400EFE774B9304B5B7A5BB92F4BDA88110AD9
:10755400314B9973D2B2DA730020187459749A7447
:107564000CE0220A2C4B9A73DC731D74264AD288D1
:10757400110A59749A742A4B01221A70294B1B68F8
:1075840013F4804F03D0284B1B68032B21DC1E21EE
:107594001C480FF01CFB0646C8B11F4C0FCCC6F8A4
:1075A4001100C6F81510C6F81920C6F81D3007CC0E
:1075B400C6F82100C6F82510C6F829202388A6F8A5
:1075C4002D30FF23337131460E480FF03FFB06B0D8
:1075D40070BD164BD3F804350F4A917BD07B147CD5
:1075E400557C927C05920495039402900191144A6F
:1075F400009240F2C6420F49042006F03BFCC6E765
:107604008F3600201035002084360020AC34002052
:1076140067666666C4340020EC320020E035002042
:10762400CC340020BC330020B833002000B000402C
:1076340088190400471A0400681904007819040022
:107644009019040008B5034B99781888FFF7D2FE07
:1076540008BD00BFC434002000B583B0414B1B6893
:1076640013F4804F03D0404B1B68032B3EDC3F4890
:107674003F4B4360012119F02FF9002842D13B4BC5
:1076840018880BF0FBFE002842D13A483A4B43607D
:10769400022119F04FFA002840D1364B18880BF01C
:1076A400EDFE002840D13548354B4360304B8360B4
:1076B400012119F0BDF900283CD1304B18880BF09A
:1076C400DDFE00283CD12F482F4B83602F4B4360B5
:1076D400022119F0ADFA002838D12A4B18880BF092
:1076E400CDFE002838D103B05DF804FB284BD3F855
:1076F4000435284A009240F25F322749042006F0FC
:10770400B9FBB4E7254A40F2633113F027FCB6E72E
:10771400224A4FF4597113F021FCB6E71F4A40F294
:10772400693113F01BFCB8E71C4A40F26A3113F0CC
:1077340015FCB8E7194A4FF45C7113F00FFCBCE771
:10774400164A40F2713113F009FCBCE7134A40F2C7
:10775400763113F003FCC0E7104A40F2773113F09E
:10776400FDFBC0E7BC330020B8330020AC3500205B
:1077740035670200D8350020A577020004360020C2
:107784005166020014360020616C02000566020096
:1077940000B00040101D0400471A0400E019040062
:1077A40010B584B01446154B1B6813F4804F03D0F6
:1077B400134B1B68032B09DC23460122114909786A
:1077C400114819F0A7F890B104B010BD0F4BD3F8CD
:1077D40004350F4AD2880391029401920D4A009213
:1077E4004FF437720C49042006F044FBE4E7062208
:1077F40032214FF4003000F065FDE5E7BC33002092
:10780400B8330020AC340020AC35002000B0004078
:1078140084360020C4180400471A040010B586B04A
:107824001F4A1378013313701E4C2146002013F0B5
:1078340025FD1D4BDB88012221781C4819F06AF8CC
:10784400C0B240B91A4B1B6813F4804F03D0194BD4
:107854001B68032B05DC124B1B78642B18D006B075
:1078640010BD154BD3F804350F4AD1889288049281
:10787400B4F9002003920291094A127801920F4A46
:1078840000924FF46F720E49042006F0F3FAE2E717
:107894000C4813F0BFF8024B00221A70DFE700BF58
:1078A400C9340020AC34002084360020AC350020DC
:1078B400BC330020B833002000B00040001904009D
:1078C400471A0400B835002010B5064C4023064A78
:1078D400064920460FF098FA4FF4FA7120460FF04B
:1078E4000FFA10BD10350020D03400207D7902003D
:1078F40000B58FB01A4BDB680EA941F8143D042281
:107904000AA800F0F5FEF8B920220021684619F013
:1079140081FB01238DF8003007238DF803308DF8A7
:1079240008300AAB03930F4B04930F4B08930F4992
:10793400684608F0B9FD68B90D4804F0D5F8FFF7BA
:10794400C3FF0FB05DF804FB0A4A4FF4787113F0DB
:1079540005FBD9E7074A4FF47A7113F0FFFAEBE716
:1079640020180400496A02005D76020000360020F7
:107974007D6E0200E0190400416839B110B5044677
:107984000FF0AEF920460FF01BF910BD7047000050
:1079940000B585B001AB0B4A07CA03C31A700021B6
:1079A400094813F0BFFB38B901A9002013F00EFCFD
:1079B40028B905B05DF804FB11F031FEF4E711F0CD
:1079C4002EFEF6E730180400041B040008B5174A1D
:1079D4000121174812F0EAFFC0B9164A01211648DE
:1079E40012F0E4FFA8B9154A0121154812F0DEFF90
:1079F40090B9144A0121144812F0D8FF78B9134AF7
:107A04000021134812F0D2FF60B908BD11F007FE3F
:107A1400E3E711F004FEE6E711F001FEE9E711F0F7
:107A2400FEFDECE711F0FBFDEFE700BF217802005B
:107A34005C1C040049760200601C0400E97E02001C
:107A4400641C0400F97C02006C1C0400A56802009C
:107A5400681C040008B5FFF79BFFFFF7B7FF08BDDC
:107A640000B585B0294A04214FF4C04006F0E6F978
:107A7400274B1B6813F4804F03D0264B1B68032B42
:107A840022DC12F063FF58BB00F04CFC224800F0EB
:107A940069FC58BB12F08CF970BB04A9002341F8AF
:107AA400043D012012F072FA48BB03A812F0C0FA98
:107AB40040BBFEF761FEFEF7AFFEFFF719FFFFF7CD
:107AC400C9FF05B05DF804FB144BD3F80435144A20
:107AD400009240F29D521349042006F0CBF9D0E7FE
:107AE400114A40F29F5113F039FACDE70E4A40F2A1
:107AF400A35113F033FACDE711F091FDCDE711F066
:107B04008EFDD2E711F08BFDD3E700BF15DE020036
:107B1400BC330020B83300209969020000B0004053
:107B2400481C0400471A0400E019040030B583B06F
:107B340005460C4602A94FF6FF7321F8023D204684
:107B44000BF0AEFBBDF806000DF022FD48B90DF1B7
:107B5400060128460DF0CAFC034630B1184603B0AE
:107B640030BD784600F0B2FDF1E7BDF806102046BE
:107B74000BF066FB0346F1E770B586B04F4B1B78FC
:107B8400052B3FD001334D4A13704D480EF0F6FFDC
:107B94004C49CA88140A4C4B5C76D0B298768A78E1
:107BA4000132D2B2DA764978197701255D77474BED
:107BB4001B6813F4804F03D0454B1B68032B6BDC0D
:107BC4001E213F480FF003F80646C8B13E4C0FCCC7
:107BD400C6F81100C6F81510C6F81920C6F81D30ED
:107BE40007CCC6F82100C6F82510C6F8292023883A
:107BF400A6F82D30FF233371314631480FF026F8B3
:107C040006B070BD2F4B05221A70324812F002FFE5
:107C14002A4B00221A702D4B1B6813F4804F03D09B
:107C24002B4B1B68032B1FDC264CA0882A4D0230EB
:107C3400298880B2FFF77AFFA0880230274B198881
:107C440080B2FFF773FFE3880322254909782846A9
:107C540018F060FEC8B1002211461046FEF738FE47
:107C6400184B00229A70CBE71E4BD3F80435154A03
:107C7400D1889288029201911B4A009240F23152BB
:107C84001A49042006F0F6F8CEE7062232214FF412
:107C9400003000F017FBDEE7124BD3F804350595EE
:107CA4000491039202900194114A009240F25752B7
:107CB4000E49042006F0DEF882E700BF913600206A
:107CC40010350020843600202C330020BC330020E3
:107CD400B833002060360020AC3500200436002084
:107CE400AC34002000B00040801C0400471A04009B
:107CF400BC1C040008B5FFF73FFF08BD70B584B095
:107D0400694B1B78052B0DD00133674A1370674804
:107D14000EF034FF664BDB88180A664A5076D9B2F7
:107D2400917683E0624C2370634812F073FE5E4BDD
:107D340000221A706378012B26D0604B1B6813F461
:107D4400804F03D05E4B1B68032B53DC584CA08838
:107D54005C4D0230298880B2FFF7E8FEA08802302B
:107D6400594B198880B2FFF7E1FEE3880322574993
:107D74000978284618F0CEFD00284CD00022114680
:107D84001046FEF7A5FA7EE04C4B1B6813F4804FB7
:107D940003D04B4B1B68032B1EDC454C0023A380F4
:107DA400484D29880220FFF7C1FEA0880230464BC7
:107DB400198880B2FFF7BAFEE388032243490978A1
:107DC400284618F0A7FD0028D8D1062232214FF406
:107DD400003000F077FAD1E73D4BD3F80435E28860
:107DE40001923C4A009240F2E3423B49042006F0EF
:107DF40041F8D2E7364BD3F804352D4AD18892881E
:107E040002920191354A009240F2F3423249042031
:107E140006F030F89AE7062232214FF4003000F0E1
:107E240051FAABE7224B5A78224BDA76214BDA7EB1
:107E3400002AF7D0214B1B6813F4804F03D0204B4A
:107E44001B68032B21DC1E2118480EF0C0FE0646D9
:107E5400C8B1184C0FCCC6F81100C6F81510C6F8F6
:107E64001920C6F81D3007CCC6F82100C6F8251025
:107E7400C6F829202388A6F82D30FF233371314614
:107E84000A480EF0E3FE04B070BD114BD3F804357C
:107E9400039202910190124A009240F214520E4948
:107EA400042005F0E7FFCEE79036002010350020CF
:107EB400843600200C33002020360020BC33002000
:107EC400B8330020AC35002004360020AC34002048
:107ED40000B00040A01B0400471A0400DC1B04008F
:107EE400181C040008B5FFF709FF08BD00B583B0EE
:107EF400FFF7B6FDEFF3108572B6264B9B689BB96E
:107F0400244A01239360244BD3F880102348014072
:107F14001160C3F88000D3F8841051604FF0FF3231
:107F2400C3F88420002400E0012405B962B6FEF7FA
:107F34009BFD184B9B686BB164B9EFF3108172B66B
:107F4400144B1868144A10605868506000229A60F4
:107F540001B962B61249002013F090F9114B1B6865
:107F640013F4804F12D0104B1B68032B0EDD0F4B04
:107F7400D3F804350A4AB2F9002001920C4A00925F
:107F840040F2DC520B49042005F074FFFEF79EF921
:107F9400FCE700BF586A002000E100E0FC06FFBDDA
:107FA400AC340020BC330020B833002000B00040C3
:107FB400701C0400471A04002A4B1B78002B4FD076
:107FC40000B585B0012804D0032842D005B05DF87F
:107FD40004FB04A9002341F8083D012011F0D6FF59
:107FE40040BB02A812F024F838BB04A9012341F8CD
:107FF400043D0DF106000DF099FF08BBBDF8060025
:108004000DF02EFC0DF105010DF080FDD8B909F03D
:10801400C5FC9DF80510002009F082FD03F0F4FC76
:10802400A0B9104B00221A700F4B1B68002BCDD047
:108034009847CBE711F0F3FAD3E711F0F0FAD4E75D
:1080440011F0EDFADAE711F0EAFAE0E711F0E7FAF5
:10805400E7E711F0ADFE0028B8D011F0E0FAB5E77B
:10806400704700BF933600209436002008B5084BB3
:1080740001221A7003F0EAFC18B911F0DFFE18B9F6
:1080840008BD11F0CCFAF8E711F0C9FAF8E700BF1F
:108094009336002008B503230022034949680348A6
:1080A40014F022F808BD00BF94360020D838002010
:1080B40008B50378052B0DD0082B16D0022B00D061
:1080C40008BD104B1B7813B9FFF7E4FFF8E7FFF77F
:1080D400CDFFF5E710220C4B99680C4814F08EF88C
:1080E4000028EDD011F09BFAEAE78168C06808F037
:1080F4008AF918B9034B01221A70E1E711F08FFADB
:10810400F8E700BF9236002094360020D8380020CB
:1081140010B586B00446214A03AB07CA03C323F84B
:10812400022B120C1A701E4B94E8070083E8070018
:10813400002A31D01B491C4813F0BAFF034610B182
:10814400184606B010BD194B009303AB154A1649E7
:10815400174813F069FF03460028F1D1154815F0BC
:1081640021FB0146124813F08BFF03460028E7D198
:10817400114813F043FB03460028E1D10E4813F0E5
:1081840073FB01460A4813F07BFF03460028D7D14E
:10819400FFF780FF0346D3E70723D1E7BC1E0400A3
:1081A40094360020A03600200C3A0020B58002004E
:1081B400D8380020C03600208838002008B5064B87
:1081C4001B683BB110F06EF8002803DB024B1B6800
:1081D4009847F7E708BD00BF4C3A002010B50C469D
:1081E400144B1860144A0121144812F0DFFBA0B9A3
:1081F400610CE00341F26F7200238B4208BF82429C
:1082040010D24FF47A72002318F034FD0146002294
:108214000B4812F0E1FB38B910BD0A4A462112F0AE
:108224009DFEE5E70521F2E7064A472112F096FE96
:10823400F2E700BF4C3A0020C1810200C81E0400CE
:10824400503A0020CC1E040008B50D4B1B6873B1D6
:108254004FF0A042D2F804350A4909684B40C2F8ED
:108264000435074A1368013B136023B108BD00209D
:1082740011F0D5F9ECE7044812F0CCFBF6E700BFA7
:10828400703A0020743A0020783A002039B901236A
:1082940003FA00F04FF0A043C3F808057047012328
:1082A40003FA00F04FF0A043C3F80C05704721B95E
:1082B4004FF0A043C3F8080570474FF0A043C3F83C
:1082C4000C05704712B11346132900D8704770B5D6
:1082D400114A10605B00013B104A136000264D0CEC
:1082E400CC034FF47A72002314F5FA7045F10001BF
:1082F40018F0C0FC32460146094812F06DFB48B93B
:108304004FF0A042D2F804350349096823EA010377
:10831400C2F8043570BD00BF743A0020703A0020E2
:10832400783A002008B511230BE04FF0A04103F583
:10833400E072032041F8220001229A40C1F8082586
:108344000133142BF1D9054A0121054812F02EFB03
:1083540000B908BD11F063F9FBE700BF4D820200CC
:108364002C1F0400F0B1104A1060002309E00F4AEA
:10837400D25C02F5E0724FF0A0410D4841F82200B2
:108384000133032BF3D90B4B4FF00042C3F8042302
:108394000020C3F87C01084BE02283F80623402226
:1083A4001A6070470E207047983A0020301F04006E
:1083B4000C0003000060004000E100E010B5002460
:1083C400144BC3F87C410EE043F23333994208D98D
:1083D400114BD3F80425114B1A60114B1B6820462E
:1083E40098470134E4B2032C12D84FF0A043D3F8D9
:1083F40010250C4B195D01238B409343F1D0074B9F
:108404001B68054AD2F80425991ADDD5D11ADBE791
:1084140010BD00BF0060004000B000409C3A002046
:10842400983A0020301F040072DF704773DF7047F2
:1084340074DF70472DE9F047A2B00746884691469D
:10844400314C0026C4F80660E68130490B78C3EB52
:1084540043102F4D054425602E4A0244A2601F227A
:10846400A280A281013303F001030B704FF03C0A98
:108474005246314613A818F0CDFD06238DF84F302F
:10848400ADF8487001238DF84A30ADF85C3012AA7B
:108494001892ADF83C70ADF84090CDF844800DEBE7
:1084A4000A021D928DF8783052463146684618F01B
:1084B400B1FD02238DF80030221D294613A811F0C6
:1084C40057FB90B9104B03F10C029968684611F000
:1084D4004FFB68B9104A0C491048FFF7A5FF08285C
:1084E40009D070B922B0BDE8F08711F098F8E9E737
:1084F40011F095F8EEE7002203490848FFF794FFCE
:10850400EFE711F08CF8EDE7E43A0020A03A002000
:10851400A43A0020F43A0020503300204D330020C8
:10852400034B00EB800042009A819960704700BFC2
:108534005033002008B50121054B1878FFF776FF6A
:1085440010B904F08BFA08BD11F069F8F9E700BF1F
:108554004D33002008B5044B1878FFF769FF00B9C4
:1085640008BD11F05CF8FBE74D330020062070478E
:1085740000B587B041F20103984245D020D944F2B6
:108584000103984256D044F2020398426DD1454B00
:108594001B6813F4804F1ED0434B1B68002B1ADD5D
:1085A400424BD3F80435108803905268029201912B
:1085B4003F4A00925F223F49012005F05BFC0AE03C
:1085C400012852D1374B1B6813F4804F03D0364B2C
:1085D4001B68002B0BDC4FF0A0434FF4F012C3F8E0
:1085E4001825C3F80C25EFF3108372B653E02F4B14
:1085F400D3F80435029201912F4A009254222D4956
:10860400012005F037FCE6E7264B1B6813F4804F86
:10861400E1D0254B1B68002BDDDD244BD3F804355A
:1086240002920191254A009257222249012005F025
:1086340021FCD0E71B4B1B6813F4804FCBD01A4BA3
:108644001B68002BC7DD194BD3F804351068049060
:1086540050680390029192680192194A009269222B
:108664001449012005F006FCB5E70E4B1B6813F412
:10867400804FB0D00C4B1B68002BACDD0B4BD3F8F8
:10868400043501910F4A00926D220A49012005F038
:10869400F1FBA0E730BF0C4B1B78002BFAD107B0DD
:1086A4005DF804FBBC330020B833002000B0004068
:1086B400D81F0400851F0400981F0400B41F040081
:1086C400F81F04001C2004006833002000B583B0A8
:1086D4000023ADF80030054B01936A46014644F28D
:1086E4000200FFF745FF03B05DF804FB741B0400B0
:1086F400082A10D838B51446054618F062FCC4F1AF
:1087040008020021281918F085FC044B03CBA8604B
:10871400E960002038BD0920704700BF60000010E8
:1087240010B40346044C006859689A68DB680FC4A7
:108734005DF8044B704700BF343B0020064B074AEA
:1087440092E8030083E803000833443292E803000C
:1087540083E80300704700BF343B00206000001032
:1087640000487047343B0020002308E0074901EB30
:10877400C30000224280426001F8332001331F2BE2
:10878400F4D9034B00221A60704700BF443B002019
:10879400443C002030B405460F4B1B6800240AE01B
:1087A4001F230E4A12F83300A0B102EBC302528811
:1087B400AA4207D001341F2C0BD85A1E002BEFD02D
:1087C4001346EEE7054A02EBC30252688A42F1D12E
:1087D40000E0002030BC7047443C0020443B0020B3
:1087E40030B40A4A13680A4C04EBC3056880696014
:1087F400012104F833100B441360202B01D030BC4A
:108804007047134600221A60F9E700BF443C002079
:10881400443B0020C0F30C038B4202D3C91A084422
:108824007047C91A0844A0F500507047C37D002B57
:1088340042D083780A7802F0800203F07F03134366
:108844000B7002780B7803F07F0343EAC2130B70BA
:108854000378002B41D030B44378082B14BF002296
:1088640001224B7803F07F0343EAC2134B708588DF
:1088740003F08003C5F3861423434B708A7802F017
:10888400030242EA8502D2B28A70857902F0FC02C0
:10889400C5F3C10422438A70CB7803F01F0343EA73
:1088A4004513DBB2CB70C27903F0E00302F01F0280
:1088B4001343CB7030BC704783780A7802F0BF0250
:1088C4009B0103F0400313430B70C27803F0C00311
:1088D40002F03F0213430B70B3E770470023032BEE
:1088E40022DC10B402E00133032B19DC0F4C6C22A0
:1088F40002FB034292F84420012AF4D16C2202FBC9
:108904000342948AC2899442EDD1084C6C2202FB42
:10891400034292888A42E6D16C2202FB034000E0C3
:1089240000205DF8044B704700207047BC3C0020D9
:10893400002300E00133032B13DC0B496C2202FB00
:10894400031292F84420022AF4D16C2202FB03128F
:10895400918A828A9142EDD103486C2202FB030082
:1089640070470020704700BFBC3C002008B10820BD
:10897400704704207047000038B505460C46CB69A3
:108984005B78C370CB691B7883F001038370CB6978
:108994004362087B022814D0FFF7E8FF6870E27A8C
:1089A40032B9A18AC0F10F03994201DC082831D001
:1089B400A18A0346C0F10F00814207DC42B30122C1
:1089C40005E0154B987DFFF7D1FFE7E701222A70F8
:1089D40062B1A28A13440B33104A82FB0312DB17E1
:1089E400C3EB6203013BEB710023AB710023EB7516
:1089F40005F10C0294E8030082E80300A2692A62EC
:108A04002289AA82A27AAA75226AAA62184638BD65
:108A14000022DCE70720FAE7A43C0020ABAAAA2A3C
:108A240030B403460C460978817000214162A16884
:108A34000B2903D8217BF1B1012100E00121197038
:108A44000020587029B1A1680731C9080139D971CA
:108A540098710121D97503F10C0504F1100103C9C2
:108A640085E80300E1899982A1691962217F9975DA
:108A74009A6230BC70470021E1E700000021164BE8
:108A84001B688B4226D90023144A02EBC1025268A8
:108A94009A421DD910B4114A52F8312002EBC30492
:108AA40012F8332082420DD001330C4A02EBC1028A
:108AB40052689A42EFD80131074B1B688B4205D9A3
:108AC4000023F2E760685DF8044B70470020FAE782
:108AD4000131D4E700207047483C00204C3C002082
:108AE40070B58CB006460D4614462C22002101A810
:108AF40018F090FA0E238DF80430ADF808604FF0AA
:108B0400000365F300038DF80A308DF80B4001A8CB
:108B140001F0B0F90CB070BD30B58DB005460C460F
:108B24002C22002101A818F075FA0F238DF80430C7
:108B340002958DF80C4001A801F09CF90DB030BDF0
:108B440000B58DB048B913F1020F06D001228DF89B
:108B54000420029301A801F08DF9034B186804F076
:108B640073F80DB05DF804FB583C00202DE9F0418A
:108B7400054688460378BBB10D4B1C68621C1A601D
:108B840004F00704AB8A0B4F07EBC4067380A98873
:108B9400A869FFF73FFE7060EB6903F0010373708F
:108BA40007F83480BDE8F0817846FFF78FFDE3E7EE
:108BB400A03C0020603C002070B5064603784BB111
:108BC400B58A347F04F00104B188B069FFF722FE4E
:108BD400002304E07846FFF779FDF1E70133072B22
:108BE40015D80C4A02EBC30252688242F6D1094AF4
:108BF40002EBC3025288AA42F0D1064A02EBC30236
:108C04005278A242EAD1034800EBC30000E00020FE
:108C140070BD00BF603C0020F0B40D684C688F68E4
:108C2400CE68D5601461576196610D694C69D56150
:108C340014620378DB091370D17DF9B1037803F072
:108C44007F0393700023537013789BB143789B0187
:108C540003F4FE53817843EA910393808378DB0025
:108C640003F01803C17843EA51139371C37803F0F6
:108C74001F03D37100235362F0BC70470178C1F322
:108C840080119170017801F03F01D17043B190F9E6
:108C94000130002B02DB04235370D5E70823FBE7E4
:108CA40004235370D0E770B50C461E4603788BB18D
:108CB40004252A44A26000F10C032360836A6360E4
:108CC400204604F067FB024610B923691D44356051
:108CD400104670BD0125ECE72DE9F0418EB00D463C
:108CE40016461C46804600282DD0002D2FD0002C7F
:108CF40031D0636A0233059304F10C00A378002B8E
:108D04002DD00121627801AF3B46082A14BF00220E
:108D1400012204F096F80697CDF81C80B2B2ADF8A3
:108D240020200B9515440C9563788DF83430237B03
:108D3400022B16D00023ADF8283005A804F079F8EA
:108D44000EB0BDE8F0817846FFF7C0FCCDE7784669
:108D5400FFF7BCFCCBE77846FFF7B8FCC9E7022174
:108D6400D0E723692BB1236909931023ADF8283088
:108D7400E3E77846FFF7AAFCF5E72DE9F04186B072
:108D840004460D46C37D002B3ED0082605FB06F89D
:108D9400E379AB423AD0A5716B46324601A920462D
:108DA400FFF781FF074648BB4DB994F84F3033B9FC
:108DB400A369C3F30C03A380012384F84F30E37D3C
:108DC4007BB994F84E3063B92DBBB4F84610627881
:108DD40023468A1AA16E0846FFF77EFF012384F812
:108DE4004E3005992046FFF721FDA16E32464144DD
:108DF400009818F0E6F801A804F0E6FAB7FA87F04C
:108E0400400906B0BDE8F0810C26BFE7B4F846601F
:108E1400A6EB0806BFE77846FFF758FCD5E770B520
:108E2400054690F84C40002605E00136631C85F8A1
:108E34004C300134E4B2EB79A3420AD3AA6C012387
:108E4400A3401A42F5D121462846FFF796FF002891
:108E5400EBD1304670BDF0B587B045781544C37D7D
:108E6400DBB10B239D4221D816460F4604466B46C0
:108E74002A4601A9FFF717FF0546C0B90599204600
:108E8400FFF7D4FCE37D53B132463946009818F01D
:108E940098F801A804F098FA09E00F23E2E72346C2
:108EA400324600993846FFF717FFF2E709252846AE
:108EB40007B0F0BD10B5044690F84430012B0ED134
:108EC400237B012B0FD00C4BDB68A36303F0B8F9B1
:108ED400A16B014404F12C0003F016F910BD78468F
:108EE400FFF7F4FBECE7A37D034AD168126902FBA8
:108EF4000313A363EAE700BFA43C002038B50024B1
:108F040000E00134032C13D80A4A6C2303FB042326
:108F140093F84430012BF4D16C2505FB0425284635
:108F2400FFF77DFF0028ECD02846FFF7C3FFE8E7F2
:108F340038BD00BFBC3C002038B5044690F844302E
:108F4400022B02D07846FFF7C1FB054B1D6803F0E6
:108F540077F9411904F12C0003F0D6F838BD00BFAD
:108F6400A43C002038B5044690F84430022B02D0CB
:108F74007846FFF7ABFB084B5D7D5A689B6803FBA3
:108F8400052503F05DF9411904F14C0003F0BCF828
:108F9400012384F8643038BDA43C002010B5044695
:108FA4000C4B1B68806E98470023A36604F12C00C9
:108FB40003F07AF894F84430022B05D0002084F8AA
:108FC400440002F007F910BD04F14C0003F06CF802
:108FD400F4E700BF5C3C002010B504460121FFF714
:108FE400C5FD2046FFF7DAFF10BD10B58CB004466E
:108FF40090F84430012B02D07846FFF767FB012339
:109004008DF80430236D029301A800F033FF20464D
:10901400FFF7C4FF0CB010BD2DE9F04104460E4625
:1090240015461F46531EDBB2012B46D8A36E13B15F
:109034007846FFF74BFB2E4B1B6838469847A066D3
:10904400002852D03346224606F12001D3F800808E
:10905400D3F804E0D3F808C0D868C2F80080C2F896
:1090640004E0C2F808C0D060103310328B42EDD156
:10907400186859689B681060516093600023A3646A
:10908400A4F84670B188B069FFF7C4FBA061012D54
:1090940017D06FF00103A362002384F86430154BEA
:1090A4006365E465144B6363E463012002F092F8A2
:1090B40084F844500120BDE8F0817846FFF706FBB0
:1090C400B4E70E4B1B7D84F84D30002384F84E30FA
:1090D40084F84F3084F84C30B36A23656FF0010391
:1090E400A362074B6363E463DFE70020E3E700BFA9
:1090F400543C0020479C02002D920200A43C002016
:109104003992020030B583B0C3790133C27D92B184
:10911400082505FB03F582B14FF48073AB422AD2D4
:109124001E4B1B6813F0040F36D01D4B1B68002B1D
:1091340006DC00242DE00C25EBE74FF4C073EDE7CB
:10914400184BD3F804350195174A00924FF417725F
:109154001649012004F08EFE00241AE0144C6C23FE
:1091640003FB02442B46022201462046FFF754FF2C
:1091740078B900240DE00022032A09DC0C4B6C248E
:1091840004FB023494F84430002BE7D00132F3E7B7
:109194000024204603B030BD0024FAE7BC3300208D
:1091A400B833002000B00040B4200400A72004001D
:1091B400BC3C002030B585B00D460446A8B1002162
:1091C4002046FFF7D3FC2946206DFFF7A5FC204677
:1091D400FFF7E4FE0F4B1B6813F0040F03D00E4B94
:1091E4001B68032B05DC05B030BD7846FFF76EFA2B
:1091F400E5E70A4BD3F8043594F84420029501922C
:10920400074A00924FF4D2720649042004F032FE59
:10921400E9E700BFBC330020B833002000B00040B1
:1092240038200400A720040008B508460021FFF7F1
:10923400C1FF08BD10B50C4691F84430012B09D18B
:1092440094F84D307BB9237B012B07D02046FFF7E0
:10925400CCFE10BD7846FFF739FAF1E7002120462D
:10926400FFF7A8FFF5E7013B84F84D30002384F8AD
:109274004C302046FFF7D3FDEBE70000062900D071
:10928400704770B582B003460178890101F4FE513C
:1092940040789D78DC78240444EA05641D7944EA26
:1092A40005245B791C4341EA90011046FFF716FB45
:1092B4000546B8B1866C2643866444B3037853B339
:1092C400EB795A1C01239340013B9E4227D0002393
:1092D40085F84C302846FFF7A2FD2846FFF7EAFD43
:1092E40002B070BD104B1B6813F0040FF8D00F4B85
:1092F4001B68012BF4DD0E4BD3F804350D4A0092A4
:1093040040F2B2420C49022004F0B4FDE8E7032124
:10931400FFF750FFE4E77846FFF7D8F9D0E728468F
:10932400FFF763FEDCE700BFBC330020B833002046
:1093340000B00040C8200400A72004002DE9F04339
:1093440089B080460F4614461E4695780DB32846CC
:10935400FFF794FB8146C8B18DF80050236A069349
:10936400A38AADF80E3004AB04F10C0292E80300BA
:1093740083E80300A37D8DF81C30CDF804800297A8
:1093840023788DF80C3031466846C84709B0BDE8EB
:10939400F083FFF773FFF9E700B585B000238DF87C
:1093A4000F3098B10346084602330B600DF10F01EC
:1093B40003F043FD9DF80F3043B10D4B1B6813F0D0
:1093C400040F03D00B4B1B68032B04DC9DF80F0028
:1093D40005B05DF804FB084BD3F80435074A009246
:1093E4004FF439720649042004F044FDEEE700BF4F
:1093F400BC330020B833002000B000400821040032
:10940400A72004002DE9F0438FB004460E4615460C
:109414001F46D0F81890037823B181884846FFF797
:10942400F9F9A06104F10C00A378002B3AD00121D2
:1094340062780DF128084346082A14BF002201224D
:1094440003F0FFFCC4F81890CDF808800396637805
:10945400EA1A92B2ADF810203244089207978DF8B8
:1094640024300023ADF81830237B022B1CD0A378C2
:109474006BB3237B022B1BD02546002345F8243FE6
:109484002A46E178206A0DF081F8606A98B101A952
:10949400FFF782FF00283AD12A46E178206A0DF0CE
:1094A40075F8F2E70221C3E71023ADF81830DEE7C0
:1094B40023690593E0E7237B022B2CD104F10C01F3
:1094C400E0890DF011F90028D3D1052020E0002314
:1094D4006362237B012B0DD02146002341F8243FF6
:1094E400A08A0DF070F801A9606AFFF755FFA0B1DA
:1094F40000200DE004F12401E0890DF064F801A9D5
:10950400606AFFF749FF0028E6D0002000E0002051
:109514000FB0BDE8F0830520FAE70520F8E7000066
:1095240070B5F0B00D4614461E4610AB0A4601460F
:109534002046FFF767FFA0B11F4B1B6813F0040F11
:1095440037D01E4B1B68052B33DD1D4BD3F8043578
:109554001C4A009240F221521B49062004F08AFC66
:1095640027E003AB01228DF80C20A28AADF80E206F
:10957400002204928DF8142010AA06926278AD1A83
:10958400ADF81C5008AA93E8030082E803000AAB74
:1095940004F10C0292E8030083E80300A37D8DF834
:1095A4003830236A0C93636A0D930F9605A800F074
:1095B40061FC70B070BD00BFBC330020B833002024
:1095C40000B000402C210400A720040010B5D47D75
:1095D40014B9FFF7A5FF10BDFFF7B0FEFBE70000CD
:1095E4002DE9F04385B004AF43781344C47D94B1AE
:1095F4004FF480749C4273D3EFF3108C72B6002442
:10960400032C10DC3B4E6C2505FB046595F8445097
:1096140025B10134F4E74FF4C074EBE735466C260A
:1096240006FB045400E00024BCF1000F00D162B634
:10963400002C5AD015460E46014601222046FFF75B
:10964400EBFC002853D02A463146A06E17F0B9FC33
:10965400294B1B6813F0040F3AD0284B1B68032BCB
:1096640036DD6D46B4F846E04FEA4E030833DB08B6
:10967400A5EBC3039D460DF11008C446002312E078
:10968400A26ED25C4FEA121959001D48066816F8FA
:1096940009600CF8136002F00F0201310068825C6B
:1096A4000CF8012001337345EAD3002308F81E3077
:1096B400144BD3F80435CDF80880134A0192134AA9
:1096C40000924FF47C721249042004F0D3FBAD469F
:1096D4002046FFF7A4FB2046FFF7ECFB002000E048
:1096E40009200437BD46BDE8F0830420F9E70420CF
:1096F400F7E700BFBC3C0020BC330020B833002097
:10970400C033002000B00040F8200400A41E040070
:10971400A720040070B504460D461646808A02F060
:109724001FF801281AD1237BD3B1022B0BD094F953
:109734001630002B16DB237853B9324629462046CF
:10974400FFF789FB0BE02369002BF0D1102006E022
:10975400324629462046FFF743FF00E0102070BD43
:109764001020FCE70720FAE708B50549054800F092
:109774004FF800B908BD7846FEF7A8FFFAE700BF26
:10978400490E0400B50D040010B5FFF7EDFF4FF4CA
:10979400D8720021134817F03DFC05F0FBFC0024AF
:1097A400114B1C6040222146104817F033FC104B2B
:1097B400104A1A60104A5A604CF250329A600F49AB
:1097C400D9601A6104221A759C7508225A750C48CE
:1097D40003F01AFA0B4B18600B4B1C600B4805F096
:1097E400DFFD10BDBC3C0020A03C0020603C0020FC
:1097F400A43C002080969800F049020020A10700B4
:10980400FD990200583C0020483C0020458B020092
:1098140008B50346B0FA80F040090A46B1FA81F16E
:109824004909884210D14BB1EFF3108072B6084950
:109834000B60084B1A6048B962B606E0002AF3D1FF
:10984400FFF792FF002000E00E2008BD0020FCE797
:10985400543C00205C3C0020C0B110B58CB00446E0
:109864000369B3B1C369B3B18369B3B1014601A854
:10987400FFF782F8034610B118460CB010BDA28A57
:10988400216901A8FFF746FF0346F5E70E231846B2
:1098940070470E23F0E70E23EEE70E23ECE7D0B17A
:1098A40010B58CB004464068B8B1A269BAB1207C46
:1098B400022816D0B8B194F90020002A15DB0A4614
:1098C400214601A8FFF7ACF8A268616801A8FFF778
:1098D40021FF0CB010BD0E2070470E20F9E70E20BA
:1098E400F7E71020F5E71020F3E70720F1E7000081
:1098F400037B012B01D00020704710B58AB00022F1
:109904008388C3F386148DF800409B008DF80130E2
:109914000B0E8DF802300B0C8DF803300B0A8DF80A
:1099240004308DF805100623049301238DF81830B4
:10993400838AADF81A3007928DF80820CDF80CD040
:10994400036A08938DF81420C389ADF81630837D1B
:1099540043B98DF824206FF0010102A8FFF79FFF9F
:109964000AB010BD024B5B7D8DF82430F3E700BFD5
:10997400A43C002038B500240BE01E4A6C2303FBF2
:109984000423DB795A1C01239340013B9D4228D0D8
:109994000134032C2CD8174A6C2303FB042393F8BB
:1099A4004430022BF4D16C2303FB042393F864307A
:1099B400022BEDD16C2000FB0420816CFFF798FF93
:1099C4000028E5D10B4A6C2303FB04F3D11881F87A
:1099D40064008D6CD35C002BCFD17846FEF776FE05
:1099E400CBE7044B6C2000FB0430FFF7F5FACFE71C
:1099F40038BD00BFBC3C002008B5FFF77FFAFFF775
:109A0400B9FF012008BD00002DE9F04182B00746EE
:109A14000E46144698461046FEF78AFF054620B1C6
:109A2400A28883889A4210D312D82046FFF7C4F83C
:109A3400B8B103784BB123787BB1E1794B1C012198
:109A4400994001392046FFF753FF02B0BDE8F08189
:109A54000521FFF7AFFB0025E7E77846FEF736FE62
:109A6400EBE7002D4FD0464B1B6813F0040F03D0D7
:109A7400444B1B68032B55DC2846FFF75DFA2B7B10
:109A8400012B5DD0AA6CA17901238B401A42DCD151
:109A94001343AB64A279EB799A4259D0E37D002B4E
:109AA40061D00823B34260D1AB6EA079E27D002A75
:109AB40060D008243246394604FB003017F081FA9E
:109AC400AC6C2B78002B57D0EB795A1C01239340B4
:109AD400013B9C42B9D1022385F86430A96C284625
:109AE400FFF706FF044643462A46B5F84610A86E1B
:109AF400FFF76CFD002CA8D1002385F864302846BC
:109B0400FFF76AFAA1E72046FFF7FCFA05460028AA
:109B1400A9D100212046FFF7EBFE02210020FEF729
:109B2400FBFF92E7184BD3F80435A2790192174A48
:109B340000924FF428721649042004F09BF99BE725
:109B440095F86430002B9DD12846FFF70BFA99E76E
:109B54009BB2E27D2AB1082203FB0263A5F84630DA
:109B6400A2E70C22F8E70C239CE704212846FFF720
:109B740021FB6AE70C249DE77846FEF7A7FDA3E7DF
:109B8400BC330020B833002000B000401C21040086
:109B9400A72004002DE9F0418EB000284DD00546E1
:109BA400002A4CD0984614460F4600220C920D927F
:109BB4000CA960880CF098FD20B9002630460EB040
:109BC400BDE8F081226902F00102E168208905F014
:109BD400AFFA08B10026F1E7226902F00102E16858
:109BE400208905F075FA0646C0B901AA214628461F
:109BF400FFF712F804AB0EAA12E9030083E803008E
:109C040002F0C0FF9DF8043083B1434601AA391F16
:109C1400281DFFF7F9FE02F0D5FFCFE721690022E6
:109C240001F001012089FEF75BFFC7E7434601AA63
:109C3400791E681CFFF7CAFCEDE70E26BEE70E2668
:109C4400BCE710B50C4691F84430022B0BD102232B
:109C540084F86430A16C2046FFF74AFE10B9002353
:109C640084F8643010BD7846FEF730FDEFE700005D
:109C7400002959D0A0F59670072857D8DFE800F0DE
:109C8400040E1A25313D454D4A68314B1344314980
:109C94008B424DD8304B1A60002070474A68A2F5B9
:109CA4001233A3F5F8732D498B4243D82A4B5A60DB
:109CB400002070474A68A2F54343503B28498B4231
:109CC4003AD8254B9A60002070474A68A2F543337E
:109CD400A3F5A07323498B4230D81F4BDA600020D0
:109CE40070474A68A2F54333A3F5A0731D498B421C
:109CF40026D8194B1A61002070474B689A1EFD2A1A
:109D040020D8154A1375002070474B685A1E7E2AC6
:109D14001AD8114A5375002070474B68012B15D887
:109D24000D4A9375002070470E2070470520704738
:109D340007207047072070470720704707207047A7
:109D44000720704707207047072070470720704797
:109D5400806967FF80778E06A43C0020904C9600B3
:109D640030D3970040899500002934D000220A603E
:109D74004A60A0F5967007282FD8DFE800F00409A0
:109D84000E13181D2227164A12684A6000207047D5
:109D9400134A52684A6000207047114A92684A6028
:109DA400002070470E4AD2684A60002070470C4A6F
:109DB40012694A6000207047094A127D4A600020F7
:109DC4007047074A527D4A6000207047044A927DDA
:109DD4004A60002070470E2070470520704700BF7E
:109DE400A43C0020F8B500B30546164B1F68F7B92C
:109DF4000E463C46B4420ED205EBC4035B68CBB1BD
:109E040015F8340010F0800F16D1B8B1FEF736FE05
:109E1400B0B90134EEE70C4B43F8375003EBC703FA
:109E24005E607B1C074A136002E00E2700E00427F3
:109E34003846F8BD0E27FBE70B27F9E70F27F7E7AE
:109E44000F27F5E7483C00204C3C0020084B1968DC
:109E540061B110B501E021463CB10C680B79002BCF
:109E6400F9D0034803F06FFFF5E710BD704700BF5A
:109E7400703E002038B5054630B1104B1C68ACB1BB
:109E84000F4B01221A7004E07846FEF71FFCF4E73A
:109E940024683CB12379002BFAD154F8043C2846B9
:109EA4009847F5E7064B1B78022B00D038BDFFF727
:109EB400CDFF034B00221A70F8E700BF703E00206C
:109EC4006C3E002010B5044630B100232372211DDE
:109ED400034803F00DFF10BD7846FEF7F7FBF4E7E7
:109EE400703E002010B5044650B10A4B1B78013B6C
:109EF400DBB2012B08D9211D074803F024FF10BD54
:109F04007846FEF7E3FBF0E7024B02221A700123C6
:109F14002372F4E76C3E0020703E00200A888368B8
:109F24009B5A07339BB223F0030313449BB202886A
:109F3400043A934200D900230B80704710B582B0D5
:109F440004468368CB1A02A921F8023DFFF7E6FF15
:109F5400BDF80630A068184402B010BD008804386B
:109F640080B2704743888268D018D152012383702D
:109F74007047826800239370438083807047073161
:109F840089B221F0030189B2428883889A4204D2BB
:109F94009B1A99421CDC0020704710B59A420FD9D5
:109FA4000488A41AA14215D98B4215D3032C03D9D2
:109FB4008368134404229A7000234380184606E001
:109FC400826813449B784BB9FFF7D3FF002010BD80
:109FD400042070470020FAE70420F8E70420F6E79D
:109FE40038B504460D468368828813448B4202D0F8
:109FF4007846FEF76BFB0023AB70211D2046FFF76C
:10A004008DFFA288A36813449B78042B00D038BD2D
:10A014000023A380FBE710B50C46836842881344F1
:10A024008B4202D07846FEF751FB0023A37010BD8B
:10A0340070B5064615460C46002944D0002E46D07D
:10A04400B4F1005F08D94FF08053D3F80C3103F515
:10A054000023B4EB832F0ED3B4F5000F08D94FF0CF
:10A064008053D3F80C3103F50053B4EB832F02D3A0
:10A074007846FEF72BFB6B1E2344B3F1005F08D92F
:10A084004FF08052D2F80C2102F50022B3EB822F5C
:10A094000ED3B3F5000F08D94FF08052D2F80C213B
:10A0A40002F50052B3EB822F02D37846FEF70EFB83
:10A0B400042D10D9358000237380B380B460043D2F
:10A0C4002580A37070BD7846FEF700FBB6E778469E
:10A0D400FEF7FCFAB4E77846FEF7F8FAEAE738B593
:10A0E4000446A0B16288A36813449B78012B12D064
:10A0F400A388A1681944EFF3108572B68B78032BFB
:10A104000DD02046FFF735FF05B962B638BD784655
:10A11400FEF7DCFAE6E77846FEF7D8FAE8E72046E9
:10A12400FFF70CFFA368C31A638000238370EBE777
:10A13400F8B50E4615460446C0B1DEB16288A36880
:10A1440013449B78012B19D0E5B12046FFF706FF95
:10A15400A84219D329462046FFF711FF0746A0B9A4
:10A1640029462046FFF7FEFE30600EE07846FEF7F3
:10A17400ADFAE2E77846FEF7A9FADFE77846FEF79C
:10A18400A5FAE1E7092700E009273846F8BD70B5CC
:10A194000C4616460546B8B1D4B1A378012B1BD1A1
:10A1A4002388B3421CD3FEB126800223A370E9188E
:10A1B4002846FFF7B3FE6A88AB889A4203D0AB689F
:10A1C400134400229A7070BD7846FEF77FFAE3E7E5
:10A1D4007846FEF77BFAE0E77846FEF777FADFE7A2
:10A1E4007846FEF773FADEE77846FEF76FFADBE7A8
:10A1F40038B50D46044650B16DB1A288A368134426
:10A204009A78022A0BD0032A0ED005200BE0784658
:10A21400FEF75CFAF0E77846FEF758FAEDE703221A
:10A224009A702B60002038BD7846FEF74FFA002064
:10A23400F9E710B5044640B1A288A368134498789E
:10A24400022814BF0020012010BD7846FEF73EFA14
:10A25400F2E710B5044618B1A088A168014407E0EC
:10A264007846FEF733FAF7E72046FFF767FE014624
:10A2740088780328F8D0022814BF0020012010BDDC
:10A2840038B50C46054650B16CB1A378012B0ED0FD
:10A29400032B03D121462846FFF7A2FE38BD78469A
:10A2A400FEF714FAF0E77846FEF710FAEDE72146D8
:10A2B4002846FFF7B0FEF1E708B5064B9868002280
:10A2C4001A605A609A60DA601A615A619A6104F0FD
:10A2D40055FD08BD743E002000B585B00A4BDB680F
:10A2E40002228DF8002001934FF480530293074A11
:10A2F4006946012001F098F918B1002005B05DF815
:10A3040004FB0120FAE700BF743E0020903E0020C9
:10A3140000B585B00A4B1B6802228DF8002001931A
:10A324004FF480530293074A6946012001F07CF9F7
:10A3340018B1002005B05DF804FB0120FAE700BF66
:10A34400943E0020903E0020164BDA681379517930
:10A354005B1A03F57F2303F6FF7302EB03339A4280
:10A3640005D002F580520F4BDA600320704700B528
:10A3740085B00D4B1B6801208DF8000001930B4B39
:10A384000393042302930A4A694601F04DF918B174
:10A39400002005B05DF804FB024B01221A7602206E
:10A3A400F7E700BF743E0020943E0020983E002052
:10A3B400903E002000B585B00C4BDA680C4B1B684E
:10A3C400043301208DF800000192039340F6FC73DE
:10A3D4000293084A694601F027F928B90120034B82
:10A3E400187605B05DF804FB0020FAE7743E0020FF
:10A3F400943E0020903E002000B585B00A4B1B68B7
:10A4040001208DF800000193084B03930423029369
:10A41400074A694601F008F918B1002005B05DF853
:10A4240004FB0120FAE700BF943E0020803E002098
:10A43400903E002010B584B0114BDA681478114BAB
:10A444001B68043301208DF80000019303920294E9
:10A454000D4A694601F0E8F880B90A4B1B6804F01C
:10A46400FC041C440434064B5C61D9680A780A4431
:10A474001A6100225A76012004B010BD0020FBE7C7
:10A48400743E0020943E0020903E002008B5002336
:10A49400092B09D8064A52F82320824201D00133FD
:10A4A400F6E7044A536002E07846FEF70FF908BD68
:10A4B40058210400743E002010B5214BDB6853B1D1
:10A4C4001F4B1B7E5BB91E4B5B68092B15D9784665
:10A4D400FEF7FCF811E07846FEF7F8F8F0E7784666
:10A4E400FEF7F4F8EFE7164B00225A60012C01D076
:10A4F400032C23D1124B1B7E03BB114B5A68114B07
:10A5040053F822309847044602280DD00328EAD095
:10A514000128EBD10A4A536801335360092BE5D96A
:10A524007846FEF7D3F8E1E7054B1B7E1BB1044BDD
:10A5340002221A70DAE7FFF7BFFED7E710BD00BFAB
:10A54400743E002058210400104B1B681B685A1EDF
:10A5540012F1030F18D8C3F30B020AB1002070479D
:10A5640010B50B4AD360002313765376012414707C
:10A5740093600848FFF78AFF0749204601F042F834
:10A58400FFF79AFF204610BD00207047943E00203C
:10A59400743E0020DDA20200A1A5020008B50B78DC
:10A5A400032B06D00B4B1B78012B06D0022B0BD0B0
:10A5B40008BD084B00221A76F4E7064B1B7E002BDD
:10A5C400F6D1FFF779FFF3E70B78032BF0D1FFF710
:10A5D40073FEEDE7743E002000B585B0174BDB68D1
:10A5E40018784FF6FF7203F58051184404F08EFE7C
:10A5F400F0B10246114BD9680B780B44984219D03C
:10A604000E4B5B7E93B10E4B01208DF8000001923E
:10A614000393042302930B4A694601F005F858B9E1
:10A624000120064B187605B05DF804FB064BEBE7FA
:10A634000120F8E70120F6E70020F4E7743E00204B
:10A64400A4230400903E0020A023040008B5104B6E
:10A65400DB681878002203F58051184404F056FE94
:10A6640008B1012008BD0A4BDA68137951795B1AE5
:10A6740003F57F2303F6FF7302EB03339A4205D0FD
:10A6840002F58052024BDA600320EBE70220E9E78F
:10A69400743E0020F0B585B0524BDE687279337990
:10A6A400591E8A4200F0968006F580510D780D44BB
:10A6B4004D490968081D0F7907449B1A03F57F2348
:10A6C40003F6FF731B0303F580531E446B88013BA1
:10A6D4009BB247F6FE6293425CD92C4616E078465C
:10A6E400FDF7F4FF15E024F47F6424F00F0404F56F
:10A6F400805423781C44A64247D9A54247D2638894
:10A70400013B9BB247F6FE62934211D92388002B8A
:10A71400E5D0238804EB830323F47F6222F00F0245
:10A724009342E0D06288B2F5FE4FDCD01C46E2E7EB
:10A7340025462FE07846FDF7C9FF15E024F47F6431
:10A7440024F00F0404F5805423781C44A64220D935
:10A75400A5423BD26388013B9BB247F6FE6293421B
:10A7640011D92388002BE5D0238804EB830323F439
:10A774007F6222F00F029342E0D06288B2F5FE4F6E
:10A78400DCD01C46E2E7254604E0002502E0002573
:10A7940000E00025E5B1144B19686A8801F5805181
:10A7A400384604F0B3FD0746B8B101200D4B1876C6
:10A7B4008DF8000001950D4B0393042302930C4A7A
:10A7C400694600F031FF50B92C46CAE70025E1E79D
:10A7D400012000E0012005B0F0BD0120FBE70020CE
:10A7E400F9E700BF743E0020943E00209C2304003F
:10A7F400903E00202DE9F04186B06A4B1B692BB1D5
:10A80400684B5B6933B14FF0000848E07846FDF7C8
:10A814005DFFF5E77846FDF759FFF4E77846FDF765
:10A8240055FF15E025F47F6525F00F0505F58055E6
:10A834002B781D44AE421CD9AC421ED26B88013B1E
:10A844009BB247F6FE62934211D92B88002BE5D0C8
:10A854002B8805EB830323F47F6222F00F029342DB
:10A86400E0D06A88B2F5FE4FDCD01D46E2E72C4604
:10A8740000E000241CB1009445E00024FAE7002322
:10A884000093019B002B68D14FF0010824B162882A
:10A8940047F6FF739A4202D1424B01225A76414B4A
:10A8A4005B7E002B7AD1B8F1000F75D13D4B5A690C
:10A8B40022F47F6727F00F07BF1A07F580571C693A
:10A8C400DE68337972799B1A03F57F2303F6FF73ED
:10A8D4001B0303F580531E44002301936388013B4B
:10A8E4009BB247F6FE629342C5D92546ADE778464A
:10A8F400FDF7ECFE22E024F47F6424F00F0404F559
:10A90400805423781C44A642BBD92388019A02EBC5
:10A9140083029742B5D9009B634023F47F6323F0FD
:10A924000F03002BADD16388013B9BB247F6FE6158
:10A934008B42A6D801922388002BD8D0238804EB1D
:10A94400830323F47F6222F00F029342D3D0628800
:10A95400B2F5FE4FCFD01C46D5E7124A526901200A
:10A964008DF808000392009A059204930E4A02A9F6
:10A9740000F05AFE70B90B49019B23F003024B69A6
:10A9840013444B6114B1074B1C617FE77846FDF714
:10A994009DFEF8E7002002E0012000E0012006B05F
:10A9A400BDE8F081743E0020903E002008B54FF0D1
:10A9B40010235B69B3F1FF3F03D04FF010235B69B1
:10A9C40063B94FF080525169136903FB01F3A3F596
:10A9D4008053054A1360FFF7B7FD08BD4FF01023FD
:10A9E4005B69A3F58053F2E7943E0020024B18788C
:10A9F400003018BF01207047743E002010B5044693
:10AA04000E4B1B78ABB92378032B02D07846FDF7A5
:10AA14005DFE0A4B9C60E268DA6000225A601A7696
:10AA2400012018705A76064900F0ECFDFFF744FD4A
:10AA340010BD7846FDF74AFEE5E700BF743E0020EE
:10AA4400A1A50200014B1868704700BF943E002086
:10AA540010B5044680B163681BB123680BB1A368C9
:10AA640013B97846FDF732FEA3685A1E134207D184
:10AA74000023E360236110BD7846FDF727FEEAE773
:10AA84007846FDF723FEF3E7F8B5F8B10446F9B1CB
:10AA94008268FAB1EFF3108572B6026980680244E5
:10AAA400E668B24203D1C5B962B6042513E027684B
:10AAB4006368013830401A4600FB037016F081FACF
:10AAC400E3680133E36055B962B604E00E2502E0A1
:10AAD4000E2500E009252846F8BD0425FBE70025DE
:10AAE400F9E770B5F0B104468268EAB1EFF3108576
:10AAF40072B60669C268964210D008462168626838
:10AB0400A368013B1E4006FB021108B116F059FA76
:10AB140023690133236165B962B606E03DB962B6C3
:10AB2400052502E00E2500E00925284670BD05250F
:10AB3400FBE70025F9E70000C0F30B0333BB39B38F
:10AB440001F6FF71090B134B0222C3F80425114BC4
:10AB5400D3F80034002BFAD000220AE00D4BC3F8DE
:10AB640008050C4BD3F80034002BFAD000F58050C4
:10AB740001328A42F2D3074B0022C3F80425054B65
:10AB8400D3F80034002BFAD000207047102070470F
:10AB94000920704700E0014010F0030F2FD111F09D
:10ABA400030F2FD182B312F0030F2FD110B49208E8
:10ABB400174B0124C3F80445154BD3F80034002B7C
:10ABC400FAD002E0043004312246541E52B10B681C
:10ABD400B3F1FF3FF6D003600D4BD3F80034002BE4
:10ABE400FAD0EFE70A4B0021C3F80415084BD3F859
:10ABF4000034002BFAD010465DF8044B7047102245
:10AC0400104670471022FBE70922F9E70922F7E70B
:10AC140000E001400180002343804260704700004F
:10AC240038B5124C4FF480552A460021204616F0C0
:10AC3400F1F90F4B1C600AE0002228212046FFF79F
:10AC4400E9FF2388083323446360303D1C46502DBC
:10AC5400F2D8083D05D00022A9B22046FFF7DAFF5A
:10AC640038BD7846FDF732FDF5E700BF9C3E002075
:10AC74009C4E002008B508220221084803F0FFFE7C
:10AC840038B1074A91684160127B027203F030FFC9
:10AC940008BD044804F04AF8FAE700BFA84E0020B3
:10ACA400F04E00207C3300200E4B1B78CBB910B53E
:10ACB4000D4B5C6804F50054B4F1807F00D910BDDD
:10ACC40004220121094803F0DAFE30B14460054A48
:10ACD4000121117003F00CFFF1E7054804F026F898
:10ACE400EDE77047044F0020F04E0020A84E0020EE
:10ACF4006C33002010B5044608B1A04710BD784657
:10AD0400FDF7E4FCF9E7000008B501210B4803F066
:10AD140017FF20B90221094803F012FF28B108489F
:10AD240004F004F8FFF7C0FF08BD064B00221A60C8
:10AD34005A609A60DA601A61F4E700BFA84E0020F6
:10AD44009C330020F04E002000B58DB004918DF8A6
:10AD5400082003900CA8022300F82C3DFFF78AF882
:10AD64000DB05DF804FB000010B58CB00C4682B940
:10AD74004B88012B20D1134B1B7833B16268124BE3
:10AD84005A60104B00221A7016E07846FDF79EFCBC
:10AD9400F4E7032A12D12C22002101A816F03AF973
:10ADA40010238DF804300394084BDA6805921B696C
:10ADB400069301A8FFF75EF80CB010BD7846FDF7C6
:10ADC40085FCE8E7044F0020F04E0020A84E002048
:10ADD40038B503F0C3FF28B901F09EFF0028F8D06E
:10ADE40020BFF6E701F0CEFE002211461A4803F018
:10ADF400A0FD00252C4605E0051D0246002116484D
:10AE040003F097FD30B14388012BF5D0022BF4D128
:10AE1400041DF2E7A4B19DB12268104B9A60227917
:10AE24001A73AC4201D9237993B12A680B4B1A6087
:10AE34000A4B1A685A60FFF737FF01F0C3FE38BDAA
:10AE4400064B00221A609A601A73FFF713FFEFE7AC
:10AE5400024B00221A60EBE7A84E0020F04E0020BF
:10AE640008B503F0BDFFA0F5805008BD00B587B05C
:10AE74000023009301930293039304930593FFF734
:10AE8400EFFF009001230193064B039369460648A4
:10AE940003F006FF10B907B05DF804FB034803F0A4
:10AEA40045FFF8E76DAD0200A84E00208C3300206A
:10AEB40038B50F4B00241C605C609C60DC601C6136
:10AEC40001F0BEF90B4D68600B4BAB600B4BEB60B4
:10AED4002C616C610A4B1C700A480B4B036000F038
:10AEE400F9FD284601F0AEF8FFF7C0FF38BD00BFFA
:10AEF400F04E0020CC4E0020D9B00200008793030E
:10AF0400054F0020E44E0020ADB0020038B501F03A
:10AF140039FE174B1B7B13BB154B9B7B23BB144B7D
:10AF24001A8A41F282639A4204D8124B1B78A3B165
:10AF3400012300E00123CBB10D4D01232B73002429
:10AF44002C82AB680133AB60FFF794FEA9682A7BBF
:10AF540001392046FFF7F8FE02E00023EBE708245E
:10AF640001F030FE204638BD0824F9E70824F7E74D
:10AF7400F04E0020054F002010B501F003FE214BD8
:10AF84005B7B9BB11F4B9B7BF3B91E4B1A8A41F22F
:10AF940082639A4204D81C4B1B782BB1012300E036
:10AFA40001239BB1012302E00023FAE700231C469E
:10AFB4001BB3144B00225A731B7B4BB1012B0ED0D5
:10AFC4007846FDF783FB18E00023F0E70023EEE763
:10AFD400FFF79CFF88B17846FDF778FB0DE0094B3D
:10AFE4000020186058601873188202469968FFF7A9
:10AFF400ABFEFFF73FFEFFF757FE01F0E3FD2046EF
:10B0040010BD00BFF04E0020054F002038B5254B81
:10B014001B7B002B36D10446224B5B8A33BB1AB907
:10B02400204B9B688B4205D302B31E4B9B680133B4
:10B034008B421BD21B4B9B682A338B4224D3194B64
:10B044009B7B0BBB174DA9602B606B602B8242F678
:10B0540006526A826B732B73FFF70CFEFFF724FE14
:10B064002A7BA9682046FFF76FFE0DE062B10D4B05
:10B074009B6801338B4207D10A4B01225A73FFF7B5
:10B084007BFF01E0012B00D038BD002AFCD1054B29
:10B094009B688B42F8D1034B01225A73FFF76CFF74
:10B0A400F2E700BFF04E00200378042B00D0704775
:10B0B40043681B78002BFAD010B58468027E437E67
:10B0C400012A14BF00220122416904F11000FFF794
:10B0D4009DFF10BD08B5214B1B7B7BB1012B20D0FC
:10B0E4007846FDF7F3FA1D4A138A013313821B4B8A
:10B0F4005B8A13B1013B194A538208BD174B1A8A64
:10B1040041F282639A4204D8154B1B783BB1012368
:10B1140000E00123002BE6D0FFF72EFFE7E7002332
:10B12400F8E70E4B1B8A41F28262934204D80C4A20
:10B13400127872B1012200E00122002AD3D042F237
:10B14400B012934207D9054B01225A73FFF714FF3B
:10B15400CDE70022F1E7FFF70FFFC4E7F04E002030
:10B16400054F002010B5184B1A685B689A4225D227
:10B174000446154B1B7B012B13D0144B9A4212D25D
:10B18400114B1A685B68403B9A4214D2EFF310806B
:10B1940072B60D4A1368591C1160236090B962B6E7
:10B1A40010BD0B4BEAE7084B01225A73FFF7E4FE8C
:10B1B4000028EBD1E4E7FFF777FDE7E7FFF774FD3D
:10B1C4000F20EDE70020EBE7F04E0020FFFF7F00AB
:10B1D40000E0FF0008B568B90C4B1B6893B10B4A3B
:10B1E4001368013B136063B9094B00229A73FFF79C
:10B1F400C3FE06E0064B01229A73044A1368013326
:10B20400136008BD7846FDF761FAE8E7A44E002014
:10B21400F04E002000B58DB0ADF808008DF8102078
:10B2240003910CA8032300F82C3DFEF723FE0DB078
:10B234005DF804FB014B9868704700BFF04E002096
:10B24400054B1B7B012B02D0034B98687047024BC4
:10B2540098680138704700BFF04E0020044B9B688B
:10B26400584010F0010F00D0013B1846704700BF52
:10B27400F04E0020014B187B704700BFF04E0020B9
:10B2840038B50A4B1B7873B9084B01221A70084D64
:10B29400A8602973FFF7EEFC00242C606C60FFF7B4
:10B2A40003FD204638BD0820FCE700BFA04E002067
:10B2B400F04E00202DE9F041002724E02449BC236E
:10B2C40003FB04F3CA5A0132CA520221284602F08F
:10B2D40081FB01360221284602F04CFB80B11C4A56
:10B2E400BC2303FB0423D3F80880B8F1000FE5D096
:10B2F400BC2303FB04F3D25A01463846C047DDE7BA
:10B304008EB90137FFB2022F1FD83C46BC2303FB82
:10B3140007F308330E4D1D4404350221284602F07C
:10B3240029FB0026DAE70021284602F0BBFB0828A7
:10B33400E7D1074BBC2202FB0434A368002BE0D006
:10B344000022044938469847DBE70120BDE8F08134
:10B35400104F00208021040008B5082383731023B4
:10B36400437300F11C0343610323037300F11803C7
:10B3740003610C3002F068FB08BD000008B50378D7
:10B38400012B06D0022B07D07846FDF79FF9002049
:10B3940001E04FF4A97008BD0048FCE7645E0100B9
:10B3A40008B50278012A07D0022A13D07846FDF79F
:10B3B4008DF94FF4FA7308E083685B1A98084FF428
:10B3C400A97303FB00F303F5FA730748984228BFF7
:10B3D400184608BD83685B1A180B044B03FB00F383
:10B3E40003F5FA73F1E700BFA0860100645E010073
:10B3F40010B5044601210C3002F0BCFAA0B10D4A8C
:10B40400C4F89C200022C4F8A0206168FFF7C8FF9C
:10B41400C4F8A800C4F8AC40012384F8B83004F19F
:10B424009C000BF0B1FE00B910BD7846FDF74EF953
:10B43400FAE700BF39B50200F8B506460C461746D0
:10B4440015680378012B18D11249A1FB0431C909ED
:10B454008900B468641B8C4200D30C468CB17068BC
:10B4640025F00305F168224629442844FFF794FB9C
:10B4740058B93B681C443C60F8BD7846FDF726F992
:10B48400E2E77846FDF722F9E9E77846FDF71EF989
:10B49400EFE700BFEB5DF260F8B507460C461646D1
:10B4A40015680378022B16D1114BA3FB04231B0C44
:10B4B4001B03BC68641B9C4200D31C467CB17868A7
:10B4C40025F0030521462844FFF736FB58B93368B5
:10B4D4001C443460F8BD7846FDF7F8F8E4E7784694
:10B4E400FDF7F4F8EBE77846FDF7F0F8EFE700BF77
:10B4F400B77609BB38B505460C4611462378012BAF
:10B5040006D0022B0FD07846FDF7E0F8002304E0C4
:10B51400021D2046FFF790FFA3686868984214BF95
:10B524000020012038BD021D2046FFF7B5FFA368A7
:10B53400F3E700002DE9F8430F46D1F8A850234B58
:10B544001B7863B90646A5F5FA7501F10C090121CA
:10B55400484602F00FFA804640B1002422E00BF086
:10B564004FFE002387F8B830BDE8F8837846FDF72E
:10B57400ADF8F2E70BF044FE0121484602F02AFA46
:10B5840000237B6087F8B830114B186801F05CFB2E
:10B594003846FFF72DFFE7E74046FFF7EFFE20446C
:10B5A400A8420CD82A1B41463846FFF7A3FF0028BF
:10B5B400E0D100F045FE841BEED5341AECE70BF025
:10B5C4001FFE3846FFF714FFCEE700BF0C4F0020E4
:10B5D400084F002010B5084801F016FB074B18600F
:10B5E400002406E0064BBC2000FB0430FFF7B4FE49
:10B5F4000134022CF6D910BDB9B20200084F002064
:10B60400104F002038B504460D46022805D8054BD6
:10B61400BC2202FB0434A56038BD7846FDF756F819
:10B62400F5E700BF104F00202DE9F84306460C460D
:10B634001746022816D8CCB12378012B1AD0022B36
:10B644003ED16368C3F30B03002B31D1A368C3F36A
:10B654000B03002B30D1A368002B34D17846FDF7BF
:10B6640035F830E07846FDF731F8E4E77846FDF741
:10B674002DF8E1E7636813F0030F0DD1E36813F0CD
:10B68400030F0DD1A36813F0030F0DD1A368D3B931
:10B694007846FDF71BF816E07846FDF717F8EDE756
:10B6A4007846FDF713F8EDE77846FDF70FF8EDE778
:10B6B4007846FDF70BF8C9E77846FDF707F8CAE7BF
:10B6C4007846FDF703F8EFF3108872B6BC2505FB46
:10B6D40006F505F10803204D1D44043500212846D4
:10B6E40002F048F9814668B30021284602F072F955
:10B6F40020686168A268E368C9F80000C9F804100A
:10B70400C9F80820C9F80C302FB1134ABC2303FB35
:10B7140006235B883B80104ABC2303FB06235A881C
:10B7240001325A8093F8B83073B90C4B1B780BB1C3
:10B7340000200AE0084BBC2000FB0630FFF758FE4F
:10B74400002002E0042000E00020B8F1000F00D146
:10B7540062B6BDE8F88300BF104F00200C4F0020F4
:10B7640018B1830B024AD05C70470020704700BFB9
:10B774009021040012DF704700B583B01378A3B1A1
:10B78400042B14D1072110F8013C163B152B31D89A
:10B79400DFE803F059303030303030303030303082
:10B7A400303030303030302E0F3A517DEBE700210D
:10B7B400E9E7022901D007291CD110F8021C01393C
:10B7C40001F068FEB0B1264B1B6813F0400F11D096
:10B7D400244B1B68012B0DDD234BD3F8043501905A
:10B7E400224A00928C222249022002F043FB01E00B
:10B7F400022902D003B05DF804FB10F8021C0139E1
:10B80400C9B211F0F1FFF5E70229F3D110F8021CD7
:10B814000139C9B203F0ECFC0028EBD0104B1B68D3
:10B8240013F0400FE6D00F4B1B68012BE2DD0E4BEB
:10B83400D3F8043501900F4A00929F220C4902204C
:10B8440002F018FBD6E701884FF6E4639942D1D1A0
:10B8540010F8021C03390230FCF788FECAE700BF67
:10B86400BC330020B833002000B0004004220400A0
:10B87400F72104003022040000B58DB02C220021F1
:10B8840001A815F0C7FB0D238DF8043001A8FEF7BD
:10B89400F1FA0DB05DF804FB70B58AB00CF0F4F960
:10B8A40058B3064600238DF8103005AC05460FCD7D
:10B8B4000FC42B682360727D052A04D9337D03F0FD
:10B8C4000F03072B20D1184B1B689BB104AB0393C8
:10B8D400337DC3F303038DF80430737D062B1DD928
:10B8E400063B8DF8053006F11D0302930E4B1B68D1
:10B8F40001A8984730460CF0A7F90CF0DFF980F066
:10B904000100C0B20AB070BD307D04AB063A06F146
:10B914001D0100F00F000AF08BFFD4E700238DF81F
:10B9240005300293E2E700BF4851002070B582B0B1
:10B93400304B1B78002B55D1002857D0067A0F2E98
:10B9440001D0072E54D10446C06870B1FCF7E8FE5C
:10B954000DF10700FFF70EFF0546002843D19DF8BF
:10B964000730012B04D002253DE0FCF7E7FEEFE7AA
:10B97400FCF7FAFE00F052FB304601F0CBF8E07819
:10B9840000F032F900F0D0FF0BF0BCFB1A480CF0C9
:10B9940031FA0BF0EBF8FFF71DFE02F043FF1748F6
:10B9A40003F022FA04F090FC204601F04FFC2046FC
:10B9B400FDF7EAFE03F09CFF2046FFF731F9FCF7A0
:10B9C400D5FD18B1062801D005460CE000F056FD5F
:10B9D4000B480AF00FFF0B4B00221A60054B0122A3
:10B9E4001A7000E00825284602B070BD0E25FAE75B
:10B9F4000725F8E7455100209DB802007DB80200F4
:10BA0400AC3300204851002010B50E4B1B789BB17D
:10BA14000D4B1B7893B900F0ADFF48B90BF094FBC4
:10BA2400044660B90CF0D0F8074B01221A7006E006
:10BA34007846FCF74BFEF1E7082400E00824204692
:10BA440010BD00BF455100204451002010B5094BE2
:10BA54001B785BB10BF088FB044640B90CF0CAF8C4
:10BA640000F0F2FF034B00221A7000E00824204685
:10BA740010BD00BF4451002030B583B004460D46CC
:10BA84000E4B1B6813F4804F03D00D4B1B68062B21
:10BA940005DC29462046FDF7DFFE03B030BD094B27
:10BAA400D3F80435084A0192084A009240F2B312CE
:10BAB4000749072002F0DEF9EBE700BFBC330020A2
:10BAC400B833002000B0004094210400A81E0400F4
