:020000022000DC
:1060000000F0002035620200656202006762020053
:10601000696202006B6202006D6202000000000013
:106020000000000000000000000000006F6202009D
:1060300071620200000000007362020075620200DB
:10604000796202007B6202007D6202007F620200D0
:106050008162020083620200FD8802008762020002
:10606000896202008B6202001D5C03008F620200E5
:106070009162020093620200956202009762020040
:1060800099620200698C030089D302009F620200BA
:10609000918C0300A36202003D860200A762020009
:1060A000A9620200AB620200AD620200AF620200B0
:1060B000B1620200B36202007762020077620200FE
:1060C000B5620200B7620200B9620200BB62020060
:0C60D000BD620200BF620200C16202005B
:1060DC00354936480A1A02D0072291438D46344975
:1060EC0034480A1A06D00722914381F30988022208
:1060FC0082F3148830483149314A00F043F8314872
:10610C003149324A00F03EF831483249324A00F007
:10611C0039F832483249334A00F034F832483349BE
:10612C00334A00F02FF833483349344A00F02AF848
:10613C0033483449344A00F025F8344834490022B5
:10614C0000F02BF833483449002200F026F833488D
:10615C003349091A082903DB00220260043001606C
:10616C001F482049884205D00268043003B4904788
:10617C0003BCF7E700208646EC4600200021294AA4
:10618C009047FEE7884207D0521A05D003780130B9
:10619C000B700131013AF9D17047884202D002707C
:1061AC000130FAE77047000000F0002000E8002002
:1061BC0000F0002000F000202C040400C832002065
:1061CC00DC330020C4620200C462020008E7030052
:1061DC002C040400C8320020C832002008E7030059
:1061EC0008E7030008E7030008E7030008E70300DB
:1061FC0008E7030008E7030008E703002C04040089
:10620C0040050400DC330020DC330020DC330020AC
:10621C00906A0020906A0020906A0020906A00200A
:10622C00906E0020F170020008484FF0070188437F
:10623C008546074880470748016841F470010160B2
:10624C00BFF34F8FBFF36F8FFFF742BF00F00020FB
:10625C00FD83030088ED00E0FEE7FEE7FEE7FEE7C6
:10626C00FEE7FEE7FEE7FEE7FEE7FEE7FEE7FEE7FA
:10627C00FEE7FEE7FEE7FEE7FEE7FEE7FEE7FEE7EA
:10628C00FEE7FEE7FEE7FEE7FEE7FEE7FEE7FEE7DA
:10629C00FEE7FEE7FEE7FEE7FEE7FEE7FEE7FEE7CA
:1062AC00FEE7FEE7FEE7FEE7FEE7FEE7FEE7FEE7BA
:0862BC00FEE7FEE7FEE700BF6C
:1062C40041DF704708B5804708BD000008B5034AA0
:1062D4008621032012F058FD08BD00BFD4EA030054
:1062E4000B7823BB124B1B6813F4804F1FD0114B48
:1062F4001B68032B1BDD10B584B00F4BD3F804359A
:106304004A685088097B5269147814B992F90D20AF
:1063140000E00022039202910190084A00924FF497
:106324009C720749042007F0DDFF04B010BD7047DC
:106334005C3300205833002000B0004000E8030024
:1063440033EB03000C4B1B6813F4804F03D00B4B4F
:106354001B68032B00DC704700B583B0084BD3F8EF
:106364000435084A009292220749042007F0BAFF34
:1063740003B05DF804FB00BF5C33002058330020F9
:1063840000B000403CEB030033EB030000B583B0E6
:10639400194B1B6813F4804F03D0184B1B68032B55
:1063A40012DC174B4FF6FF725A809A801A801548F8
:1063B40014F012FEA0B9144A0021144817F098FFF3
:1063C400A0B903B05DF804FB114BD3F80435114AAE
:1063D400009240F2EF121049042007F083FFE0E737
:1063E4000E4A40F2F71112F0CFFCE4E70B4A4FF4E7
:1063F400FC7112F0C9FCE4E75C3300205833002040
:10640400DC33002025640200E5620200E43300204E
:1064140000B0004000EC030033EB0300D4EA0300B7
:1064240070B582B004460D4616460E4B1B6813F435
:10643400804F03D00C4B1B68032B06DC32462946E5
:10644400204601F079FF02B070BD084BD3F8043543
:10645400074A009240F24D120649042007F042FF19
:10646400ECE700BF5C3300205833002000B000404C
:1064740024E7030033EB030000B583B0642117481D
:1064840002F04AF905F0B8FDB0B9154B1B6813F4D6
:10649400804F03D0134B1B68032B13DC00214FF4F4
:1064A400F01002F0A2F90222C8214FF4F01002F019
:1064B400A7F903B05DF804FB0B4A40F24A2112F03D
:1064C40063FCE2E7094BD3F80435094A009240F231
:1064D4004B220849042007F005FFDFE79968020012
:1064E4005C33002058330020D4EA030000B000409D
:1064F40020EC030033EB030000B583B0104B1B68A2
:1065040013F4804F03D00F4B1B68032B08DC0021CE
:106514000D4B1970122002F057F903B05DF804FB1B
:106524000A4BD3F804350A4A52880192094A009268
:106534004FF48A720849042007F0D4FEE7E700BF4D
:106544005C330020583300202434002000B0004085
:10655400283400203CE7030033EB030000B583B08C
:106564000E4B1B6813F4804F03D00D4B1B68032B99
:1065740008DC00210B4B1970112002F025F903B03F
:106584005DF804FB084BD3F80435084A009240F246
:1065940023120749042007F0A5FEEAE75C33002034
:1065A400583300202434002000B0004070E8030079
:1065B40033EB030000B583B00F4B1B6813F4804F1B
:1065C40003D00E4B1B68032B0ADC0021112002F0C0
:1065D400FBF80121122002F0F7F803B05DF804FB88
:1065E400074BD3F80435074A009240F21B120649C0
:1065F400042007F077FEE8E75C33002058330020DE
:1066040000B00040A0E8030033EB030000B583B002
:10661400554B1B78002B40F09280544B5A881B88B2
:106624009A4226D2524B1B6813F4804F03D0514B2D
:106634001B68032B11DC4D48002300F118020221D2
:10664400808801F017FF0121122002F0BDF8464BAB
:1066540001221A7003B05DF804FB474BD3F80435EC
:10666400464A009240F25F124549042007F03AFE80
:10667400E1E733BB434B444A1A6010225A603C4B57
:106684001B6813F4804F03D03A4B1B68032B0CDCBC
:106694003C4A364BD988022001F0A6F801F0C2F832
:1066A4000121112002F090F8D1E7334BD3F80435DF
:1066B400364A00924FF4B5723149042007F012FEB5
:1066C400E6E71E2B26D82F4B314A1A6004225A6063
:1066D400274B1B6813F4804F03D0264B1B68032BF6
:1066E4000CDC284A214BD988022001F07DF801F006
:1066F40099F80121112002F067F8A8E71E4BD3F89E
:106704000435244A009240F275121D49042007F012
:10671400E9FDE6E7164B1B6813F4804F9AD0154B3E
:106724001B68032B96DD144BD3F804351A4A0092E8
:1067340040F27D121249042007F0D4FD8AE70C4B85
:106744001B6813F4804F85D00A4B1B68032B81DD33
:10675400094BD3F80435114A009240F285120849D6
:10676400042007F0BFFD75E72434002028340020FE
:106774005C3300205833002000B00040F4E90300EB
:1067840033EB0300F8330020A0EB030028EA0300F6
:10679400B0EB030058EA030088EA0300A4EA03000C
:1067A40008B538220021064817F047FF054808F0CD
:1067B400A7FA00B908BD044808F0F0FCFAE700BFE6
:1067C4002834002000340020F432002010B582B0B8
:1067D4000446294B1B6813F4804F03D0274B1B68D6
:1067E400032B04DC8CB1032C12D002B010BD244B5B
:1067F400D3F80435421C0192224A009240F2C71297
:106804002149042007F06EFDECE7FFF7FFFEECE7FB
:10681400194B1B6813F4804F03D0184B1B68032BD0
:106824001EDCFFF7BDFF09F069FE0422C8214FF406
:10683400801001F0E5FF104B1B6813F4804FD4D097
:106844000E4B1B68032BD0DD0D4BD3F804350F4AD8
:10685400009240F2DB120C49042007F043FDC4E728
:10686400074BD3F804350A4A009240F2D512064980
:10687400042007F037FDD4E75C33002058330020B0
:1068840000B000408CE9030033EB0300B8E90300D7
:10689400A0E903003038042800D9704708B5FFF791
:1068A40095FF08BDF8B5382201210F4808F01FFBF9
:1068B400A8B107460D4C051D04F1300C26460FCE39
:1068C40028606960AA60EB60344610356645F5D1EE
:1068D40003CC28606960384608F042FB02E00448B3
:1068E40008F05CFC0020F8BD0034002028340020AF
:1068F400D832002000B583B02D4B1B6813F4804FB1
:1069040003D02C4B1B68032B22DC0021122001F046
:106914005BFF294A5388013353800AF0DFFAFFF7FB
:10692400C1FF18BB244B5B881E2B24D9204B1B684A
:1069340013F4804F03D01F4B1B68032B2CDC042261
:10694400C8214FF4F01001F05BFF03B05DF804FBC5
:106954001A4BD3F80435184A52880192184A009207
:10696400F9221849042007F0BDFCCEE7164AFF219E
:1069740012F00AFAD6E7154A154B13600423536044
:106984000D4BD988022000F02FFF00F04BFF0121AE
:10699400112001F019FFD8E7084BD3F804350D4A4C
:1069A40000924FF486720749042007F09BFCC6E767
:1069B4005C330020583300202834002000B000400D
:1069C40098E7030033EB0300D4EA0300F833002014
:1069D400B0EB030088EA030008B5FFF763FF00B9D2
:1069E40008BD024AF12112F0CFF9F9E7D4EA030015
:1069F400F0B585B004AF794B1B6813F4804F03D016
:106A0400774B1B68032B18DC744B1B6813F4804F03
:106A140003D0734B1B68032B1BDC704B1B6813F4F4
:106A2400804F52D06E4B1B68032B4EDD6C468AB0F0
:106A34000DF1100C6546002332E06A4BD3F804359F
:106A4400694A009240F23E226849042007F04AFC59
:106A5400DAE7644BD3F80435654A11885088D28844
:106A6400039202900191634A00924FF410725F49BD
:106A7400042007F037FCD0E75D4A1A4492F8282036
:106A84004FEA121E59005C48066816F80E6005F8B5
:106A9400136002F00F0201310068825C6A54013312
:106AA4000F2BE9D900238CF820304E4BD3F8043552
:106AB400CDF808C0514A0192514A009240F2412255
:106AC4004A49042007F00EFCA546444B1B6813F406
:106AD400804F32D0424B1B68032B2EDD6C468AB0AC
:106AE4000DF1100C6546002312E0414A1A44127A53
:106AF4004FEA121E59004048066816F80E6005F861
:106B0400136002F00F0201310068825C6A540133A1
:106B14000F2BEAD900238CF82030324BD3F80435FC
:106B2400CDF808C0374A0192354A009240F2422219
:106B34002E49042007F0D6FBA546284B1B6813F406
:106B4400804F32D0264B1B68032B2EDD6C468AB057
:106B54000DF1100C6546002312E0254A1A44127EFA
:106B64004FEA121E59002448066816F80E6005F80C
:106B7400136002F00F0201310068825C6A54013331
:106B84000F2BEAD900238CF82030164BD3F80435A8
:106B9400CDF808C01C4A0192194A009240F24322DF
:106BA4001249042007F09EFBA5460C4B1B6813F406
:106BB400804F03D00A4B1B68032B02DC0437BD460D
:106BC400F0BD084BD3F80435104A00924FF411720B
:106BD4000649042007F086FBF0E700BF5C33002081
:106BE4005833002000B00040BCE8030033EB03003E
:106BF40028340020D8E80300603300201CE9030097
:106C040028E9030030E903003CE9030048E90300F4
:106C140000B583B002780D2A20D11B4B1B6813F4F6
:106C2400804F03D0194B1B68042B05DC184B1B78D1
:106C340073B103B05DF804FB164BD3F80435164A60
:106C440000924FF4C8721549052007F04BFBEDE79D
:106C5400FFF7CEFE0E4B01221A70EAE70A4B1B68BF
:106C640013F4804FE5D0094B1B68042BE1DD094B7D
:106C7400D3F8043501920A4A009240F29F12074960
:106C8400052007F02FFBD4E75C33002058330020A5
:106C94006034002000B0004038E8030033EB030008
:106CA40054E8030010B582B00446104B1B6813F47B
:106CB400804F03D00E4B1B68032B04DC23781C2B62
:106CC4000FD002B010BD0B4BD3F8043502780192FB
:106CD400094A009240F241120849042007F002FBDD
:106CE400ECE7002005F03CFAEBE700BF5C33002042
:106CF4005833002000B000407CE7030033EB03006E
:106D040000B589B0164B0593164B0693164B0793A3
:106D1400042304930DF0A6F8A0F50050029001237B
:106D2400039302A9114808F0F3F910B909B05DF80A
:106D340004FB0F4808F032FA0E4B1B6813F4804F23
:106D4400F4D00D4B1B68002BF0DD0C4BD3F804354D
:106D54000B4A0092A7220B49012007F0C3FAE5E78A
:106D64008D6D0200D16202004963020000340020EC
:106D7400C83200205C3300205833002000B00040AB
:106D8400D4E7030033EB030010B582B01446154B6F
:106D94001B6813F4804F03D0134B1B68032B07DCD1
:106DA400012C10D0022C12D0032C14D002B010BD30
:106DB4000E4BD3F804350E4A009276220D49042076
:106DC40007F090FAECE7784601F07CFEEAE77846B3
:106DD40001F078FEE8E7084A7F21042011F0D4FF8F
:106DE400E4E700BF5C3300205833002000B00040CB
:106DF40054EB030033EB0300D4EA0300F8B508F0C6
:106E0400E5F9044628B906F055FA0028F7D020BF62
:106E1400F5E701210E4807F09DFF88B1051D0D4FD0
:106E240000F1340C3E4628686968AA68EB680FC60E
:106E3400103537466545F5D12868696803C705E00C
:106E440038220021034817F0F8FB00242046F8BD3F
:106E5400003400202834002010B582B0FFF750FF22
:106E6400FFF7CCFF044658B1144B1B6813F4804F52
:106E740003D0134B1B68032B13DC204602B010BD58
:106E8400104B00221A805A804FF48072DA80FFF788
:106E940009FD0028F1D00C4A4FF4DE7111F074FFA3
:106EA400EBE70A4BD3F80435094A00924FF4E07239
:106EB4000849042007F016FADFE700BF5C3300201E
:106EC4005833002028340020D4EA030000B00040E6
:106ED400C0E7030033EB030008B5124B9988188907
:106EE4000BF068F858B90F4B998818890BF026F9FC
:106EF40058B90C4B188816F0EDFE60B908BD0A4A63
:106F04004FF4D47111F040FFEDE7074A40F2A911A4
:106F140011F03AFFEDE7044A4FF4D67111F034FF53
:106F2400ECE700BFDC330020D4EA030030B593B0B3
:106F3400202200210DEB020017F07FFB01238DF8C6
:106F4400203007238DF823308DF828302F4B0C93F5
:106F54002F4B10930DF1470108A809F0E5FA58BB2F
:106F64002C4805F099F8FFF777FF2B4B187602AC05
:106F74002A4D0FCD0FC495E8030084E8030002A84E
:106F840000F0E8FC9DF8473043BB254B1B6813F425
:106F9400804F03D0234B1B68032B13DC00F002FD4E
:106FA400FFF79AFF09F09AFFFFF716FD1E491F48E5
:106FB40001F0C4FA13B030BD1D4A40F2052111F0AE
:106FC400E3FECDE71B4BD3F804351B4A009240F295
:106FD4001A221A49042007F085F9DFE7104B1B68D1
:106FE40013F4804F03D00F4B1B68032B02DC00F01B
:106FF4004BFCDBE70F4BD3F80435114A009240F207
:1070040023220E49042007F06DF9F0E7A96C020071
:1070140091630200E8320020DC33002008E703001B
:107024005C33002058330020FD640200F96802003C
:10703400D4EA030000B00040B4EB030033EB0300D8
:10704400ECEB030000B585B01F4A04214FF4C040A7
:1070540007F02CF91D4B1B6813F4804F03D01C4B15
:107064001B68032B12DC11F015FED8B901F0F8FBF4
:10707400184801F015FCD8B9174B986901F0EAFAE1
:10708400E0B9FFF753FF05B05DF804FB134BD3F8E9
:107094000435134A009240F22D221249042007F0CD
:1070A40021F9E0E7104A40F22F2111F06DFEDDE7EF
:1070B4000D4A40F2332111F067FEDDE70A4A4FF42E
:1070C4000E7111F061FEDCE785E202005C33002002
:1070D40058330020D167020008E7030000B00040E5
:1070E4006CEB030033EB0300D4EA030008B5FFF7AD
:1070F400A9FFEFF3108572B6174B9B689BB9164A2C
:1071040001239360154BD3F880101548014011609A
:10711400C3F88000D3F8841051604FF0FF32C3F8F5
:107124008420002400E0012405B962B6FFF7A4F925
:10713400094B9B686BB164B9EFF3108172B6064BCF
:107144001868064A10605868506000229A6001B9B5
:1071540062B6FFF7B5F8FCE70C69002000E100E037
:10716400FC06FFBD1D4B1B781BB11C4B01221A7082
:10717400704700B587B01A4A03AB07CA03C323F8A4
:10718400022B120C1A701749174812F06BF9B0B998
:10719400164B009303AB134A1349154812F01FF919
:1071A40090B9144813F066FC0146114812F042F9F4
:1071B40078B90A4B01221A7007B05DF804FB0E4A35
:1071C4007C2111F0E1FDE3E70B4A7D2111F0DCFDA8
:1071D400E7E7094A7E2111F0D7FDEAE7A03700204E
:1071E4002CEC030068340020A4370020357302001F
:1071F400503600208834002014EF030030B583B0EB
:10720400284B1B681A6812B105465B68B3B9264B54
:107214001B6813F4804F40D0244B1B68032B01DC04
:1072240001203BE0224BD3F80435224A0092562237
:107234002149042007F056F801202FE0102B0FD825
:107244000024184B1B685A68C2F110018C4222D8E2
:107254001968281917F092F930B10134E4B2F0E753
:10726400784601F02FFCEBE70F4B1B6813F4804FBB
:1072740016D00E4B1B68032B01DC01200EE00C4BD7
:10728400D3F804350D4A00925F220B49042007F01D
:1072940029F8012002E0002000E0012003B030BD05
:1072A4000120FBE7EC3700205C330020583300203A
:1072B40000B00040ACEF030073EF0300C0EF030025
:1072C40030B589B0054600230193029303930493D8
:1072D400059306938DF81C30104B1A89ADF81420D1
:1072E4000F4A1288ADF81A2001AC5B6853F8080FF6
:1072F40059689A68DB680FC4012301AA2946094822
:1073040012F0B4F820B9084B03221A7009B030BD4A
:10731400064A722111F038FDF5E700BF88370020D6
:10732400E6370020503600208437002014EF030095
:107334002DE9F0418AB006AF04460378082B0ED835
:10734400DFE813F00900170255000D000D00F201EB
:107354000D009401EB009D4B1B78012B03D01037DB
:10736400BD46BDE8F0819A4B1B6813F4804F31D0C1
:10737400984B1B68032B2DDD6D468AB00DF1180E5A
:10738400F446002312E0E21812794FEA1218590069
:107394009148066816F808600CF8136002F00F02B2
:1073A40001310068825C0CF8012001330F2BEAD90B
:1073B40000238EF82030894BD3F80435CDF808E04B
:1073C400874A0192874A009290228749042006F056
:1073D40089FFAD4604342046FFF710FF0028BED0D5
:1073E4002046FFF76DFF794B03221A70B7E7784BFD
:1073F4001B6813F4804F03D0764B1B68032B2CDCE3
:10740400724B1B78032B39D0022BA8D1774C6368BD
:10741400774A12889A801A8801321A80DA88754964
:1074240009880A44DA80E368984723699847684BD7
:107434001B6813F4804F03D0664B1B68032B5BDC83
:107444006A4B5868002300F118020221808801F079
:1074540011F85E4B00221A7081E7604BD3F80435B3
:10746400654A12780292594A12780192634A00924C
:107474009B225D49042006F035FFC1E75E4B1B7873
:10748400DBB1534B1B6813F4804F03D0514B1B6883
:10749400032B07DC4D4B01221A70574A1378013B2A
:1074A40013705CE74D4BD3F80435554A0092A02283
:1074B4004D49042006F016FFECE7454B1B6813F416
:1074C400804F12D0434B1B68002B0EDD434BD3F887
:1074D4000435227A4649098802910192494A009268
:1074E400A7224149012006F0FDFE384B00221A7004
:1074F4003E4B5B69984732E7384BD3F804356268F2
:1075040092883C490988029101923F4A0092B5222F
:107514003549042006F0E6FE92E72D4B1B6813F470
:10752400804F03D02B4B1B68032B75DC274B0222A7
:107534001A70274B1B6813F4804F03D0254B1B682C
:10754400032B74DCE3683149D88A0CF09BFD0028D6
:1075540078D1E068254B19682D4BA2684988C08A08
:107564000DF0B6FA002872D1294B188813F0B0FD3B
:10757400002871D1254B1988254B188813F05AFD22
:1075840000286ED1124B1B6813F4804F3FF4E7AE12
:10759400104B1B68032B7FF7E2AE104BD3F8043576
:1075A400E268D28A11490968498819480088049018
:1075B40003911649098802910192164A0092D62233
:1075C4000949042006F08EFEC9E600BF8437002076
:1075D4005C330020583300206033002000B00040AA
:1075E4004CEC030028E9030073EF03008837002004
:1075F400E6370020E8370020E437002058EC030089
:10760400A0EC0300C4EC030008ED03006234002086
:10761400643400208CED0300614BD3F80435614AD7
:107624000092C0226049042006F05CFE7EE75C4BB9
:10763400D3F804355D4A0092C5225B49042006F064
:1076440051FE7FE75A4AC72111F09EFB81E7584A51
:10765400CB2111F099FB87E7554ACE2111F094FB19
:1076640088E7534AD02111F08FFB8BE7027A514B04
:107674001A80102300220121406811F024FF002801
:107684003FF46DAE4C4B1B6813F4804F03D04B4B4F
:107694001B68002B13DC4A4B1B783BB3464B1B681F
:1076A40013F4804F03D0454B1B68032B13DC454B6D
:1076B40001221A70424A1378013B13704FE6384B8B
:1076C400D3F804350190404A0092E622364901205D
:1076D40006F008FEDFE7324BD3F804353B4A00924C
:1076E400E9223149042006F0FDFDE0E7324B1B6836
:1076F40013F4804F03D0314B1B68032B06DC314B52
:1077040000221A70324B5B69984728E6244BD3F861
:107714000435304A128801922F4A0092F0222249FD
:10772400042006F0DFFDEAE72C4B0FCB87E80F00BF
:1077340010223946606811F0CFFEA8B91E4B1B68B1
:1077440013F4804F3FF40BAE1C4B1B68032B7FF7E5
:1077540006AE134BD3F80435214A0092FE22124997
:10776400042006F0BFFDFAE5114AFD2111F00CFBDF
:10777400E4E7114B1B6813F4804F3FF4F0AD0F4B5B
:107784001B68032B7FF7EBAD054BD3F80435154A83
:10779400009240F203120449042006F0A3FDDEE542
:1077A40000B0004040ED030073EF030064ED0300FC
:1077B40014EF0300E83700205C3300205833002026
:1077C400E437002084370020D0ED030000EE0300EE
:1077D40088370020E637002010EE030038EC030061
:1077E40078EE0300A0EE030010B51446094B1870A0
:1077F400094B1980094B01221A706368102B04D8B5
:10780400074B1C60FFF7AEFC10BD784601F05AF937
:10781400F6E700BFE4370020E63700208437002075
:10782400EC37002000B583B0104B1B6813F4804F75
:1078340003D00F4B1B68032B06DC0E4811F056FED9
:1078440070B903B05DF804FB0B4BD3F804350B4A55
:1078540000924FF48D720A49042006F043FDECE7D0
:10786400084A40F21B1111F08FFAEAE75C3300205A
:10787400583300203573020000B0004088EF030045
:1078840073EF030014EF030000B587B006A90123CA
:1078940041F8083D284B186802300DF00BF900BB85
:1078A400049B012B23D1244B1B6804AA191D58885F
:1078B4000DF0E0FAF8B905A80CF0D6FB1E4B1968D8
:1078C400BDF814000DF048F9D8B91C4B1B6813F42B
:1078D400804F03D01A4B1B68032B18DC07B05DF8EC
:1078E40004FB184A4FF4927111F04EFAD8E7784627
:1078F40001F0E8F8D7E7134A4FF4937111F044FA12
:10790400D9E7104A4FF4957111F03EFADDE70E4BBA
:10791400D3F80435084A1268518890881288039273
:1079240002900191094A009240F22D120849042064
:1079340006F0D8FCD2E700BF883700205C33002073
:107944005833002014EF030000B00040C0EE0300E1
:1079540073EF030038B50446C36883B1636993B118
:107964002369A3B10C4D0FCC0FC594E8030085E83F
:1079740003000023094A1370094A137038BD78467E
:1079840001F0A0F8EAE7784601F09CF8E8E77846C9
:1079940001F098F8E6E700BF88370020A037002000
:1079A4008437002010B584B0334BDB6904A840F859
:1079B400043D0CF017FB002836D1304C60681021D0
:1079C400083005F067F860681021183005F062F897
:1079D40060681021283005F05DF861682268023281
:1079E400083100200CF006FE20BB254B1B6813F465
:1079F400804F03D0234B1B68032B21DC1F4B1968DA
:107A04005A680B1D1832498800200DF0C1F838BBA4
:107A14001A4B19685A680B462832498801200DF020
:107A240057F818BB04B010BD174A4FF4A07111F0F9
:107A3400ABF9C2E7144A4FF4A47111F0A5F9D4E7E5
:107A4400124BD3F804350D4A126852880192104A39
:107A5400009240F249120F49042006F043FCCDE79E
:107A6400094A4FF4A57111F08FF9D1E7064A40F2A3
:107A74004D1111F089F9D5E72CEC0300883700206B
:107A84005C3300205833002014EF030000B00040A2
:107A940000EF030073EF0300B0F5807F06D0B0F56C
:107AA400827F07D9054B064A1A607047034B054A83
:107AB4001A607047014B044A1A607047043300206F
:107AC400ECF20300ACF00300E4F2030070B50646E8
:107AD40014460D4601B13AB1054B5E801D705C60E1
:107AE400044B00221A7070BD784600F0EBFFF3E7F8
:107AF400F4370020A439002010B584B0434B5A88D1
:107B0400824219D0424B1B6813F4804F78D0414B0A
:107B14001B68002B02DC022004B010BD3E4BD3F8DE
:107B24000435029001923D4A0092EA223C49012028
:107B340006F0D8FB0220EFE73A4B01221A7048F214
:107B4400190398422AD007D8022848D048F20303E0
:107B5400984227D10C7808E048F21F0398421FD0BE
:107B640048F23E0398421DD10C78284B1B78002B19
:107B740048D0274B1B6813F4804F03D0254B1B6858
:107B8400032B2EDC0023214A12789A4236D91F4A4D
:107B94005268D25CA24237D00133F4E70C78E4E7B0
:107BA4000C78E2E71A4B1B6813F4804F03D0194B8F
:107BB4001B68002B07DC1C4A4FF48471052011F06C
:107BC400E3F8FF24D1E7144BD3F80435174A0092A5
:107BD40040F207121249012006F084FBEBE7FF2470
:107BE400C3E70D4BD3F804350194114A00924FF4C6
:107BF40088720B49042006F075FBC3E701208BE76C
:107C0400022089E7002087E7002085E7F437002079
:107C14005C3300205833002000B0004044F00300DF
:107C240037F00300A4390020D8EF030070F00300FC
:107C340090F0030030B585B0044615460180104627
:107C440004F086F82071E580174B1B88A38100237C
:107C5400A3731E22E273227C02F0030263F3010287
:107C6400227401226274A3745922E27423750122DE
:107C74006275A3750D4B1B6813F4804F03D00C4B36
:107C84001B68032B01DC05B030BD0A4BD3F8043567
:107C9400228802950192084A009240F22D12074967
:107CA400042006F01FFBEEE7F03700205C330020D1
:107CB4005833002000B00040BCF0030037F003004C
:107CC40010B582B0112802D050BB02B010BD174BC2
:107CD4001B78002BF8D0164B1B6813F4804F03D08D
:107CE400144B1B68032B10DC13F0C2FA04F080FD64
:107CF40000F5F42000F590700C4CA060201D04F0F9
:107D040079FC2378013B2370DFE70B4BD3F8043570
:107D14000A4A0092CB220A49042006F0E3FAE3E778
:107D2400084AD32111F030F8CFE700BF883900208A
:107D34005C3300205833002000B00040C8F2030038
:107D440037F00300D8EF030030B58BB0A04B1B68AD
:107D54001B78013B0C2B00F25782DFE813F00D0077
:107D64002E0053007F00AA00E80055026101E501DE
:107D740001021D023902A901964B1B6813F4804FBE
:107D840003D0954B1B68032B0BDC002013F0BAF9CE
:107D9400FFF796FF002211460220FFF797FE0BB073
:107DA40030BD8E4BD3F804358D4A009240F26912EF
:107DB4008C49042006F096FAE7E7864B1B6813F417
:107DC400804F03D0844B1B68032B0FDC864B1A684F
:107DD400864B1988002013F0BBF9FFF771FF844A22
:107DE400022148F20300FFF771FED8E77B4BD3F87A
:107DF4000435804A009240F273127A49042006F056
:107E040071FAE3E7734B1B6813F4804F03D0724B92
:107E14001B68032B16DC4FF6FF73ADF810300223FA
:107E2400ADF81230049A714B1988734B188813F00B
:107E340015FAFFF745FF714A012148F23E00FFF7AA
:107E440045FEACE7654BD3F804356D4A00924FF418
:107E5400BF726449042006F045FADCE75D4B1B68F9
:107E640013F4804F03D05C4B1B68032B15DC5923A0
:107E7400ADF810300023ADF81230049A5B4B19882A
:107E84005D4B188813F0EAF9FFF71AFF5D4A0121E8
:107E940048F23E00FFF71AFE81E7504BD3F8043551
:107EA400594A009240F28D124E49042006F01AFA03
:107EB400DDE7564B1B8823B94F4B1B880133534ACC
:107EC4001380444B1B6813F4804F03D0424B1B6850
:107ED400032B1DDC5923ADF810300124ADF81240FA
:107EE400049A424B1988494B188813F0B7F9054690
:107EF400FFF7E6FE464A214648F23E00FFF7E6FD5C
:107F0400002D7FF44CAF414A13882344138046E785
:107F1400324BD3F804353D4A128801923D4A00920F
:107F24004FF4D0722F49042006F0DCF9D2E7002385
:107F3400CDF81230CDF81630CDF81A30CDF81E3009
:107F4400CDF82230ADF826302B4A1288ADF8102037
:107F540001218DF81410ADF816101E228DF81F2083
:107F64009DF8202061F38702022060F301028DF85E
:107F740020208DF821104FF0FF328DF823208DF84A
:107F840024208DF825008DF82630124B1B6813F43D
:107F9400804F03D0104B1B68032B0BDC04A813F099
:107FA40019F9FFF78DFE1C4A012148F21900FFF769
:107FB4008DFDF4E6094BD3F804350191174A00927C
:107FC4004FF4E1720749042006F08CF9E6E700BF9C
:107FD400043300205C3300205833002000B00040FC
:107FE400ECF0030037F00300A8390020F03700203C
:107FF40014F2030008F10300F237002018F2030022
:1080040018F103001CF2030038F10300A639002024
:1080140020F203005CF1030024F2030094F1030056
:108024000023CDF81230CDF81630CDF81A30CDF843
:108034001E30CDF82230ADF82630774A1288ADF8DC
:10804400102001218DF81410023A92B2ADF81620D6
:1080540072480088ADF81C001E208DF81F008DF8B2
:10806400211059218DF823108DF824306C4B1B6896
:1080740013F4804F03D06B4B1B68032B0BDC04A859
:1080840013F0A8F8FFF71CFE674A012148F2190013
:10809400FFF71CFD83E6654BD3F804350192644A6F
:1080A40000924FF4EE726349042006F01BF9E6E7F0
:1080B4005B4B1B6813F4804F03D05A4B1B68032B94
:1080C40021DC554B18880023059303238DF81030C9
:1080D40010F0010F23D04CF20303ADF812305923F2
:1080E400ADF80C300023ADF80E30039B04AA06CA89
:1080F40013F08BF8FFF7E4FD4F4A012148F21F000B
:10810400FFF7E4FC4BE6494BD3F804354B4A0092A5
:1081140040F2E7124749042006F0E4F8D1E74CF2B4
:108124000203ADF81230DAE70023049305930693B3
:10813400079308930993384B1988013140F20312CD
:1081440089B204A8FFF776FD04A813F043F8FFF7FB
:10815400B7FD3B4A012148F21900FFF7B7FC1EE6C0
:1081640000230493059306930793089309932A4BDA
:10817400198802314FF4827289B204A8FFF75AFDBC
:1081840004A813F027F8FFF79BFD2E4A012148F2BB
:108194001900FFF79BFC02E6002304930593069362
:1081A4000793089309931C4B198803314CF203027B
:1081B40089B204A8FFF73EFD04A813F00BF8FFF7FB
:1081C4007FFD214A012148F21900FFF77FFCE6E513
:1081D40000230493059306930793089309930E4B86
:1081E400198804314CF2020289B204A8FFF722FD77
:1081F40004A812F0EFFFFFF763FD144A012148F2CF
:108204001900FFF763FCCAE5114A40F23121052049
:1082140010F0BAFDC3E500BFF2370020F0370020AC
:108224005C3300205833002028F2030000B00040E3
:10823400D4F1030037F003002CF20300FCF1030037
:1082440030F2030034F2030038F203003CF203007E
:10825400D8EF030008B5034804F0FEF9FFF774FDF6
:1082640008BD00BF8C39002000B589B04FF6FF73FC
:10827400ADF81E30ADF81C3001238DF81430ADF884
:1082840016000DF11E0105A80CF08CF8E8B907A939
:10829400BDF816000CF060FCE8B9BDF81C0012F043
:1082A40017FFF0B9BDF81E10BDF81C0012F0C2FE95
:1082B400E8B91B4B1B6813F4804F03D0194B1B68A0
:1082C400032B1ADC09B05DF804FB174A4FF4117153
:1082D40010F05AFDDBE7144A40F2452110F054FD3A
:1082E400DBE7114A4FF4127110F04EFDDAE70E4A43
:1082F40040F2492110F048FDDBE70C4BD3F804357C
:10830400BDF81E200292BDF81C200192084A00927A
:1083140040F24A220749042005F0E4FFD2E700BFF7
:108324005C33002058330020D8EF030000B0004035
:10833400F4F2030037F0030030B583B000283BD1DA
:108344003E4B1B6813F4804F03D03D4B1B68032B3B
:108354000ADC3C4B1B889BB93B4B3C4A1A603C4BA8
:108364001B68984703B030BD3A4BD3F804353A4AFA
:10837400009240F25D223949042005F0B3FFE8E79A
:108384002E4B1B6813F4804F03D02D4B1B68032B1B
:1083940006DC2C4A1388013B1380FFF7D5FCE1E788
:1083A4002C4BD3F804352E4A009240F261222B491B
:1083B400042005F097FFECE70C4615460228D1D1BE
:1083C400214B1B681B780E2BCCD0264B1B78002B23
:1083D400C8D1A9B161682088FFF78EFB28BB238828
:1083E400022B11D0184A1368591C11605B780E2BAC
:1083F40015D11346154A1A601B4B1B689847B1E701
:10840400784600F05FFBE5E718480580616811F8DD
:10841400013B83706A1E033016F0E6F8E2E7144B62
:1084240003221A70FFF790FC9CE701289AD1064BAF
:10843400064A1A60064B1B68984793E75C33002092
:108444005833002084390020043300203DF2030017
:108454007C39002000B0004040F2030037F00300F4
:108464006CF20300A439002080390020FC3700207E
:108474008839002010B582B0234C24682478A4B134
:10848400224B1B6813F4804F2ED0214B1B68002B0A
:108494002ADD204BD3F804351F4A009240F296227D
:1084A4001E49012005F01EFF1EE01D4C20801D4CBE
:1084B40021801D491D4CCC6003240C701C490A60AA
:1084C4001C4A1380114B1B6813F4804F03D0104BCC
:1084D4001B68A3420ADC124C2088FFF7C5FE2088E3
:1084E400FFF7DAFAFFF730FC02B010BD094BD3F8FE
:1084F40004350190104A00924FF428720749042071
:1085040005F0F0FEE7E700BF043300205C330020F1
:108514005833002000B0004078F2030037F0030025
:10852400F237002084390020883900205982020063
:10853400A8390020F0370020ACF2030038B50C460F
:10854400054628B144B1064B1D60064B1C6038BD7E
:10855400784600F0B7FAF5E7784600F0B3FAF2E7A8
:10856400803900207C3900204BDF704710DF7047D2
:1085740060DF704769DF704710B588B0274B1B6810
:1085840013F4804F03D0264B1B68032B10DC254BC0
:108594000793079A0692002303930493059303A970
:1085A4000120FFF7E7FF044668B1204608B010BD7C
:1085B4001D4BD3F804351D4A00924B221C4904205C
:1085C40005F090FEE3E7002304930593F823039357
:1085D400069A03A9A120FFF7CDFF04460028E4D1A1
:1085E40006A8FFF7C5FF0446069A079B9A42DCD00B
:1085F4000A4B1B6813F4804FD7D0094B1B68012B1F
:10860400D3DD094BD3F8043501920A4A00926D2256
:108614000749022005F066FEC7E700BF5C3300206F
:1086240058330020C832002000B0004094F3030007
:108634007DF30300A8F3030000B583B002E00198C2
:1086440003F02EFD01A8FFF78FFF0028F7D003B039
:108654005DF804FB00B585B003901F4B1B6813F451
:10866400804F03D01D4B1B68032B1FDC1C4903A840
:10867400FFF77CFF0346A8B91A4BE02283F81623C0
:1086840093F816335B09012B20D9042B21D0164B08
:108694009B68B3B1144A136843F480031360FFF773
:1086A4006BFF0346184605B05DF804FB0F4BD3F887
:1086B40004350F4A009275220E49042005F012FE7B
:1086C400D4E7084B4FF480021A60E8E742F2020351
:1086D400E8E742F20203E5E75C3300205833002068
:1086E4006D89020000E100E00C69002000B0004048
:1086F400E4F303007DF3030008B5064B1B683BB1AC
:108704000EF04EFB002803DB024B1B689847F7E78B
:1087140008BD00BFAC39002010B50C46144B1860DE
:10872400144A0121144810F0E5FAA0B9610CE003E1
:1087340041F26F7200238B4208BF824210D24FF481
:108744007A72002315F004FE014600220B4810F053
:10875400E7FA38B910BD0A4A462110F015FBE5E7DF
:108764000521F2E7064A472110F00EFBF2E700BFAD
:10877400AC390020FD86020000F40300B03900206B
:1087840004F4030008B50D4B1B6873B14FF0A0420D
:10879400D2F804350A4909684B40C2F80435074A3F
:1087A4001368013B136023B108BD00200FF040FFA4
:1087B400ECE7044810F0D2FAF6E700BFD039002005
:1087C400D4390020D839002039B9012303FA00F044
:1087D4004FF0A043C3F808057047012303FA00F0E3
:1087E4004FF0A043C3F80C05704721B94FF0A043E4
:1087F400C3F8080570474FF0A043C3F80C05704751
:1088040012B11346132900D8704770B5114A10608D
:108814005B00013B104A136000264D0CCC034FF45F
:108824007A72002314F5FA7045F1000115F090FDF9
:1088340032460146094810F073FA48B94FF0A04295
:10884400D2F804350349096823EA0103C2F8043560
:1088540070BD00BFD4390020D0390020D8390020A1
:1088640008B511230BE04FF0A04103F5E07203209B
:1088740041F8220001229A40C1F808250133142B43
:10888400F1D9054A0121054810F034FA00B908BDB0
:108894000FF0CEFEFBE700BF8987020064F40300FB
:1088A400F0B1104A1060002309E00F4AD25C02F5CF
:1088B400E0724FF0A0410D4841F822000133032B30
:1088C400F3D90B4B4FF00042C3F804230020C3F844
:1088D4007C01084BE02283F8062340221A6070478B
:1088E4000E207047F839002068F403000C000300E0
:1088F4000060004000E100E010B50024144BC3F810
:108904007C410EE043F23333994208D9114BD3F83A
:108914000425114B1A60114B1B68204698470134FB
:10892400E4B2032C12D84FF0A043D3F810250C4B1B
:10893400195D01238B409343F1D0074B1B68054A13
:10894400D2F80425991ADDD5D11ADBE710BD00BF92
:108954000060004000B00040FC390020F8390020DD
:1089640068F403000620704700B587B041F20103A4
:10897400984245D020D944F20103984256D044F29B
:10898400020398426DD1454B1B6813F4804F1ED0EF
:10899400434B1B68002B1ADD424BD3F80435108877
:1089A40003905268029201913F4A00925F223F492C
:1089B400012005F097FC0AE0012852D1374B1B68CF
:1089C40013F4804F03D0364B1B68002B0BDC4FF0A5
:1089D400A0434FF4F012C3F81825C3F80C25EFF3A5
:1089E400108372B653E02F4BD3F8043502920191F1
:1089F4002F4A009254222D49012005F073FCE6E72A
:108A0400264B1B6813F4804FE1D0254B1B68002BC9
:108A1400DDDD244BD3F8043502920191254A0092FE
:108A240057222249012005F05DFCD0E71B4B1B684F
:108A340013F4804FCBD01A4B1B68002BC7DD194BA6
:108A4400D3F804351068049050680390029192683A
:108A54000192194A009269221449012005F042FC4E
:108A6400B5E70E4B1B6813F4804FB0D00C4B1B685A
:108A7400002BACDD0B4BD3F8043501910F4A009267
:108A84006D220A49012005F02DFCA0E730BF0C4BF4
:108A94001B78002BFAD107B05DF804FB5C3300208F
:108AA4005833002000B0004010F50300BDF403006B
:108AB400D0F40300ECF4030030F5030054F5030094
:108AC4000833002000B583B00023ADF80030054B17
:108AD40001936A46014644F20200FFF745FF03B0E2
:108AE4005DF804FB50E8030010B40346044C00682E
:108AF40059689A68DB680FC45DF8044B704700BF7F
:108B0400003A0020064B074A92E8030083E803007A
:108B14000833443292E8030083E80300704700BF3F
:108B2400003A00206000001000487047003A00201E
:108B3400002308E0074901EBC300002242804260A1
:108B440001F8332001331F2BF4D9034B00221A60A0
:108B5400704700BF103A0020103B002030B4054697
:108B64000F4B1B6800240AE01F230E4A12F833003F
:108B7400A0B102EBC3025288AA4207D001341F2CD1
:108B84000BD85A1E002BEFD01346EEE7054A02EB32
:108B9400C30252688A42F1D100E0002030BC704721
:108BA400103B0020103A002030B40A4A13680A4CE3
:108BB40004EBC30568806960012104F833100B4499
:108BC4001360202B01D030BC7047134600221A607A
:108BD400F9E700BF103B0020103A0020C0F30C035B
:108BE4008B4202D3C91A08447047C91A0844A0F535
:108BF40000507047C37D002B42D083780A7802F07E
:108C0400800203F07F0313430B7002780B7803F0A8
:108C14007F0343EAC2130B700378002B41D030B4B6
:108C24004378082B14BF002201224B7803F07F0302
:108C340043EAC2134B70858803F08003C5F386149E
:108C440023434B708A7802F0030242EA8502D2B2CF
:108C54008A70857902F0FC02C5F3C10422438A704C
:108C6400CB7803F01F0343EA4513DBB2CB70C27920
:108C740003F0E00302F01F021343CB7030BC7047D3
:108C840083780A7802F0BF029B0103F04003134388
:108C94000B70C27803F0C00302F03F0213430B7061
:108CA400B3E770470023032B22DC10B402E0013346
:108CB400032B19DC0F4C6C2202FB034292F8442074
:108CC400012AF4D16C2202FB0342948AC2899442A1
:108CD400EDD1084C6C2202FB034292888A42E6D111
:108CE4006C2202FB034000E000205DF8044B704757
:108CF40000207047883B0020002300E00133032B51
:108D040013DC0B496C2202FB031292F84420022A62
:108D1400F4D16C2202FB0312918A828A9142EDD132
:108D240003486C2202FB030070470020704700BF19
:108D3400883B002008B108207047042070470000D9
:108D440038B505460C46CB695B78C370CB691B7894
:108D540083F001038370CB694362087B022814D03B
:108D6400FFF7E8FF6870E27A32B9A18AC0F10F0315
:108D7400994201DC082831D0A18A0346C0F10F00D2
:108D8400814207DC42B3012205E0154B987DFFF7D1
:108D9400D1FFE7E701222A7062B1A28A13440B33A0
:108DA400104A82FB0312DB17C3EB6203013BEB7136
:108DB4000023AB710023EB7505F10C0294E803006A
:108DC40082E80300A2692A622289AA82A27AAA7589
:108DD400226AAA62184638BD0022DCE70720FAE7B7
:108DE400703B0020ABAAAA2A30B403460C4609788B
:108DF400817000214162A1680B2903D8217BF1B164
:108E0400012100E0012119700020587029B1A168E6
:108E14000731C9080139D97198710121D97503F154
:108E24000C0504F1100103C985E80300E189998266
:108E3400A1691962217F99759A6230BC704700213B
:108E4400E1E700000021164B1B688B4226D9002362
:108E5400144A02EBC10252689A421DD910B4114A55
:108E640052F8312002EBC30412F8332082420DD0B1
:108E740001330C4A02EBC10252689A42EFD8013125
:108E8400074B1B688B4205D90023F2E760685DF845
:108E9400044B70470020FAE70131D4E70020704703
:108EA400143B0020183B002070B58CB006460D46DC
:108EB40014462C22002101A815F0BFFB0E238DF8C7
:108EC4000430ADF808604FF0000365F300038DF83B
:108ED4000A308DF80B4001A801F0B0F90CB070BD58
:108EE40030B58DB005460C462C22002101A815F0A2
:108EF400A4FB0F238DF8043002958DF80C4001A8D3
:108F040001F09CF90DB030BD00B58DB048B913F136
:108F1400020F06D001228DF80420029301A801F06B
:108F24008DF9034B186804F05DF90DB05DF804FB8E
:108F3400243B00202DE9F041054688460378BBB167
:108F44000D4B1C68621C1A6004F00704AB8A0B4FBB
:108F540007EBC4067380A988A869FFF73FFE706019
:108F6400EB6903F00103737007F83480BDE8F08106
:108F74007846FFF7A7FDE3E76C3B00202C3B00207D
:108F840070B5064603784BB1B58A347F04F001040A
:108F9400B188B069FFF722FE002304E07846FFF7AA
:108FA40091FDF1E70133072B15D80C4A02EBC302FC
:108FB40052688242F6D1094A02EBC3025288AA429D
:108FC400F0D1064A02EBC3025278A242EAD1034826
:108FD40000EBC30000E0002070BD00BF2C3B00206C
:108FE400F0B40D684C688F68CE68D5601461576121
:108FF40096610D694C69D56114620378DB091370BD
:10900400D17DF9B1037803F07F039370002353708B
:1090140013789BB143789B0103F4FE53817843EAB0
:10902400910393808378DB0003F01803C17843EA4B
:1090340051139371C37803F01F03D3710023536258
:10904400F0BC70470178C1F380119170017801F090
:109054003F01D17043B190F90130002B02DB0423AE
:109064005370D5E70823FBE704235370D0E770B5AA
:109074000C461E4603788BB104252A44A26000F1F5
:109084000C032360836A6360204604F051FC0246AB
:1090940010B923691D443560104670BD0125ECE705
:1090A4002DE9F0418EB00D4616461C468046002838
:1090B4002DD0002D2FD0002C31D0636A02330593BC
:1090C40004F10C00A378002B2DD00121627801AFAC
:1090D4003B46082A14BF0022012204F080F90697B7
:1090E400CDF81C80B2B2ADF820200B9515440C9538
:1090F40063788DF83430237B022B16D00023ADF82F
:10910400283005A804F063F90EB0BDE8F081784674
:10911400FFF7D8FCCDE77846FFF7D4FCCBE77846D9
:10912400FFF7D0FCC9E70221D0E723692BB12369FB
:1091340009931023ADF82830E3E77846FFF7C2FC23
:10914400F5E72DE9F04186B004460D46C37D002BBA
:109154003ED0082605FB06F8E379AB423AD0A57168
:109164006B46324601A92046FFF781FF074648BBFC
:109174004DB994F84F3033B9A369C3F30C03A380FA
:10918400012384F84F30E37D7BB994F84E3063B902
:109194002DBBB4F84610627823468A1AA16E08469D
:1091A400FFF77EFF012384F84E3005992046FFF730
:1091B40021FDA16E32464144009815F015FA01A82C
:1091C40004F0D0FBB7FA87F0400906B0BDE8F0819F
:1091D4000C26BFE7B4F84660A6EB0806BFE778465E
:1091E400FFF770FCD5E770B5054690F84C400026B3
:1091F40005E00136631C85F84C300134E4B2EB79A8
:10920400A3420AD3AA6C0123A3401A42F5D12146F2
:109214002846FFF796FF0028EBD1304670BDF0B525
:1092240087B045781544C37DDBB10B239D4221D81B
:1092340016460F4604466B462A4601A9FFF717FF58
:109244000546C0B905992046FFF7D4FCE37D53B128
:1092540032463946009815F0C7F901A804F082FB9C
:1092640009E00F23E2E72346324600993846FFF728
:1092740017FFF2E70925284607B0F0BD10B50446EC
:1092840090F84430012B0ED1237B012B0FD00C4BD3
:10929400DB68A36303F0ACFAA16B014404F12C0076
:1092A40003F00AFA10BD7846FFF70CFCECE7A37D47
:1092B400034AD168126902FB0313A363EAE700BF00
:1092C400703B002038B5002400E00134032C13D88F
:1092D4000A4A6C2303FB042393F84430012BF4D192
:1092E4006C2505FB04252846FFF77DFF0028ECD0FC
:1092F4002846FFF7C3FFE8E738BD00BF883B0020DE
:1093040038B5044690F84430022B02D07846FFF773
:10931400D9FB054B1D6803F06BFA411904F12C00CD
:1093240003F0CAF938BD00BF703B002038B50446CD
:1093340090F84430022B02D07846FFF7C3FB084B69
:109344005D7D5A689B6803FB052503F051FA4119BA
:1093540004F14C0003F0B0F9012384F8643038BD03
:10936400703B002010B504460C4B1B68806E984778
:109374000023A36604F12C0003F06EF994F8443042
:10938400022B05D0002084F8440002F035FA10BD09
:1093940004F14C0003F060F9F4E700BF283B00201F
:1093A40010B504460121FFF7C5FD2046FFF7DAFF9B
:1093B40010BD10B58CB0044690F84430012B02D097
:1093C4007846FFF77FFB01238DF80430236D029369
:1093D40001A800F033FF2046FFF7C4FF0CB010BD16
:1093E4002DE9F04104460E4615461F46531EDBB2D6
:1093F400012B46D8A36E13B17846FFF763FB2E4BBF
:109404001B6838469847A066002852D03346224647
:1094140006F12001D3F80080D3F804E0D3F808C0A3
:10942400D868C2F80080C2F804E0C2F808C0D0606E
:10943400103310328B42EDD1186859689B68106064
:10944400516093600023A364A4F84670B188B069A6
:10945400FFF7C4FBA061012D17D06FF00103A362D5
:10946400002384F86430154B6365E465144B63632F
:10947400E463012002F0C0F984F844500120BDE8FF
:10948400F0817846FFF71EFBB4E70E4B1B7D84F892
:109494004D30002384F84E3084F84F3084F84C303B
:1094A400B36A23656FF00103A362074B6363E4634C
:1094B400DFE70020E3E700BF203B00200FA002000D
:1094C400F5950200703B00200196020030B583B090
:1094D400C3790133C27D92B1082505FB03F582B13E
:1094E4004FF48073AB422AD21E4B1B6813F0040F57
:1094F40036D01D4B1B68002B06DC00242DE00C2508
:10950400EBE74FF4C073EDE7184BD3F8043501953E
:10951400174A00924FF417721649012004F0E2FE34
:1095240000241AE0144C6C2303FB02442B46022251
:1095340001462046FFF754FF78B900240DE00022CD
:10954400032A09DC0C4B6C2404FB023494F84430E9
:10955400002BE7D00132F3E70024204603B030BDEE
:109564000024FAE75C3300205833002000B00040A8
:10957400ECF50300DFF50300883B002030B585B02F
:109584000D460446A8B100212046FFF7D3FC294626
:10959400206DFFF7A5FC2046FFF7E4FE0F4B1B6888
:1095A40013F0040F03D00E4B1B68032B05DC05B02E
:1095B40030BD7846FFF786FAE5E70A4BD3F8043561
:1095C40094F8442002950192074A00924FF4D27213
:1095D4000649042004F086FEE9E700BF5C3300205E
:1095E4005833002000B0004070F50300DFF503009D
:1095F40008B508460021FFF7C1FF08BD10B50C46A9
:1096040091F84430012B09D194F84D307BB9237B78
:10961400012B07D02046FFF7CCFE10BD7846FFF79C
:1096240051FAF1E700212046FFF7A8FFF5E7013BD7
:1096340084F84D30002384F84C302046FFF7D3FDE6
:10964400EBE70000062900D0704770B582B00346EE
:109654000178890101F4FE5140789D78DC78240476
:1096640044EA05641D7944EA05245B791C4341EA14
:1096740090011046FFF716FB0546B8B1866C2643E9
:10968400866444B3037853B3EB795A1C01239340A3
:10969400013B9E4227D0002385F84C302846FFF733
:1096A400A2FD2846FFF7EAFD02B070BD104B1B680F
:1096B40013F0040FF8D00F4B1B68012BF4DD0E4B95
:1096C400D3F804350D4A009240F2B2420C4902200C
:1096D40004F008FEE8E70321FFF750FFE4E77846CB
:1096E400FFF7F0F9D0E72846FFF763FEDCE700BF99
:1096F4005C3300205833002000B0004000F6030023
:10970400DFF503002DE9F04389B080460F46144687
:109714001E4695780DB32846FFF794FB8146C8B1E1
:109724008DF80050236A0693A38AADF80E3004AB7B
:1097340004F10C0292E8030083E80300A37D8DF892
:109744001C30CDF80480029723788DF80C30314614
:109754006846C84709B0BDE8F083FFF773FFF9E72F
:1097640000B585B000238DF80F3098B10346084644
:1097740002330B600DF10F0103F02DFE9DF80F3045
:1097840043B10D4B1B6813F0040F03D00B4B1B6844
:10979400032B04DC9DF80F0005B05DF804FB084BB7
:1097A400D3F80435074A00924FF43972064904206D
:1097B40004F098FDEEE700BF5C330020583300202E
:1097C40000B0004040F60300DFF503002DE9F0434C
:1097D4008FB004460E4615461F46D0F818900378FD
:1097E40023B181884846FFF7F9F9A06104F10C0020
:1097F400A378002B3AD0012162780DF12808434662
:10980400082A14BF0022012203F0E9FDC4F81890CD
:10981400CDF8088003966378EA1A92B2ADF8102066
:109824003244089207978DF824300023ADF818309D
:10983400237B022B1CD0A3786BB3237B022B1BD07E
:109844002546002345F8243F2A46E178206A0BF098
:109854005DFC606A98B101A9FFF782FF00283AD144
:109864002A46E178206A0BF051FCF2E70221C3E7B3
:109874001023ADF81830DEE723690593E0E7237B76
:10988400022B2CD104F10C01E0890BF0EDFC002833
:10989400D3D1052020E000236362237B012B0DD06C
:1098A4002146002341F8243FA08A0BF04CFC01A977
:1098B400606AFFF755FFA0B100200DE004F1240118
:1098C400E0890BF040FC01A9606AFFF749FF00281A
:1098D400E6D0002000E000200FB0BDE8F0830520B2
:1098E400FAE70520F8E7000070B5F0B00D4614461D
:1098F4001E4610AB0A4601462046FFF767FFA0B19B
:109904001F4B1B6813F0040F37D01E4B1B68052B2D
:1099140033DD1D4BD3F804351C4A009240F221522A
:109924001B49062004F0DEFC27E003AB01228DF87E
:109934000C20A28AADF80E20002204928DF8142087
:1099440010AA06926278AD1AADF81C5008AA93E8E2
:10995400030082E803000AAB04F10C0292E803005E
:1099640083E80300A37D8DF83830236A0C93636A7F
:109974000D930F9605A800F061FC70B070BD00BF98
:109984005C3300205833002000B0004064F603002C
:10999400DFF5030010B5D47D14B9FFF7A5FF10BDA2
:1099A400FFF7B0FEFBE700002DE9F04385B004AFFC
:1099B40043781344C47D94B14FF480749C4273D3B0
:1099C400EFF3108C72B60024032C10DC3B4E6C2594
:1099D40005FB046595F8445025B10134F4E74FF4D0
:1099E400C074EBE735466C2606FB045400E0002403
:1099F400BCF1000F00D162B6002C5AD015460E46B9
:109A0400014601222046FFF7EBFC002853D02A46EA
:109A14003146A06E14F0E8FD294B1B6813F0040FC7
:109A24003AD0284B1B68032B36DD6D46B4F846E06C
:109A34004FEA4E030833DB08A5EBC3039D460DF143
:109A44001008C446002312E0A26ED25C4FEA121939
:109A540059001D48066816F809600CF8136002F0F6
:109A64000F0201310068825C0CF801200133734558
:109A7400EAD3002308F81E30144BD3F80435CDF88C
:109A84000880134A0192134A00924FF47C721249DF
:109A9400042004F027FCAD462046FFF7A4FB204633
:109AA400FFF7ECFB002000E009200437BD46BDE8C9
:109AB400F0830420F9E70420F7E700BF883B002087
:109AC4005C330020583300206033002000B0004095
:109AD40030F6030028E90300DFF5030070B50446FF
:109AE4000D461646808A02F033F901281AD1237BE9
:109AF400D3B1022B0BD094F91630002B16DB23784C
:109B040053B9324629462046FFF789FB0BE0236907
:109B1400002BF0D1102006E0324629462046FFF7FC
:109B240043FF00E0102070BD1020FCE70720FAE797
:109B340008B50549054800F04FF800B908BD784656
:109B4400FEF7C0FFFAE700BFB9E4030025E4030011
:109B540010B5FFF7EDFF4FF4D8720021134814F04D
:109B64006CFD05F04FFD0024114B1C604022214682
:109B7400104814F062FD104B104A1A60104A5A60E3
:109B84004CF250329A600F49D9601A6104221A7556
:109B94009C7508225A750C4803F004FB0B4B1860A3
:109BA4000B4B1C600B4805F033FE10BD883B0020B6
:109BB4006C3B00202C3B0020703B002080969800DA
:109BC400F049020020A10700C59D0200243B0020AB
:109BD400143B00200D8F020008B50346B0FA80F054
:109BE40040090A46B1FA81F14909884210D14BB1C2
:109BF400EFF3108072B608490B60084B1A6048B93D
:109C040062B606E0002AF3D1FFF792FF002000E0DD
:109C14000E2008BD0020FCE7203B0020283B00204C
:109C2400C0B110B58CB004460369B3B1C369B3B114
:109C34008369B3B1014601A8FFF782F8034610B166
:109C440018460CB010BDA28A216901A8FFF746FF8F
:109C54000346F5E70E23184670470E23F0E70E235C
:109C6400EEE70E23ECE7D0B110B58CB004464068A3
:109C7400B8B1A269BAB1207C022816D0B8B194F95F
:109C84000020002A15DB0A46214601A8FFF7ACF89C
:109C9400A268616801A8FFF721FF0CB010BD0E2077
:109CA40070470E20F9E70E20F7E71020F5E71020A3
:109CB400F3E70720F1E70000037B012B01D000202C
:109CC400704710B58AB000228388C3F386148DF8D8
:109CD40000409B008DF801300B0E8DF802300B0C08
:109CE4008DF803300B0A8DF804308DF80510062327
:109CF400049301238DF81830838AADF81A30079243
:109D04008DF80820CDF80CD0036A08938DF8142040
:109D1400C389ADF81630837D43B98DF824206FF0E4
:109D2400010102A8FFF79FFF0AB010BD024B5B7D43
:109D34008DF82430F3E700BF703B002038B50024D1
:109D44000BE01E4A6C2303FB0423DB795A1C01231A
:109D54009340013B9D4228D00134032C2CD8174A50
:109D64006C2303FB042393F84430022BF4D16C23BB
:109D740003FB042393F86430022BEDD16C2000FB29
:109D84000420816CFFF798FF0028E5D10B4A6C236F
:109D940003FB04F3D11881F864008D6CD35C002BB1
:109DA400CFD17846FEF78EFECBE7044B6C2000FB48
:109DB4000430FFF7F5FACFE738BD00BF883B002039
:109DC40008B5FFF77FFAFFF7B9FF012008BD0000CF
:109DD4002DE9F04182B007460E46144698461046D7
:109DE400FEF78AFF054620B1A28883889A4210D3E1
:109DF40012D82046FFF7C4F8B8B103784BB12378E2
:109E04007BB1E1794B1C0121994001392046FFF7D0
:109E140053FF02B0BDE8F0810521FFF7AFFB002539
:109E2400E7E77846FEF74EFEEBE7002D4FD0464BB2
:109E34001B6813F0040F03D0444B1B68032B55DC41
:109E44002846FFF75DFA2B7B012B5DD0AA6CA17924
:109E540001238B401A42DCD11343AB64A279EB7922
:109E64009A4259D0E37D002B61D00823B34260D1DC
:109E7400AB6EA079E27D002A60D0082432463946D0
:109E840004FB003014F0B0FBAC6C2B78002B57D0E3
:109E9400EB795A1C01239340013B9C42B9D1022324
:109EA40085F86430A96C2846FFF706FF044643464C
:109EB4002A46B5F84610A86EFFF76CFD002CA8D111
:109EC400002385F864302846FFF76AFAA1E72046A4
:109ED400FFF7FCFA05460028A9D100212046FFF728
:109EE400EBFE02210020FEF7FBFF92E7184BD3F8AC
:109EF4000435A2790192174A00924FF42872164948
:109F0400042004F0EFF99BE795F86430002B9DD111
:109F14002846FFF70BFA99E79BB2E27D2AB10822A3
:109F240003FB0263A5F84630A2E70C22F8E70C23F2
:109F34009CE704212846FFF721FB6AE70C249DE7F0
:109F44007846FEF7BFFDA3E75C33002058330020BA
:109F540000B0004054F60300DFF503002DE9F041A2
:109F64008EB000284DD00546002A4CD098461446A1
:109F74000F4600220C920D920CA960880BF074F924
:109F840020B9002630460EB0BDE8F081226902F007
:109F94000102E168208905F003FB08B10026F1E71E
:109FA400226902F00102E168208905F0C9FA064637
:109FB400C0B901AA21462846FFF712F804AB0EAA3D
:109FC40012E9030083E8030003F0AAF89DF80430C3
:109FD40083B1434601AA391F281DFFF7F9FE03F098
:109FE400BFF8CFE72169002201F001012089FEF7C3
:109FF4005BFFC7E7434601AA791E681CFFF7CAFC4A
:10A00400EDE70E26BEE70E26BCE710B50C4691F828
:10A014004430022B0BD1022384F86430A16C204617
:10A02400FFF74AFE10B9002384F8643010BD784667
:10A03400FEF748FDEFE70000002959D0A0F596701F
:10A04400072857D8DFE800F0040E1A25313D454DA6
:10A054004A68314B134431498B424DD8304B1A6016
:10A06400002070474A68A2F51233A3F5F8732D490E
:10A074008B4243D82A4B5A60002070474A68A2F5A5
:10A084004343503B28498B423AD8254B9A600020E1
:10A0940070474A68A2F54333A3F5A07323498B4262
:10A0A40030D81F4BDA60002070474A68A2F543336A
:10A0B400A3F5A0731D498B4226D8194B1A610020C1
:10A0C40070474B689A1EFD2A20D8154A1375002044
:10A0D40070474B685A1E7E2A1AD8114A53750020BD
:10A0E40070474B68012B15D80D4A937500207047B3
:10A0F4000E207047052070470720704707207047DF
:10A1040007207047072070470720704707207047D3
:10A114000720704707207047806967FF80778E06A5
:10A12400703B0020904C960030D3970040899500F6
:10A13400002934D000220A604A60A0F596700728EE
:10A144002FD8DFE800F004090E13181D2227164A41
:10A1540012684A6000207047134A52684A6000201F
:10A164007047114A92684A60002070470E4AD268CC
:10A174004A60002070470C4A12694A600020704708
:10A18400094A127D4A6000207047074A527D4A609E
:10A1940000207047044A927D4A60002070470E20D8
:10A1A40070470520704700BF703B0020F8B500B32E
:10A1B4000546164B1F68F7B90E463C46B4420ED20C
:10A1C40005EBC4035B68CBB115F8340010F0800FC5
:10A1D40016D1B8B1FEF736FEB0B90134EEE70C4B38
:10A1E40043F8375003EBC7035E607B1C074A1360D8
:10A1F40002E00E2700E004273846F8BD0E27FBE7EF
:10A204000B27F9E70F27F7E70F27F5E7143B0020A3
:10A21400183B0020084B196861B110B501E02146D4
:10A224003CB10C680B79002BF9D0034803F0C3FF51
:10A23400F5E710BD704700BF3C3D002038B505462A
:10A2440030B1104B1C68ACB10F4B01221A7004E002
:10A254007846FEF737FCF4E724683CB12379002BF9
:10A26400FAD154F8043C28469847F5E7064B1B7886
:10A27400022B00D038BDFFF7CDFF034B00221A702C
:10A28400F8E700BF3C3D0020383D002010B50446EF
:10A2940030B100232372211D034803F061FF10BD78
:10A2A4007846FEF70FFCF4E73C3D002010B5044669
:10A2B40050B10A4B1B78013BDBB2012B08D9211D9D
:10A2C400074803F078FF10BD7846FEF7FBFBF0E784
:10A2D400024B02221A7001232372F4E7383D002056
:10A2E4003C3D00200A8883689B5A07339BB223F0C5
:10A2F400030313449BB20288043A934200D9002317
:10A304000B80704710B582B004468368CB1A02A94B
:10A3140021F8023DFFF7E6FFBDF80630A0681844B7
:10A3240002B010BD0088043880B270474388826848
:10A33400D018D15201238370704782680023937030
:10A34400438083807047073189B221F0030189B2C9
:10A35400428883889A4204D29B1A99421CDC0020CA
:10A36400704710B59A420FD90488A41AA14215D98E
:10A374008B4215D3032C03D98368134404229A70A7
:10A3840000234380184606E0826813449B784BB947
:10A39400FFF7D3FF002010BD042070470020FAE728
:10A3A4000420F8E70420F6E738B504460D46836830
:10A3B400828813448B4202D07846FEF783FB002345
:10A3C400AB70211D2046FFF78DFFA288A3681344BC
:10A3D4009B78042B00D038BD0023A380FBE710B585
:10A3E4000C468368428813448B4202D07846FEF7B9
:10A3F40069FB0023A37010BD70B5064615460C46D4
:10A40400002944D0002E46D0B4F1005F08D94FF0A3
:10A414008053D3F80C3103F50023B4EB832F0ED310
:10A42400B4F5000F08D94FF08053D3F80C3103F57D
:10A434000053B4EB832F02D37846FEF743FB6B1E25
:10A444002344B3F1005F08D94FF08052D2F80C21B5
:10A4540002F50022B3EB822F0ED3B3F5000F08D917
:10A464004FF08052D2F80C2102F50052B3EB822F48
:10A4740002D37846FEF726FB042D10D9358000233D
:10A484007380B380B460043D2580A37070BD7846AA
:10A49400FEF718FBB6E77846FEF714FBB4E77846F8
:10A4A400FEF710FBEAE738B50446A0B16288A3685A
:10A4B40013449B78012B12D0A388A1681944EFF3AD
:10A4C400108572B68B78032B0DD02046FFF735FF2D
:10A4D40005B962B638BD7846FEF7F4FAE6E7784681
:10A4E400FEF7F0FAE8E72046FFF70CFFA368C31A6B
:10A4F400638000238370EBE7F8B50E4615460446E7
:10A50400C0B1DEB16288A36813449B78012B19D0D3
:10A51400E5B12046FFF706FFA84219D32946204695
:10A52400FFF711FF0746A0B929462046FFF7FEFEB4
:10A5340030600EE07846FEF7C5FAE2E77846FEF7AB
:10A54400C1FADFE77846FEF7BDFAE1E7092700E044
:10A5540009273846F8BD70B50C4616460546B8B10D
:10A56400D4B1A378012B1BD12388B3421CD3FEB1F1
:10A5740026800223A370E9182846FFF7B3FE6A88F1
:10A58400AB889A4203D0AB68134400229A7070BD22
:10A594007846FEF797FAE3E77846FEF793FAE0E7A2
:10A5A4007846FEF78FFADFE77846FEF78BFADEE7A8
:10A5B4007846FEF787FADBE738B50D46044650B116
:10A5C4006DB1A288A36813449A78022A0BD0032A97
:10A5D4000ED005200BE07846FEF774FAF0E77846D3
:10A5E400FEF770FAEDE703229A702B60002038BD65
:10A5F4007846FEF767FA0020F9E710B5044640B143
:10A60400A288A36813449878022814BF002001206C
:10A6140010BD7846FEF756FAF2E710B5044618B1B5
:10A62400A088A168014407E07846FEF74BFAF7E7F3
:10A634002046FFF767FE014688780328F8D00228F1
:10A6440014BF0020012010BD38B50C46054650B19A
:10A654006CB1A378012B0ED0032B11D121462846CF
:10A66400FFF7A2FE38BD7846FEF72CFAF0E77846ED
:10A67400FEF728FAEDE721462846FFF7B0FEF1E79A
:10A684007846FEF71FFAEDE708B5064B98680022F6
:10A694001A605A609A60DA601A615A619A6104F029
:10A6A400A5FD08BD403D002000B585B00A4BDB6820
:10A6B40002228DF8002001934FF480530293074A3D
:10A6C4006946012001F0A8FA18B1002005B05DF830
:10A6D40004FB0120FAE700BF403D00205C3D002060
:10A6E40000B585B00A4B1B6802228DF80020019347
:10A6F4004FF480530293074A6946012001F08CFA13
:10A7040018B1002005B05DF804FB0120FAE700BF92
:10A71400603D00205C3D0020164BDA6813795179C6
:10A724005B1A03F57F2303F6FF7302EB03339A42AC
:10A7340005D002F580520F4BDA600320704700B554
:10A7440085B00D4B1B6801208DF8000001930B4B65
:10A754000393042302930A4A694601F05DFA18B18F
:10A76400002005B05DF804FB024B01221A7602209A
:10A77400F7E700BF403D0020603D0020643D00201D
:10A784005C3D002000B585B00C4BDA680C4B1B68AF
:10A79400043301208DF800000192039340F6FC730A
:10A7A4000293084A694601F037FA28B90120034B9D
:10A7B400187605B05DF804FB0020FAE7403D002060
:10A7C400603D00205C3D002000B585B00A4B1B684D
:10A7D40001208DF800000193084B03930423029396
:10A7E400074A694601F018FA18B1002005B05DF86F
:10A7F40004FB0120FAE700BF603D00204C3D00202F
:10A804005C3D002010B584B0114BDA681478114B0C
:10A814001B68043301208DF8000001930392029415
:10A824000D4A694601F0F8F980B90A4B1B6804F037
:10A83400FC041C440434064B5C61D9680A780A445D
:10A844001A6100225A76012004B010BD0020FBE7F3
:10A85400403D0020603D00205C3D002008B5002301
:10A86400092B09D8064A52F82320824201D0013329
:10A87400F6E7044A536002E07846FEF723F908BD80
:10A8840090F60300403D002010B5214BDB6853B126
:10A894001F4B1B7E5BB91E4B5B68092B15D9784691
:10A8A400FEF710F911E07846FEF70CF9F0E7784668
:10A8B400FEF708F9EFE7164B00225A60012C01D08D
:10A8C400032C23D1124B1B7E03BB114B5A68114B33
:10A8D40053F822309847044602280DD00328EAD0C2
:10A8E4000128EBD10A4A536801335360092BE5D997
:10A8F4007846FEF7E7F8E1E7054B1B7E1BB1044BF6
:10A9040002221A70DAE7FFF7BFFED7E710BD00BFD7
:10A91400403D002090F60300104B1B681B685A1E34
:10A9240012F1030F18D8C3F30B020AB100207047C9
:10A9340010B50B4AD36000231376537601241470A8
:10A9440093600848FFF78AFF0749204601F052F94F
:10A95400FFF79AFF204610BD00207047603D00209D
:10A96400403D0020ADA6020071A9020008B50B7895
:10A97400032B06D00B4B1B78012B06D0022B0BD0DC
:10A9840008BD084B00221A76F4E7064B1B7E002B09
:10A99400F6D1FFF779FFF3E70B78032BF0D1FFF73C
:10A9A40073FEEDE7403D002000B585B0174BDB6832
:10A9B40018784FF6FF7203F58051184404F0DEFE58
:10A9C400F0B10246114BD9680B780B44984219D068
:10A9D4000E4B5B7E93B10E4B01208DF8000001926B
:10A9E4000393042302930B4A694601F015F958B9FD
:10A9F4000120064B187605B05DF804FB064BEBE727
:10AA04000120F8E70120F6E70020F4E7403D0020AC
:10AA1400DCF803005C3D0020D8F8030008B5104BB7
:10AA2400DB681878002203F58051184404F0A6FE70
:10AA340008B1012008BD0A4BDA68137951795B1A11
:10AA440003F57F2303F6FF7302EB03339A4205D029
:10AA540002F58052024BDA600320EBE70220E9E7BB
:10AA6400403D0020F0B585B0524BDE6872793379F1
:10AA7400591E8A4200F0968006F580510D780D44E7
:10AA84004D490968081D0F7907449B1A03F57F2374
:10AA940003F6FF731B0303F580531E446B88013BCD
:10AAA4009BB247F6FE6293425CD92C4616E0784688
:10AAB400FEF708F815E024F47F6424F00F0404F58D
:10AAC400805423781C44A64247D9A54247D26388C0
:10AAD400013B9BB247F6FE62934211D92388002BB7
:10AAE400E5D0238804EB830323F47F6222F00F0272
:10AAF4009342E0D06288B2F5FE4FDCD01C46E2E718
:10AB040025462FE07846FDF7DDFF15E024F47F6449
:10AB140024F00F0404F5805423781C44A64220D961
:10AB2400A5423BD26388013B9BB247F6FE62934247
:10AB340011D92388002BE5D0238804EB830323F465
:10AB44007F6222F00F029342E0D06288B2F5FE4F9A
:10AB5400DCD01C46E2E7254604E0002502E000259F
:10AB640000E00025E5B1144B19686A8801F58051AD
:10AB7400384604F003FE0746B8B101200D4B1876A1
:10AB84008DF8000001950D4B0393042302930C4AA6
:10AB9400694601F041F850B92C46CAE70025E1E7BF
:10ABA400012000E0012005B0F0BD0120FBE70020FA
:10ABB400F9E700BF403D0020603D0020D4F80300C9
:10ABC4005C3D00202DE9F04186B06A4B1B692BB136
:10ABD400684B5B6933B14FF0000848E07846FDF7F5
:10ABE40071FFF5E77846FDF76DFFF4E77846FDF76A
:10ABF40069FF15E025F47F6525F00F0505F58055FF
:10AC04002B781D44AE421CD9AC421ED26B88013B4A
:10AC14009BB247F6FE62934211D92B88002BE5D0F4
:10AC24002B8805EB830323F47F6222F00F02934207
:10AC3400E0D06A88B2F5FE4FDCD01D46E2E72C4630
:10AC440000E000241CB1009445E00024FAE700234E
:10AC54000093019B002B68D14FF0010824B1628856
:10AC640047F6FF739A4202D1424B01225A76414B76
:10AC74005B7E002B7AD1B8F1000F75D13D4B5A6938
:10AC840022F47F6727F00F07BF1A07F580571C6966
:10AC9400DE68337972799B1A03F57F2303F6FF7319
:10ACA4001B0303F580531E44002301936388013B77
:10ACB4009BB247F6FE629342C5D92546ADE7784676
:10ACC400FDF700FF22E024F47F6424F00F0404F570
:10ACD400805423781C44A642BBD92388019A02EBF2
:10ACE40083029742B5D9009B634023F47F6323F02A
:10ACF4000F03002BADD16388013B9BB247F6FE6185
:10AD04008B42A6D801922388002BD8D0238804EB49
:10AD1400830323F47F6222F00F029342D3D062882C
:10AD2400B2F5FE4FCFD01C46D5E7124A5269012036
:10AD34008DF808000392009A059204930E4A02A922
:10AD440000F06AFF70B90B49019B23F003024B69C1
:10AD540013444B6114B1074B1C617FE77846FDF740
:10AD6400B1FEF8E7002002E0012000E0012006B077
:10AD7400BDE8F081403D00205C3D002008B54FF067
:10AD840010235B69B3F1FF3F03D04FF010235B69DD
:10AD940063B94FF080525169136903FB01F3A3F5C2
:10ADA4008053054A1360FFF7B7FD08BD4FF0102329
:10ADB4005B69A3F58053F2E7603D0020024B1878ED
:10ADC400003018BF01207047403D002010B50446F4
:10ADD4000E4B1B78ABB92378032B02D07846FDF7D2
:10ADE40071FE0A4B9C60E268DA6000225A601A76AF
:10ADF400012018705A76064900F0FCFEFFF744FD66
:10AE040010BD7846FDF75EFEE5E700BF403D00203B
:10AE140071A90200014B1868704700BF603D002013
:10AE240010B5044680B163681BB123680BB1A368F5
:10AE340013B97846FDF746FEA3685A1E134207D19C
:10AE44000023E360236110BD7846FDF73BFEEAE78B
:10AE54007846FDF737FEF3E7F8B5F8B10446F9B1E3
:10AE64008268FAB1EFF3108572B602698068024411
:10AE7400E668B24203D1C5B962B6042513E0276877
:10AE84006368013830401A4600FB037013F0ACFBD2
:10AE9400E3680133E36055B962B604E00E2502E0CD
:10AEA4000E2500E009252846F8BD0425FBE700250A
:10AEB400F9E770B5F0B104468268EAB1EFF31085A2
:10AEC40072B60669C268964210D008462168626864
:10AED400A368013B1E4006FB021108B113F084FB7A
:10AEE40023690133236165B962B606E03DB962B6F0
:10AEF400052502E00E2500E00925284670BD05253C
:10AF0400FBE70025F9E70000C0F30B0333BB39B3BB
:10AF140001F6FF71090B134B0222C3F80425114BF0
:10AF2400D3F80034002BFAD000220AE00D4BC3F80A
:10AF340008050C4BD3F80034002BFAD000F58050F0
:10AF440001328A42F2D3074B0022C3F80425054B91
:10AF5400D3F80034002BFAD000207047102070473B
:10AF64000920704700E0014010F0030F2FD111F0C9
:10AF7400030F2FD182B312F0030F2FD110B4920814
:10AF8400174B0124C3F80445154BD3F80034002BA8
:10AF9400FAD002E0043004312246541E52B10B6848
:10AFA400B3F1FF3FF6D003600D4BD3F80034002B10
:10AFB400FAD0EFE70A4B0021C3F80415084BD3F885
:10AFC4000034002BFAD010465DF8044B7047102271
:10AFD400104670471022FBE70922F9E70922F7E738
:10AFE40000E00140064B1B68834202D1002304E0C9
:10AFF400134613B15A688242FAD11846704700BF0B
:10B00400684D00200388033189B221F0030189B21D
:10B014008B4220D0024620D3581A08281FD930B4B6
:10B02400EFF3108072B6118001F108055419591A12
:10B0340089B20839515300236380538833B9536864
:10B044006360546068B962B630BC7047064B1A68D6
:10B0540062601C60F6E700207047072070470720F5
:10B0640070470020F0E700BF684D002001800023F6
:10B07400438042607047000038B50A4B1B68834226
:10B0840007D00446FFF7AEFF054630B163686B6036
:10B0940038BD5A68034B1A60FAE77846FDF712FD8B
:10B0A400F4E700BF684D002038B5124C4FF48055CA
:10B0B4002A460021204613F0C0FA0F4B1C600AE018
:10B0C400002228212046FFF7D1FF23880833234498
:10B0D4006360303D1C46502DF2D8083D05D0002257
:10B0E400A9B22046FFF7C2FF38BD7846FDF7EAFC57
:10B0F400F5E700BF683D0020684D00202DE9F843C6
:10B10400CE1CB6B226F00306B6B2731E9BB2B3F5DC
:10B11400BE7F7CD2EFF3108972B6414B1C6814B128
:10B124008046002726E0B9F1000F74D162B60423EB
:10B134006EE02846FFF7A0FF394B1B689C4212D0F3
:10B14400BD4206D02B882288134408332380012370
:10B154000CE02046FFF746FF07460028F2D1784668
:10B16400FDF7B0FCEEE70027ECE700230BB9274618
:10B1740064686CB12388B3420AD21D46083525445D
:10B18400284B9D42F1D26B88002BD2D00023EDE7EF
:10B1940004B32388244AA2FB0323013E234A82FBEF
:10B1A4000612F617C6EB22160136B6EB531F17D359
:10B1B400012363801FB363687B60B9F1000F00D182
:10B1C40062B6174B1B68A3421DD00834C8F8004070
:10B1D40000231DE0B9F1000F1FD162B6042317E06C
:10B1E40006EB8606F10089B22046FFF70BFF034603
:10B1F4000028DDD0B9F1000F0AD162B608E0626818
:10B20400074B1A60D9E77846FDF75CFCDDE70923B4
:10B214001846BDE8F8830423FAE70423F8E700BFDF
:10B22400684D0020684D0020CDCCCCCC67666666A6
:10B2340070B50446164B984205D203F580539842E4
:10B244001CD2012300E00123D3B1A4F10806EFF3DB
:10B25400108572B634F8063C012B15D1002124F870
:10B26400061C34F8082C204613F0E7F9094B1A6839
:10B2740044F8042C1E6005B962B670BD0023E3E7F0
:10B284007846FDF71FFCE0E77846FDF71BFCE5E791
:10B29400683D0020684D002008B5082202210848B6
:10B2A40003F025FE38B1074A91684160127B0272AF
:10B2B40003F056FE08BD044803F070FFFAE700BF30
:10B2C400704D0020B84D00201C3300200E4B1B781D
:10B2D400CBB910B50D4B5C6804F50054B4F1807F14
:10B2E40000D910BD04220121094803F000FE30B149
:10B2F4004460054A0121117003F032FEF1E705486C
:10B3040003F04CFFEDE77047CC4D0020B84D002012
:10B31400704D00200C33002010B5044608B1A0473E
:10B3240010BD7846FDF7CEFBF9E7000008B5012112
:10B334000B4803F03DFE20B90221094803F038FE12
:10B3440028B1084803F02AFFFFF7C0FF08BD064BE9
:10B3540000221A605A609A60DA601A61F4E700BF4A
:10B36400704D00203C330020B84D002000B58DB056
:10B3740004918DF8082003900CA8022300F82C3DBA
:10B38400FEF75CFF0DB05DF804FB000010B58CB057
:10B394000C4682B94B88012B20D1134B1B7833B157
:10B3A4006268124B5A60104B00221A7016E07846FD
:10B3B400FDF788FBF4E7032A12D12C22002101A80F
:10B3C40013F03BF910238DF804300394084BDA682A
:10B3D40005921B69069301A8FEF730FF0CB010BD5F
:10B3E4007846FDF76FFBE8E7CC4D0020B84D002010
:10B3F400704D002038B503F0E9FE28B901F05AFF7A
:10B404000028F8D020BFF6E701F08AFE002211469A
:10B414001A4803F0C6FC00252C4605E0051D02462B
:10B424000021164803F0BDFC30B14388012BF5D050
:10B43400022BF4D1041DF2E7A4B19DB12268104B94
:10B444009A6022791A73AC4201D9237993B12A689C
:10B454000B4B1A600A4B1A685A60FFF737FF01F06A
:10B464007FFE38BD064B00221A609A601A73FFF7FC
:10B4740013FFEFE7024B00221A60EBE7704D002048
:10B48400B84D002008B503F0E3FEA0F5805008BDD8
:10B4940000B587B0002300930193029303930493B0
:10B4A4000593FFF7EFFF009001230193064B0393ED
:10B4B4006946064803F02CFE10B907B05DF804FB9A
:10B4C400034803F06BFEF8E791B30200704D0020CF
:10B4D4002C33002038B50F4B00241C605C609C604A
:10B4E400DC601C6101F084F90B4D68600B4BAB60B0
:10B4F4000B4BEB602C616C610A4B1C700A480B4BC4
:10B50400036000F0C9FD284601F074F8FFF7C0FF9E
:10B5140038BD00BFB84D0020944D0020FDB6020098
:10B5240000879303CD4D0020AC4D0020D1B602001E
:10B5340038B501F0F5FD174B1B7B13BB154B9B7BFB
:10B5440023BB144B1A8A41F282639A4204D8124BE9
:10B554001B78A3B1012300E00123CBB10D4D0123DE
:10B564002B7300242C82AB680133AB60FFF794FE8D
:10B57400A9682A7B01392046FFF7F8FE02E0002380
:10B58400EBE7082401F0ECFD204638BD0824F9E778
:10B594000824F7E7B84D0020CD4D002010B501F088
:10B5A400BFFD214B5B7B9BB11F4B9B7BF3B91E4BB8
:10B5B4001A8A41F282639A4204D81C4B1B782BB13D
:10B5C400012300E001239BB1012302E00023FAE7F9
:10B5D40000231C461BB3144B00225A731B7B4BB134
:10B5E400012B0ED07846FDF76DFA18E00023F0E742
:10B5F4000023EEE7FFF79CFF88B17846FDF762FA77
:10B604000DE0094B00201860586018731882024638
:10B614009968FFF7ABFEFFF73FFEFFF757FE01F017
:10B624009FFD204610BD00BFB84D0020CD4D002029
:10B6340038B5254B1B7B002B36D10446224B5B8A45
:10B6440033BB1AB9204B9B688B4205D302B31E4B04
:10B654009B6801338B421BD21B4B9B682A338B4262
:10B6640024D3194B9B7B0BBB174DA9602B606B60DC
:10B674002B8242F606526A826B732B73FFF70CFE21
:10B68400FFF724FE2A7BA9682046FFF76FFE0DE032
:10B6940062B10D4B9B6801338B4207D10A4B0122E7
:10B6A4005A73FFF77BFF01E0012B00D038BD002A5D
:10B6B400FCD1054B9B688B42F8D1034B01225A7392
:10B6C400FFF76CFFF2E700BFB84D00200378042BAE
:10B6D40000D0704743681B78002BFAD010B58468FB
:10B6E400027E437E012A14BF00220122416904F133
:10B6F4001000FFF79DFF10BD08B5214B1B7B7BB1EC
:10B70400012B20D07846FDF7DDF91D4A138A013359
:10B7140013821B4B5B8A13B1013B194A538208BD48
:10B72400174B1A8A41F282639A4204D8154B1B784C
:10B734003BB1012300E00123002BE6D0FFF72EFFED
:10B74400E7E70023F8E70E4B1B8A41F2826293423B
:10B7540004D80C4A127872B1012200E00122002AB6
:10B76400D3D042F2B012934207D9054B01225A7347
:10B77400FFF714FFCDE70022F1E7FFF70FFFC4E75F
:10B78400B84D0020CD4D002010B5184B1A685B68E9
:10B794009A4225D20446154B1B7B012B13D0144B24
:10B7A4009A4212D2114B1A685B68403B9A4214D2F7
:10B7B400EFF3108072B60D4A1368591C11602360B0
:10B7C40090B962B610BD0B4BEAE7084B01225A73DD
:10B7D400FFF7E4FE0028EBD1E4E7FFF777FDE7E7A6
:10B7E400FFF774FD0F20EDE70020EBE7B84D0020D4
:10B7F400FFFF7F0000E0FF0008B568B90C4B1B6831
:10B8040093B10B4A1368013B136063B9094B0022DF
:10B814009A73FFF7C3FE06E0064B01229A73044AAB
:10B8240013680133136008BD7846FDF74BF9E8E768
:10B834006C4D0020B84D002000B58DB0ADF8080067
:10B844008DF8102003910CA8032300F82C3DFEF77B
:10B85400F5FC0DB05DF804FB014B9868704700BF20
:10B86400B84D0020054B1B7B012B02D0034B98687D
:10B874007047024B98680138704700BFB84D0020EC
:10B88400044B9B68584010F0010F00D0013B184650
:10B89400704700BFB84D0020014B187B704700BFB4
:10B8A400B84D00202DE9F041002724E02449BC23B1
:10B8B40003FB04F3CA5A0132CA520221284602F099
:10B8C40051FB01360221284602F01CFB80B11C4AC0
:10B8D400BC2303FB0423D3F80880B8F1000FE5D0A0
:10B8E400BC2303FB04F3D25A01463846C047DDE7C4
:10B8F4008EB90137FFB2022F1FD83C46BC2303FB8D
:10B9040007F308330E4D1D4404350221284602F086
:10B91400F9FA0026DAE70021284602F08BFB082812
:10B92400E7D1074BBC2202FB0434A368002BE0D010
:10B934000022044938469847DBE70120BDE8F0813E
:10B94400D84D0020B8F6030008B5082383731023EC
:10B95400437300F11C0343610323037300F11803D1
:10B9640003610C3002F038FB08BD000008B5037811
:10B97400012B06D0022B07D07846FDF7A3F8002050
:10B9840001E04FF4A97008BD0048FCE7645E0100C3
:10B9940008B50278012A07D0022A13D07846FDF7A9
:10B9A40091F84FF4FA7308E083685B1A98084FF42F
:10B9B400A97303FB00F303F5FA730748984228BF01
:10B9C400184608BD83685B1A180B044B03FB00F38D
:10B9D40003F5FA73F1E700BFA0860100645E01007D
:10B9E40010B5044601210C3002F08CFAA0B10D4AC6
:10B9F400C4F89C200022C4F8A0206168FFF7C8FFA7
:10BA0400C4F8A800C4F8AC40012384F8B83004F1A9
:10BA14009C000AF061F900B910BD7846FDF752F8B0
:10BA2400FAE700BF29BB0200F8B506460C461746E4
:10BA340015680378012B18D11249A1FB0431C909F7
:10BA44008900B468641B8C4200D30C468CB17068C6
:10BA540025F00305F168224629442844FFF784FAB7
:10BA640058B93B681C443C60F8BD7846FDF72AF899
:10BA7400E2E77846FDF726F8E9E77846FDF722F88D
:10BA8400EFE700BFEB5DF260F8B507460C461646DB
:10BA940015680378022B16D1114BA3FB04231B0C4E
:10BAA4001B03BC68641B9C4200D31C467CB17868B1
:10BAB40025F0030521462844FFF726FA58B93368D0
:10BAC4001C443460F8BD7846FCF7FCFFE4E7784694
